:400000000080002011000000410600004106000080B500AF024A034B1B68136000F01AFBBC760040FA46004010B5054C237833B9044B13B10448AFF300800123237010BD74
:40004000A881FF1F00000000E4340000084B10B51BB108490848AFF300800848036803B910BD074B002BFBD0BDE81040184700BF00000000AC81FF1FE4340000C880FF1F12
:400080000000000080B400AF034B01221A7000BFBD4680BC704700BFFE81FF1FB0B592B000AF62B602F044FC02F006FD3D4803F03FF800F0D7FB02F0E7FD02F059FE00200C
:4000C00002F0FAFD002002F06BFE0121002000F00DFC354B1B78002BFBD0334B00221A7000F092F8034687F84730304B1B7897F847209A42EDD097F84730062B3FD801A2E7
:4001000052F823F031010000430100005D0100007F0100007F010000210100006F0100003B1D234A1C4613460FCB07C423802FE03B1D204A1C4615460FCD0FC42B682380C1
:4001400026E03B1D1C4A1C4615460FCD0FC42B681A46228002341B0C237019E03B1D174A1C4615460FCD0FC42B68236010E03B1D134A1C4613460FCB07C4238008E03B1DAE
:40018000104A1C4615460FCD0FC42B68237000BF3B1D184600F018F8044A97F84730137097E700BF85000000FE81FF1F1181FF1FE8340000F83400000C350000203500001A
:4001C000343500004435000080B582B000AF786000BF00F0A1FE0346002BFAD07B683F3300221A707B683E3321221A70786803F070F903469BB21946786800F057FE00BF6C
:400200000837BD4680BD00BF80B582B000AF02F0DDFF0346FB7103F009F80346BB7102F0E5FF03467B7102F0F1FF03463B71002003F00AF8002003F025F8002003F040F80C
:40024000002003F05BF8002003F074F8002003F08FF8BB79002B04D1012003F013F8012316E0FB79002B04D1012003F047F802230EE03B79002B02D07B79002B07D10120EF
:4002800002F0E2FF012003F073F8002300E0002318460837BD4680BD80B582B000AF786039603A680021786803F00BF900BF0837BD4680BD80B584B000AFF860B9607A6027
:4002C0007A68B968F86803F0F1F800BF1037BD4680BD00BF80B483B000AF0346FB71FEE780B487B000AF7860396000233B6100237B6127E07B699B007A6813441B68BB6064
:40030000BB68FB73BB6823F0FF03BB6014E03B695B003A6813441B781A46BB68134419463B695B003A6813445B780B703B6901333B61FB7B013BFB73FB7B002BE7D17B690A
:4003400001337B617B69272BD4D900BF1C37BD4680BC704780B582B000AF394B04221A80384B18221A70384B17221A80374B19221A70374B3B221A80364B18221A70364B05
:4003800081221A80354B18221A70354B06221A70344B52221A70344B344A1278D2B21A70334B40F619121A80324B41F251221A800023FB7019237B6014E0FB785B00DAB24F
:4003C0002D4B1B78DBB203F00103DBB21343DBB203F00303FB704FF4F07002F0E9FF7B68013B7B607B68002B02D0FB78032BE4D17B68002B02D10320FFF76CFF1F4B4FF4DB
:4004000080721A801D4B07221A701D4B00221A701C4B48221A70194B00221A701A4B00221A701A4B02221A70194A194B1B78DBB243F00F03DBB2137000BF0837BD4680BDF8
:4004400080400040824000408440004086400040884000408A4000408C4000408E4000400043004000420040A14600400F010049224200402042004025420040044000404E
:4004800006400040084000400940004001400040A243004080B483B000AF0B4B1B78FB710A4AFB7903F00703DBB21370084AFB791B09DBB21370074B44221A7000BF0C3781
:4004C000BD4680BC704700BFCF0100496E5800406F5800407658004080B582B000AF72B63E4B61221A70FFF735FF3C4B01221A700023FB7113E0FA7913465B0013445B0086
:40050000374A13443B603B681A683B689B889BB219461046FFF7C0FEFB790133FB71FB79062BE8D92F494FF09040FFF7D9FE2E4B2E4A1A602E4B2F4A1A602F4A2E4B1B787D
:40054000DBB243F00203DBB213702C4A2B4B1B78DBB243F00203DBB21370294A284B1B78DBB243F04003DBB21370264A254B1B78DBB243F01003DBB2137008222249234870
:40058000FFF798FE082222492248FFF793FE0A2221492248FFF78EFE082221492148FFF789FE0A2220492148FFF784FE082220492048FFF77FFE204A1F4B1B78DBB243F022
:4005C0000803DBB21370FFF765FF0E220C491B48FFF770FE00BF0837BD4680BD0048004058350000A00000485804014004040084D8140140040404C40350014013500140A1
:40060000A0430040C2430040240C0048025100402C0C0048C2510040340C0048F0510040400C004812510040480C004820510040540C00483251004022430040B0430040A4
:4006400080B500AF02F006FF03461B680C2B00D1FEE7FEE780B586B000AF224B7B61224B3B61204B7B6135E03B691B68FB603B695B68BB603B699B683B6000237B600CE009
:40068000FB681A68BB681A60BB680433BB60FB680433FB607B6804337B607A683B689A42EED13B69DB683B6000237B6008E0BB6800221A60BB680433BB607B6804337B60A8
:4006C0007A683B689A42F2D13B6910333B617B69013B7B617B69002BC6D102F0C1FEFFF7DDFCFEE7010000005C37000080B582B000AF184B184A1A60184A184B1B6843F4E4
:400700000073136000237B600FE07B68032B04D8134A7B6852F8233000E0124B12497A6841F822307B6801337B607B682F2BECD90E4B1B78DAB20E4B1A700E4B0A4A1A60A1
:40074000FFF7CAFE0C4B00221A6000BF0837BD4680BD00BF0CED00E00004FA0514ED00E000000000410600000080FF1FBC760040C480FF1F08ED00E0C080FF1F80B500AF3E
:40078000224A224B1B78DBB203F00103DBB213701F4A1F4B1B78DBB223F00303DBB213701C4A1C4B1B78DBB223F03003DBB21370184A184B1B78DBB243F03003DBB213707F
:4007C000144A144B1B78DBB223F00F03DBB21370104A104B1B78DBB243F00F03DBB213700D4A0D4B1B78DBB243F00103DBB213704FF6FF7000F058F84FF6FF7000F066F8B1
:40080000082000F041F800BF80BD00BF184F00401A4F0040234F0040194F004080B400AF0D4A0D4B1B78DBB243F00403DBB213700A4A0A4B1B78DBB243F00403DBB21370F3
:40084000074A074B1B78DBB243F00103DBB2137000BFBD4680BC7047A3430040B3430040184F004080B500AF064B1B78002B04D1FFF784FF034B01221A70FFF7CFFF00BFF7
:4008800080BD00BF0A82FF1F80B483B000AF0346FB71044AFB79137000BF0C37BD4680BC704700BF1B4F004080B485B000AF0346FB80FB88FB81044AFB89138000BF1437D7
:4008C000BD4680BC704700BF1C4F004080B483B000AF0346FB80044AFB88138000BF0C37BD4680BC704700BF1E4F004080B582B000AF03460A46FB711346BB71094B1B786F
:40090000002B04D100F010F8064B01221A70BA79FB791146184600F0D9F800BF0837BD4680BD00BF0B82FF1F80B582B000AF02F047FD0346FB71544A534B1B78DBB243F06C
:400940000103DBB21370514A504B1B78DBB243F00103DBB213704E4B01221A704D4B02221A704D4A4C4B1B78DBB203F07F03DBB21370002001F01AFF484A484B1B78DBB2F8
:4009800023F00603DBB21370454A454B1B78DBB223F02003DBB21370404A404B1B78DBB243F00103DBB21370012001F0FFFE282001F0FCFE3B4A3B4B1B78DBB203F07F0328
:4009C000DBB21370374A374B1B78DBB223F04003DBB21370314A314B1B78DBB243F00203DBB21370022001F0E1FE2C4A2B4B1B78DBB243F00403DBB213702B4B00221A7095
:400A00002A4B00221A70FB79184602F0DDFC0721172001F007FF2649172001F0DBFE0721182001F0FFFE2349182001F0D3FE0721152001F0F7FE2049152001F0CBFE0721BB
:400A4000002001F0EFFE1D49002001F0C3FE0721012001F0E7FE1A49012001F0BBFE0721022001F0DFFE1749022001F0B3FE07210C2001F0D7FE14490C2001F0ABFE00BFBB
:400A80000837BD4680BD00BFA5430040B54300409D60004009600040106000409443004012600040F85100408460004085600040E5160000CD0F0000D9160000F11500009B
:400AC0003916000085160000F116000080B582B000AF03460A46FB711346BB712E4AFB7913702E4B00221A702D4B00221A702D4B00221A702C4B00221A702C4B00221A7043
:400B00002B4B00221A702B4B00221A702A4B4FF400021A60284B4FF080721A60264B4FF400121A60244B01221A60234B02221A60214B04221A60BB79002B02D0012B09D085
:400B400011E01E4A1D4B1B78DBB223F00103DBB2137011E0194A194B1B78DBB243F00103DBB2137008E0154A144B1B78DBB243F00103DBB2137000BF114B03221A70114B1B
:400B800080221A70012002F013FC0F4B04221A7000BF0837BD4680BD3182FF1F3482FF1F5082FF1F5382FF1F4882FF1F5282FF1F5582FF1F3082FF1F00E100E0096000400E
:400BC00028600040086000401260004080B400AF0F4B00221A700F4B00221A700E4B00221A700E4B00221A700D4B00221A700D4B00221A700C4B00221A700C4B03221A70C9
:400C00000B4B80221A7000BFBD4680BC704700BF3482FF1F5082FF1F5382FF1F4882FF1F5282FF1F5582FF1F3082FF1F286000400860004080B483B000AF0346FB71FA79BA
:400C4000064913465B0013449B000B4401331B78DBB218460C37BD4680BC70475882FF1FB0B485B000AF03463960FB711346BB80FB79002B6DD0FB79082B6AD8B988FA79AA
:400C8000364813465B0013449B00034406331B889BB2C3F5007399420CD9FA792F4913465B0013449B000B4406331B889BB2C3F50073BB802A4CF979BB881B0A9BB2D8B21F
:400CC000FA79264D13465B0013449B002B4403331B78DBB20343DAB20B0123441A70204AFB79B988C9B21B01134401330A461A703B68002B13D00023FB810CE01948FB79A8
:400D0000FA8939680A4412781B01034408331A70FB890133FB81FA89BB889A42EED3FA790E4913465B0013449B000B44013300221A700B48F979FA79084C13465B001344C2
:400D40009B00234405331B78DAB20B01034402331A7000BF1437BD46B0BC70475882FF1FFC5F00407060004080B582B000AF0023FB71314B1B79DBB2184600F067F80346FD
:400D8000BB712D4B1B78DBB25BB2002B15DA2A4B5B78DBB2212B00D048E0284B07221A80BA791346DB009B1A254A1344234A536000F086FA0346FB7138E01F4B5B78DBB2F0
:400DC000202B02D0222B1AD030E01C4B07221A80BA791346DB009B1A194A1344174A5360BB79BA7917498A5CD2B242F00102D1B2144AD15400F0E2FA0346FB7116E0BB7964
:400E00000D4A9278D2B291B20F4A22F81310BB79BA790C498A5CD2B242F00202D1B2094AD15400F069FB0346FB7100BFFB7918460837BD4680BD00BF006000403C82FF1F49
:400E40001481FF1F1882FF1F2C82FF1F80B485B000AF0346FB710023FB73FF23BB7317E0FB7B104AD35C7B737A7B0F4913465B0013449B000B440A331B78DBB2FA799A42BB
:400E800003D1FB7BBB730223FB73FB7B0133FB73FB7B012BE4D9BB7B18461437BD4680BC704700BF2082FF1F5882FF1F80B584B000AF78600B467B80144B1B781A46144B77
:400EC0009B5CFB73FA7B134913465B0013449B000B4408331B889BB27A889A420CD9FA7B0C4913465B0013449B000B4408331B887B80002001F04EFC7A88FB7B796818462F
:400F0000FFF7AEFE00BF1037BD4680BD0C82FF1F1C82FF1F5882FF1F80B500AF054B1B781A46054B9B5CDBB21846FFF783FE0346184680BD0C82FF1F1C82FF1F80B485B0E4
:400F400000AF78600B46FB701346BB707B68DB7803F00303FB737B689B785BB2002B1ADAFB7B032B0AD0BB7803F001031449FA78CA54BB7843F00103BB701BE0BB789B08F0
:400F8000DBB203F001030F49FA78CA54BB7843F00403BB700EE0FB7B032B0BD0BB785B08DBB203F001030849FA78CA54BB7843F00203BB70BB7818461437BD4680BC70475D
:400FC0001C82FF1F2082FF1F2482FF1F80B582B000AF374B1B78BB71BB7903F01003002B62D00123FB7197F90630002B12DABB7903F00F03012B02D00023FB711CE000F0A4
:4010000061F82C4B1B78DBB25BB2002B14DA0023FB7111E0BB7903F04003002B02D000F095F809E0BB7903F02003002B02D000F0B3F801E00023FB71FB79002B34D01C4BF1
:401040001B78BB7197F90630002B2DDB1A4B1B78DAB21A4B1B78DBB21343BB71184ABB791370174B1B78DBB2BA799A421CD1114B1B78FB710E4B1B78DBB223F07F03BB7101
:40108000BB79002B0AD10A4B0A4A1278D2B21A70074B1B78DBB203F00F03FB71054B1B78DBB2FA799A42E2D100BF0837BD4680BD286000405182FF1FC682FF1F5482FF1F0F
:4010C0002960004080B582B000AF1D4B1B78FB711B4AFB7913701A4B1B78FB7197F90730002B03DA174AFB79137025E0022000F045FA154B1B78DBB203F06003202B08D074
:40110000402B0BD0002B0ED100F0F8FA0346FB710CE002F05DF90346FB7107E001F000FB0346FB7102E00023FB7100BFFB79002B02D1044B03221A7000BF0837BD4680BD79
:40114000286000405182FF1F0060004080B500AF104B1B78DBB2062B19D801A252F823F08F1100008F1100007D1100008F110000831100008F1100008911000000F0F8F879
:4011800006E000F0A7F903E000F0D2F900E000BF00BF80BD3482FF1F80B500AF124B1B78DBB2062B1DD801A252F823F0E3110000E3110000C9110000E3110000CF1100008F
:4011C000E3110000D511000000F0D8F80AE000F027F907E0032000F0D1F9044B03221A7000E000BF00BF80BD3482FF1F5182FF1F80B483B000AF0023FB71294B1B78DBB200
:401200009AB2284B1B889BB213449AB2254B1A8015E02549FB79254A52681278D2B2CA54224B5B680133214A5360FB790133FB711E4B1B889BB2013B9AB21C4B1A801B4B48
:401240001B889BB2002B02D0FB79072BE1D9144B1B78DBB2082B02D0FB79002B0FD0144B1B78DBB283F07F03DB43DAB2104B1A70104B0F221A70104B02221A7005E00D4BC0
:4012800002221A700C4B02221A700C4AFB791370034AFB79137000BF0C37BD4680BC70473082FF1F3282FF1F006000403C82FF1FC682FF1F5182FF1F3482FF1F5482FF1FB5
:4012C00080B582B000AF164B1B889BB2002B02D100F02EF81EE0134B02221A70124B00221A7000F06BF9114BDB79DBB29BB21B029AB20E4B9B79DBB29BB21343FB80084BAE
:401300001B889BB2FA889A4202D2054AFB881380FFF76EFF012318460837BD4680BD00BF3C82FF1F3482FF1FC682FF1F0060004080B400AF094B02221A70094B80221A70E8
:40134000084B0F221A70084B00221A70074B00221A7001231846BD4680BC70473482FF1FC682FF1F5182FF1F3082FF1F5482FF1F80B500AFFFF73CFF00BF80BD80B500AF06
:401380000A4B1B78DBB29AB2094B1B889BB213449AB2074B1A80074B00221A70012000F0EDF8054B03221A7000BF80BD3082FF1F3282FF1F3482FF1F5182FF1F80B582B0DC
:4013C00000AF124B04221A70114B80221A7000F0F5F8104BDB79DBB29BB21B029AB20D4B9B79DBB29BB21343FB800B4B1B889BB2FA889A4202D2084AFB881380074B0B2264
:401400001A70012318460837BD4680BD3482FF1FC682FF1F006000403C82FF1F5182FF1F80B483B000AF0023BB71234B1B78DBB203F00F03DBB2023BFB71FB799AB21F4B22
:401440001B889BB213449AB21C4B1A8018E01C4B5B681C49BA798A5CD2B21A70184B5B680133174A5360BB790133BB71FB79013BFB71134B1B889BB2013B9AB2104B1A8041
:401480000F4B1B889BB2002B02D0FB79002BDED10D4AFB7913700D4B1B78DBB283F07F03DB43DAB2094B1A70094B0B221A7000BF0C37BD4680BC7047296000403282FF1FB6
:4014C0003C82FF1F006000405482FF1FC682FF1F5182FF1F80B500AF054B00221A70012000F04CF8034B03221A7000BF80BD00BF3482FF1F5182FF1F80B400AF084B062215
:401500001A70084B06221A70074B80221A70074B00221A7001231846BD4680BC704700BF3482FF1F5182FF1FC682FF1F5482FF1F80B500AF0D4B1B78DBB2002B0AD00C4A93
:401540000A4B1B78DBB263F07F03DBB21370074B00221A70074B00221A70012000F00EF8054B03221A7000BF80BD00BF5282FF1F086000403482FF1F5182FF1F80B483B07E
:4015800000AF0346FB710B4B9B68002B0CD0094B9B68FA791A70074B9B68074A128892B25A80044B00229A6000BF0C37BD4680BC704700BF3C82FF1F3282FF1F80B400AF02
:4015C000094B00221A80094B9B68002B07D0074B9B6800221A70054B9B6800225A8000BFBD4680BC704700BF3282FF1F3C82FF1F80B400AF0D4B01221A700D4B9B7C0D4B61
:401600001B7BDBB203F00303012B08D0094BDB7BDBB283F07F03DB43DAB2064BDA73054B01225A7300BFBD4680BC70470B600040FC5F00405882FF1F80B400AF0E4B022283
:401640001A700E4B93F822300D4B1B7EDBB203F00303012B08D00A4BDB7EDBB283F07F03DB43DAB2064BDA76054B01225A7600BFBD4680BC704700BF0B600040FC5F0040B7
:401680005882FF1F80B400AF104B04221A70104B93F832300F4B93F82430DBB203F00303012B0AD00B4B93F82730DBB283F07F03DB43DAB2074B83F82720064B012283F8D0
:4016C000252000BFBD4680BC704700BF0B600040FC5F00405882FF1F80B400AF00BFBD4680BC704780B500AFFFF770FA00BF80BD80B500AF01F03EF800BF80BD80B586B0A9
:4017000000AF0023FB759D4B1B78FB7100233B619B4B00221A8097F90730002B80F20481964B5B78DBB20A2B00F21B8201A252F823F000BF7F180000631B0000631B0000DF
:40174000631B0000631B0000631B000061170000631B0000F3180000631B000009190000864BDB78DBB2012B0ED100F049FEB860BB685B68824A5360814B12221A80FFF74E
:401780009FFD0346FB75EEE17C4BDB78DBB2022B25D17A4B9B78DBB2184600F009FEB860BB68002B00F0DF81BB685B68744A5360734B5B6803331B78DBB29BB21B029AB2E7
:4017C0006F4B5B6802331B78DBB29BB213439AB26B4B1A80FFF774FD0346FB75C3E1674BDB78DBB2032B45D10023FB73654B3B6109E03B691B78BB71BB793A6913443B614B
:40180000FB7B0133FB735D4B9B78DBB2FA7B9A4204D23B691B78DBB2002BEAD1574B9B78DBB2EE2B01D1584B3B61544B9B78DBB2002B0BD0514B9B78DAB2544B1B7C9A4279
:4018400004D1534800F0ACF9514B3B613B691B78DBB2002B00F087813B691B78DBB29AB2474B1A80464A3B695360FFF729FD0346FB7578E101F0ACFD0346FB7573E1FB79D8
:4018800003F00303002B20D0022B00D030E03C4B02221A80394B1B79DBB203F07F023D4913465B0013449B000B4402331B78DAB2394B1A70384B00225A70314B364A5A60A7
:4018C000FFF7FEFC0346FB7512E02D4B02221A80324B1B78DAB2304B1A702F4B00225A70274B2D4A5A60FFF7EBFC0346FB7500BF40E1234B01221A80214B294A5A60FFF73D
:40190000DFFC0346FB7535E11D4B01221A801B4B1B79DBB21A46234B1344194A5360FFF7CFFC0346FB7525E1144B5B78DBB2013B0A2B00F21A8101A252F823F0471A000078
:401940006B1B0000D51A00006B1B0000691900006B1B00006B1B00006B1B0000AD1900006B1B0000031A0000044B9B78DAB20E4B1A70FFF7C1FD0346FB75FBE00060004036
:401980003C82FF1FF0350000F836000098350000CC82FF1F5882FF1F1082FF1F5582FF1F5382FF1FC482FF1F5282FF1F744B9B787B717B79002B06D07B79013BDBB218460B
:4019C00000F0F6FCB8607B79002B02D0BB68002B03D17B79002B40F0CA806A4B1B78DBB27A799A4208D0674A7B791370664B01221A70012000F0DCF9FFF77EFD0346FB752F
:401A0000B5E000F055FE0346002B00F0B2805C4B1B793B715A4B1B79DAB25C4B1A703B795B4AD35CDAB23B795A49CB5CDBB29A4204D0554B01221A7000F08CFBFFF75CFD79
:401A40000346FB7595E0FB7903F00303012B20D0012B0CD3022B00D03BE0494B9B78DBB2002B31D100F078FD0346FB752CE0444B9B78DBB2012B29D1474B1B78DBB223F0E7
:401A80000203DAB2444B1A70FFF736FD0346FB751CE03B4B1B79DBB2012B19D8384B9B78DBB2DB43DBB2364A1279D2B2114610463A4A125CD2B21340DAB2384B5A54FFF754
:401AC0001BFD0346FB7503E000BF53E000BF51E000BF4FE0FB7903F00303012B20D0012B0CD3022B00D03BE0254B9B78DBB2002B31D100F0BDFC0346FB752CE0204B9B788D
:401B0000DBB2012B29D1244B1B78DBB243F00203DAB2214B1A70FFF7EFFC0346FB751CE0174B1B79DBB2012B19D8154B9B78DBB2DB43DBB2124A1279D2B211461046174A4F
:401B4000125CD2B21340DAB2144B5A54FFF7D4FC0346FB7503E000BF0CE000BF0AE000BF08E000BF06E000BF04E000BF02E000BF00E000BFFB7D18461837BD4680BD00BFBF
:401B8000006000405382FF1F5082FF1F4882FF1F3882FF1FC482FF1F5582FF1FC882FF1FB0B58AB000AF7860324B07F114041D460FCD0FC42B682370002387F826307B685B
:401BC000002B52D07B6822221A707B68013303221A7007F10C03184600F048FE022387F827303EE097F827307A68134497F8262007F128010A4412F81C2C1209D2B207F121
:401C000028010A4412F8142C1A7097F8273001337A68134400221A7097F8273002337A68134497F8262007F128010A4412F81C2C02F00F0207F128010A4412F8142C1A702A
:401C400097F8273003337A68134400221A7097F82630013387F8263097F82730043387F8273097F82730212BBCD900BF2837BD46B0BD00BF8435000090B482B000AF01236C
:401C8000FB7180E0464AFB791B0113440C221A70FA79444913465B0013449B000B4405331B78DBB2002B1CD0FA793E4913465B0013449B000B4404331B78DBB25BB2002B47
:401CC00007DA394AFB791B01134402330C221A700EE0354AFB791B011344023308221A7006E0314AFB791B011344023380221A702B48F979FA792B4C13465B0013449B0051
:401D0000234406331B889BB2DAB20B01034406331A702348F979FA79224C13465B0013449B00234406331B889BB21B0A9BB2DAB20B01034407331A701948F979FA79194CBD
:401D400013465B0013449B00234406331B889BB2DAB20B01034404331A701148F979FA79104C13465B0013449B00234406331B889BB21B0A9BB2DAB20B01034405331A70AA
:401D8000FB790133FB71FB79082B7FF67BAF074BFF221A7000BF0837BD4690BC704700BF706000405882FF1FFC5F00400A60004080B58AB000AF0346FB7100237B840023A4
:401DC00087F8273050E097F82720B34913465B0013449B000B4400221A7097F82720AE4913465B0013449B000B44023300221A7097F82720A84913465B0013449B000B440B
:401E0000033300221A7097F82720A34913465B0013449B000B44083300221A8097F827209D4913465B0013449B000B440A3300221A7097F82720984913465B0013449B001B
:401E40000B44013300221A7097F82720924913465B0013449B000B44053300221A7097F82730013387F8273097F82730082BAAD9FB79002B16D0002387F825300EE097F824
:401E80002530864A0021D15497F82530844A0021D15497F82530013387F8253097F82530012BECD97F4B1B78DBB2002B00F04A810023FB767B4B1B78DBB2013BDBB218468D
:401EC00000F076FA78617B695B683B613B6907331B7803F04003002B08D0734B1B78DBB243F00103DAB2704B1A7007E06E4B1B78DBB223F00103DAB26B4B1A707B69083314
:401F00007B617B691B7887F82730012387F82530B6E07B695B68FB61002387F82630A3E097F82520FB699B7803F07F039A4240F0938097F82520584913465B0013449B0072
:401F40000B4408331B889AB2FB699B889A420CD297F82520FB6998884F4913465B0013449B000B44083302461A80FB691B781A464A4B9B5CDAB2FB695B789A426CD197F857
:401F80002520FB699878444913465B0013449B000B44043302461A7097F82520FB69D8783D4913465B0013449B000B4402461A70FB69DB7803F00303FB73FB699B785BB266
:401FC000002B1CDA97F82520FB7B012B01D1072000E00D20304913465B0013449B000B44053302461A7097F825202B4913465B0013449B000B44013301221A701BE097F824
:402000002520FB7B012B01D1052000E00920224913465B0013449B000B44053302461A7097F825201C4913465B0013449B000B44013300221A70FB699B790A2B03D0FB695D
:402040009B79022B08D1FA7E97F825301946F869FEF774FF0346FB76FB690833FB6197F82630013387F8263097F8262097F827309A42FFF455AF97F82530013387F82530A5
:4020800097F82530082B7FF644AF7B695B68FB61002387F8253020E05882FF1FC482FF1F3882FF1F5382FF1F5582FF1FFB699B7803F07F02FB691878244913465B00134434
:4020C0009B000B440A3302461A70FB690833FB6197F82530013387F8253097F8252097F827309A42E2D300F09DF90246184B1A6000237B84012387F827301DE097F827201B
:40210000124913465B0013449B000B4406337A8C1A8097F827200D4913465B0013449B000B4408331B889AB27B8C13447B8497F82730013387F8273097F82730082BDDD90F
:40214000FFF79AFD00BF2837BD4680BD5882FF1F4C82FF1F90B585B000AF8F4B1B78DBB2002B00F015818C4B1B78DBB2013BDBB2184600F01DF978607B6808337B607B68E4
:402180001B78FB707B685B68BB60844B1B78BB700023FB73F7E0BB681B78BA789A4240F0EC80BB787E4AD35CDAB2BB685B789A4240F0E380BB689B7803F07F037B70BB6837
:4021C000DB7803F003033B707A78764913465B0013449B000B44033300221A707A78BB689878704913465B0013449B000B44043302461A707A78BB68D8786A4913465B00B8
:4022000013449B000B4402461A707A78BB689888644913465B0013449B000B44083302461A80BB689B785BB2002B1ADA7A783B78012B01D1072000E00D205A4913465B0007
:4022400013449B000B44053302461A707A78554913465B0013449B000B44013301221A7019E07A783B78012B01D1052000E009204C4913465B0013449B000B4405330246D9
:402280001A707A78474913465B0013449B000B44013300221A70444A7B781B011344023301221A70404879787A783E4C13465B0013449B00234408331B889BB21B0A9BB2C8
:4022C000DAB20B0103441A70374879787A78354C13465B0013449B00234408331B889BB2DAB20B01034401331A70304879787A782C4C13465B0013449B00234406331B8801
:402300009BB2DAB20B01034406331A70274879787A78244C13465B0013449B00234406331B889BB21B0A9BB2DAB20B01034407331A701E4879787A781A4C13465B001344E7
:402340009B00234406331B889BB2DAB20B01034404331A70154879787A78124C13465B0013449B00234406331B889BB21B0A9BB2DAB20B01034405331A70BB680833BB6032
:40238000FB7B0133FB73FA7BFB789A42FFF403AF00BF1437BD4690BD5382FF1F4882FF1FC482FF1F5882FF1FFC5F00407060004080B485B000AF0346FB710F4B1B78DBB219
:4023C0000E4ADB0013445B68FB60FB681033FB60FB681B78FA799A4202D30023FB6005E0FB79DB00FA6813445B68FB60FB6818461437BD4680BC70473182FF1FF036000098
:4024000080B400AF054B1B78DBB2054ADB0013445B681846BD4680BC704700BF3182FF1FF036000080B584B000AF104B1B78DBB2013BDBB21846FFF7BBFFB860BB68002B2B
:402440000DD0BB685B681B79FB71FB790233DB00BA681344BB60BB685B68FB6001E00023FB60FB6818461037BD4680BD5382FF1F80B582B000AF0023FB71344B1B79DBB261
:4024800003F07F03BB71BB79002B5AD0BB79082B57D8BA79B9792E480B465B000B449B00034402331B78DBB243F00103D8B2284913465B0013449B000B44023302461A7021
:4024C000BA79234913465B0013449B000B44033300221A70BA79B9791D480B465B000B449B00034401331B78DBB243F00203D8B2174913465B0013449B000B4401330246D8
:402500001A70BA79124913465B0013449B000B4404331B78DBB25BB2002B07DA0D4ABB791B01134402338D221A7006E0094ABB791B011344023389221A70FEF7DDFF03464E
:40254000FB71FB7918460837BD4680BD006000405882FF1FFC5F004080B582B000AF0023FB71504B1B79DBB203F07F03BB71BB79002B00F09280BB79082B00F28E80BA796E
:40258000B97949480B465B000B449B00034402331B78DBB223F00103D8B2434913465B0013449B000B44023302461A70BA793E4913465B0013449B000B44033300221A706C
:4025C0003A49BB793948BA79120102441278D2B202F07F02D2B21B010B441A70BA79B97931480B465B000B449B00034401331B78DBB223F00203D8B22B4913465B001344ED
:402600009B000B44013302461A70BA79264913465B0013449B000B4404331B78DBB25BB2002B1BDABA79204913465B0013449B000B4401331B78DBB2012B07D11B4ABB790D
:402640001B01134402330C221A7022E0174ABB791B01134402330D221A701AE0BA79124913465B0013449B000B4401331B78DBB2012B07D10D4ABB791B01134402330822D0
:402680001A7006E0094ABB791B011344023309221A70FEF731FF0346FB71FB7918460837BD4680BD006000405882FF1FFC5F004080B584B000AF0023FB73154B1B79BB739D
:4026C000144B1B78DBB2013BDBB21846FFF770FEB860BB685B681B79FB71BA7BFB799A4202D9BB7B022B0ED8BB7BBA7B0A498A5CD1B20A4AD154BB7B054A9278D1B2064A27
:40270000D1540123FB73FB7B18461037BD4680BD006000405382FF1FC482FF1F3882FF1F80B582B000AF0023FB710F4B1B78DBB25BB2002B12DA0C4B5B78DBB2012B00D0C2
:402740000CE00A4B0A4A5A60094B1B789AB2074B1A80FEF7B5FD0346FB7100BFFB7918460837BD4680BD00BF006000403C82FF1F0C37000080B400AF054B1B78DBB203F0BB
:4027800040039B09DBB21846BD4680BC704700BF8F45004080B483B000AF0346FB7101BE00BF0C37BD4680BC704700BF80B582B000AF0346FB80FB88054A127802FB03F314
:4027C000184600F0F5FD00BF0837BD4680BD00BF3881FF1F80B584B000AF03463960FB710F4B1B68FB60FB791F2B02D90020FFF7D1FFFB7903F01F0310339B00FA68134488
:402800001B68BB60FB7903F01F0310339B00FA6813443A681A60BB6818461037BD4680BD08ED00E080B582B000AF03460A46FB711346BB71BB79072B02D90020FFF7AAFF41
:40284000FB791F2B02D90020FFF7A4FFFB7903F01F0303F1604303F56443BA795201D2B21A7000BF0837BD4680BD00BF80B483B000AF7860264B1B78DBB21A467B681A607A
:40288000244B1B78DBB21B027A6812681A437B681A60214B1B78DBB21B047A6812681A437B681A601D4B1B78DBB21B067A6812681A437B681A607B680433194A1278D2B24B
:4028C0001A60184B1B78DBB21A027B6804337968043109680A431A60134B1B78DBB21A047B6804337968043109680A431A600F4B1B78DBB21A067B68043379680431096818
:402900000A431A6000BF0C37BD4680BC704700BF0301004904010049EC460040020100490101004900010049050100490601004980B500AF064B1B78002B04D100F00AF8D2
:40294000034B01221A7000F063F800BF80BD00BF1282FF1F80B582B000AF284A274B1B78DBB243F00203DBB21370254B1B78DBB223F07003FB71224AFB7943F01003DBB20D
:402980001370204A1F4B1B78DBB223F03003DBB213701C4A1B4B1B78DBB243F03003DBB21370184A174B1B78DBB223F00F03DBB21370144A134B1B78DBB243F00F03DBB221
:4029C0001370FF2000F048F87F2000F055F8002000F062F80C4A0C4B1B78DBB243F00103DBB21370094A094B1B78DBB243F00103DBB2137000BF0837BD4680BD004F0040D0
:402A0000024F00400B4F0040A3430040014F004080B400AF0D4A0D4B1B78DBB243F00103DBB213700A4A0A4B1B78DBB243F00103DBB21370074A074B1B78DBB243F00103B2
:402A4000DBB2137000BFBD4680BC7047A3430040B3430040004F004080B483B000AF0346FB71044BFA7992B21A8000BF0C37BD4680BC7047044F004080B483B000AF034651
:402A8000FB71044BFA7992B21A8000BF0C37BD4680BC7047064F004080B483B000AF0346FB71044AFB79137000BF0C37BD4680BC704700BF034F004080B500AF064B1B785C
:402AC000002B04D100F00AF8034B01221A7000F063F800BF80BD00BF1382FF1F80B582B000AF284A274B1B78DBB243F00203DBB21370254B1B78DBB223F07003FB71224AE0
:402B0000FB7943F01003DBB21370204A1F4B1B78DBB223F03003DBB213701C4A1B4B1B78DBB243F03003DBB21370184A174B1B78DBB223F00F03DBB21370144A134B1B78B7
:402B4000DBB243F00F03DBB21370FF2000F048F87F2000F055F8002000F062F80C4A0C4B1B78DBB243F00203DBB21370094A094B1B78DBB243F00103DBB2137000BF0837BD
:402B8000BD4680BD0C4F00400E4F0040174F0040A34300400D4F004080B400AF0D4A0D4B1B78DBB243F00203DBB213700A4A0A4B1B78DBB243F00203DBB21370074A074B87
:402BC0001B78DBB243F00103DBB2137000BFBD4680BC7047A3430040B34300400C4F004080B483B000AF0346FB71044BFA7992B21A8000BF0C37BD4680BC7047104F0040C0
:402C000080B483B000AF0346FB71044BFA7992B21A8000BF0C37BD4680BC7047124F004080B483B000AF0346FB71044AFB79137000BF0C37BD4680BC704700BF0F4F00402B
:402C400080B400AF00BFBD4680BC704780B582B000AF0F2000F058F800F048F800F0B0FB0346FB71074A074B1B78DBB243F01003DBB21370FB79184600F0A6FB00BF08373D
:402C8000BD4680BD9665004080B500AF00F010F94FF4004000F03AF9064B1B78002B04D1FFF7CEFF034B01221A70FFF7CFFF00BF80BD00BF1482FF1F80B584B000AF0346E0
:402CC000FB80B7F90630002B04DBFB88A3F50043FB8103E0FB88A3F50043FB81FB89184600F014F900BF1037BD4680BD80B400AF044B1B78DBB203F00F03DBB21846BD4668
:402D000080BC70476665004080B483B000AF0346FB71044AFB79137000BF0C37BD4680BC704700BF8665004080B400AF00BFBD4680BC704780B582B000AF0F2000F058F886
:402D400000F048F800F03CFB0346FB71074A074B1B78DBB243F01003DBB21370FB79184600F032FB00BF0837BD4680BD9164004080B500AF00F064F94FF4004000F08EF9A1
:402D8000064B1B78002B04D1FFF7CEFF034B01221A70FFF7CFFF00BF80BD00BF1582FF1F80B584B000AF0346FB80B7F90630002B04DBFB88A3F50043FB8103E0FB88A3F599
:402DC0000043FB81FB89184600F068F900BF1037BD4680BD80B400AF044B1B78DBB203F00F03DBB21846BD4680BC70476164004080B483B000AF0346FB71044AFB7913704E
:402E000000BF0C37BD4680BC704700BF8164004080B582B000AF1C4B1B78DBB223F00703FB71194AFB791370174B1B78DBB223F00303FB71144AFB79137000F0A3F84FF40C
:402E4000004000F07FF84FF4004000F05FF8002000F040F800F04EF84FF4004000F082F800F0AEFA0346BB71084A084B1B78DBB243F01003DBB21370BB79184600F0A4FA2E
:402E800000BF0837BD4680BD776500409565004080B400AF054A054B1B78DBB263F07F03DBB2137000BFBD4680BC70477765004080B500AF064B1B78002B04D1FFF7A8FFC1
:402EC000034B01221A70FFF7E3FF00BF80BD00BF1682FF1F80B483B000AF0346FB71044AFB79137000BF0C37BD4680BC704700BF8565004080B400AF034B1B78DBB21846EE
:402F0000BD4680BC704700BF6565004080B483B000AF0346FB80044AFB88138000BF0C37BD4680BC704700BF086A004080B400AF034B1B889BB21846BD4680BC704700BFF7
:402F4000886A004080B483B000AF0346FB80044AFB88138000BF0C37BD4680BC704700BF486A004080B483B000AF0346FB80044AFB88138000BF0C37BD4680BC704700BF43
:402F8000686A004080B500AF01E0FFF7CFFFFFF7B1FF034603F04003002BF6D100BF80BD80B582B000AF1C4B1B78DBB223F00703FB71194AFB791370174B1B78DBB223F04E
:402FC0000303FB71144AFB79137000F0A3F84FF4004000F07FF84FF4004000F05FF8002000F040F800F04EF84FF4004000F082F800F0E6F90346BB71084A084B1B78DBB257
:4030000043F01003DBB21370BB79184600F0DCF900BF0837BD4680BD736400409464004080B400AF054A054B1B78DBB263F07F03DBB2137000BFBD4680BC70477364004003
:4030400080B500AF064B1B78002B04D1FFF7A8FF034B01221A70FFF7E3FF00BF80BD00BF1782FF1F80B483B000AF0346FB71044AFB79137000BF0C37BD4680BC704700BFDF
:403080008464004080B400AF034B1B78DBB21846BD4680BC704700BF6464004080B483B000AF0346FB80044AFB88138000BF0C37BD4680BC704700BF0C68004080B400AFF0
:4030C000034B1B889BB21846BD4680BC704700BF8C68004080B483B000AF0346FB80044AFB88138000BF0C37BD4680BC704700BF4C68004080B483B000AF0346FB80044A3A
:40310000FB88138000BF0C37BD4680BC704700BF6C68004080B500AF01E0FFF7CFFFFFF7B1FF034603F04003002BF6D100BF80BD80B582B000AF786000F03CF8786800F030
:4031400009F8072000F018F800F028F800BF0837BD4680BD80B485B000AF7860054B1B68FB60FB6854337A681A6000BF1437BD4680BC704708ED00E080B483B000AF034641
:40318000FB71054AFB795B01DBB2137000BF0C37BD4680BC704700BF05E400E080B400AF034B20221A6000BFBD4680BC704700BF00E100E080B400AF034B20221A6000BF26
:4031C000BD4680BC704700BF80E100E080B400AF054B1B78DBB203F040039B09DBB21846BD4680BC704700BF2151004080B400AF054B1B78DBB203F004039B08DBB218467F
:40320000BD4680BC704700BF3151004080B400AF054B1B78DBB203F08003DB09DBB21846BD4680BC704700BF3151004080B400AF044B1B78DBB203F00103DBB21846BD46D1
:4032400080BC7047F151004080B485B000AF0346FB710B4B1B78DBB223F00803FB730849FB79DB00DBB203F00803DAB2FB7B1343DBB20B7000BF1437BD4680BC704700BFC0
:40328000F051004080B485B000AF0346FB710B4B1B78DBB223F01003FB730849FB791B01DBB203F01003DAB2FB7B1343DBB20B7000BF1437BD4680BC704700BFF0510040A2
:4032C00080B485B000AF0346FB710B4B1B78DBB223F02003FB730849FB795B01DBB203F02003DAB2FB7B1343DBB20B7000BF1437BD4680BC704700BFF051004080B485B01A
:4033000000AF0346FB710A4B1B78DBB223F00103FB730749FB7903F00103DAB2FB7B1343DBB20B7000BF1437BD4680BC704700BF1051004080B485B000AF0346FB710B4B91
:403340001B78DBB223F00203FB730849FB795B00DBB203F00203DAB2FB7B1343DBB20B7000BF1437BD4680BC704700BF1051004080B485B000AF0346FB710B4B1B78DBB2FF
:4033800023F00803FB730849FB79DB00DBB203F00803DAB2FB7B1343DBB20B7000BF1437BD4680BC704700BF10510040000000000230800803D000BF01380046FCD1704747
:4033C000EFF3108072B6704780F31088704700BF80B582B000AF0023BB711B4B1B78DBB203F00303012B02D0022B04D012E0164B1B79FB7111E0144B1B79DBB203F07F02E0
:40340000124913465B0013449B000B440A331B78FB7102E00023FB7100BFFB79022B0ED80B4B1A68FB7913441B78022B04D1FDF79BFC0346BB7102E00023BB7100BFBB79ED
:4034400018460837BD4680BD006000405882FF1F4C82FF1F014B1868704700BFA081FF1F0E4B70B51E460E4C0025E41AA410A54204D056F8253098470135F8E700F05CF9C0
:40348000084B094C1E46E41AA4100025A54204D056F8253098470135F8E770BD4437000044370000443700004C37000010B5431E0A44914204D011F8014B03F8014FF8E71C
:4034C00010BD03460244934202D003F8011BFAE77047034613F8012B002AFBD1181A0138704700000000000053544154453A2053544F500D0A00000053544154453A20531C
:40350000545241494748540D0A00000053544154453A204C454654205455524E0D0A000053544154453A205249474854205455524E0D0A0053544154453A20574149540DE5
:403540000A00000053544154453A20554E4B4E4F574E0D0A00000000004F0040240040510040300000000140001000140140000800400140000A004C014000020050014012
:403580002000000030313233343536373839414243444546000000001201000202000008B40432F2010001028001000009024300020101C032090400000102020103052446
:4035C00000100104240202052406000105240100010705810308000A09040100020A000004070582024000000705030240000000040309042C03430079007000720065000C
:40360000730073002000530065006D00690063006F006E0064007500630074006F007200100355005300420055004100520054003803430044004300200043006F006D00A8
:403640006D0075006E00690063006100740069006F006E00200049006E007400650072006600610063006500260343004400430020004400610074006100200049006E00FE
:40368000740065007200660061006300650000000203000000008103080002000100820240000A000100030240000A00020A000001000000AC3500000300000094360000C3
:4036C0000000000000000000000000000000000000000000AC3600000100000098350000000000000000000001000000B036000001000000D836000012034D005300460029
:403700005400310030003000010000002800000000010400010000000000000000014359555342000000303030303100000000000000000043000000F8B500BFF8BC08BCD6
:403740009E4670474D000000ED060000F8B500BFF8BC08BC9E4670472900000070370000C880FF1FE00000004801000000000000000000000A0000004353333031203230DA
:4037800031360A00000000000000000000000000000000000000000000000000000000000000000000000000000000000000000000000000000000000305000000C20100CD
:4037C00000000800C201000000080000A120000000000200000000000087930360EA00003C00000000003075000000000000000000000000000000000000000000000000EB
:40380000000000000000000034370000000000000000000000000000000000000000000000000000000000000000000000000000000000000000000000000000000000001D
:4038400000000000000000004081FF1F0000000000000000000000000000000000000000000000000000000000000000000000000000000000000000000000000000000069
:403880000000000000000000000000000000000000000000000000000000000000000000000000000000000000000000000000000000000000000000000000000000000008
:4038C00000000000000000000000000000000000000000000000000000000000000000000000000000000000000000000000000000000000000000000000000000000000C8
:403900000000000000000000000000000000000000000000000000000000000000000000000000000000000000000000000000000000000000000000000000000000000087
:403940000000000000000000000000000000000000000000000000000000000000000000000000000000000000000000000000000000000000000000000000000000000047
:020000040003F7
:0200000480007A
:4000000001450040064F00400752004003640040046500404400014035010140470201403A0301404104014048050140650601404C070140460801402F090140020B01400E
:40004000010D0140040E0140020F01405B1401404D15014044160140441701405B1801404D190140581A01404B1B0140094001400E410140144201400F430140074501407C
:400080000546014006470140104801400F490140044C0140034D01400C500140025101407E0201200A4B0D20164B1910224B1008110818281928601861147C40810F846FA9
:4000C0008872856F860F8A0F8B380401050E07F00801097F0E011001130115C5173A1A021DA31E081F5C219622042368240425FE270128012C0430033208340435FF3E104A
:400100003F105608580459045B045D905F018005820A830484038502860C8701880A8A05930494079504980F99019B02A501A70AA901AA10AB02AC0CAE03B210B308B40F12
:40014000B503B704BB20BF40D40FD804D904DB04DF0100040201030C04040501070409200A800B010E040F10110912061308175019281B021E041F2421202404264027103B
:4001800029012A052B202F14324033CA3602371838043B103C043D013E014A044B1058805D225E88630185028720C077C26BC4CFCA63CCEBCEC6D6F8D808E6040010020885
:4001C000070108010A220C080E1010081210140216011B021C011E021F042204240826102C012E0230183101320334043504362037023A0A5608580459045B045D905F0111
:400200008008821084088610872089068E038F1090019410950C9608990A9C089D0C9E10A004A404A701AE01B002B120B218B30EB401B510B604B701B880B908BA08BE10E4
:40024000D280D804D904DB04DF010002010803020501070609100A520B080E220F401082110416801748182019201A511D011E221F142082222023192746290833A8362092
:40028000374039043B503F045C205D406680670470027D087E10814090049601973099089C809D01A322A504A602A788C0DDC2BDC4BDCA02CC3ECE4ED630D830E6020320D2
:4002C0000401050C0602070208070B0F0C20110C120813011404150B170419201A071E101F102007250826202701280129102A022D072E04302032103310340F350F3720C4
:400300003E013F44540F580459045B045F05800882018508860F87018B0F910C93029407950B9704980B9A049C0C9E02A107A50CA701A80CAA01B60FB70FD804D904DF01B8
:40034000008803040404050109040A440B020C040D100E020F10101011A51244151019021A241E021F80200822442304254027012A442B042D112E082F08308032103305FF
:400380003705382039023A083B063D2841104320581059025A886104621078048C809024931195049622974099219C20A040A110A320A480A602A788B080C037C2EFC44F9E
:4003C000CACECCCFCE67D60FD806DE02E010E82005140728090C0B301130130C153C19281B141D02211C28012E012F013301353C360137023E403F404062410549FF4AFFD2
:400400004BFF4DA04F015018580459045A045F016040628064406540668068406A806C406D206E808073850488FD89048A028CCF8E3093029430950196C999019A0F9D0487
:40044000A101A49EA660A701A894A901AA60AF08B0FFB108B304B503B908BE01BF04C063C105C50EC6C3C742C83DC9FFCAFFCBFFCDAFCE07CF01D018D608D804D904DA04FD
:40048000DB04DD90DF01E040E280E440E540E680E840EA80EC40ED20EE8001010281030509040A04101411201304140117101A401E02210422202360271628062A092C0127
:4004C0002D01309031023304341035403705380839243B103D283E084104472049244A024C014D204E02508451015210588060028010810482048702902492049315950739
:4005000096429740988099219B019D049E109F04A110A3A0A480A504A602A70CA820C00BC206C4C6CA9FCCFFCE66D022D23CD608D8080004010404300502087C09060A02A2
:400540000C200F09111012431320144F150916301706190F1A0C1C3C1D091E41200421072208230824102720287F29062B092C082F10307031083330343F35073A203B2046
:4005800056025710580459045B045C335D305F0181048401850289068C018D068F0193019501970698019907A801A906AB01B107B601BB02BE40D804D904DC30DF010080C5
:4005C00003100510066109200B080C090D400E080F80100811201208179519801D301E842080234024082510260529102F65300933103608375139803A253BC03E2A3F80BA
:400600005D806C026D046F08762F77049010C0F5C2F2C4F2CAF4CCF7CEFFD6109010B410E602B880BE40D804DF011F80838002080401059406020760080109730A020E07D7
:400640001004113013C91407159E176021CF2330240725FD270228102E042F0F3010360F37FF3E013F404065410249FF4AFF4BFF4DA04F015018580459045A045F016040AB
:40068000628064406540668068406A806C406D206E8083028B019D029E02A601A801B301B401B602B702BE10BF40C035C102C54CC630C72EC83BC9FFCAFFCBFFCDAFCE07C6
:4006C000CF01D018D40FD804D904DA04DB04DF05E040E280E440E540E680E840EA80EC40ED20EE8000060180030808010B200F021010120516201720180219801A801D4076
:400700001E08200226402720281029A02A112BA03001310133083540380439203B203E203F02420443104610471049204A024E024F06562857025E8A5F10660867046E20E6
:400740006F017E808240861087018B12900491209204940299219A049D409E20A283A3A8A702AC84C00FC28CC467CA0BCC13CEA6D064D21CD6F0D860DE80E408E604021EFD
:400780000308041005060602081609100A080C0111061418150516041A011D131E0120182108220224202508280E2C202D103110321E3401350836203707388039823E10C3
:4007C0003F11540F580459045B045F01800885C5873A89968B6891A39208935C95FE97019B019D7F9E02A201A60CA90EABF0B004B1FFB201B408B602BE10BF01D280D804FB
:40080000D904DB04DF01010204040541060A0B410E151080122014411520162019221A021B041C081E111F082102269228442A082BA02C012E062F0232A033053680370508
:4008400038203B043E213F045C815E287340800182848304902491209204930594029602980499019A049B059C01A080A221A3A0A502A680A70CB140C0F8C2E9C4FCCAD4F1
:40088000CCDFCEE6D6F0E204E880EA02EE020363078009030B080F1C112113421742198023802503270429802F2131703380370F39083B803F014006450449FF4A074BFF02
:4008C0004C404D204EF04F055008560859045A045B045C305D935F01604061A862406320840785588722880789018D28900492019408956097189B069D389F44A112A320DE
:40090000A580A601A920AA03B001B208B301B406B53EB7C0B820B980BE15BF04C063C102C50CC6EBC80DC9FFCAFFCBFFCEF0CF44D00CD804D904DA04DC30DD03DF01E6C03D
:40094000EA40EB02002402080A6010601204130119081A801B102214230125402602276028402A042B042C082D042F41308032183408371138843B203D923E04400441080D
:4009800048204A084E204F2850405310550856045C105D40640A664067066F037C087F20820185088B848C808E40901891449204938097029C019E409FD1A00AA241A308F4
:4009C000A720A940C006C20CC406CAF7CCEECEFED006D224D630D830E408EA02EE06001602090308040805030613070408080A151503170C19031B041E16210A2304260245
:400A000027052A09301B330F34073A223B0854015604580459045B045C335D305F018103830C86018F10900291049301950897029E019F10A402A50FA802A90FAD05AF0A0E
:400A4000B10FB201B510B602BB08BE04BF10C061C102C204C405C60CC7E0C824C9FFCAFFCBFFCC62CDA0CEF0CF41D00CD418D604D804D904DA04DB04DC33DD33DF01E64059
:400A8000E702E910EA30EB10ED10EE10EF120024010207200B010C020F0212241514180419021A401D801F04202021082511271029022A042D142F0A30303108344A3640E4
:400AC00038043B013D023F804441458047104C044E02574158105A885B025E0260406681670880408B128D108E809008910492889321940495109640980A9A049B209C01FC
:400B00009E019F10A022A263A30AA410A501C02EC291C466CA73CCD6CE93D0B0D230D68FD8B1E408301033013640370838408304CCF0CE10E62001020740308081028410B9
:400B400094409C109F09A304A640C030CC10E420E6401310510858085C08600863088F40944097109B409F09A304A640A708B080B318C440D420D6C0D8401B011D08810843
:400B8000841094409D029F09A508A640A708A902C630E080E640EC200040090157018710C002C208D60490409720A701B501EA080B240F4090409720A701C20E030805020C
:400BC0008308944098109D029F08A301A708AE40AF01B301C060E220EA40EE405F8063026410774080408340878094409810A301D660D880DE20E240E6A08701A701A84024
:400C0000AF4474018401DE0400090101080109010A010B010C08100911011A011C081D0100EA010B1300000000000000001C1C001C0000004000073838000000C000000040
:400C4000000B0B00000000000800740A0A00080000000000847B7B003800000000000000000000000000000000000000000000000000000000000000000000000000000014
:400C80000000000000000000000000000000000000000000000000000000000000000000000000000000000000000000000000000000000000000000000000000000000034
:400CC00000000000000000000000000000000000000000000000000000000000000000000000000000000000000000000000000000000000000000000000000000000000F4
:400D000000000000000000000000000000000000000000000000000000000000000000000000000000000000000000000000000000000000000000000000000000000000B3
:400D40000000000000000000000000000000000000000000000000000000000000000000000000000000000000000000000000000000000000000000000000000000000073
:0200000490006A
:0400000000004007B5
:0200000490105A
:04000000BC90ACAF55
:0200000490303A
:020000000E5799
:0200000490402A
:4000000000000000000000000000000000000000000000000000000000000000000000000000000000000000000000000000000000000000000000000000000000000000C0
:400040000000000000000000000000000000000000000000000000000000000000000000000000000000000000000000000000000000000000000000000000000000000080
:400080000000000000000000000000000000000000000000000000000000000000000000000000000000000000000000000000000000000000000000000000000000000040
:4000C0000000000000000000000000000000000000000000000000000000000000000000000000000000000000000000000000000000000000000000000000000000000000
:0200000490501A
:0C00000000012E16106900012E2E1EC0FB
:00000001FF