:400000000080002011000000090600000906000080B500AF024A034B1B68136000F0FEFABC760040FA46004010B5054C237833B9044B13B10448AFF300800123237010BD01
:400040006081FF1F0000000098360000084B10B51BB108490848AFF300800848036803B910BD074B002BFBD0BDE81040184700BF000000006481FF1F98360000C880FF1F36
:400080000000000080B584B000AF344B1B8801339AB2324B1A80314B1B88632B05D92F4B00221A802E4B01221A702E4B1B8801339AB22C4B1A802B4B1B88B3F57A7F05D349
:4000C000284B00221A80284B01221A70244B1B78002B3CD0224B00221A7002F01BFD0346FB60224B1B68FA68D31ABB601F4AFB6813601F4AFB681360B86803F0E9F803469C
:400100001C49184603F038F903467B601A4A7B681360194B1B681949184603F0E1F903463B603B681946184603F01EF803461449184603F021F903461A46124B1A6012494D
:40014000386803F019F903461A46104B1A6000F08DFB00BF1037BD4680BD00BF8281FF1F8881FF1F8481FF1F8981FF1F9081FF1F9481FF1F00007A449881FF1F000064434E
:40018000DB0F49409C81FF1F00007042A081FF1F80B500AF62B602F0F9FA02F0BBFB02F0A1FC002002F0C8FC02F0B4FC03461A46294B1A6002F02EFF0121002000F084FBA9
:4001C000264802F0C9FD00F02FFB642002F0FAF902F010FE0346002B0CBF01230023DBB2184602F0A1FE02F015FE0346002B0CBF01230023DBB2184602F0D0FE02F01AFE14
:400200000346002B0CBF01230023DBB2184602F0A9FE02F01FFE0346002B0CBF01230023DBB2184602F0D8FE02F024FE0346002B0CBF01230023DBB2184602F039FE02F0CC
:4002400029FE0346002B0CBF01230023DBB2184602F04CFEB9E700BF9081FF1F8500000080B582B000AF786039603A680021786803F009FA00BF0837BD4680BD80B584B0D0
:4002800000AFF860B9607A607A68B968F86803F0EFF900BF1037BD4680BD00BF80B483B000AF0346FB71FEE780B487B000AF7860396000233B6100237B6127E07B699B0082
:4002C0007A6813441B68BB60BB68FB73BB6823F0FF03BB6014E03B695B003A6813441B781A46BB68134419463B695B003A6813445B780B703B6901333B61FB7B013BFB73B1
:40030000FB7B002BE7D17B6901337B617B69252BD4D900BF1C37BD4680BC704780B582B000AF394B04221A80384B18221A70384B17221A80374B19221A70374B3B221A80D0
:40034000364B18221A70364B81221A80354B18221A70354B06221A70344B52221A70344B344A1278D2B21A70334B40F619121A80324B41F251221A800023FB7019237B6017
:4003800014E0FB785B00DAB22D4B1B78DBB203F00103DBB21343DBB203F00303FB704FF4F07002F089FE7B68013B7B607B68002B02D0FB78032BE4D17B68002B02D103203C
:4003C000FFF76CFF1F4B4FF480721A801D4B07221A701D4B00221A701C4B48221A70194B00221A701A4B00221A701A4B02221A70194A194B1B78DBB243F00F03DBB2137069
:4004000000BF0837BD4680BD80400040824000408440004086400040884000408A4000408C4000408E4000400043004000420040A14600400F01004922420040204200407B
:40044000254200400440004006400040084000400940004001400040A243004080B483B000AF0B4B1B78FB710A4AFB7903F00703DBB21370084AFB791B09DBB21370074B88
:4004800044221A7000BF0C37BD4680BC704700BFCF0100496E5800406F5800407658004080B582B000AF72B63E4B61221A70FFF735FF3C4B01221A700023FB7113E0FA793A
:4004C00013465B0013445B00374A13443B603B681A683B689B889BB219461046FFF7C0FEFB790133FB71FB79062BE8D92F494FF09040FFF7D9FE2E4B2E4A1A602E4B2F4A57
:400500001A602F4A2E4B1B78DBB243F00203DBB213702C4A2B4B1B78DBB243F00203DBB21370294A284B1B78DBB243F04003DBB21370264A254B1B78DBB243F01003DBB234
:400540001370082222492348FFF798FE082222492248FFF793FE0A2221492248FFF78EFE082221492148FFF789FE0A2220492148FFF784FE082220492048FFF77FFE204A9C
:400580001F4B1B78DBB243F00803DBB21370FFF765FF0E220C491B48FFF770FE00BF0837BD4680BD004800409C3600009800004858140140040400C458180140040400848F
:4005C0000350014013500140A0430040C2430040040B0048025100400C0B0048C2510040140B0048F0510040200B004812510040280B004820510040340B0048325100404B
:4006000022430040B043004080B500AF03F004F803461B680C2B00D1FEE7FEE780B586B000AF224B7B61224B3B61204B7B6135E03B691B68FB603B695B68BB603B699B68FE
:400640003B6000237B600CE0FB681A68BB681A60BB680433BB60FB680433FB607B6804337B607A683B689A42EED13B69DB683B6000237B6008E0BB6800221A60BB68043373
:40068000BB607B6804337B607A683B689A42F2D13B6910333B617B69013B7B617B69002BC6D102F0BFFFFFF773FDFEE701000000A038000080B582B000AF184B184A1A60B8
:4006C000184A184B1B6843F40073136000237B600FE07B68032B04D8134A7B6852F8233000E0124B12497A6841F822307B6801337B607B682F2BECD90E4B1B78DAB20E4B14
:400700001A700E4B0A4A1A60FFF7CAFE0C4B00221A6000BF0837BD4680BD00BF0CED00E00004FA0514ED00E000000000090600000080FF1FBC760040C480FF1F08ED00E047
:40074000C080FF1F80B500AF214A214B1B78DBB203F00103DBB213701E4A1E4B1B78DBB223F00303DBB213701B4A1B4B1B78DBB223F03003DBB21370174A174B1B78DBB2FB
:4007800043F03003DBB21370134A134B1B78DBB223F00F03DBB213700F4A0F4B1B78DBB243F00F03DBB213700C4A0C4B1B78DBB243F00103DBB21370042000F063F80420E4
:4007C00000F072F8082000F041F800BF80BD00BF184F00401A4F0040234F0040194F004080B400AF0D4A0D4B1B78DBB243F00403DBB213700A4A0A4B1B78DBB243F00403EA
:40080000DBB21370074A074B1B78DBB243F00103DBB2137000BFBD4680BC7047A3430040B3430040184F004080B500AF064B1B78002B04D1FFF786FF034B01221A70FFF7B2
:40084000CFFF00BF80BD00BFB681FF1F80B483B000AF0346FB71044AFB79137000BF0C37BD4680BC704700BF1B4F004080B400AF034B1B78DBB21846BD4680BC704700BFC5
:400880001B4F004080B485B000AF0346FB71FB79FB81044AFB89138000BF1437BD4680BC704700BF1C4F004080B483B000AF0346FB71044BFA7992B21A8000BF0C37BD4692
:4008C00080BC70471E4F004080B582B000AF03460A46FB711346BB71094B1B78002B04D100F010F8064B01221A70BA79FB791146184600F0D9F800BF0837BD4680BD00BFC1
:40090000B781FF1F80B582B000AF02F0DDFB0346FB71544A534B1B78DBB243F00103DBB21370514A504B1B78DBB243F00103DBB213704E4B01221A704D4B02221A704D4A69
:400940004C4B1B78DBB203F07F03DBB21370002001F05AFE484A484B1B78DBB223F00603DBB21370454A454B1B78DBB223F02003DBB21370404A404B1B78DBB243F0010370
:40098000DBB21370012001F03FFE282001F03CFE3B4A3B4B1B78DBB203F07F03DBB21370374A374B1B78DBB223F04003DBB21370314A314B1B78DBB243F00203DBB21370CD
:4009C000022001F021FE2C4A2B4B1B78DBB243F00403DBB213702B4B00221A702A4B00221A70FB79184602F073FB0721172001F047FE2649172001F01BFE0721182001F064
:400A00003FFE2349182001F013FE0721152001F037FE2049152001F00BFE0721002001F02FFE1D49002001F003FE0721012001F027FE1A49012001F0FBFD0721022001F0D3
:400A40001FFE1749022001F0F3FD07210C2001F017FE14490C2001F0EBFD00BF0837BD4680BD00BFA5430040B54300409D600040096000401060004094430040126000407E
:400A8000F85100408460004085600040FD140000E50D0000F114000009140000511400009D1400000915000080B582B000AF03460A46FB711346BB712E4AFB7913702E4B83
:400AC00000221A702D4B00221A702D4B00221A702C4B00221A702C4B00221A702B4B00221A702B4B00221A702A4B4FF400021A60284B4FF080721A60264B4FF400121A60E6
:400B0000244B01221A60234B02221A60214B04221A60BB79002B02D0012B09D011E01E4A1D4B1B78DBB223F00103DBB2137011E0194A194B1B78DBB243F00103DBB2137034
:400B400008E0154A144B1B78DBB243F00103DBB2137000BF114B03221A70114B80221A70012002F0A9FA0F4B04221A7000BF0837BD4680BDD981FF1FDC81FF1FF881FF1F8E
:400B8000FB81FF1FF081FF1FFA81FF1FFD81FF1FD881FF1F00E100E00960004028600040086000401260004080B400AF0F4B00221A700F4B00221A700E4B00221A700E4B87
:400BC00000221A700D4B00221A700D4B00221A700C4B00221A700C4B03221A700B4B80221A7000BFBD4680BC704700BFDC81FF1FF881FF1FFB81FF1FF081FF1FFA81FF1F6E
:400C0000FD81FF1FD881FF1F286000400860004080B582B000AF0023FB71314B1B79DBB2184600F067F80346BB712D4B1B78DBB25BB2002B15DA2A4B5B78DBB2212B00D01D
:400C400048E0284B07221A80BA791346DB009B1A254A1344234A536000F03EFA0346FB7138E01F4B5B78DBB2202B02D0222B1AD030E01C4B07221A80BA791346DB009B1AAB
:400C8000194A1344174A5360BB79BA7917498A5CD2B242F00102D1B2144AD15400F09AFA0346FB7116E0BB790D4A9278D2B291B20F4A22F81310BB79BA790C498A5CD2B2B3
:400CC00042F00202D1B2094AD15400F021FB0346FB7100BFFB7918460837BD4680BD00BF00600040E481FF1FCC80FF1FC081FF1FD481FF1F80B485B000AF0346FB710023E4
:400D0000FB73FF23BB7317E0FB7B104AD35C7B737A7B0F4913465B0013449B000B440A331B78DBB2FA799A4203D1FB7BBB730223FB73FB7B0133FB73FB7B012BE4D9BB7B6B
:400D400018461437BD4680BC704700BFC881FF1F0082FF1F80B485B000AF78600B46FB701346BB707B68DB7803F00303FB737B689B785BB2002B1ADAFB7B032B0AD0BB786E
:400D800003F001031449FA78CA54BB7843F00103BB701BE0BB789B08DBB203F001030F49FA78CA54BB7843F00403BB700EE0FB7B032B0BD0BB785B08DBB203F0010308490D
:400DC000FA78CA54BB7843F00203BB70BB7818461437BD4680BC7047C481FF1FC881FF1FCC81FF1F80B582B000AF374B1B78BB71BB7903F01003002B62D00123FB7197F9B8
:400E00000630002B12DABB7903F00F03012B02D00023FB711CE000F061F82C4B1B78DBB25BB2002B14DA0023FB7111E0BB7903F04003002B02D000F095F809E0BB7903F029
:400E40002003002B02D000F0B3F801E00023FB71FB79002B34D01C4B1B78BB7197F90630002B2DDB1A4B1B78DAB21A4B1B78DBB21343BB71184ABB791370174B1B78DBB25F
:400E8000BA799A421CD1114B1B78FB710E4B1B78DBB223F07F03BB71BB79002B0AD10A4B0A4A1278D2B21A70074B1B78DBB203F00F03FB71054B1B78DBB2FA799A42E2D1D1
:400EC00000BF0837BD4680BD28600040F981FF1F6E82FF1FFC81FF1F2960004080B582B000AF1D4B1B78FB711B4AFB7913701A4B1B78FB7197F90730002B03DA174AFB7901
:400F0000137025E0022000F045FA154B1B78DBB203F06003202B08D0402B0BD0002B0ED100F0F8FA0346FB710CE002F0D5F80346FB7107E001F000FB0346FB7102E000230B
:400F4000FB7100BFFB79002B02D1044B03221A7000BF0837BD4680BD28600040F981FF1F0060004080B500AF104B1B78DBB2062B19D801A252F823F0A70F0000A70F0000AB
:400F8000950F0000A70F00009B0F0000A70F0000A10F000000F0F8F806E000F0A7F903E000F0D2F900E000BF00BF80BDDC81FF1F80B500AF124B1B78DBB2062B1DD801A293
:400FC00052F823F0FB0F0000FB0F0000E10F0000FB0F0000E70F0000FB0F0000ED0F000000F0D8F80AE000F027F907E0032000F0D1F9044B03221A7000E000BF00BF80BD73
:40100000DC81FF1FF981FF1F80B483B000AF0023FB71294B1B78DBB29AB2284B1B889BB213449AB2254B1A8015E02549FB79254A52681278D2B2CA54224B5B680133214A0D
:401040005360FB790133FB711E4B1B889BB2013B9AB21C4B1A801B4B1B889BB2002B02D0FB79072BE1D9144B1B78DBB2082B02D0FB79002B0FD0144B1B78DBB283F07F039E
:40108000DB43DAB2104B1A70104B0F221A70104B02221A7005E00D4B02221A700C4B02221A700C4AFB791370034AFB79137000BF0C37BD4680BC7047D881FF1FDA81FF1F19
:4010C00000600040E481FF1F6E82FF1FF981FF1FDC81FF1FFC81FF1F80B582B000AF164B1B889BB2002B02D100F02EF81EE0134B02221A70124B00221A7000F06BF9114BD3
:40110000DB79DBB29BB21B029AB20E4B9B79DBB29BB21343FB80084B1B889BB2FA889A4202D2054AFB881380FFF76EFF012318460837BD4680BD00BFE481FF1FDC81FF1F05
:401140006E82FF1F0060004080B400AF094B02221A70094B80221A70084B0F221A70084B00221A70074B00221A7001231846BD4680BC7047DC81FF1F6E82FF1FF981FF1FB8
:40118000D881FF1FFC81FF1F80B500AFFFF73CFF00BF80BD80B500AF0A4B1B78DBB29AB2094B1B889BB213449AB2074B1A80074B00221A70012000F0EDF8054B03221A70A1
:4011C00000BF80BDD881FF1FDA81FF1FDC81FF1FF981FF1F80B582B000AF124B04221A70114B80221A7000F0F5F8104BDB79DBB29BB21B029AB20D4B9B79DBB29BB21343DA
:40120000FB800B4B1B889BB2FA889A4202D2084AFB881380074B0B221A70012318460837BD4680BDDC81FF1F6E82FF1F00600040E481FF1FF981FF1F80B483B000AF0023CC
:40124000BB71234B1B78DBB203F00F03DBB2023BFB71FB799AB21F4B1B889BB213449AB21C4B1A8018E01C4B5B681C49BA798A5CD2B21A70184B5B680133174A5360BB796B
:401280000133BB71FB79013BFB71134B1B889BB2013B9AB2104B1A800F4B1B889BB2002B02D0FB79002BDED10D4AFB7913700D4B1B78DBB283F07F03DB43DAB2094B1A700F
:4012C000094B0B221A7000BF0C37BD4680BC704729600040DA81FF1FE481FF1F00600040FC81FF1F6E82FF1FF981FF1F80B500AF054B00221A70012000F04CF8034B03229D
:401300001A7000BF80BD00BFDC81FF1FF981FF1F80B400AF084B06221A70084B06221A70074B80221A70074B00221A7001231846BD4680BC704700BFDC81FF1FF981FF1FA2
:401340006E82FF1FFC81FF1F80B500AF0D4B1B78DBB2002B0AD00C4A0A4B1B78DBB263F07F03DBB21370074B00221A70074B00221A70012000F00EF8054B03221A7000BFE2
:4013800080BD00BFFA81FF1F08600040DC81FF1FF981FF1F80B483B000AF0346FB710B4B9B68002B0CD0094B9B68FA791A70074B9B68074A128892B25A80044B00229A6095
:4013C00000BF0C37BD4680BC704700BFE481FF1FDA81FF1F80B400AF094B00221A80094B9B68002B07D0074B9B6800221A70054B9B6800225A8000BFBD4680BC704700BF2A
:40140000DA81FF1FE481FF1F80B400AF0D4B01221A700D4B9B7C0D4B1B7BDBB203F00303012B08D0094BDB7BDBB283F07F03DB43DAB2064BDA73054B01225A7300BFBD466B
:4014400080BC70470B600040FC5F00400082FF1F80B400AF0E4B02221A700E4B93F822300D4B1B7EDBB203F00303012B08D00A4BDB7EDBB283F07F03DB43DAB2064BDA767D
:40148000054B01225A7600BFBD4680BC704700BF0B600040FC5F00400082FF1F80B400AF104B04221A70104B93F832300F4B93F82430DBB203F00303012B0AD00B4B93F8B3
:4014C0002730DBB283F07F03DB43DAB2074B83F82720064B012283F8252000BFBD4680BC704700BF0B600040FC5F00400082FF1F80B400AF00BFBD4680BC704780B500AF4B
:40150000FFF752FB00BF80BD80B500AF01F03EF800BF80BD80B586B000AF0023FB759D4B1B78FB7100233B619B4B00221A8097F90730002B80F20481964B5B78DBB20A2B11
:4015400000F21B8201A252F823F000BF971600007B1900007B1900007B1900007B1900007B190000791500007B1900000B1700007B19000021170000864BDB78DBB2012B9F
:401580000ED100F049FEB860BB685B68824A5360814B12221A80FFF79FFD0346FB75EEE17C4BDB78DBB2022B25D17A4B9B78DBB2184600F009FEB860BB68002B00F0DF81AA
:4015C000BB685B68744A5360734B5B6803331B78DBB29BB21B029AB26F4B5B6802331B78DBB29BB213439AB26B4B1A80FFF774FD0346FB75C3E1674BDB78DBB2032B45D15C
:401600000023FB73654B3B6109E03B691B78BB71BB793A6913443B61FB7B0133FB735D4B9B78DBB2FA7B9A4204D23B691B78DBB2002BEAD1574B9B78DBB2EE2B01D1584BB6
:401640003B61544B9B78DBB2002B0BD0514B9B78DAB2544B1B7C9A4204D1534800F0ACF9514B3B613B691B78DBB2002B00F087813B691B78DBB29AB2474B1A80464A3B69A8
:401680005360FFF729FD0346FB7578E101F024FD0346FB7573E1FB7903F00303002B20D0022B00D030E03C4B02221A80394B1B79DBB203F07F023D4913465B0013449B000B
:4016C0000B4402331B78DAB2394B1A70384B00225A70314B364A5A60FFF7FEFC0346FB7512E02D4B02221A80324B1B78DAB2304B1A702F4B00225A70274B2D4A5A60FFF7A3
:40170000EBFC0346FB7500BF40E1234B01221A80214B294A5A60FFF7DFFC0346FB7535E11D4B01221A801B4B1B79DBB21A46234B1344194A5360FFF7CFFC0346FB7525E15E
:40174000144B5B78DBB2013B0A2B00F21A8101A252F823F05F18000083190000ED1800008319000081170000831900008319000083190000C5170000831900001B180000E1
:40178000044B9B78DAB20E4B1A70FFF7C1FD0346FB75FBE000600040E481FF1F343700003C380000DC3600007482FF1F0082FF1FB881FF1FFD81FF1FFB81FF1F6C82FF1FAF
:4017C000FA81FF1F744B9B787B717B79002B06D07B79013BDBB2184600F0F6FCB8607B79002B02D0BB68002B03D17B79002B40F0CA806A4B1B78DBB27A799A4208D0674AAF
:401800007B791370664B01221A70012000F0DCF9FFF77EFD0346FB75B5E000F055FE0346002B00F0B2805C4B1B793B715A4B1B79DAB25C4B1A703B795B4AD35CDAB23B79B0
:401840005A49CB5CDBB29A4204D0554B01221A7000F08CFBFFF75CFD0346FB7595E0FB7903F00303012B20D0012B0CD3022B00D03BE0494B9B78DBB2002B31D100F078FDAE
:401880000346FB752CE0444B9B78DBB2012B29D1474B1B78DBB223F00203DAB2444B1A70FFF736FD0346FB751CE03B4B1B79DBB2012B19D8384B9B78DBB2DB43DBB2364AAF
:4018C0001279D2B2114610463A4A125CD2B21340DAB2384B5A54FFF71BFD0346FB7503E000BF53E000BF51E000BF4FE0FB7903F00303012B20D0012B0CD3022B00D03BE080
:40190000254B9B78DBB2002B31D100F0BDFC0346FB752CE0204B9B78DBB2012B29D1244B1B78DBB243F00203DAB2214B1A70FFF7EFFC0346FB751CE0174B1B79DBB2012B3D
:4019400019D8154B9B78DBB2DB43DBB2124A1279D2B211461046174A125CD2B21340DAB2144B5A54FFF7D4FC0346FB7503E000BF0CE000BF0AE000BF08E000BF06E000BFB3
:4019800004E000BF02E000BF00E000BFFB7D18461837BD4680BD00BF00600040FB81FF1FF881FF1FF081FF1FE081FF1F6C82FF1FFD81FF1F7082FF1FB0B58AB000AF786063
:4019C000324B07F114041D460FCD0FC42B682370002387F826307B68002B52D07B6822221A707B68013303221A7007F10C03184600F06AFE022387F827303EE097F82730C7
:401A00007A68134497F8262007F128010A4412F81C2C1209D2B207F128010A4412F8142C1A7097F8273001337A68134400221A7097F8273002337A68134497F8262007F1D5
:401A400028010A4412F81C2C02F00F0207F128010A4412F8142C1A7097F8273003337A68134400221A7097F82630013387F8263097F82730043387F8273097F82730212B43
:401A8000BCD900BF2837BD46B0BD00BFC836000090B482B000AF0123FB7180E0464AFB791B0113440C221A70FA79444913465B0013449B000B4405331B78DBB2002B1CD09E
:401AC000FA793E4913465B0013449B000B4404331B78DBB25BB2002B07DA394AFB791B01134402330C221A700EE0354AFB791B011344023308221A7006E0314AFB791B0102
:401B00001344023380221A702B48F979FA792B4C13465B0013449B00234406331B889BB2DAB20B01034406331A702348F979FA79224C13465B0013449B00234406331B889F
:401B40009BB21B0A9BB2DAB20B01034407331A701948F979FA79194C13465B0013449B00234406331B889BB2DAB20B01034404331A701148F979FA79104C13465B001344DD
:401B80009B00234406331B889BB21B0A9BB2DAB20B01034405331A70FB790133FB71FB79082B7FF67BAF074BFF221A7000BF0837BD4690BC704700BF706000400082FF1F1D
:401BC000FC5F00400A60004080B58AB000AF0346FB7100237B84002387F8273050E097F82720B34913465B0013449B000B4400221A7097F82720AE4913465B0013449B009C
:401C00000B44023300221A7097F82720A84913465B0013449B000B44033300221A7097F82720A34913465B0013449B000B44083300221A8097F827209D4913465B00134461
:401C40009B000B440A3300221A7097F82720984913465B0013449B000B44013300221A7097F82720924913465B0013449B000B44053300221A7097F82730013387F827308B
:401C800097F82730082BAAD9FB79002B16D0002387F825300EE097F82530864A0021D15497F82530844A0021D15497F82530013387F8253097F82530012BECD97F4B1B780E
:401CC000DBB2002B00F04A810023FB767B4B1B78DBB2013BDBB2184600F076FA78617B695B683B613B6907331B7803F04003002B08D0734B1B78DBB243F00103DAB2704B4E
:401D00001A7007E06E4B1B78DBB223F00103DAB26B4B1A707B6908337B617B691B7887F82730012387F82530B6E07B695B68FB61002387F82630A3E097F82520FB699B78D7
:401D400003F07F039A4240F0938097F82520584913465B0013449B000B4408331B889AB2FB699B889A420CD297F82520FB6998884F4913465B0013449B000B440833024692
:401D80001A80FB691B781A464A4B9B5CDAB2FB695B789A426CD197F82520FB699878444913465B0013449B000B44043302461A7097F82520FB69D8783D4913465B001344DE
:401DC0009B000B4402461A70FB69DB7803F00303FB73FB699B785BB2002B1CDA97F82520FB7B012B01D1072000E00D20304913465B0013449B000B44053302461A7097F8E1
:401E000025202B4913465B0013449B000B44013301221A701BE097F82520FB7B012B01D1052000E00920224913465B0013449B000B44053302461A7097F825201C491346A6
:401E40005B0013449B000B44013300221A70FB699B790A2B03D0FB699B79022B08D1FA7E97F825301946F869FEF774FF0346FB76FB690833FB6197F82630013387F82630C1
:401E800097F8262097F827309A42FFF455AF97F82530013387F8253097F82530082B7FF644AF7B695B68FB61002387F8253020E00082FF1F6C82FF1FE081FF1FFB81FF1F6A
:401EC000FD81FF1FFB699B7803F07F02FB691878244913465B0013449B000B440A3302461A70FB690833FB6197F82530013387F8253097F8252097F827309A42E2D300F0D4
:401F00009DF90246184B1A6000237B84012387F827301DE097F82720124913465B0013449B000B4406337A8C1A8097F827200D4913465B0013449B000B4408331B889AB283
:401F40007B8C13447B8497F82730013387F8273097F82730082BDDD9FFF79AFD00BF2837BD4680BD0082FF1FF481FF1F90B585B000AF8F4B1B78DBB2002B00F015818C4B7C
:401F80001B78DBB2013BDBB2184600F01DF978607B6808337B607B681B78FB707B685B68BB60844B1B78BB700023FB73F7E0BB681B78BA789A4240F0EC80BB787E4AD35CE2
:401FC000DAB2BB685B789A4240F0E380BB689B7803F07F037B70BB68DB7803F003033B707A78764913465B0013449B000B44033300221A707A78BB689878704913465B0026
:4020000013449B000B44043302461A707A78BB68D8786A4913465B0013449B000B4402461A707A78BB689888644913465B0013449B000B44083302461A80BB689B785BB240
:40204000002B1ADA7A783B78012B01D1072000E00D205A4913465B0013449B000B44053302461A707A78554913465B0013449B000B44013301221A7019E07A783B78012B98
:4020800001D1052000E009204C4913465B0013449B000B44053302461A707A78474913465B0013449B000B44013300221A70444A7B781B011344023301221A7040487978E6
:4020C0007A783E4C13465B0013449B00234408331B889BB21B0A9BB2DAB20B0103441A70374879787A78354C13465B0013449B00234408331B889BB2DAB20B010344013323
:402100001A70304879787A782C4C13465B0013449B00234406331B889BB2DAB20B01034406331A70274879787A78244C13465B0013449B00234406331B889BB21B0A9BB200
:40214000DAB20B01034407331A701E4879787A781A4C13465B0013449B00234406331B889BB2DAB20B01034404331A70154879787A78124C13465B0013449B002344063353
:402180001B889BB21B0A9BB2DAB20B01034405331A70BB680833BB60FB7B0133FB73FA7BFB789A42FFF403AF00BF1437BD4690BDFB81FF1FF081FF1F6C82FF1F0082FF1FF3
:4021C000FC5F00407060004080B485B000AF0346FB710F4B1B78DBB20E4ADB0013445B68FB60FB681033FB60FB681B78FA799A4202D30023FB6005E0FB79DB00FA681344BF
:402200005B68FB60FB6818461437BD4680BC7047D981FF1F3438000080B400AF054B1B78DBB2054ADB0013445B681846BD4680BC704700BFD981FF1F3438000080B584B0A3
:4022400000AF104B1B78DBB2013BDBB21846FFF7BBFFB860BB68002B0DD0BB685B681B79FB71FB790233DB00BA681344BB60BB685B68FB6001E00023FB60FB681846103774
:40228000BD4680BDFB81FF1F80B582B000AF0023FB71344B1B79DBB203F07F03BB71BB79002B5AD0BB79082B57D8BA79B9792E480B465B000B449B00034402331B78DBB232
:4022C00043F00103D8B2284913465B0013449B000B44023302461A70BA79234913465B0013449B000B44033300221A70BA79B9791D480B465B000B449B00034401331B78CC
:40230000DBB243F00203D8B2174913465B0013449B000B44013302461A70BA79124913465B0013449B000B4404331B78DBB25BB2002B07DA0D4ABB791B01134402338D221E
:402340001A7006E0094ABB791B011344023389221A70FEF7DDFF0346FB71FB7918460837BD4680BD006000400082FF1FFC5F004080B582B000AF0023FB71504B1B79DBB276
:4023800003F07F03BB71BB79002B00F09280BB79082B00F28E80BA79B97949480B465B000B449B00034402331B78DBB223F00103D8B2434913465B0013449B000B44023335
:4023C00002461A70BA793E4913465B0013449B000B44033300221A703A49BB793948BA79120102441278D2B202F07F02D2B21B010B441A70BA79B97931480B465B000B44E3
:402400009B00034401331B78DBB223F00203D8B22B4913465B0013449B000B44013302461A70BA79264913465B0013449B000B4404331B78DBB25BB2002B1BDABA7920499E
:4024400013465B0013449B000B4401331B78DBB2012B07D11B4ABB791B01134402330C221A7022E0174ABB791B01134402330D221A701AE0BA79124913465B0013449B00F0
:402480000B4401331B78DBB2012B07D10D4ABB791B011344023308221A7006E0094ABB791B011344023309221A70FEF731FF0346FB71FB7918460837BD4680BD00600040F9
:4024C0000082FF1FFC5F004080B584B000AF0023FB73154B1B79BB73144B1B78DBB2013BDBB21846FFF770FEB860BB685B681B79FB71BA7BFB799A4202D9BB7B022B0ED825
:40250000BB7BBA7B0A498A5CD1B20A4AD154BB7B054A9278D1B2064AD1540123FB73FB7B18461037BD4680BD00600040FB81FF1F6C82FF1FE081FF1F80B582B000AF002389
:40254000FB710F4B1B78DBB25BB2002B12DA0C4B5B78DBB2012B00D00CE00A4B0A4A5A60094B1B789AB2074B1A80FEF7B5FD0346FB7100BFFB7918460837BD4680BD00BF05
:4025800000600040E481FF1F5038000080B400AF054B1B78DBB203F040039B09DBB21846BD4680BC704700BF8F45004080B483B000AF0346FB7101BE00BF0C37BD4680BCC4
:4025C000704700BF80B582B000AF786008E00C4B1B68184600F070FD7B68A3F500437B607B68B3F5004FF2D8064B1B687A6802FB03F3184600F060FD00BF0837BD4680BD2B
:40260000F480FF1FEC80FF1F80B582B000AF0346FB80FB88054A127802FB03F3184600F04BFD00BF0837BD4680BD00BFF080FF1F80B584B000AF03463960FB710F4B1B68F1
:40264000FB60FB791F2B02D90020FFF7AFFFFB7903F01F0310339B00FA6813441B68BB60FB7903F01F0310339B00FA6813443A681A60BB6818461037BD4680BD08ED00E0CB
:4026800080B582B000AF03460A46FB711346BB71BB79072B02D90020FFF788FFFB791F2B02D90020FFF782FFFB7903F01F0303F1604303F56443BA795201D2B21A7000BF5A
:4026C0000837BD4680BD00BF80B483B000AF7860264B1B78DBB21A467B681A60244B1B78DBB21B027A6812681A437B681A60214B1B78DBB21B047A6812681A437B681A60DD
:402700001D4B1B78DBB21B067A6812681A437B681A607B680433194A1278D2B21A60184B1B78DBB21A027B6804337968043109680A431A60134B1B78DBB21A047B68043318
:402740007968043109680A431A600F4B1B78DBB21A067B6804337968043109680A431A6000BF0C37BD4680BC704700BF0301004904010049EC4600400201004901010049AE
:4027800000010049050100490601004980B500AF064B1B78002B04D100F00AF8034B01221A7000F063F800BF80BD00BFBA81FF1F80B582B000AF284A274B1B78DBB243F0CF
:4027C0000203DBB21370254B1B78DBB223F07003FB71224AFB7943F01003DBB21370204A1F4B1B78DBB223F03003DBB213701C4A1B4B1B78DBB243F03003DBB21370184AFE
:40280000174B1B78DBB223F00F03DBB21370144A134B1B78DBB243F00F03DBB21370FF2000F048F87F2000F055F8002000F062F80C4A0C4B1B78DBB243F00103DBB2137007
:40284000094A094B1B78DBB243F00103DBB2137000BF0837BD4680BD004F0040024F00400B4F0040A3430040014F004080B400AF0D4A0D4B1B78DBB243F00103DBB21370A3
:402880000A4A0A4B1B78DBB243F00103DBB21370074A074B1B78DBB243F00103DBB2137000BFBD4680BC7047A3430040B3430040004F004080B483B000AF0346FB71044B44
:4028C000FA7992B21A8000BF0C37BD4680BC7047044F004080B483B000AF0346FB71044BFA7992B21A8000BF0C37BD4680BC7047064F004080B483B000AF0346FB71044AEB
:40290000FB79137000BF0C37BD4680BC704700BF034F004080B500AF064B1B78002B04D100F00AF8034B01221A7000F063F800BF80BD00BFBB81FF1F80B582B000AF284ABA
:40294000274B1B78DBB243F00203DBB21370254B1B78DBB223F07003FB71224AFB7943F01003DBB21370204A1F4B1B78DBB223F03003DBB213701C4A1B4B1B78DBB243F05C
:402980003003DBB21370184A174B1B78DBB223F00F03DBB21370144A134B1B78DBB243F00F03DBB21370FF2000F048F87F2000F055F8002000F062F80C4A0C4B1B78DBB228
:4029C00043F00203DBB21370094A094B1B78DBB243F00103DBB2137000BF0837BD4680BD0C4F00400E4F0040174F0040A34300400D4F004080B400AF0D4A0D4B1B78DBB2F1
:402A000043F00203DBB213700A4A0A4B1B78DBB243F00203DBB21370074A074B1B78DBB243F00103DBB2137000BFBD4680BC7047A3430040B34300400C4F004080B483B020
:402A400000AF0346FB71044BFA7992B21A8000BF0C37BD4680BC7047104F004080B483B000AF0346FB71044BFA7992B21A8000BF0C37BD4680BC7047124F004080B483B050
:402A800000AF0346FB71044AFB79137000BF0C37BD4680BC704700BF0F4F004080B400AF00BFBD4680BC704780B582B000AF0F2000F06AF800F05AF800F006FB0346FB7101
:402AC000074A074B1B78DBB243F01003DBB21370FB79184600F0FCFA00BF0837BD4680BD9965004080B500AF00F0AEF84FF4004000F0D8F8064B1B78002B04D1FFF7CEFF25
:402B0000034B01221A70FFF7CFFF00BF80BD00BFBC81FF1F80B582B000AF00F0D3F80346FB80FB88A3F500439BB2BB80B7F9043018460837BD4680BD80B584B000AF034623
:402B4000FB80B7F90630002B04DBFB88A3F50043FB8103E0FB88A3F50043FB81FB89184600F0A0F800BF1037BD4680BD80B400AF044B1B78DBB203F00F03DBB21846BD465E
:402B800080BC70476965004080B483B000AF0346FB71044AFB79137000BF0C37BD4680BC704700BF8965004080B582B000AF1C4B1B78DBB223F00703FB71194AFB7913709F
:402BC000174B1B78DBB223F00303FB71144AFB79137000F0B3F84FF4004000F08FF84FF4004000F05FF8002000F040F800F04EF84FF4004000F092F800F066FA0346BB71DA
:402C0000084A084B1B78DBB243F01003DBB21370BB79184600F05CFA00BF0837BD4680BD796500409865004080B400AF054A054B1B78DBB263F07F03DBB2137000BFBD46BF
:402C400080BC70477965004080B500AF064B1B78002B04D1FFF7A8FF034B01221A70FFF7E3FF00BF80BD00BFBD81FF1F80B483B000AF0346FB71044AFB79137000BF0C37E2
:402C8000BD4680BC704700BF8865004080B400AF034B1B78DBB21846BD4680BC704700BF6865004080B483B000AF0346FB80044AFB88138000BF0C37BD4680BC704700BFCC
:402CC0000C6A004080B400AF044B1B78044B1B889BB21846BD4680BC704700BF066500408C6A004080B400AF034B1B889BB21846BD4680BC704700BF8C6A004080B483B055
:402D000000AF0346FB80044AFB88138000BF0C37BD4680BC704700BF4C6A004080B483B000AF0346FB80044AFB88138000BF0C37BD4680BC704700BF6C6A004080B500AF20
:402D400001E0FFF7CFFFFFF7A1FF034603F04003002BF6D100BF80BD80B582B000AF786000F03CF8786800F009F8072000F018F800F028F800BF0837BD4680BD80B485B0EA
:402D800000AF7860054B1B68FB60FB685C337A681A6000BF1437BD4680BC704708ED00E080B483B000AF0346FB71054AFB795B01DBB2137000BF0C37BD4680BC704700BF8A
:402DC00007E400E080B400AF034B80221A6000BFBD4680BC704700BF00E100E080B400AF034B80221A6000BFBD4680BC704700BF80E100E080B400AF054B1B78DBB203F03E
:402E000010031B09DBB21846BD4680BC704700BF0151004080B400AF054B1B78DBB203F020035B09DBB21846BD4680BC704700BF2151004080B400AF054B1B78DBB203F0C4
:402E400040039B09DBB21846BD4680BC704700BF2151004080B400AF054B1B78DBB203F004039B08DBB21846BD4680BC704700BF3151004080B400AF054B1B78DBB203F081
:402E80008003DB09DBB21846BD4680BC704700BF3151004080B400AF044B1B78DBB203F00103DBB21846BD4680BC7047F151004080B485B000AF0346FB710B4B1B78DBB25A
:402EC00023F00803FB730849FB79DB00DBB203F00803DAB2FB7B1343DBB20B7000BF1437BD4680BC704700BFF051004080B485B000AF0346FB710B4B1B78DBB223F0100312
:402F0000FB730849FB791B01DBB203F01003DAB2FB7B1343DBB20B7000BF1437BD4680BC704700BFF051004080B485B000AF0346FB710B4B1B78DBB223F02003FB730849D7
:402F4000FB795B01DBB203F02003DAB2FB7B1343DBB20B7000BF1437BD4680BC704700BFF051004080B485B000AF0346FB710A4B1B78DBB223F00103FB730749FB7903F0C0
:402F80000103DAB2FB7B1343DBB20B7000BF1437BD4680BC704700BF1051004080B485B000AF0346FB710B4B1B78DBB223F00203FB730849FB795B00DBB203F00203DAB253
:402FC000FB7B1343DBB20B7000BF1437BD4680BC704700BF1051004080B485B000AF0346FB710B4B1B78DBB223F00803FB730849FB79DB00DBB203F00803DAB2FB7B13434B
:40300000DBB20B7000BF1437BD4680BC704700BF1051004080B500AF00F042F8044800F00FF8072000F01EF800F02EF800BF80BD3530000080B400AF00BFBD4680BC70479B
:4030400080B485B000AF7860054B1B68FB60FB684C337A681A6000BF1437BD4680BC704708ED00E080B483B000AF0346FB71054AFB795B01DBB2137000BF0C37BD4680BCE4
:40308000704700BF03E400E080B400AF034B08221A6000BFBD4680BC704700BF00E100E080B400AF034B08221A6000BFBD4680BC704700BF80E100E00230800803D000BFF3
:4030C00001380046FCD17047EFF3108072B6704780F31088704700BF80B582B000AF0023BB711B4B1B78DBB203F00303012B02D0022B04D012E0164B1B79FB7111E0144B75
:403100001B79DBB203F07F02124913465B0013449B000B440A331B78FB7102E00023FB7100BFFB79022B0ED80B4B1A68FB7913441B78022B04D1FDF76BFD0346BB7102E0CC
:403140000023BB7100BFBB7918460837BD4680BD006000400082FF1FF481FF1F80F0004002E000BF81F0004142001FBF5FEA410392EA030F7FEA226C7FEA236C6AD04FEABD
:403180001262D2EB1363C1BFD218414048404140B8BF5B42192B88BF704710F0004F40F4000020F07F4018BF404211F0004F41F4000121F07F4118BF494292EA030F3FD01D
:4031C000A2F1010241FA03FC10EB0C00C3F1200301FA03F100F0004302D5494260EB4000B0F5000F13D3B0F1807F06D340084FEA310102F10102FE2A51D2B1F1004F40EBEF
:40320000C25008BF20F0010040EA03007047490040EB000010F4000FA2F10102EDD1B0FA80FCACF1080CB2EB0C0200FA0CF0AABF00EBC25052421843BCBFD040184370477B
:4032400092F0000F81F4000106BF80F400000132013BB5E74FEA41037FEA226C18BF7FEA236C21D092EA030F04D092F0000F08BF0846704790EA010F1CBF0020704712F0D2
:403280007F4F04D1400028BF40F00040704712F100723CBF00F50000704700F0004343F0FE4040F4000070477FEA226216BF08467FEA23630146420206BF5FEA412390EAFC
:4032C000010F40F4800070474FF0000304E000BF10F0004348BF40425FEA000C08BF704743F0964301464FF000001CE050EA010208BF70474FF000030AE000BF50EA01025E
:4033000008BF704711F0004302D5404261EB41015FEA010C02BF84460146002043F0B64308BFA3F18053A3F50003BCFA8CF2083AA3EBC25310DB01FA02FC634400FA02FC0B
:40334000C2F12002BCF1004F20FA02F243EB020008BF20F00100704702F1200201FA02FCC2F1200250EA4C0021FA02F243EB020008BF20EADC7070474FF0FF0C1CEAD052C1
:403380001EBF1CEAD15392EA0C0F93EA0C0F6FD01A4480EA010C400218BF5FEA41211ED04FF0006343EA501043EA5111A0FB01310CF00040B1F5000F3EBF490041EAD371E0
:4033C0005B0040EA010062F17F02FD2A1DD8B3F1004F40EBC25008BF20F00100704790F0000F0CF0004C08BF49024CEA502040EA51207F3AC2BFD2F1FF0340EAC25070477C
:4034000040F400004FF00003013A5DDC12F1190FDCBF00F000407047C2F10002410021FA02F1C2F1200200FA02FC5FEA310040F1000053EA4C0308BF20EADC70704792F097
:40344000000F00F0004C02BF400010F4000F013AF9D040EA0C0093F0000F01F0004C02BF490011F4000F013BF9D041EA0C018FE70CEAD15392EA0C0F18BF93EA0C0F0AD019
:4034800030F0004C18BF31F0004CD8D180EA010000F00040704790F0000F17BF90F0004F084691F0000F91F0004F14D092EA0C0F01D142020FD193EA0C0F03D14B0218BF7E
:4034C000084608D180EA010000F0004040F0FE4040F40000704740F0FE4040F4400070474FF0FF0C1CEAD0521EBF1CEAD15392EA0C0F93EA0C0F69D0A2EB030280EA010C2E
:4035000049024FEA402037D04FF0805343EA111143EA10130CF000408B4238BF5B0042F17D024FF4000C8B4224BF5B1A40EA0C00B3EB510F24BFA3EB510340EA5C00B3EB51
:40354000910F24BFA3EB910340EA9C00B3EBD10F24BFA3EBD10340EADC001B0118BF5FEA1C1CE0D1FD2A3FF650AF8B4240EBC25008BF20F0010070470CF0004C4CEA502010
:403580007F32C2BFD2F1FF0340EAC250704740F400004FF00003013A37E792F0000F00F0004C02BF400010F4000F013AF9D040EA0C0093F0000F01F0004C02BF490011F459
:4035C000000F013BF9D041EA0C0195E70CEAD15392EA0C0F08D142027FF47DAF93EA0C0F7FF470AF084676E793EA0C0F04D14B023FF44CAF08466EE730F0004C18BF31F0D2
:40360000004CCAD130F000427FF45CAF31F000437FF43CAF5FE700BF014B1868704700BF5881FF1F0E4B70B51E460E4C0025E41AA410A54204D056F8253098470135F8E75E
:4036400000F01CF9084B094C1E46E41AA4100025A54204D056F8253098470135F8E770BD8838000088380000883800009038000010B5431E0A44914204D011F8014B03F870
:40368000014FF8E710BD03460244934202D003F8011BFAE77047000000000000004F0040240040510040300000000140001000140140000800400140000A004C01400002AD
:4036C000005001402000000030313233343536373839414243444546000000001201000202000008B40432F2010001028001000009024300020101C03209040000010202A1
:403700000103052400100104240202052406000105240100010705810308000A09040100020A000004070582024000000705030240000000040309042C0343007900700074
:4037400072006500730073002000530065006D00690063006F006E0064007500630074006F007200100355005300420055004100520054003803430044004300200043006C
:403780006F006D006D0075006E00690063006100740069006F006E00200049006E007400650072006600610063006500260343004400430020004400610074006100200098
:4037C00049006E00740065007200660061006300650000000203000000008103080002000100820240000A000100030240000A00020A000001000000F03600000300000050
:40380000D83700000000000000000000000000000000000000000000F037000001000000DC360000000000000000000001000000F4370000010000001C38000012034D005C
:40384000530046005400310030003000010000002800000000010400010000000000000000014359555342000000303030303100000000000000000043000000F8B500BF74
:40388000F8BC08BC9E4670474D000000B5060000F8B500BFF8BC08BC9E46704729000000B0380000C880FF1F98000000380100000000000000C2010000000800C201000098
:4038C00000080000A120000000000200000000000087930360EA00003C000000000030750000000000000000000000000000000000000000000000000000000000000000B5
:4039000078380000000000000000000000000000000000000000000000000000000000000000000000000000000000000000000000000000000000000000000000000000D7
:40394000F880FF1F000000000000000000000000000000000000000000000000000000000000000000000000000000000000000000000000000000000000000000000000B1
:403980000000000000000000000000000000000000000000000000000000000000000000000000000000000000000000000000000000000000000000000000000000000007
:4039C00000000000000000000000000000000000000000000000000000000000000000000000000000000000000000000000000000000000000000000000000000000000C7
:403A00000000000000000000000000000000000000000000000000000000000000000000000000000000000000000000000000000000000000000000000000000000000086
:403A40000000000000000000000000000000000000000000000000000000000000000000000000000000000000000000000000000000000000000000000000000000000046
:020000040003F7
:0200000480007A
:4000000001450040064F00400652004003640040046500405F00014035010140570201405703014052040140510501406D0601404A070140030B0140040D0140040E014009
:40004000020F0140551401405315014060160140511701403D1801403E190140111B01400A4001401A410140184201400C430140014401400B45014007460140044701405D
:400080000E48014012490140034C0140034D01400B500140035101407E0201200A4B0D20164B1910224B1108182019206014611C7C40800F8472870F846F8738886F890F0E
:4000C000043E0702083E0C140E2810021401182019011A081C101E04200C2230240128012C012F02303C33013401360237023E103F44403541024204440146E0470C4818D3
:4001000049FF4AFF4BFF4C624DA04EF04F41500C54015604580459045A045B045C035D335F016640670269106A306B106D106E106F12854087158C028E048F08910A933418
:400140009404953396029704980299339A149B0C9C029E0CA503A714AE01B008B206B30FB401B510B610B760B980BA08BB08BF10D608D804D904DB04DC30DD90DF010028CA
:4001800001400320044009A80A800E26100412421304140A1710188019601C401E2622042301254027182B032C102D083020371538883A403D803F0841584302480149409C
:4001C00050045210581159805A085C80634064028740C087C2EFC48FCA48CCE4CE52D00FD208D61FD811E208000F03080423061C0703080C09010A030B160C100E200F1C1D
:40020000101012A014051501160A170E1C07200A220528102A602D1C2F03300F32303480351A3640370F3A083BA0580459045C305F0187428B1C8C1C8E028F6390109121B9
:40024000934294109580960C9A03A014A40CA503A611A708A903AB04AC09AE10AF21B180B30FB41FB770BB28BF41C021C103C50CC6EBC80DC9FFCAFFCBFFCEF0CF44D00CCD
:40028000D608D804D904DA04DB04DC33DD93DF01E6C0EA40EB020180030105450708080809010A180C100D100E6110801180122016881A081D451F1420412150231424082F
:4002C0002620270528022A202B202D802E082F1030023204370438843A043B103D823E103F08400842024304490850A058A0600661A0680269408202830484108620908094
:40030000930195E096809704980899209A109C049D089F05A001A140A210A320A434A5A8A602A705A880AD80AF08B021C0F1C2BEC45DCA1ECC43CEFED00ED60CD80CE2042B
:40034000E602EA03010902C3060C0720080809020C3C0D100EC10F2010041107134814CF15491630170618FF19061B491C7C1D041E82202023092410254F283029062C0439
:400380002E082F10307031083307343F353036B0374039803AA03B0856025711580459045B045C335D305F01805D817F822088668A088C3B8DC58F3A91FE930195A396780C
:4003C000975C99969B68A066A210A680A701A840A90EAA08ABF0B078B4C0B5FFB607B880BF10D804D904DF01000601820204050106020708089209080E2010A2132015102A
:400400001680170419801A041B311C801D101E011F502004210822812704281229022A202D102F143080310832023320350136143708382139403A043C803E8349804A0296
:40044000580459205A0468146A8070B07220732090099140934996C1981A99219A149B019C049E809F08A003A210A414A509A602A705A840AF40B4A0C0DFC22FC47FCA6FA0
:40048000CCEFCE9FD604E202EC04030F08C00A240D9E0E070F6011FD1302148415CF1610173019301BC91CB71E40207721732608280129942AF22B602CC12E1234F035FF5A
:4004C000360F3F104025410149FF4AFF4BFF4DA04F0150185608580459045A045B045D905F016040628064406540668068406A806C406D206E808402850886148B048F01EA
:40050000910192019402960498029A0C9B039C049E029F04B001B102B208B301B410B504B606B708BA80BF54C035C101C54EC6C2C703C81FC9FFCAFFCBFFCDAFCE07CF010F
:40054000D018D280D40FD804D904DA04DB04DF01E040E280E440E540E680E840EA80EC40ED20EE8003200602070408010A190E221551170819401A591C021E0821462220CE
:40058000232027082D112F44311232803501361537043A903B043C823D403E02410442024602472049064A024C014E02508051205204580459015AA05F40640172808B04A7
:4005C0008D409008920293C99640980899119A109B01A040A290A501A604A704A880AB10C0C4C2AFC4F0CAA0CCEDCE9ED03AD218D61FD810E420E610E202EA50EC04AB8014
:40060000AF80E204E602B902BF01D904DF012780E208011003A0051007600808090F0D100F201001150A17051D231F1C200325072803290C2A0C2B032D052F0A3002314068
:400640003204330F340835803601373038823B803E50540F580459045B045F05819483608573860788C089FD8A248B028C848E1094B7959E9640976098C199CF9A129B30DA
:400680009D309FC9A001A2F2A608A877AB0FB20FB4F0B5FFBF10C006C740C9FFCA07CBFFCC40CD20CEF0CF05D008D804D904DA04DD03DF01E040E1A8E240E3200010055044
:4006C000062008020B800E080F10108012041608170A18121A081B011D181F04204622402332270829502A082E202F043004324034043550360438443B123C0A3E083F10AC
:400700004D104F0855015A095B906124780283208401850486018C808D108E018F9491189382940299449A049B04A084A120A205A509A705A940ABE0AC04B020B280B3089A
:40074000B644C0E2C268C47ACA2ECC7ACEEFD220D60FD806DE01E001E210E408E804EC40EE060210040C130314021A041D0220082601280C3010320C3401350236023701B3
:4007800038083E443F104054410349FF4AFF4BFF4DA04F0150185608580459045A045B045D905F016040628064406540668068406A806C406D206E80810283018401880829
:4007C0008C038E0C91049F0CA103A403AF03B001B108B204B304B408B502B602B701B882BE11BF54C014C103C532C64CC70EC81FC9FFCAFFCBFFCDAFCE07CF01D018D41810
:40080000D604D804D904DA04DB04DD30DF01E040E280E440E540E680E840EA80EC40ED20EE800098040806400E200F081020140816201701181019201B421E121F212106F3
:4008400022502640270428402B012D102E10308031023440350236403A024108428043824508468048604D405010528053085A025E405F20622163016660850889208A108B
:400880008C10900892029381940296A0980899469A069B019E01A080A120A220A501A724AC04AD01B140B601C037C260C474CA09CC99CE01D0CBD210D631D83DE082E602E1
:4008C000EA02EE4000C50140023A0308087F095D0B200CA30D660E5C0F10137814FE1601193B1C0E1EF0209621662268230827802A0133C034FF3507377839203E10540FAF
:40090000580459045B045F05840489028B019104970C9801A20CA303A503A603AE01B001B108B208B304B402B502B604B701BE41BF54D280D40FD804D904DB04DF010108F5
:400940000402060207080A040D040E100F021082110814401712198E1A041F20210A2250240225442620271829052E022F20300831023620370239203D803E103F025AA1E8
:400980005B085C015D845F2067286D106E8070027E208510864089148C818D089840B040C0D4C2A2C45DCAC3CCA3CEB4D6FFD860DE40E020E440E880EA02821087018E02C7
:4009C00096109E02A701A903AE20B008B104B201B334B401E040E8A0EA40EC203010330135803604394085A0CCF0CE10E210E640000807400B803120320835283B80831032
:400A000084109304954099209B049C109F41A604AB44AF04C030C210CCF0CE10E220E640EAC0EC80120833103720504054405B045F0463048720930495409B149D089F01E4
:400A4000A520A60CAC04C440CC30D460D6C0D840E240EC401B011C8088408C40948095409D089F01A440A520A604C630871001200A200B040F805301834087109710C002C5
:400A8000C20ED401870493049730AB01B520B610EA0A0B240F109730C20E01080304062087108B0195409D08A301A604AF01B520C070E640EA4001400E08531063026608D5
:400AC0008E0893209540A301A604AB04B620C040C280D420D640D880E8808801AF04E0017401A001DE0400090101080909010A090B01100911011A091B011C0100AA01BEAF
:400B000002FE00001300000000000000001C1C001C0000004000073838000000C0000000000B0B00000000000800740A0A00080000000000847B7B00380000000000000077
:400B40000000000000000000000000000000000000000000000000000000000000000000000000000000000000000000000000000000000000000000000000000000000075
:400B80000000000000000000000000000000000000000000000000000000000000000000000000000000000000000000000000000000000000000000000000000000000035
:400BC00000000000000000000000000000000000000000000000000000000000000000000000000000000000000000000000000000000000000000000000000000000000F5
:400C000000000000000000000000000000000000000000000000000000000000000000000000000000000000000000000000000000000000000000000000000000000000B4
:0200000490006A
:0400000000004007B5
:0200000490105A
:04000000BC90ACAF55
:0200000490303A
:02000000C5E059
:0200000490402A
:4000000000000000000000000000000000000000000000000000000000000000000000000000000000000000000000000000000000000000000000000000000000000000C0
:400040000000000000000000000000000000000000000000000000000000000000000000000000000000000000000000000000000000000000000000000000000000000080
:400080000000000000000000000000000000000000000000000000000000000000000000000000000000000000000000000000000000000000000000000000000000000040
:4000C0000000000000000000000000000000000000000000000000000000000000000000000000000000000000000000000000000000000000000000000000000000000000
:0200000490501A
:0C00000000012E16106900012E2ED649BA
:00000001FF