:400000000080002011000000490900004909000080B500AF024A034B1B68136000F0C6FCBC760040FA46004010B5054C237833B9044B13B10448AFF300800123237010BDB1
:400040006081FF1F000000006C480000084B10B51BB108490848AFF300800848036803B910BD074B002BFBD0BDE81040184700BF000000006481FF1F6C480000C880FF1F6A
:400080000000000080B584B000AF344B1B8801339AB2324B1A80314B1B88632B05D92F4B00221A802E4B01221A702E4B1B8801339AB22C4B1A802B4B1B88B3F57A7F05D349
:4000C000284B00221A80284B01221A70244B1B78002B3CD0224B00221A7003F00FF90346FB60224B1B68FA68D31ABB601F4AFB6813601F4AFB681360B86803F091FD0346FE
:400100001C49184603F0E0FD03467B601A4A7B681360194B1B681949184603F089FE03463B603B681946184603F0C6FC03461449184603F0C9FD03461A46124B1A6012499C
:40014000386803F0C1FD03461A46104B1A6000F055FD00BF1037BD4680BD00BF8281FF1F8881FF1F8481FF1F8981FF1F9081FF1F9481FF1F0000C8429881FF1F000064438C
:40018000DB0F49409C81FF1F00007042A081FF1F2DE9F04399B006AF62B602F0EBFE02F0ADFF03F093F8002003F0BAF803F0A6F803461A46354B1A600121002000F04CFDD6
:4001C000334803F0BDF900F0F7FC324B1B78002B29D0304B00221A702F4B1E682F4B1B68184603F00FFC04460D462D4B1B68184603F008FC804689462A4B1B68184603F079
:4002000001FC02460B46381DCDE90423CDE90289CDE900453346244A402103F0E5FE3B1D184600F047F800F049F9034687F8473097F84730042B1CD801A252F823F000BF5E
:40024000550200005B02000061020000670200006D02000000F064F90BE000F0B1F808E000F0BCF805E000F0C7F802E000F0D2F800BF00F03FF80D4B1B78002BA5D00C483D
:4002800000F018F8094B00221A709EE79081FF1F850000008981FF1F9481FF1F9881FF1FA081FF1F9C81FF1F704800008C81FF1F1C82FF1F80B582B000AF786000BF01F0BC
:4002C00013F90346002BFAD07B683F3300221A707B683E3321221A70786803F0BFFE03469BB21946786801F09BF800BF0837BD4680BD00BF80B582B000AF2C4B1B78002B61
:400300000AD100F04DFE0346002B49D001F034F8264B01221A7043E001F0D4F80346002B40D001F0F3F80346FB71FB790D2B02D0FB790A2B10D11E4B1B881A461D4B0021ED
:4003400099541C491C4803F081FE194B00221A801A4B01221A7026E0FB79082B02D0FB797F2B0AD1124B1B88002B06D0104B1B88013B9AB20E4B1A8015E00D4B1B883E2BD8
:4003800003D9212001F082F80DE0094B1B885A1C91B2074A11801946064AFB79535402E000BF00E000BF0837BD4680BDA581FF1FA681FF1FBC81FF1F1C82FF1F8C81FF1FE2
:4003C00080B500AFFF2002F03DFF4FF4827002F0EDFC7F2002F036FF00BF80BD80B500AFFF2002F06BFEFA2002F0E0FC7F2002F065FE00BF80BD00BF80B500AF912002F07E
:4004000021FF4FF4827002F0D1FC0C2002F01AFF00BF80BD80B500AF912002F04FFE4FF4827002F0C3FC0C2002F048FE00BF80BD80B582B000AF0023FB7103F0CFF80346B3
:400440005AB297F9073013435BB2FB7103F0D6F803465B005AB297F9073013435BB2FB7103F0DCF803469B005AB297F9073013435BB2FB7103F0E2F80346DB005AB297F9F9
:40048000073013435BB2FB7103F0E8F803461B015AB297F9073013435BB2FB7103F0EEF803465B015AB297F9073013435BB2FB71FB7918460837BD4680BD00BF80B582B0C5
:4004C00000AFFFF7B5FF0346FB71FB79063B092B20D801A252F823F00D05000015050000110500001505000009050000150500001505000015050000010500000505000045
:40050000002308E0012306E0022304E0042302E0032300E0002318460837BD4680BD00BF80B500AFD22002F0C9FDD22002F08AFE4FF47A7002F03AFC7F2002F0BFFD7F2094
:4005400002F080FE00BF80BD80B582B000AF786039603A680021786803F03DFD00BF0837BD4680BD80B584B000AFF860B9607A607A68B968F86803F023FD00BF1037BD4698
:4005800080BD00BF80B483B000AF0346FB71FEE780B487B000AF7860396000233B6100237B6127E07B699B007A6813441B68BB60BB68FB73BB6823F0FF03BB6014E03B696D
:4005C0005B003A6813441B781A46BB68134419463B695B003A6813445B780B703B6901333B61FB7B013BFB73FB7B002BE7D17B6901337B617B69242BD4D900BF1C37BD46BF
:4006000080BC704780B582B000AF394B04221A80384B18221A70384B3B221A80374B18221A70374B81221A80364B18221A70364B00221A80354B1B221A70354B06221A70AC
:40064000344B52221A70344B344A1278D2B21A70334B40F619121A80324B41F251221A800023FB7019237B6014E0FB785B00DAB22D4B1B78DBB203F00103DBB21343DBB240
:4006800003F00303FB704FF4F07003F005F87B68013B7B607B68002B02D0FB78032BE4D17B68002B02D10320FFF76CFF1F4B4FF480721A801D4B07221A701D4B00221A7046
:4006C0001C4B48221A70194B00221A701A4B00221A701A4B02221A70194A194B1B78DBB243F00F03DBB2137000BF0837BD4680BD80400040824000408440004086400040E5
:40070000884000408A4000408C4000408E4000400043004000420040A14600400F01004922420040204200402542004004400040064000400840004009400040014000407F
:40074000A243004080B483B000AF0E4B1B78FB710D4AFB7903F00703DBB213700B4AFB791B09DBB213700A4B04221A70094B01221A70094B44221A7000BF0C37BD4680BC86
:40078000704700BFCF0100496E5800406F5800400C510040935A00407658004080B586B000AF72B6514B61221A70FFF72BFF4F4B01221A704E4A4E4B1B78DBB243F00403E8
:4007C000DBB213700023FB7513E0FA7D13465B0013445B00474A13443B613B691A683B699B889BB219461046FFF7AEFEFB7D0133FB75FB7D072BE8D90023FB751CE0FA7DE4
:4008000013469B0013445B003B4A1344FB60FB681B68BB60FB685B687B60FB681A7A5B7A1B0213437B807B881A467968B868FFF799FEFB7D0133FB75FB7D002BDFD02F49C8
:400840004FF09040FFF7A4FE2D4A2D4B1B78DBB243F00203DBB213702A4A2A4B1B78DBB243F00203DBB21370274A274B1B78DBB243F04003DBB21370244A244B1B78DBB2A3
:4008800043F01003DBB21370082221492148FFF769FE082220492148FFF764FE0A2220492048FFF75FFE08221F492048FFF75AFE0A221F491F48FFF755FE08221E491F4860
:4008C000FFF750FE1E4A1E4B1B78DBB243F00803DBB21370FFF736FF0E220B491948FFF741FE00BF1837BD4680BD00BF00480040E846004098480000C84800009400004861
:400900000350014013500140A0430040C2430040F80A004802510040000B0048C2510040080B0048F0510040140B0048125100401C0B004820510040280B00483251004050
:4009400022430040B043004080B500AF03F00CFB03461B680C2B00D1FEE7FEE780B584B000AF78600F4B1A687B6813441A460E4BD31A802B09DC0B4B1B68FB60094B1A68DD
:400980007B681344074A136007E003F0EDFA02460C2313604FF0FF33FB60FB6818461037BD4680BDCC80FF1F7883FF1F80B586B000AF224B7B61224B3B61204B7B6135E02F
:4009C0003B691B68FB603B695B68BB603B699B683B6000237B600CE0FB681A68BB681A60BB680433BB60FB680433FB607B6804337B607A683B689A42EED13B69DB683B6044
:400A000000237B6008E0BB6800221A60BB680433BB607B6804337B607A683B689A42F2D13B6910333B617B69013B7B617B69002BC6D103F09FFAFFF7ABFBFEE70100000050
:400A4000E04A000080B582B000AF184B184A1A60184A184B1B6843F40073136000237B600FE07B68032B04D8134A7B6852F8233000E0124B12497A6841F822307B680133BF
:400A80007B607B682F2BECD90E4B1B78DAB20E4B1A700E4B0A4A1A60FFF780FE0C4B00221A6000BF0837BD4680BD00BF0CED00E00004FA0514ED00E0000000004909000064
:400AC0000080FF1FBC760040C480FF1F08ED00E0C080FF1F80B500AF214A214B1B78DBB203F00103DBB213701E4A1E4B1B78DBB223F00303DBB213701B4A1B4B1B78DBB26A
:400B000023F03003DBB21370174A174B1B78DBB243F03003DBB21370134A134B1B78DBB223F00F03DBB213700F4A0F4B1B78DBB243F00F03DBB213700C4A0C4B1B78DBB201
:400B400043F00103DBB21370042000F063F8042000F072F8082000F041F800BF80BD00BF184F00401A4F0040234F0040194F004080B400AF0D4A0D4B1B78DBB243F004039F
:400B8000DBB213700A4A0A4B1B78DBB243F00403DBB21370074A074B1B78DBB243F00103DBB2137000BFBD4680BC7047A3430040B3430040184F004080B500AF064B1B7888
:400BC000002B04D1FFF786FF034B01221A70FFF7CFFF00BF80BD00BFA881FF1F80B483B000AF0346FB71044AFB79137000BF0C37BD4680BC704700BF1B4F004080B400AF65
:400C0000034B1B78DBB21846BD4680BC704700BF1B4F004080B485B000AF0346FB71FB79FB81044AFB89138000BF1437BD4680BC704700BF1C4F004080B483B000AF03469E
:400C4000FB71044BFA7992B21A8000BF0C37BD4680BC70471E4F004080B582B000AF03460A46FB711346BB71094B1B78002B04D100F010F8064B01221A70BA79FB79114648
:400C8000184600F0D9F800BF0837BD4680BD00BFA981FF1F80B582B000AF02F005FD0346FB71544A534B1B78DBB243F00103DBB21370514A504B1B78DBB243F00103DBB254
:400CC00013704E4B01221A704D4B02221A704D4A4C4B1B78DBB203F07F03DBB21370002002F086F8484A484B1B78DBB223F00603DBB21370454A454B1B78DBB223F020039C
:400D0000DBB21370404A404B1B78DBB243F00103DBB21370012002F06BF8282002F068F83B4A3B4B1B78DBB203F07F03DBB21370374A374B1B78DBB223F04003DBB21370DE
:400D4000314A314B1B78DBB243F00203DBB21370022002F04DF82C4A2B4B1B78DBB243F00403DBB213702B4B00221A702A4B00221A70FB79184602F09BFC0721172002F076
:400D800073F82649172002F047F80721182002F06BF82349182002F03FF80721152002F063F82049152002F037F80721002002F05BF81D49002002F02FF80721012002F09F
:400DC00053F81A49012002F027F80721022002F04BF81749022002F01FF807210C2002F043F814490C2002F017F800BF0837BD4680BD00BFA5430040B54300409D60004064
:400E000009600040106000409443004012600040F85100408460004085600040E51C0000CD150000D91C0000F11B0000391C0000851C0000F11C000080B582B000AF034678
:400E40000A46FB711346BB712E4AFB7913702E4B00221A702D4B00221A702D4B00221A702C4B00221A702C4B00221A702B4B00221A702B4B00221A702A4B4FF400021A6097
:400E8000284B4FF080721A60264B4FF400121A60244B01221A60234B02221A60214B04221A60BB79002B02D0012B09D011E01E4A1D4B1B78DBB223F00103DBB2137011E081
:400EC000194A194B1B78DBB243F00103DBB2137008E0154A144B1B78DBB243F00103DBB2137000BF114B03221A70114B80221A70012002F0D1FB0F4B04221A7000BF08377E
:400F0000BD4680BDB582FF1FB882FF1FD482FF1FD782FF1FCC82FF1FD682FF1FD982FF1FB482FF1F00E100E00960004028600040086000401260004080B400AF0F4B00223F
:400F40001A700F4B00221A700E4B00221A700E4B00221A700D4B00221A700D4B00221A700C4B00221A700C4B03221A700B4B80221A7000BFBD4680BC704700BFB882FF1F78
:400F8000D482FF1FD782FF1FCC82FF1FD682FF1FD982FF1FB482FF1F286000400860004080B400AF034B1B78DBB21846BD4680BC704700BFD782FF1F80B483B000AF0346ED
:400FC000FB71FA79064913465B0013449B000B4401331B78DBB218460C37BD4680BC7047DC82FF1F80B485B000AF0346FB710023FB81FB79002B1CD0FB79082B19D8104A7E
:40100000FB791B0113441B78DBB29BB203F00F03FB81FB891B029AB20949FB791B010B4401331B78DBB29BB21343FB81FB89023BFB81FB8918461437BD4680BC704700BF2B
:40104000FC5F0040B0B485B000AF03463960FB711346BB80FB79002B6DD0FB79082B6AD8B988FA79364813465B0013449B00034406331B889BB2C3F5007399420CD9FA7940
:401080002F4913465B0013449B000B4406331B889BB2C3F50073BB802A4CF979BB881B0A9BB2D8B2FA79264D13465B0013449B002B4403331B78DBB20343DAB20B01234477
:4010C0001A70204AFB79B988C9B21B01134401330A461A703B68002B13D00023FB810CE01948FB79FA8939680A4412781B01034408331A70FB890133FB81FA89BB889A4240
:40110000EED3FA790E4913465B0013449B000B44013300221A700B48F979FA79084C13465B0013449B00234405331B78DAB20B01034402331A7000BF1437BD46B0BC70471D
:40114000DC82FF1FFC5F00407060004080B584B000AF03463960FB711346BB803B68002B30D0FB79002B2DD0FB79082B2AD8FB791846FFF737FF03461A46BB88934205D99E
:40118000FB791846FFF72EFF034600E0BB88BB800023FB810DE0FB893A6813440D49FA7912010A4408321278D2B21A70FB890133FB81FA89BB889A42EDD3FB79184600F036
:4011C0000BF801E00023BB80BB8818461037BD4680BD00BF7060004090B482B000AF0346FB71FB79002B1CD0FB79082B19D8FA790E4913465B0013449B000B4401330022A4
:401200001A700B48F979FA79084C13465B0013449B00234405331B78DAB20B01034402331A7000BF0837BD4690BC7047DC82FF1FFC5F004080B582B000AF0023FB71314BE6
:401240001B79DBB2184600F067F80346BB712D4B1B78DBB25BB2002B15DA2A4B5B78DBB2212B00D048E0284B07221A80BA791346DB009B1A254A1344234A536000F020FB10
:401280000346FB7138E01F4B5B78DBB2202B02D0222B1AD030E01C4B07221A80BA791346DB009B1A194A1344174A5360BB79BA7917498A5CD2B242F00102D1B2144AD154B3
:4012C00000F07CFB0346FB7116E0BB790D4A9278D2B291B20F4A22F81310BB79BA790C498A5CD2B242F00202D1B2094AD15400F003FC0346FB7100BFFB7918460837BD461C
:4013000080BD00BF00600040C082FF1FD080FF1F9C82FF1FB082FF1F80B485B000AF0346FB710023FB73FF23BB7317E0FB7B104AD35C7B737A7B0F4913465B0013449B0032
:401340000B440A331B78DBB2FA799A4203D1FB7BBB730223FB73FB7B0133FB73FB7B012BE4D9BB7B18461437BD4680BC704700BFA482FF1FDC82FF1F80B582B000AF002363
:40138000BB71224B00221A70214B00221A70204B00225A700023FB7110E0FB791D4AD35C7B717B79002B06D07B79082B03D87B791846FFF711FFFB790133FB71FB79012B01
:4013C000EBD9154B1B78DBB2002B18D0114B1B78DBB2002B13D0114B1B78DBB2002B0ED00D4B1B78DBB2082B09D80A4B1B78DBB2082B04D8094B1B78DBB2082B01D90123D2
:40140000BB71BB7918460837BD4680BDAA81FF1F9C82FF1FA882FF1FA082FF1FA482FF1F80B584B000AF78600B467B80144B1B781A46144B9B5CFB73FA7B134913465B0047
:4014400013449B000B4408331B889BB27A889A420CD9FA7B0C4913465B0013449B000B4408331B887B80002001F094FC7A88FB7B79681846FFF7E6FD00BF1037BD4680BD2E
:40148000AA81FF1FA082FF1FDC82FF1F80B584B000AF0346FB71FB79FB73084B1B781A46074B9B5CDBB207F10F0101221846FFF7C9FD00BF1037BD4680BD00BFAA81FF1FC9
:4014C000A082FF1F80B500AF054B1B781A46054B9B5CDBB21846FFF76FFD0346184680BDAA81FF1FA882FF1F80B500AF054B1B781A46054B9B5CDBB21846FFF75DFD03468A
:40150000184680BDAA81FF1FA082FF1F80B582B000AF084B1B781A46074B9B5CFB71B91DFB7901221846FFF711FEBB7918460837BD4680BDAA81FF1FA882FF1F80B485B09B
:4015400000AF78600B46FB701346BB707B68DB7803F00303FB737B689B785BB2002B1ADAFB7B032B0AD0BB7803F001031449FA78CA54BB7843F00103BB701BE0BB789B08EA
:40158000DBB203F001030F49FA78CA54BB7843F00403BB700EE0FB7B032B0BD0BB785B08DBB203F001030849FA78CA54BB7843F00203BB70BB7818461437BD4680BC704757
:4015C000A082FF1FA482FF1FA882FF1F80B582B000AF374B1B78BB71BB7903F01003002B62D00123FB7197F90630002B12DABB7903F00F03012B02D00023FB711CE000F012
:4016000061F82C4B1B78DBB25BB2002B14DA0023FB7111E0BB7903F04003002B02D000F095F809E0BB7903F02003002B02D000F0B3F801E00023FB71FB79002B34D01C4BEB
:401640001B78BB7197F90630002B2DDB1A4B1B78DAB21A4B1B78DBB21343BB71184ABB791370174B1B78DBB2BA799A421CD1114B1B78FB710E4B1B78DBB223F07F03BB71FB
:40168000BB79002B0AD10A4B0A4A1278D2B21A70074B1B78DBB203F00F03FB71054B1B78DBB2FA799A42E2D100BF0837BD4680BD28600040D582FF1F4A83FF1FD882FF1F7C
:4016C0002960004080B582B000AF1D4B1B78FB711B4AFB7913701A4B1B78FB7197F90730002B03DA174AFB79137025E0022000F045FA154B1B78DBB203F06003202B08D06E
:40170000402B0BD0002B0ED100F0F8FA0346FB710CE001F0D1FF0346FB7107E001F000FB0346FB7102E00023FB7100BFFB79002B02D1044B03221A7000BF0837BD4680BDFA
:4017400028600040D582FF1F0060004080B500AF104B1B78DBB2062B19D801A252F823F08F1700008F1700007D1700008F170000831700008F1700008917000000F0F8F8C5
:4017800006E000F0A7F903E000F0D2F900E000BF00BF80BDB882FF1F80B500AF124B1B78DBB2062B1DD801A252F823F0E3170000E3170000C9170000E3170000CF170000E7
:4017C000E3170000D517000000F0D8F80AE000F027F907E0032000F0D1F9044B03221A7000E000BF00BF80BDB882FF1FD582FF1F80B483B000AF0023FB71294B1B78DBB2E6
:401800009AB2284B1B889BB213449AB2254B1A8015E02549FB79254A52681278D2B2CA54224B5B680133214A5360FB790133FB711E4B1B889BB2013B9AB21C4B1A801B4B42
:401840001B889BB2002B02D0FB79072BE1D9144B1B78DBB2082B02D0FB79002B0FD0144B1B78DBB283F07F03DB43DAB2104B1A70104B0F221A70104B02221A7005E00D4BBA
:4018800002221A700C4B02221A700C4AFB791370034AFB79137000BF0C37BD4680BC7047B482FF1FB682FF1F00600040C082FF1F4A83FF1FD582FF1FB882FF1FD882FF1F12
:4018C00080B582B000AF164B1B889BB2002B02D100F02EF81EE0134B02221A70124B00221A7000F06BF9114BDB79DBB29BB21B029AB20E4B9B79DBB29BB21343FB80084BA8
:401900001B889BB2FA889A4202D2054AFB881380FFF76EFF012318460837BD4680BD00BFC082FF1FB882FF1F4A83FF1F0060004080B400AF094B02221A70094B80221A7055
:40194000084B0F221A70084B00221A70074B00221A7001231846BD4680BC7047B882FF1F4A83FF1FD582FF1FB482FF1FD882FF1F80B500AFFFF73CFF00BF80BD80B500AF6B
:401980000A4B1B78DBB29AB2094B1B889BB213449AB2074B1A80074B00221A70012000F0EDF8054B03221A7000BF80BDB482FF1FB682FF1FB882FF1FD582FF1F80B582B0C6
:4019C00000AF124B04221A70114B80221A7000F0F5F8104BDB79DBB29BB21B029AB20D4B9B79DBB29BB21343FB800B4B1B889BB2FA889A4202D2084AFB881380074B0B225E
:401A00001A70012318460837BD4680BDB882FF1F4A83FF1F00600040C082FF1FD582FF1F80B483B000AF0023BB71234B1B78DBB203F00F03DBB2023BFB71FB799AB21F4B0B
:401A40001B889BB213449AB21C4B1A8018E01C4B5B681C49BA798A5CD2B21A70184B5B680133174A5360BB790133BB71FB79013BFB71134B1B889BB2013B9AB2104B1A803B
:401A80000F4B1B889BB2002B02D0FB79002BDED10D4AFB7913700D4B1B78DBB283F07F03DB43DAB2094B1A70094B0B221A7000BF0C37BD4680BC704729600040B682FF1F2C
:401AC000C082FF1F00600040D882FF1F4A83FF1FD582FF1F80B500AF054B00221A70012000F04CF8034B03221A7000BF80BD00BFB882FF1FD582FF1F80B400AF084B0622F6
:401B00001A70084B06221A70074B80221A70074B00221A7001231846BD4680BC704700BFB882FF1FD582FF1F4A83FF1FD882FF1F80B500AF0D4B1B78DBB2002B0AD00C4A7C
:401B40000A4B1B78DBB263F07F03DBB21370074B00221A70074B00221A70012000F00EF8054B03221A7000BF80BD00BFD682FF1F08600040B882FF1FD582FF1F80B483B0EC
:401B800000AF0346FB710B4B9B68002B0CD0094B9B68FA791A70074B9B68074A128892B25A80044B00229A6000BF0C37BD4680BC704700BFC082FF1FB682FF1F80B400AFF4
:401BC000094B00221A80094B9B68002B07D0074B9B6800221A70054B9B6800225A8000BFBD4680BC704700BFB682FF1FC082FF1F80B400AF0D4B01221A700D4B9B7C0D4B53
:401C00001B7BDBB203F00303012B08D0094BDB7BDBB283F07F03DB43DAB2064BDA73054B01225A7300BFBD4680BC70470B600040FC5F0040DC82FF1F80B400AF0E4B0222F9
:401C40001A700E4B93F822300D4B1B7EDBB203F00303012B08D00A4BDB7EDBB283F07F03DB43DAB2064BDA76054B01225A7600BFBD4680BC704700BF0B600040FC5F0040B1
:401C8000DC82FF1F80B400AF104B04221A70104B93F832300F4B93F82430DBB203F00303012B0AD00B4B93F82730DBB283F07F03DB43DAB2074B83F82720064B012283F846
:401CC000252000BFBD4680BC704700BF0B600040FC5F0040DC82FF1F80B400AF00BFBD4680BC704780B500AFFFF726F900BF80BD80B500AF01F03EF800BF80BD80B586B06A
:401D000000AF0023FB759D4B1B78FB7100233B619B4B00221A8097F90730002B80F20481964B5B78DBB20A2B00F21B8201A252F823F000BF7F1E00006321000063210000C7
:401D4000632100006321000063210000611D000063210000F31E000063210000091F0000864BDB78DBB2012B0ED100F049FEB860BB685B68824A5360814B12221A80FFF718
:401D80009FFD0346FB75EEE17C4BDB78DBB2022B25D17A4B9B78DBB2184600F009FEB860BB68002B00F0DF81BB685B68744A5360734B5B6803331B78DBB29BB21B029AB2E1
:401DC0006F4B5B6802331B78DBB29BB213439AB26B4B1A80FFF774FD0346FB75C3E1674BDB78DBB2032B45D10023FB73654B3B6109E03B691B78BB71BB793A6913443B6145
:401E0000FB7B0133FB735D4B9B78DBB2FA7B9A4204D23B691B78DBB2002BEAD1574B9B78DBB2EE2B01D1584B3B61544B9B78DBB2002B0BD0514B9B78DAB2544B1B7C9A4273
:401E400004D1534800F0ACF9514B3B613B691B78DBB2002B00F087813B691B78DBB29AB2474B1A80464A3B695360FFF729FD0346FB7578E101F020FC0346FB7573E1FB795F
:401E800003F00303002B20D0022B00D030E03C4B02221A80394B1B79DBB203F07F023D4913465B0013449B000B4402331B78DAB2394B1A70384B00225A70314B364A5A60A1
:401EC000FFF7FEFC0346FB7512E02D4B02221A80324B1B78DAB2304B1A702F4B00225A70274B2D4A5A60FFF7EBFC0346FB7500BF40E1234B01221A80214B294A5A60FFF737
:401F0000DFFC0346FB7535E11D4B01221A801B4B1B79DBB21A46234B1344194A5360FFF7CFFC0346FB7525E1144B5B78DBB2013B0A2B00F21A8101A252F823F0472000006C
:401F40006B210000D52000006B210000691F00006B2100006B2100006B210000AD1F00006B21000003200000044B9B78DAB20E4B1A70FFF7C1FD0346FB75FBE000600040F4
:401F8000C082FF1F40490000484A0000E84800005083FF1FDC82FF1FAC81FF1FD982FF1FD782FF1F4883FF1FD682FF1F744B9B787B717B79002B06D07B79013BDBB21846A1
:401FC00000F0F6FCB8607B79002B02D0BB68002B03D17B79002B40F0CA806A4B1B78DBB27A799A4208D0674A7B791370664B01221A70012000F0DCF9FFF77EFD0346FB7529
:40200000B5E000F055FE0346002B00F0B2805C4B1B793B715A4B1B79DAB25C4B1A703B795B4AD35CDAB23B795A49CB5CDBB29A4204D0554B01221A7000F08CFBFFF75CFD73
:402040000346FB7595E0FB7903F00303012B20D0012B0CD3022B00D03BE0494B9B78DBB2002B31D100F078FD0346FB752CE0444B9B78DBB2012B29D1474B1B78DBB223F0E1
:402080000203DAB2444B1A70FFF736FD0346FB751CE03B4B1B79DBB2012B19D8384B9B78DBB2DB43DBB2364A1279D2B2114610463A4A125CD2B21340DAB2384B5A54FFF74E
:4020C0001BFD0346FB7503E000BF53E000BF51E000BF4FE0FB7903F00303012B20D0012B0CD3022B00D03BE0254B9B78DBB2002B31D100F0BDFC0346FB752CE0204B9B7887
:40210000DBB2012B29D1244B1B78DBB243F00203DAB2214B1A70FFF7EFFC0346FB751CE0174B1B79DBB2012B19D8154B9B78DBB2DB43DBB2124A1279D2B211461046174A49
:40214000125CD2B21340DAB2144B5A54FFF7D4FC0346FB7503E000BF0CE000BF0AE000BF08E000BF06E000BF04E000BF02E000BF00E000BFFB7D18461837BD4680BD00BFB9
:4021800000600040D782FF1FD482FF1FCC82FF1FBC82FF1F4883FF1FD982FF1F4C83FF1FB0B58AB000AF7860324B07F114041D460FCD0FC42B682370002387F826307B68B7
:4021C000002B52D07B6822221A707B68013303221A7007F10C03184600F06AFE022387F827303EE097F827307A68134497F8262007F128010A4412F81C2C1209D2B207F1F9
:4022000028010A4412F8142C1A7097F8273001337A68134400221A7097F8273002337A68134497F8262007F128010A4412F81C2C02F00F0207F128010A4412F8142C1A7024
:4022400097F8273003337A68134400221A7097F82630013387F8263097F82730043387F8273097F82730212BBCD900BF2837BD46B0BD00BFD448000090B482B000AF012303
:40228000FB7180E0464AFB791B0113440C221A70FA79444913465B0013449B000B4405331B78DBB2002B1CD0FA793E4913465B0013449B000B4404331B78DBB25BB2002B41
:4022C00007DA394AFB791B01134402330C221A700EE0354AFB791B011344023308221A7006E0314AFB791B011344023380221A702B48F979FA792B4C13465B0013449B004B
:40230000234406331B889BB2DAB20B01034406331A702348F979FA79224C13465B0013449B00234406331B889BB21B0A9BB2DAB20B01034407331A701948F979FA79194CB7
:4023400013465B0013449B00234406331B889BB2DAB20B01034404331A701148F979FA79104C13465B0013449B00234406331B889BB21B0A9BB2DAB20B01034405331A70A4
:40238000FB790133FB71FB79082B7FF67BAF074BFF221A7000BF0837BD4690BC704700BF70600040DC82FF1FFC5F00400A60004080B58AB000AF0346FB7100237B8400231A
:4023C00087F8273050E097F82720B34913465B0013449B000B4400221A7097F82720AE4913465B0013449B000B44023300221A7097F82720A84913465B0013449B000B4405
:40240000033300221A7097F82720A34913465B0013449B000B44083300221A8097F827209D4913465B0013449B000B440A3300221A7097F82720984913465B0013449B0015
:402440000B44013300221A7097F82720924913465B0013449B000B44053300221A7097F82730013387F8273097F82730082BAAD9FB79002B16D0002387F825300EE097F81E
:402480002530864A0021D15497F82530844A0021D15497F82530013387F8253097F82530012BECD97F4B1B78DBB2002B00F04A810023FB767B4B1B78DBB2013BDBB2184687
:4024C00000F076FA78617B695B683B613B6907331B7803F04003002B08D0734B1B78DBB243F00103DAB2704B1A7007E06E4B1B78DBB223F00103DAB26B4B1A707B6908330E
:402500007B617B691B7887F82730012387F82530B6E07B695B68FB61002387F82630A3E097F82520FB699B7803F07F039A4240F0938097F82520584913465B0013449B006C
:402540000B4408331B889AB2FB699B889A420CD297F82520FB6998884F4913465B0013449B000B44083302461A80FB691B781A464A4B9B5CDAB2FB695B789A426CD197F851
:402580002520FB699878444913465B0013449B000B44043302461A7097F82520FB69D8783D4913465B0013449B000B4402461A70FB69DB7803F00303FB73FB699B785BB260
:4025C000002B1CDA97F82520FB7B012B01D1072000E00D20304913465B0013449B000B44053302461A7097F825202B4913465B0013449B000B44013301221A701BE097F81E
:402600002520FB7B012B01D1052000E00920224913465B0013449B000B44053302461A7097F825201C4913465B0013449B000B44013300221A70FB699B790A2B03D0FB6957
:402640009B79022B08D1FA7E97F825301946F869FEF774FF0346FB76FB690833FB6197F82630013387F8263097F8262097F827309A42FFF455AF97F82530013387F825309F
:4026800097F82530082B7FF644AF7B695B68FB61002387F8253020E0DC82FF1F4883FF1FBC82FF1FD782FF1FD982FF1FFB699B7803F07F02FB691878244913465B00134499
:4026C0009B000B440A3302461A70FB690833FB6197F82530013387F8253097F8252097F827309A42E2D300F09DF90246184B1A6000237B84012387F827301DE097F8272015
:40270000124913465B0013449B000B4406337A8C1A8097F827200D4913465B0013449B000B4408331B889AB27B8C13447B8497F82730013387F8273097F82730082BDDD909
:40274000FFF79AFD00BF2837BD4680BDDC82FF1FD082FF1F90B585B000AF8F4B1B78DBB2002B00F015818C4B1B78DBB2013BDBB2184600F01DF978607B6808337B607B68D6
:402780001B78FB707B685B68BB60844B1B78BB700023FB73F7E0BB681B78BA789A4240F0EC80BB787E4AD35CDAB2BB685B789A4240F0E380BB689B7803F07F037B70BB6831
:4027C000DB7803F003033B707A78764913465B0013449B000B44033300221A707A78BB689878704913465B0013449B000B44043302461A707A78BB68D8786A4913465B00B2
:4028000013449B000B4402461A707A78BB689888644913465B0013449B000B44083302461A80BB689B785BB2002B1ADA7A783B78012B01D1072000E00D205A4913465B0001
:4028400013449B000B44053302461A707A78554913465B0013449B000B44013301221A7019E07A783B78012B01D1052000E009204C4913465B0013449B000B4405330246D3
:402880001A707A78474913465B0013449B000B44013300221A70444A7B781B011344023301221A70404879787A783E4C13465B0013449B00234408331B889BB21B0A9BB2C2
:4028C000DAB20B0103441A70374879787A78354C13465B0013449B00234408331B889BB2DAB20B01034401331A70304879787A782C4C13465B0013449B00234406331B88FB
:402900009BB2DAB20B01034406331A70274879787A78244C13465B0013449B00234406331B889BB21B0A9BB2DAB20B01034407331A701E4879787A781A4C13465B001344E1
:402940009B00234406331B889BB2DAB20B01034404331A70154879787A78124C13465B0013449B00234406331B889BB21B0A9BB2DAB20B01034405331A70BB680833BB602C
:40298000FB7B0133FB73FA7BFB789A42FFF403AF00BF1437BD4690BDD782FF1FCC82FF1F4883FF1FDC82FF1FFC5F00407060004080B485B000AF0346FB710F4B1B78DBB202
:4029C0000E4ADB0013445B68FB60FB681033FB60FB681B78FA799A4202D30023FB6005E0FB79DB00FA6813445B68FB60FB6818461437BD4680BC7047B582FF1F404A0000AA
:402A000080B400AF054B1B78DBB2054ADB0013445B681846BD4680BC704700BFB582FF1F404A000080B584B000AF104B1B78DBB2013BDBB21846FFF7BBFFB860BB68002B3D
:402A40000DD0BB685B681B79FB71FB790233DB00BA681344BB60BB685B68FB6001E00023FB60FB6818461037BD4680BDD782FF1F80B582B000AF0023FB71344B1B79DBB2D7
:402A800003F07F03BB71BB79002B5AD0BB79082B57D8BA79B9792E480B465B000B449B00034402331B78DBB243F00103D8B2284913465B0013449B000B44023302461A701B
:402AC000BA79234913465B0013449B000B44033300221A70BA79B9791D480B465B000B449B00034401331B78DBB243F00203D8B2174913465B0013449B000B4401330246D2
:402B00001A70BA79124913465B0013449B000B4404331B78DBB25BB2002B07DA0D4ABB791B01134402338D221A7006E0094ABB791B011344023389221A70FEF7DDFF034648
:402B4000FB71FB7918460837BD4680BD00600040DC82FF1FFC5F004080B582B000AF0023FB71504B1B79DBB203F07F03BB71BB79002B00F09280BB79082B00F28E80BA79E4
:402B8000B97949480B465B000B449B00034402331B78DBB223F00103D8B2434913465B0013449B000B44023302461A70BA793E4913465B0013449B000B44033300221A7066
:402BC0003A49BB793948BA79120102441278D2B202F07F02D2B21B010B441A70BA79B97931480B465B000B449B00034401331B78DBB223F00203D8B22B4913465B001344E7
:402C00009B000B44013302461A70BA79264913465B0013449B000B4404331B78DBB25BB2002B1BDABA79204913465B0013449B000B4401331B78DBB2012B07D11B4ABB7907
:402C40001B01134402330C221A7022E0174ABB791B01134402330D221A701AE0BA79124913465B0013449B000B4401331B78DBB2012B07D10D4ABB791B01134402330822CA
:402C80001A7006E0094ABB791B011344023309221A70FEF731FF0346FB71FB7918460837BD4680BD00600040DC82FF1FFC5F004080B584B000AF0023FB73154B1B79BB7313
:402CC000144B1B78DBB2013BDBB21846FFF770FEB860BB685B681B79FB71BA7BFB799A4202D9BB7B022B0ED8BB7BBA7B0A498A5CD1B20A4AD154BB7B054A9278D1B2064A21
:402D0000D1540123FB73FB7B18461037BD4680BD00600040D782FF1F4883FF1FBC82FF1F80B582B000AF0023FB710F4B1B78DBB25BB2002B12DA0C4B5B78DBB2012B00D02F
:402D40000CE00A4B0A4A5A60094B1B789AB2074B1A80FEF7B5FD0346FB7100BFFB7918460837BD4680BD00BF00600040C082FF1F5C4A000080B400AF054B1B78DBB203F0CE
:402D800040039B09DBB21846BD4680BC704700BF8F45004080B483B000AF0346FB7101BE00BF0C37BD4680BC704700BF80B582B000AF786008E00C4B1B68184600F06CFCD1
:402DC0007B68A3F500437B607B68B3F5004FF2D8064B1B687A6802FB03F3184600F05CFC00BF0837BD4680BDF880FF1FF080FF1F80B582B000AF0346FB80FB88054A1278AF
:402E000002FB03F3184600F047FC00BF0837BD4680BD00BFF480FF1F80B584B000AF03463960FB710F4B1B68FB60FB791F2B02D90020FFF7AFFFFB7903F01F0310339B001D
:402E4000FA6813441B68BB60FB7903F01F0310339B00FA6813443A681A60BB6818461037BD4680BD08ED00E080B582B000AF03460A46FB711346BB71BB79072B02D90020E1
:402E8000FFF788FFFB791F2B02D90020FFF782FFFB7903F01F0303F1604303F56443BA795201D2B21A7000BF0837BD4680BD00BF80B483B000AF7860264B1B78DBB21A4636
:402EC0007B681A60244B1B78DBB21B027A6812681A437B681A60214B1B78DBB21B047A6812681A437B681A601D4B1B78DBB21B067A6812681A437B681A607B680433194AB6
:402F00001278D2B21A60184B1B78DBB21A027B6804337968043109680A431A60134B1B78DBB21A047B6804337968043109680A431A600F4B1B78DBB21A067B680433796869
:402F4000043109680A431A6000BF0C37BD4680BC704700BF0301004904010049EC460040020100490101004900010049050100490601004980B500AF064B1B78002B04D1D8
:402F800000F00AF8034B01221A7000F063F800BF80BD00BFAE81FF1F80B582B000AF284A274B1B78DBB243F00203DBB21370254B1B78DBB223F07003FB71224AFB7943F0DA
:402FC0001003DBB21370204A1F4B1B78DBB223F03003DBB213701C4A1B4B1B78DBB243F03003DBB21370184A174B1B78DBB223F00F03DBB21370144A134B1B78DBB243F0DA
:403000000F03DBB21370FF2000F048F87F2000F055F8002000F062F80C4A0C4B1B78DBB243F00103DBB21370094A094B1B78DBB243F00103DBB2137000BF0837BD4680BD79
:40304000004F0040024F00400B4F0040A3430040014F004080B400AF0D4A0D4B1B78DBB243F00103DBB213700A4A0A4B1B78DBB243F00103DBB21370074A074B1B78DBB214
:4030800043F00103DBB2137000BFBD4680BC7047A3430040B3430040004F004080B483B000AF0346FB71044BFA7992B21A8000BF0C37BD4680BC7047044F004080B483B0CC
:4030C00000AF0346FB71044BFA7992B21A8000BF0C37BD4680BC7047064F004080B483B000AF0346FB71044AFB79137000BF0C37BD4680BC704700BF034F004080B500AF02
:40310000064B1B78002B04D100F00AF8034B01221A7000F063F800BF80BD00BFAF81FF1F80B582B000AF284A274B1B78DBB243F00203DBB21370254B1B78DBB223F07003F2
:40314000FB71224AFB7943F01003DBB21370204A1F4B1B78DBB223F03003DBB213701C4A1B4B1B78DBB243F03003DBB21370184A174B1B78DBB223F00F03DBB21370144A8A
:40318000134B1B78DBB243F00F03DBB21370FF2000F048F87F2000F055F8002000F062F80C4A0C4B1B78DBB243F00203DBB21370094A094B1B78DBB243F00103DBB2137084
:4031C00000BF0837BD4680BD0C4F00400E4F0040174F0040A34300400D4F004080B400AF0D4A0D4B1B78DBB243F00203DBB213700A4A0A4B1B78DBB243F00203DBB21370E6
:40320000074A074B1B78DBB243F00103DBB2137000BFBD4680BC7047A3430040B34300400C4F004080B483B000AF0346FB71044BFA7992B21A8000BF0C37BD4680BC704775
:40324000104F004080B483B000AF0346FB71044BFA7992B21A8000BF0C37BD4680BC7047124F004080B483B000AF0346FB71044AFB79137000BF0C37BD4680BC704700BFE4
:403280000F4F004080B400AF00BFBD4680BC704780B582B000AF0F2000F06AF800F05AF800F002FA0346FB71074A074B1B78DBB243F01003DBB21370FB79184600F0F8F992
:4032C00000BF0837BD4680BD9465004080B500AF00F0AEF84FF4004000F0D8F8064B1B78002B04D1FFF7CEFF034B01221A70FFF7CFFF00BF80BD00BFB081FF1F80B582B0C3
:4033000000AF00F0D3F80346FB80FB88A3F500439BB2BB80B7F9043018460837BD4680BD80B584B000AF0346FB80B7F90630002B04DBFB88A3F50043FB8103E0FB88A3F514
:403340000043FB81FB89184600F0A0F800BF1037BD4680BD80B400AF044B1B78DBB203F00F03DBB21846BD4680BC70476465004080B483B000AF0346FB71044AFB7913708D
:4033800000BF0C37BD4680BC704700BF8465004080B582B000AF1C4B1B78DBB223F00703FB71194AFB791370174B1B78DBB223F00303FB71144AFB79137000F0B3F84FF473
:4033C000004000F08FF84FF4004000F05FF8002000F040F800F04EF84FF4004000F092F800F062F90346BB71084A084B1B78DBB243F01003DBB21370BB79184600F058F923
:4034000000BF0837BD4680BD756500409565004080B400AF054A054B1B78DBB263F07F03DBB2137000BFBD4680BC70477565004080B500AF064B1B78002B04D1FFF7A8FF3F
:40344000034B01221A70FFF7E3FF00BF80BD00BFB181FF1F80B483B000AF0346FB71044AFB79137000BF0C37BD4680BC704700BF8565004080B400AF034B1B78DBB21846CE
:40348000BD4680BC704700BF6565004080B483B000AF0346FB80044AFB88138000BF0C37BD4680BC704700BF086A004080B400AF044B1B78044B1B889BB21846BD4680BC05
:4034C000704700BF04650040886A004080B400AF034B1B889BB21846BD4680BC704700BF886A004080B483B000AF0346FB80044AFB88138000BF0C37BD4680BC704700BF20
:40350000486A004080B483B000AF0346FB80044AFB88138000BF0C37BD4680BC704700BF686A004080B500AF01E0FFF7CFFFFFF7A1FF034603F04003002BF6D100BF80BD06
:4035400080B582B000AF786000F03CF8786800F009F8072000F018F800F028F800BF0837BD4680BD80B485B000AF7860054B1B68FB60FB6854337A681A6000BF1437BD4682
:4035800080BC704708ED00E080B483B000AF0346FB71054AFB795B01DBB2137000BF0C37BD4680BC704700BF05E400E080B400AF034B20221A6000BFBD4680BC704700BF68
:4035C00000E100E080B400AF034B20221A6000BFBD4680BC704700BF80E100E080B400AF054B1B78DBB203F010031B09DBB21846BD4680BC704700BF0151004080B400AFD6
:40360000054B1B78DBB203F020035B09DBB21846BD4680BC704700BF2151004080B400AF054B1B78DBB203F040039B09DBB21846BD4680BC704700BF2151004080B400AFEC
:40364000054B1B78DBB203F004039B08DBB21846BD4680BC704700BF3151004080B400AF054B1B78DBB203F08003DB09DBB21846BD4680BC704700BF3151004080B400AFE9
:40368000044B1B78DBB203F00103DBB21846BD4680BC7047F15100400230800803D000BF01380046FCD17047EFF3108072B6704780F31088704700BF80B582B000AF0023E7
:4036C000BB711B4B1B78DBB203F00303012B02D0022B04D012E0164B1B79FB7111E0144B1B79DBB203F07F02124913465B0013449B000B440A331B78FB7102E00023FB71EB
:4037000000BFFB79022B0ED80B4B1A68FB7913441B78022B04D1FDF78DFD0346BB7102E00023BB7100BFBB7918460837BD4680BD00600040DC82FF1FD082FF1F81F00041D9
:4037400002E000BF83F0004330B54FEA41044FEA430594EA050F08BF90EA020F1FBF54EA000C55EA020C7FEA645C7FEA655C00F0E2804FEA5454D4EB5555B8BF6D420CDDB7
:403780002C4480EA020281EA030382EA000083EA010180EA020281EA0303362D88BF30BD11F0004F4FEA01314FF4801C4CEA113102D0404261EB410113F0004F4FEA0333B4
:4037C0004CEA133302D0524263EB430394EA050F00F0A780A4F10104D5F1200E0DDB02FA0EFC22FA05F2801841F1000103FA0EF2801843FA05F359410EE0A5F120050EF144
:40380000200E012A03FA0EFC28BF4CF0020C43FA05F3C01851EBE37101F0004507D54FF0000EDCF1000C7EEB00006EEB0101B1F5801F1BD3B1F5001F0CD349085FEA3000BD
:403840004FEA3C0C04F101044FEA445212F5800F80F09A80BCF1004F08BF5FEA500C50F1000041EB045141EA050130BD5FEA4C0C404141EB010111F4801FA4F10104E9D14E
:4038800091F0000F04BF01460020B1FA81F308BF2033A3F10B03B3F120020CDA0C3208DD02F1140CC2F10C0201FA0CF021FA02F10CE002F11402D8BFC2F1200C01FA02F172
:4038C00020FA0CFCDCBF41EA0C019040E41AA2BF01EB0451294330BD6FEA04041F3C1CDA0C340EDC04F11404C4F1200220FA04F001FA02F340EA030021FA04F345EA0301DA
:4039000030BDC4F10C04C4F1200220FA02F001FA04F340EA0300294630BD21FA04F0294630BD94F0000F83F4801306BF81F480110134013D4EE77FEA645C18BF7FEA655CD2
:4039400029D094EA050F08BF90EA020F05D054EA000C04BF1946104630BD91EA030F1EBF0021002030BD5FEA545C05D14000494128BF41F0004130BD14F580043CBF01F5F1
:40398000801130BD01F0004545F0FE4141F470014FF0000030BD7FEA645C1ABF194610467FEA655C1CBF0B46024650EA013406BF52EA033591EA030F41F4002130BD00BF81
:4039C00090F0000F04BF0021704730B54FF4806404F132044FF000054FF0000150E700BF90F0000F04BF0021704730B54FF4806404F1320410F0004548BF40424FF000017D
:403A00003EE700BF42004FEAE2014FEA31014FEA02701FBF12F07F4393F07F4F81F06051704792F0000F14BF93F07F4F704730B54FF4607401F0004521F0004120E700BFAC
:403A400050EA010208BF704730B54FF000050AE050EA010208BF704730B511F0004502D5404261EB41014FF4806404F132045FEA915C3FF4DCAE4FF003025FEADC0C18BF1A
:403A800003325FEADC0C18BF033202EBDC02C2F1200300FA03FC20FA02F001FA03FE40EA0E0021FA02F11444C1E600BF80F0004002E000BF81F0004142001FBF5FEA41033E
:403AC00092EA030F7FEA226C7FEA236C6AD04FEA1262D2EB1363C1BFD218414048404140B8BF5B42192B88BF704710F0004F40F4000020F07F4018BF404211F0004F41F4B5
:403B0000000121F07F4118BF494292EA030F3FD0A2F1010241FA03FC10EB0C00C3F1200301FA03F100F0004302D5494260EB4000B0F5000F13D3B0F1807F06D340084FEA63
:403B4000310102F10102FE2A51D2B1F1004F40EBC25008BF20F0010040EA03007047490040EB000010F4000FA2F10102EDD1B0FA80FCACF1080CB2EB0C0200FA0CF0AABF2C
:403B800000EBC25052421843BCBFD0401843704792F0000F81F4000106BF80F400000132013BB5E74FEA41037FEA226C18BF7FEA236C21D092EA030F04D092F0000F08BF43
:403BC0000846704790EA010F1CBF0020704712F07F4F04D1400028BF40F00040704712F100723CBF00F50000704700F0004343F0FE4040F4000070477FEA226216BF0846D6
:403C00007FEA23630146420206BF5FEA412390EA010F40F4800070474FF0000304E000BF10F0004348BF40425FEA000C08BF704743F0964301464FF000001CE050EA010254
:403C400008BF70474FF000030AE000BF50EA010208BF704711F0004302D5404261EB41015FEA010C02BF84460146002043F0B64308BFA3F18053A3F50003BCFA8CF2083A42
:403C8000A3EBC25310DB01FA02FC634400FA02FCC2F12002BCF1004F20FA02F243EB020008BF20F00100704702F1200201FA02FCC2F1200250EA4C0021FA02F243EB020098
:403CC00008BF20EADC7070474FF0FF0C1CEAD0521EBF1CEAD15392EA0C0F93EA0C0F6FD01A4480EA010C400218BF5FEA41211ED04FF0006343EA501043EA5111A0FB0131F7
:403D00000CF00040B1F5000F3EBF490041EAD3715B0040EA010062F17F02FD2A1DD8B3F1004F40EBC25008BF20F00100704790F0000F0CF0004C08BF49024CEA502040EAEF
:403D400051207F3AC2BFD2F1FF0340EAC250704740F400004FF00003013A5DDC12F1190FDCBF00F000407047C2F10002410021FA02F1C2F1200200FA02FC5FEA310040F1CD
:403D8000000053EA4C0308BF20EADC70704792F0000F00F0004C02BF400010F4000F013AF9D040EA0C0093F0000F01F0004C02BF490011F4000F013BF9D041EA0C018FE7E8
:403DC0000CEAD15392EA0C0F18BF93EA0C0F0AD030F0004C18BF31F0004CD8D180EA010000F00040704790F0000F17BF90F0004F084691F0000F91F0004F14D092EA0C0FC1
:403E000001D142020FD193EA0C0F03D14B0218BF084608D180EA010000F0004040F0FE4040F40000704740F0FE4040F4400070474FF0FF0C1CEAD0521EBF1CEAD15392EA53
:403E40000C0F93EA0C0F69D0A2EB030280EA010C49024FEA402037D04FF0805343EA111143EA10130CF000408B4238BF5B0042F17D024FF4000C8B4224BF5B1A40EA0C00FA
:403E8000B3EB510F24BFA3EB510340EA5C00B3EB910F24BFA3EB910340EA9C00B3EBD10F24BFA3EBD10340EADC001B0118BF5FEA1C1CE0D1FD2A3FF650AF8B4240EBC2505D
:403EC00008BF20F0010070470CF0004C4CEA50207F32C2BFD2F1FF0340EAC250704740F400004FF00003013A37E792F0000F00F0004C02BF400010F4000F013AF9D040EA7D
:403F00000C0093F0000F01F0004C02BF490011F4000F013BF9D041EA0C0195E70CEAD15392EA0C0F08D142027FF47DAF93EA0C0F7FF470AF084676E793EA0C0F04D14B02D3
:403F40003FF44CAF08466EE730F0004C18BF31F0004CCAD130F000427FF45CAF31F000437FF43CAF5FE700BF014B1868704700BF5C81FF1F0E4B70B51E460E4C0025E41AE2
:403F8000A410A54204D056F8253098470135F8E700F094FD084B094C1E46E41AA4100025A54204D056F8253098470135F8E770BDC84A0000C84A0000C84A0000D04A0000C8
:403FC00010B5431E0A44914204D011F8014B03F8014FF8E710BD03460244934202D003F8011BFAE7704700000CB430B5164B0C1E9DB01D6804DA8B232B604FF0FF301EE0F0
:404000004FF40273ADF814300CBF234604F1FF33049307934FF6FF7302900690ADF81630209A21AB02A92846019300F079F8431CBCBF8B232B6014B1029B00221A701DB007
:40404000BDE8304002B070475C81FF1F034611F8012B03F8012B002AF9D17047034613F8012B002AFBD1181A013870472DE9F0478E6882469E420C46914698463ED88A89C4
:4040800012F4906F3AD02568096902236F1A656905EB450595FBF3F57B1C43449D4238BF1D4653050FD5294600F040FB064698B13A462169FFF784FFA38923F4906343F016
:4040C0008003A38113E02A4600F08EFB064670B92169504600F0DEFA0C23CAF80030A3894FF0FF3043F04003A381BDE8F08726613E44266046466561ED1BA560464528BF0F
:40410000464649463246206800F0A8FAA36800209B1BA36023681E442660BDE8F08700002DE9F04F9DB003938B8980461C060D4616460DD50B695BB9402100F0F7FA286048
:40414000286118B90C23C8F80030CDE040236B610023099320238DF82930DFF89CB130238DF82A3037463C4614F8013B1BB9B7EB060910D003E0252BF9D02746F3E74B4634
:40418000324629464046FFF771FF013000F0A780099B4B4409933B78002B00F0A08000234FF0FF3204930793059206938DF853301A930126052221784E4800F041FA671C53
:4041C000049B38B14B4A3C46801A06FA00F018430490EFE7D90644BF20228DF853201A0744BF2B228DF8532022782A2A03D0079A00210A200BE0039A111D12680391002AB1
:4042000010DA524243F00200079204900BE027463B780134303B092B03D800FB02320121F5E701B107923B782E2B1ED17B782A2B0AD1039B02371A1D1B680392002BB8BF86
:404240004FF0FF33059310E0002319460593781C0A2407463A780130303A092A03D804FB01210123F5E703B1059103223978224800F0E6F940B14023CBEB000003FA00F050
:40428000049B013718430490397806221B487E1C8DF8281000F0D4F988B1194B33B9039B073323F007030833039314E003AB00932A46144B04A94046AFF3008007E003ABAB
:4042C00000932A460F4B04A9404600F093F8B0F1FF3F824603D0099B5344099342E7AB895B0601D4099801E04FF0FF301DB0BDE8F08F00BF864A00008C4A0000904A0000AF
:40430000000000006D4000002DE9F04791461F460A698B6806469342B8BF1346C9F8003091F843200C46DDF8208012B10133C9F800302368990642BFD9F800300233C9F842
:404340000030256815F0060510D104F1190A07E00123524639463046C04701301AD00135E368D9F800209B1A9D42F1DB94F843302268003318BF012392060FD5E11830206F
:4043800081F843005A1C94F845102244023382F8431003E04FF0FF30BDE8F08704F1430239463046C0470130F4D02268D9F80050E36802F00602042A08BF5D1B2269A368F7
:4043C0000CBF25EAE57500259342C4BF9B1AED184FF000091A344D4509D00123224639463046C0470130D5D009F10109F3E70020BDE8F0872DE9F04317460A7E85B06E2ADE
:40440000984606460C460C9B01F1430E00F0AE8011D8632A22D009D8002A00F0BB80582A40F0CA8081F84520834955E0642A1ED0692A1CD0C0E0732A00F0B08009D86F2AAD
:404440002ED0702A40F0B8800A6842F020020A603EE0752A24D0782A3AD0ADE01A6801F14205111D1960136884F84230A8E021681A6811F0800F02D0111D196008E011F0D2
:40448000400F02F10401196002D0B2F9003000E01368002B3CDA2D225B4284F8432037E021681A6811F0800F02D0111D196007E011F0400F02F10401196001D0138800E009
:4044C0001368227E5C496F2A14BF0A2208221BE078225A4984F845202268186812F0800F00F104051D6003D1550601D5038800E00368D00744BF42F0200222601BB9226826
:4045000022F0200222601022002084F8430001E049490A226568002DA56008DB206820F0040020602BB9002D7DD175460CE0002B79D07546B3FBF2F002FB1033CB5C05F8EE
:40454000013D03460028F5D1082A0BD12368DA0708D5236962689A42DEBF302305F8013C05F1FF35C5EB0E0323612EE008681A6810F0800F496903D0101D1860136808E088
:4045800010F0400F02F104001860136801D0198000E0196000232361754616E01A68111D1960156800216268284600F049F808B1401B6060636804E004F1420584F84220DA
:4045C00001232361002384F84330CDF800803B4603AA21463046FFF797FE013002D14FF0FF3026E023692A4639463046C0470130F5D023689B0710D5002504F1190907E08B
:4046000001234A4639463046C0470130E7D00135E368039A9B1A9D42F2DBE068039B9842B8BF184605E00B7804F1420584F842308AE705B0BDE8F083974A0000A84A00002B
:4046400010B5C9B202449042034605D01C7801308C42F8D1184610BD002010BD884210B501EB020301D8421E0BE09842FBD28118D21AD34204D013F8014D01F8014DF8E718
:4046800010BD994204D011F8014B02F8014FF8E710BD000038B50546002944D051F8043C0C1F002BB8BFE41800F0D4F81E4A1368114613B96360146030E0A3420DD922680E
:4046C000A018834201BF18685B681218226063600C6023E0A24203D813465A68002AF9D118681918A1420BD12168014458188242196013D110685268014419605A600DE028
:4047000002D90C232B6009E021686018824201BF106852680918216062605C602846BDE8384000F098B838BDB881FF1F70B5CD1C25F0030508350C2D38BF0C25002D0646CB
:4047400001DBA94202D90C23336046E000F082F8234B1C681A462146A1B10B685B1B0ED40B2B03D90B60CC18CD501EE08C420BBF63684B681360636018BF0C4615E00C4637
:404780004968E9E7174C23681BB9304600F052F820602946304600F04DF8431C18D0C41C24F00304A0420DD12560304600F053F804F10B00231D20F00700C31A0ED05A4286
:4047C000E25070BD211A304600F034F80130EBD10C233360304600F03EF8002070BD00BFB881FF1FB481FF1FF8B5074615460E4621B91146BDE8F840FFF798BF1AB9FFF7BF
:4048000049FF2846F8BD00F027F885420ED929463846FFF78BFF044650B131462A46FFF7CFFB31463846FFF735FF01E03046F8BD2046F8BD38B5064C00230546084623602D
:40484000FCF78CF8431C02D1236803B12B6038BD7483FF1F7047704751F8040C0028BEBF091851F8043CC0180438704700000000706F733A256C64206370733A252E3066D0
:404880002072706D3A252E3166207270733A252E32660D0A00000000004F0040240040510040300000000140800000010140000F00140140000800400140000A004C014079
:4048C000000200500140200080000140780A00488000000030313233343536373839414243444546000000001201000202000008B40432F20100010280010000090243008A
:40490000020101C032090400000102020103052400100104240202052406000105240100010705810308000A09040100020A000004070582024000000705030240000000C9
:40494000040309042C0343007900700072006500730073002000530065006D00690063006F006E0064007500630074006F0072001003550053004200550041005200540053
:404980003803430044004300200043006F006D006D0075006E00690063006100740069006F006E00200049006E0074006500720066006100630065002603430044004300D8
:4049C00020004400610074006100200049006E00740065007200660061006300650000000203000000008103080002000100820240000A000100030240000A00020A0000AE
:404A000001000000FC48000003000000E44900000000000000000000000000000000000000000000FC49000001000000E8480000000000000000000001000000004A000040
:404A400001000000284A000012034D00530046005400310030003000010000002800000000010400010000000000000000014359555342000000303030303100000000003C
:404A8000000000004300232D302B2000686C4C006566674546470030313233343536373839414243444546003031323334353637383961626364656600000000F8B500BF54
:404AC000F8BC08BC9E4670474D000000450A0000F8B500BFF8BC08BC9E46704729000000F04A0000C880FF1F9800000018020000000000007883FF1F00C201000000080029
:404B0000C201000000080000A120000000000200000000000087930360EA00003C00000000003075000000000000000000000000000000000000000000000000000000009F
:404B400000000000844A0000000000000000000000000000000000000000000000000000000000000000000000000000000000000000000000000000000000000000000067
:404B800000000000FC80FF1F00000000000000000000000000000000000000000000000000000000000000000000000000000000000000000000000000000000000000005B
:404BC00000000000000000000000000000000000000000000000000000000000000000000000000000000000000000000000000000000000000000000000000000000000B5
:404C00000000000000000000000000000000000000000000000000000000000000000000000000000000000000000000000000000000000000000000000000000000000074
:404C40000000000000000000000000000000000000000000000000000000000000000000000000000000000000000000000000000000000000000000000000000000000034
:404C800000000000000000000000000000000000000000000000000000000000000000000000000000000000000000000000000000000000000000000000000000000000F4
:020000040003F7
:0200000480007A
:4000000001450040064F00400452004005640040026500401B00014034010140530201404C0301404F040140520501404D060140530701406F0801404B090140080B0140CB
:40004000040C0140060D0140601401404915014057160140581701400A190140011B01400740014015410140174201400F4301400845014005460140094701400B480140DD
:4000800008490140044C0140054D01400B500140025101407E0201100A4B0D10164B1930224B18186014611C7C40836F84728638870F880F840F856F0008040205040C02E4
:4000C000110212011F0521082C022E0C3004310232013308340835013602370438803E503F455608580459045B045D905F01010A0302050508020D080E4812011410168082
:400100001740182019021A041B401D241E6120242102224024402511260827012A022D402E202F4030813608370138043C403D283E01452046084C044F8058805F4060029F
:400140006680C03DC278C4B1CAB1CCC9CEF2D020D230D618D8181104130A15081601170419041A021B0829042A042B082F013002320433023401350C37013B204025410660
:40018000454246E0473C483B49FF4AFF4BFF4DAF4E074F0150185280580459045A045B045F016040628064406540668068406A806C406D206E8084058504860A88408A8022
:4001C0008B028C07900C92039440968098409AA09C839E4CA40AA605A705A80FAC10B00FB210B301B420B502B6C0B704BA80BE04BF40D40FD804D904DB04DF0501240302BC
:400200000A420B140D080E08102A16201718188219241A021D011E081F0821042306271929082F093719382039083B1046084C844D084E104F80560157145AA45B026328B8
:40024000774079047A107B0280028B408E02902092849408954097C09A089C119D099E239F40A101A218A340A480A50CA604A702A880A902AC10B404C007C26FC447CA3296
:40028000CCE0CE06D020D230D60FD806DE08E020E207E6100104020C04FF0510083C09100AC10C7C0D060E820F291004110914CF152916301706181019021D101EC320204B
:4002C000230924082506283029072B282C042D2F2E08303F31103270330734B03520370839203A223B0856025711580459045B045C225D205F01800E82F087048CFE8E010B
:4003000090A3925C930194969668970298C59A3AA07FA601AB04AD01AF02B103B4FFB704BE10BF40D608D804D904DB04DC20DD90DF01004001200360048206800701084272
:400340000A060B100C200E600F0810821204132814101640184419201B081E0820082205235225402740284029202A042B012C022F0431223244340A3708384039143A0223
:400380003C08410442105A105C80670269146A8070807120720673208540872590829220940895409640978299049A219B049C11A101A218A420A50CA602A702AB04B20202
:4003C000B448C09FC27FC43FCA3FCCCFCE4FD614D810E610E8800184031004CF063008FD09010A020BF20C9E0E601073130715B7174019C01B241DC11E0F1F12203022C94D
:400400002494266027082D77310F33F034FF3E1054185604580459045B045D205F01830C851089108D10904091049211930894809510962299019C309EC39F02A101A20CE6
:40044000A4F3A604A8F3AA08AB08AC51AEA2AF04B00FB10EB310B501B6F0B920BA22BF05D401D604D804D904DB04DC02DD20DF0105400718080A0A020E8210821114150144
:40048000162018021A8E1B201F1020082107250426012710280A2A012D402F103082325435403609371838463B103D033E20588059055A105D405E805F02620266026705A4
:4004C00069A082028480851088108A408B028E409044911492209354940895489640978899049AA19B079C1A9E40A101A218A308A402A50EA602A726A8C0B001B604C0E043
:40050000C29DC43FCA5DCCFFCEAFD68FD8B1E002E602E801EC200466050306080840094C0A080B300C660D0C0E100F10114C1310145D15281620175019021A801B011F2030
:40054000218022782314243B2B0330783101330234C0353C360737C0388039803B203F054024410145C047EB483249FF4AFF4BFF4EF04F44500C540F580459045A045B048C
:400580005C205D025F0166C06A406B0280B1820E8514860889108E4C912092809303946C951C9683970299109B0C9D099F10A10CA293A311A8B1AA46B04AB11FB20FB430B9
:4005C000B520B680B820BA0ABE50BF10C002C640C9FFCA07CBFFCC40CD20CEF0CF05D008D804D904DA04DC22DD02DF01E040E1A8E240E320010202100341044006200704F9
:400600000AE00E100F081080112013021440150C180419061A221C401E011F1120082102241025302680278129022C802F0831263280350636A03A143D283E40400445101A
:40064000474248804C404E405210560557025C115D045F80860189048A018B108E2090019210A104A304A404A702A801AA10B704C0EDC26CC43ACAA1CCFFCE76D0B4D6F0D9
:40068000E002E220E440E680E8408F049B04A104A404A702AC04E610EC0239203F1059045F0127048302A104B504E203EC400003010208041A031D03220C2C022D032E015A
:4006C00030043208340235013601370239A03E513F404041410549FF4AFF4BFF4DA04F015018540F580459045A045B045F016040628064406540668068406A806C406D20CD
:400700006E8080048196836886038701940195FE970199A39B5C9E0CA1C5A33AA90EABF0AD7FAE01B001B202B404B608B7FFBE11BF40C041C105C52CC603C74EC837C9FF6B
:40074000CAFFCBFFCDAFCE07CF01D018D280D40FD804D904DA04DB04DF05E040E280E440E540E680E840EA80EC40ED20EE80001203400404074009200E200F0210821780AF
:40078000181019921C0A1D021E20200121A024022A402E202F413080360837103B023C043D0240014102458248024A014C824F0456445701580859915C805D025F18660469
:4007C000670477807F01848488808B108C088D018E088F019004938294029A209B189E40A101A209A880AA10C03AC2A2C489CAB8CC68CEC1D099D218D6FFD860DE10EE053A
:400800000210059E07600C8E0D940E400F6010E311FD1302146D168019301BC921CF22E8233024082620270F288E2A202D733007341835FF36E838023F10580459045F013E
:4008400080C0822484C1861287028B018C778D0490B792409607970198849A10A608AC01AEF2AF0CB0F0B108B302B40FB504B701BF50C065C102C203C404C50EC6C0C80952
:40088000C9FFCAFFCBFFCC62CDA0CEF0CF41D00CD608D804D904DA04DB04DD92DF01E640E702E910EA30EB10ED10EE10EF120008010203020402054008110B200E800F2080
:4008C00011401220150116201710180819021A401B201C041D401E801F4120402108230926202A402D022F32330834113610370138603A043C083D403E803F0841014204A0
:4009000043084B584E084F20501058805A205B04600A6204680281409183920493509408964097899AA09B159C0A9D40A101A219A30EA402A508A640A901AA10B004B2104B
:40094000B404B680B704C09DC23EC475CAD8CCA2CE5ED007D20CD60ED80EEA05EE02A840AA01B040B308B620B705E8B0EA40EC10EE02EE0530203202340836403880CCF083
:40098000CE100340072030808020860289208C40918194809C089F40A420A642A940AB40AD01C030CC10E2C0EA90EC801310514054405B045C0161088C018D088F04918143
:4009C00097109C089D20A640A701AB20B080B311C440D460D6C0D840E8801B011C80800891019C089D209F40A440A640A701AB40B040C630E620EC8001200A20522081024D
:400A00008604C002C208D404922096049920A502AE2009020A040F408720922096049920A502C20E01200740820491019D209F40A301AE40C060E280EE4056045D01630248
:400A400091019A04A301D440D6C0922099209B20AF4077209B20A920AA10DE0400050101080109010A050B010C05100511011A051B0100EA010B0000020104060460021803
:400A800000010082002A005101010002027804000200040000000000005010280000090000180060003801000803067801041080000008020000100025060000000000000B
:400AC00000FFFFFF00A00001180000000000080004040404009000014000800040408000400080004020800000000000000000000000000000000000130000000000040020
:400B0000001C1C001C0000004000070000000000C0000000000B0B00000000000800740A0A00080000000000847B7B003800000000000000000000000000000000000000FA
:400B40000000000000000000000000000000000000000000000000000000000000000000000000000000000000000000000000000000000000000000000000000000000075
:400B80000000000000000000000000000000000000000000000000000000000000000000000000000000000000000000000000000000000000000000000000000000000035
:400BC00000000000000000000000000000000000000000000000000000000000000000000000000000000000000000000000000000000000000000000000000000000000F5
:400C000000000000000000000000000000000000000000000000000000000000000000000000000000000000000000000000000000000000000000000000000000000000B4
:0200000490006A
:0400000000004005B7
:0200000490105A
:04000000BC90ACAF55
:0200000490303A
:02000000B2D775
:0200000490402A
:4000000000000000000000000000000000000000000000000000000000000000000000000000000000000000000000000000000000000000000000000000000000000000C0
:400040000000000000000000000000000000000000000000000000000000000000000000000000000000000000000000000000000000000000000000000000000000000080
:400080000000000000000000000000000000000000000000000000000000000000000000000000000000000000000000000000000000000000000000000000000000000040
:4000C0000000000000000000000000000000000000000000000000000000000000000000000000000000000000000000000000000000000000000000000000000000000000
:0200000490501A
:0C00000000012E16106900012E35C340CF
:00000001FF