:4000000000800020110000003D0900003D09000080B500AF024A034B1B68136000F098FCBC760040FA46004010B5054C237833B9044B13B10448AFF300800123237010BDF7
:400040006081FF1F00000000C8370000084B10B51BB108490848AFF300800848036803B910BD074B002BFBD0BDE81040184700BF000000006481FF1FC8370000C880FF1FD4
:400080000000000080B584B000AF344B1B8801339AB2324B1A80314B1B88632B05D92F4B00221A802E4B01221A702E4B1B8801339AB22C4B1A802B4B1B88B3F57A7F05D349
:4000C000284B00221A80284B01221A70244B1B78002B3CD0224B00221A7002F0B5FE0346FB60224B1B68FA68D31ABB601F4AFB6813601F4AFB681360B86803F081F9034668
:400100001C49184603F0D0F903467B601A4A7B681360194B1B681949184603F079FA03463B603B681946184603F0B6F803461449184603F0B9F903461A46124B1A601249EC
:40014000386803F0B1F903461A46104B1A6000F027FD00BF1037BD4680BD00BF8281FF1F8881FF1F8481FF1F8981FF1F9081FF1F9481FF1F0000C8429881FF1F00006443CE
:40018000DB0F49409C81FF1F00007042A081FF1F80B582B000AF62B602F092FC02F054FD02F03AFE002002F061FE02F04DFE03461A460A4B1A600121002000F01FFD0848C1
:4001C00002F064FF00F0CAFC00F09EF80346FB71FB79184600F064F9F6E700BF9081FF1F8500000080B500AF05E0A72002F0D0FD572002F009FD02F0D7FF0346012BF4D08B
:4002000000BF80BD80B500AF05E0A72002F0FCFC572002F0BDFD02F0B7FF0346012BF4D000BF80BD80B500AF912002F0B1FD4FF4827002F061FB0C2002F0AAFD00BF80BDCF
:4002400080B500AF912002F0DFFC4FF4827002F053FB0C2002F0D8FC00BF80BD80B500AF02F0A2FF03465AB2264B1B785BB213435BB2DAB2234B1A7002F0A6FF03465B00BA
:400280005AB2204B1B785BB213435BB2DAB21D4B1A7002F049FF03469B005AB2194B1B785BB213435BB2DAB2164B1A7002F05CFF0346DB005AB2134B1B785BB213435BB260
:4002C000DAB2104B1A7002F03FFF03461B015AB20C4B1B785BB213435BB2DAB2094B1A7002F052FF03465B015AB2064B1B785BB213435BB2DAB2034B1A70024B1B7818463E
:4003000080BD00BFB281FF1F80B582B000AFFFF7A5FF0346FB71FB793F2B00F2A78001A252F823F0690400006D0400003D0400006D0400006D0400006D0400006D04000031
:400340006D040000310400006D04000025040000610400006D0400006D0400006D040000590400006D0400006D0400006D0400006D0400006D0400006D040000410400003D
:400380006D0400006D0400006D0400006D0400006D040000350400006D040000290400006D0400006D0400006D0400006D040000450400006D0400006D0400006D040000D1
:4003C0006D0400006D040000390400004D0400002D0400006D0400006D0400006D0400005D0400006D0400006D0400006D0400006D0400006D0400006D0400006D04000091
:400400006D0400006D0400006D0400005104000055040000490400006D0400006D04000065040000002322E0002320E000231EE001231CE001231AE0012318E0022316E045
:40044000022314E0022312E0042310E004230EE004230CE004230AE0032308E0032306E0032304E0062302E0052300E0052318460837BD4680BD00BF80B500AFB02002F05B
:40048000C3FBB52002F084FC00BF80BD80B500AF7F2002F0B9FB7F2002F07AFC00BF80BD80B582B000AF0346FB71FB79052B05D1FFF7ECFF254B00221A7043E0FB79032B08
:4004C00005D1FFF7AFFE214B01221A703AE0FB79042B05D1FFF7B4FE1C4B02221A7031E0FB79012B05D1FFF77DFE184B00221A7028E0FB79022B05D1FFF784FE134B00229C
:400500001A701FE0FB79002B05D1FFF7B5FF0F4B00221A7016E0FB79062B13D10B4B1B78002B02D1FFF7B2FF0CE0084B1B78012B02D1FFF777FE05E0044B1B78022B01D1FE
:40054000FFF77EFE00BF0837BD4680BDA881FF1F80B582B000AF786039603A680021786803F029F900BF0837BD4680BD80B584B000AFF860B9607A607A68B968F86803F04E
:400580000FF900BF1037BD4680BD00BF80B483B000AF0346FB71FEE780B487B000AF7860396000233B6100237B6127E07B699B007A6813441B68BB60BB68FB73BB6823F011
:4005C000FF03BB6014E03B695B003A6813441B781A46BB68134419463B695B003A6813445B780B703B6901333B61FB7B013BFB73FB7B002BE7D17B6901337B617B69252BCB
:40060000D4D900BF1C37BD4680BC704780B582B000AF394B04221A80384B18221A70384B3B221A80374B18221A70374B81221A80364B18221A70364B00221A80354B1B22A6
:400640001A70354B06221A70344B52221A70344B344A1278D2B21A70334B40F619121A80324B41F251221A800023FB7019237B6014E0FB785B00DAB22D4B1B78DBB203F0F8
:400680000103DBB21343DBB203F00303FB704FF4F07002F0A9FD7B68013B7B607B68002B02D0FB78032BE4D17B68002B02D10320FFF76CFF1F4B4FF480721A801D4B0722C8
:4006C0001A701D4B00221A701C4B48221A70194B00221A701A4B00221A701A4B02221A70194A194B1B78DBB243F00F03DBB2137000BF0837BD4680BD804000408240004051
:400700008440004086400040884000408A4000408C4000408E4000400043004000420040A14600400F0100492242004020420040254200400440004006400040084000407F
:400740000940004001400040A243004080B483B000AF0E4B1B78FB710D4AFB7903F00703DBB213700B4AFB791B09DBB213700A4B04221A70094B01221A70094B44221A70BD
:4007800000BF0C37BD4680BC704700BFCF0100496E5800406F5800400C510040935A00407658004080B586B000AF72B64D4B61221A70FFF72BFF4B4B01221A700023FB75A7
:4007C00013E0FA7D13465B0013445B00464A13443B613B691A683B699B889BB219461046FFF7B6FEFB7D0133FB75FB7D082BE8D90023FB751CE0FA7D13469B0013445B00D9
:400800003A4A1344FB60FB681B68BB60FB685B687B60FB681A7A5B7A1B0213437B807B881A467968B868FFF7A1FEFB7D0133FB75FB7D012BDFD92E494FF09040FFF7ACFEAF
:400840002C4A2C4B1B78DBB243F00203DBB21370294A294B1B78DBB243F00203DBB21370264A264B1B78DBB243F04003DBB21370234A234B1B78DBB243F01003DBB21370FC
:40088000082220492048FFF771FE08221F492048FFF76CFE0A221F491F48FFF767FE08221E491F48FFF762FE0A221E491E48FFF75DFE08221D491E48FFF758FE1D4A1D4B7F
:4008C0001B78DBB243F00803DBB21370FFF73EFF0E220A491848FFF749FE00BF1837BD4680BD00BF00480040CC37000004380000980000480350014013500140A043004028
:40090000C2430040140C0048025100401C0C0048C2510040240C0048F0510040300C004812510040380C004820510040440C00483251004022430040B043004080B500AF40
:4009400002F002FF03461B680C2B00D1FEE7FEE780B586B000AF224B7B61224B3B61204B7B6135E03B691B68FB603B695B68BB603B699B683B6000237B600CE0FB681A6809
:40098000BB681A60BB680433BB60FB680433FB607B6804337B607A683B689A42EED13B69DB683B6000237B6008E0BB6800221A60BB680433BB607B6804337B607A683B6805
:4009C0009A42F2D13B6910333B617B69013B7B617B69002BC6D102F0BDFEFFF7D9FBFEE701000000F039000080B582B000AF184B184A1A60184A184B1B6843F400731360F3
:400A000000237B600FE07B68032B04D8134A7B6852F8233000E0124B12497A6841F822307B6801337B607B682F2BECD90E4B1B78DAB20E4B1A700E4B0A4A1A60FFF7B2FEDE
:400A40000C4B00221A6000BF0837BD4680BD00BF0CED00E00004FA0514ED00E0000000003D0900000080FF1FBC760040C480FF1F08ED00E0C080FF1F80B500AF214A214B23
:400A80001B78DBB203F00103DBB213701E4A1E4B1B78DBB223F00303DBB213701B4A1B4B1B78DBB223F03003DBB21370174A174B1B78DBB243F03003DBB21370134A134BA0
:400AC0001B78DBB223F00F03DBB213700F4A0F4B1B78DBB243F00F03DBB213700C4A0C4B1B78DBB243F00103DBB21370042000F063F8042000F072F8082000F041F800BF68
:400B000080BD00BF184F00401A4F0040234F0040194F004080B400AF0D4A0D4B1B78DBB243F00403DBB213700A4A0A4B1B78DBB243F00403DBB21370074A074B1B78DBB23D
:400B400043F00103DBB2137000BFBD4680BC7047A3430040B3430040184F004080B500AF064B1B78002B04D1FFF786FF034B01221A70FFF7CFFF00BF80BD00BFA981FF1F71
:400B800080B483B000AF0346FB71044AFB79137000BF0C37BD4680BC704700BF1B4F004080B400AF034B1B78DBB21846BD4680BC704700BF1B4F004080B485B000AF034655
:400BC000FB71FB79FB81044AFB89138000BF1437BD4680BC704700BF1C4F004080B483B000AF0346FB71044BFA7992B21A8000BF0C37BD4680BC70471E4F004080B582B053
:400C000000AF03460A46FB711346BB71094B1B78002B04D100F010F8064B01221A70BA79FB791146184600F0D9F800BF0837BD4680BD00BFAA81FF1F80B582B000AF02F033
:400C4000DBFA0346FB71544A534B1B78DBB243F00103DBB21370514A504B1B78DBB243F00103DBB213704E4B01221A704D4B02221A704D4A4C4B1B78DBB203F07F03DBB2CE
:400C80001370002001F05AFE484A484B1B78DBB223F00603DBB21370454A454B1B78DBB223F02003DBB21370404A404B1B78DBB243F00103DBB21370012001F03FFE28203F
:400CC00001F03CFE3B4A3B4B1B78DBB203F07F03DBB21370374A374B1B78DBB223F04003DBB21370314A314B1B78DBB243F00203DBB21370022001F021FE2C4A2B4B1B7880
:400D0000DBB243F00403DBB213702B4B00221A702A4B00221A70FB79184602F071FA0721172001F047FE2649172001F01BFE0721182001F03FFE2349182001F013FE0721C9
:400D4000152001F037FE2049152001F00BFE0721002001F02FFE1D49002001F003FE0721012001F027FE1A49012001F0FBFD0721022001F01FFE1749022001F0F3FD0721F3
:400D80000C2001F017FE14490C2001F0EBFD00BF0837BD4680BD00BFA5430040B54300409D60004009600040106000409443004012600040F8510040846000408560004011
:400DC0003118000019110000251800003D17000085170000D11700003D18000080B582B000AF03460A46FB711346BB712E4AFB7913702E4B00221A702D4B00221A702D4B46
:400E000000221A702C4B00221A702C4B00221A702B4B00221A702B4B00221A702A4B4FF400021A60284B4FF080721A60264B4FF400121A60244B01221A60234B02221A60D2
:400E4000214B04221A60BB79002B02D0012B09D011E01E4A1D4B1B78DBB223F00103DBB2137011E0194A194B1B78DBB243F00103DBB2137008E0154A144B1B78DBB243F010
:400E80000103DBB2137000BF114B03221A70114B80221A70012002F0A7F90F4B04221A7000BF0837BD4680BDCD81FF1FD081FF1FEC81FF1FEF81FF1FE481FF1FEE81FF1FCD
:400EC000F181FF1FCC81FF1F00E100E00960004028600040086000401260004080B400AF0F4B00221A700F4B00221A700E4B00221A700E4B00221A700D4B00221A700D4B16
:400F000000221A700C4B00221A700C4B03221A700B4B80221A7000BFBD4680BC704700BFD081FF1FEC81FF1FEF81FF1FE481FF1FEE81FF1FF181FF1FCC81FF1F28600040AB
:400F40000860004080B582B000AF0023FB71314B1B79DBB2184600F067F80346BB712D4B1B78DBB25BB2002B15DA2A4B5B78DBB2212B00D048E0284B07221A80BA791346CB
:400F8000DB009B1A254A1344234A536000F03EFA0346FB7138E01F4B5B78DBB2202B02D0222B1AD030E01C4B07221A80BA791346DB009B1A194A1344174A5360BB79BA791D
:400FC00017498A5CD2B242F00102D1B2144AD15400F09AFA0346FB7116E0BB790D4A9278D2B291B20F4A22F81310BB79BA790C498A5CD2B242F00202D1B2094AD15400F084
:4010000021FB0346FB7100BFFB7918460837BD4680BD00BF00600040D881FF1FCC80FF1FB481FF1FC881FF1F80B485B000AF0346FB710023FB73FF23BB7317E0FB7B104A60
:40104000D35C7B737A7B0F4913465B0013449B000B440A331B78DBB2FA799A4203D1FB7BBB730223FB73FB7B0133FB73FB7B012BE4D9BB7B18461437BD4680BC704700BF4F
:40108000BC81FF1FF481FF1F80B485B000AF78600B46FB701346BB707B68DB7803F00303FB737B689B785BB2002B1ADAFB7B032B0AD0BB7803F001031449FA78CA54BB788B
:4010C00043F00103BB701BE0BB789B08DBB203F001030F49FA78CA54BB7843F00403BB700EE0FB7B032B0BD0BB785B08DBB203F001030849FA78CA54BB7843F00203BB70BB
:40110000BB7818461437BD4680BC7047B881FF1FBC81FF1FC081FF1F80B582B000AF374B1B78BB71BB7903F01003002B62D00123FB7197F90630002B12DABB7903F00F0338
:40114000012B02D00023FB711CE000F061F82C4B1B78DBB25BB2002B14DA0023FB7111E0BB7903F04003002B02D000F095F809E0BB7903F02003002B02D000F0B3F801E0D0
:401180000023FB71FB79002B34D01C4B1B78BB7197F90630002B2DDB1A4B1B78DAB21A4B1B78DBB21343BB71184ABB791370174B1B78DBB2BA799A421CD1114B1B78FB7161
:4011C0000E4B1B78DBB223F07F03BB71BB79002B0AD10A4B0A4A1278D2B21A70074B1B78DBB203F00F03FB71054B1B78DBB2FA799A42E2D100BF0837BD4680BD28600040DF
:40120000ED81FF1F6282FF1FF081FF1F2960004080B582B000AF1D4B1B78FB711B4AFB7913701A4B1B78FB7197F90730002B03DA174AFB79137025E0022000F045FA154BAE
:401240001B78DBB203F06003202B08D0402B0BD0002B0ED100F0F8FA0346FB710CE001F0D3FF0346FB7107E001F000FB0346FB7102E00023FB7100BFFB79002B02D1044B11
:4012800003221A7000BF0837BD4680BD28600040ED81FF1F0060004080B500AF104B1B78DBB2062B19D801A252F823F0DB120000DB120000C9120000DB120000CF12000049
:4012C000DB120000D512000000F0F8F806E000F0A7F903E000F0D2F900E000BF00BF80BDD081FF1F80B500AF124B1B78DBB2062B1DD801A252F823F02F1300002F13000011
:40130000151300002F1300001B1300002F1300002113000000F0D8F80AE000F027F907E0032000F0D1F9044B03221A7000E000BF00BF80BDD081FF1FED81FF1F80B483B026
:4013400000AF0023FB71294B1B78DBB29AB2284B1B889BB213449AB2254B1A8015E02549FB79254A52681278D2B2CA54224B5B680133214A5360FB790133FB711E4B1B8871
:401380009BB2013B9AB21C4B1A801B4B1B889BB2002B02D0FB79072BE1D9144B1B78DBB2082B02D0FB79002B0FD0144B1B78DBB283F07F03DB43DAB2104B1A70104B0F2213
:4013C0001A70104B02221A7005E00D4B02221A700C4B02221A700C4AFB791370034AFB79137000BF0C37BD4680BC7047CC81FF1FCE81FF1F00600040D881FF1F6282FF1FF0
:40140000ED81FF1FD081FF1FF081FF1F80B582B000AF164B1B889BB2002B02D100F02EF81EE0134B02221A70124B00221A7000F06BF9114BDB79DBB29BB21B029AB20E4BF4
:401440009B79DBB29BB21343FB80084B1B889BB2FA889A4202D2054AFB881380FFF76EFF012318460837BD4680BD00BFD881FF1FD081FF1F6282FF1F0060004080B400AF45
:40148000094B02221A70094B80221A70084B0F221A70084B00221A70074B00221A7001231846BD4680BC7047D081FF1F6282FF1FED81FF1FCC81FF1FF081FF1F80B500AF4C
:4014C000FFF73CFF00BF80BD80B500AF0A4B1B78DBB29AB2094B1B889BB213449AB2074B1A80074B00221A70012000F0EDF8054B03221A7000BF80BDCC81FF1FCE81FF1F80
:40150000D081FF1FED81FF1F80B582B000AF124B04221A70114B80221A7000F0F5F8104BDB79DBB29BB21B029AB20D4B9B79DBB29BB21343FB800B4B1B889BB2FA889A427B
:4015400002D2084AFB881380074B0B221A70012318460837BD4680BDD081FF1F6282FF1F00600040D881FF1FED81FF1F80B483B000AF0023BB71234B1B78DBB203F00F0319
:40158000DBB2023BFB71FB799AB21F4B1B889BB213449AB21C4B1A8018E01C4B5B681C49BA798A5CD2B21A70184B5B680133174A5360BB790133BB71FB79013BFB71134B0D
:4015C0001B889BB2013B9AB2104B1A800F4B1B889BB2002B02D0FB79002BDED10D4AFB7913700D4B1B78DBB283F07F03DB43DAB2094B1A70094B0B221A7000BF0C37BD4696
:4016000080BC704729600040CE81FF1FD881FF1F00600040F081FF1F6282FF1FED81FF1F80B500AF054B00221A70012000F04CF8034B03221A7000BF80BD00BFD081FF1FF1
:40164000ED81FF1F80B400AF084B06221A70084B06221A70074B80221A70074B00221A7001231846BD4680BC704700BFD081FF1FED81FF1F6282FF1FF081FF1F80B500AFCE
:401680000D4B1B78DBB2002B0AD00C4A0A4B1B78DBB263F07F03DBB21370074B00221A70074B00221A70012000F00EF8054B03221A7000BF80BD00BFEE81FF1F08600040FB
:4016C000D081FF1FED81FF1F80B483B000AF0346FB710B4B9B68002B0CD0094B9B68FA791A70074B9B68074A128892B25A80044B00229A6000BF0C37BD4680BC704700BFF0
:40170000D881FF1FCE81FF1F80B400AF094B00221A80094B9B68002B07D0074B9B6800221A70054B9B6800225A8000BFBD4680BC704700BFCE81FF1FD881FF1F80B400AFEE
:401740000D4B01221A700D4B9B7C0D4B1B7BDBB203F00303012B08D0094BDB7BDBB283F07F03DB43DAB2064BDA73054B01225A7300BFBD4680BC70470B600040FC5F0040CE
:40178000F481FF1F80B400AF0E4B02221A700E4B93F822300D4B1B7EDBB203F00303012B08D00A4BDB7EDBB283F07F03DB43DAB2064BDA76054B01225A7600BFBD4680BC3F
:4017C000704700BF0B600040FC5F0040F481FF1F80B400AF104B04221A70104B93F832300F4B93F82430DBB203F00303012B0AD00B4B93F82730DBB283F07F03DB43DAB23B
:40180000074B83F82720064B012283F8252000BFBD4680BC704700BF0B600040FC5F0040F481FF1F80B400AF00BFBD4680BC704780B500AFFFF752FB00BF80BD80B500AF74
:4018400001F03EF800BF80BD80B586B000AF0023FB759D4B1B78FB7100233B619B4B00221A8097F90730002B80F20481964B5B78DBB20A2B00F21B8201A252F823F000BFA3
:40188000CB190000AF1C0000AF1C0000AF1C0000AF1C0000AF1C0000AD180000AF1C00003F1A0000AF1C0000551A0000864BDB78DBB2012B0ED100F049FEB860BB685B6839
:4018C000824A5360814B12221A80FFF79FFD0346FB75EEE17C4BDB78DBB2022B25D17A4B9B78DBB2184600F009FEB860BB68002B00F0DF81BB685B68744A5360734B5B68A3
:4019000003331B78DBB29BB21B029AB26F4B5B6802331B78DBB29BB213439AB26B4B1A80FFF774FD0346FB75C3E1674BDB78DBB2032B45D10023FB73654B3B6109E03B6986
:401940001B78BB71BB793A6913443B61FB7B0133FB735D4B9B78DBB2FA7B9A4204D23B691B78DBB2002BEAD1574B9B78DBB2EE2B01D1584B3B61544B9B78DBB2002B0BD0FC
:40198000514B9B78DAB2544B1B7C9A4204D1534800F0ACF9514B3B613B691B78DBB2002B00F087813B691B78DBB29AB2474B1A80464A3B695360FFF729FD0346FB7578E165
:4019C00001F022FC0346FB7573E1FB7903F00303002B20D0022B00D030E03C4B02221A80394B1B79DBB203F07F023D4913465B0013449B000B4402331B78DAB2394B1A70FB
:401A0000384B00225A70314B364A5A60FFF7FEFC0346FB7512E02D4B02221A80324B1B78DAB2304B1A702F4B00225A70274B2D4A5A60FFF7EBFC0346FB7500BF40E1234B22
:401A400001221A80214B294A5A60FFF7DFFC0346FB7535E11D4B01221A801B4B1B79DBB21A46234B1344194A5360FFF7CFFC0346FB7525E1144B5B78DBB2013B0A2B00F2E7
:401A80001A8101A252F823F0931B0000B71C0000211C0000B71C0000B51A0000B71C0000B71C0000B71C0000F91A0000B71C00004F1B0000044B9B78DAB20E4B1A70FFF79B
:401AC000C1FD0346FB75FBE000600040D881FF1F843800008C3900002C3800006882FF1FF481FF1FAC81FF1FF181FF1FEF81FF1F6082FF1FEE81FF1F744B9B787B717B7955
:401B0000002B06D07B79013BDBB2184600F0F6FCB8607B79002B02D0BB68002B03D17B79002B40F0CA806A4B1B78DBB27A799A4208D0674A7B791370664B01221A700120C0
:401B400000F0DCF9FFF77EFD0346FB75B5E000F055FE0346002B00F0B2805C4B1B793B715A4B1B79DAB25C4B1A703B795B4AD35CDAB23B795A49CB5CDBB29A4204D0554BBC
:401B800001221A7000F08CFBFFF75CFD0346FB7595E0FB7903F00303012B20D0012B0CD3022B00D03BE0494B9B78DBB2002B31D100F078FD0346FB752CE0444B9B78DBB21E
:401BC000012B29D1474B1B78DBB223F00203DAB2444B1A70FFF736FD0346FB751CE03B4B1B79DBB2012B19D8384B9B78DBB2DB43DBB2364A1279D2B2114610463A4A125CB2
:401C0000D2B21340DAB2384B5A54FFF71BFD0346FB7503E000BF53E000BF51E000BF4FE0FB7903F00303012B20D0012B0CD3022B00D03BE0254B9B78DBB2002B31D100F0BD
:401C4000BDFC0346FB752CE0204B9B78DBB2012B29D1244B1B78DBB243F00203DAB2214B1A70FFF7EFFC0346FB751CE0174B1B79DBB2012B19D8154B9B78DBB2DB43DBB28B
:401C8000124A1279D2B211461046174A125CD2B21340DAB2144B5A54FFF7D4FC0346FB7503E000BF0CE000BF0AE000BF08E000BF06E000BF04E000BF02E000BF00E000BF29
:401CC000FB7D18461837BD4680BD00BF00600040EF81FF1FEC81FF1FE481FF1FD481FF1F6082FF1FF181FF1F6482FF1FB0B58AB000AF7860324B07F114041D460FCD0FC4B8
:401D00002B682370002387F826307B68002B52D07B6822221A707B68013303221A7007F10C03184600F06AFE022387F827303EE097F827307A68134497F8262007F12801F3
:401D40000A4412F81C2C1209D2B207F128010A4412F8142C1A7097F8273001337A68134400221A7097F8273002337A68134497F8262007F128010A4412F81C2C02F00F02F5
:401D800007F128010A4412F8142C1A7097F8273003337A68134400221A7097F82630013387F8263097F82730043387F8273097F82730212BBCD900BF2837BD46B0BD00BFEA
:401DC0001838000090B482B000AF0123FB7180E0464AFB791B0113440C221A70FA79444913465B0013449B000B4405331B78DBB2002B1CD0FA793E4913465B0013449B004B
:401E00000B4404331B78DBB25BB2002B07DA394AFB791B01134402330C221A700EE0354AFB791B011344023308221A7006E0314AFB791B011344023380221A702B48F979C1
:401E4000FA792B4C13465B0013449B00234406331B889BB2DAB20B01034406331A702348F979FA79224C13465B0013449B00234406331B889BB21B0A9BB2DAB20B0103445B
:401E800007331A701948F979FA79194C13465B0013449B00234406331B889BB2DAB20B01034404331A701148F979FA79104C13465B0013449B00234406331B889BB21B0AE8
:401EC0009BB2DAB20B01034405331A70FB790133FB71FB79082B7FF67BAF074BFF221A7000BF0837BD4690BC704700BF70600040F481FF1FFC5F00400A60004080B58AB083
:401F000000AF0346FB7100237B84002387F8273050E097F82720B34913465B0013449B000B4400221A7097F82720AE4913465B0013449B000B44023300221A7097F8272006
:401F4000A84913465B0013449B000B44033300221A7097F82720A34913465B0013449B000B44083300221A8097F827209D4913465B0013449B000B440A3300221A7097F8C2
:401F80002720984913465B0013449B000B44013300221A7097F82720924913465B0013449B000B44053300221A7097F82730013387F8273097F82730082BAAD9FB79002B6F
:401FC00016D0002387F825300EE097F82530864A0021D15497F82530844A0021D15497F82530013387F8253097F82530012BECD97F4B1B78DBB2002B00F04A810023FB76FF
:402000007B4B1B78DBB2013BDBB2184600F076FA78617B695B683B613B6907331B7803F04003002B08D0734B1B78DBB243F00103DAB2704B1A7007E06E4B1B78DBB223F0B4
:402040000103DAB26B4B1A707B6908337B617B691B7887F82730012387F82530B6E07B695B68FB61002387F82630A3E097F82520FB699B7803F07F039A4240F0938097F8CE
:402080002520584913465B0013449B000B4408331B889AB2FB699B889A420CD297F82520FB6998884F4913465B0013449B000B44083302461A80FB691B781A464A4B9B5CF5
:4020C000DAB2FB695B789A426CD197F82520FB699878444913465B0013449B000B44043302461A7097F82520FB69D8783D4913465B0013449B000B4402461A70FB69DB78A5
:4021000003F00303FB73FB699B785BB2002B1CDA97F82520FB7B012B01D1072000E00D20304913465B0013449B000B44053302461A7097F825202B4913465B0013449B00B1
:402140000B44013301221A701BE097F82520FB7B012B01D1052000E00920224913465B0013449B000B44053302461A7097F825201C4913465B0013449B000B4401330022D0
:402180001A70FB699B790A2B03D0FB699B79022B08D1FA7E97F825301946F869FEF774FF0346FB76FB690833FB6197F82630013387F8263097F8262097F827309A42FFF4E6
:4021C00055AF97F82530013387F8253097F82530082B7FF644AF7B695B68FB61002387F8253020E0F481FF1F6082FF1FD481FF1FEF81FF1FF181FF1FFB699B7803F07F0267
:40220000FB691878244913465B0013449B000B440A3302461A70FB690833FB6197F82530013387F8253097F8252097F827309A42E2D300F09DF90246184B1A6000237B843A
:40224000012387F827301DE097F82720124913465B0013449B000B4406337A8C1A8097F827200D4913465B0013449B000B4408331B889AB27B8C13447B8497F827300133A6
:4022800087F8273097F82730082BDDD9FFF79AFD00BF2837BD4680BDF481FF1FE881FF1F90B585B000AF8F4B1B78DBB2002B00F015818C4B1B78DBB2013BDBB2184600F092
:4022C0001DF978607B6808337B607B681B78FB707B685B68BB60844B1B78BB700023FB73F7E0BB681B78BA789A4240F0EC80BB787E4AD35CDAB2BB685B789A4240F0E380E5
:40230000BB689B7803F07F037B70BB68DB7803F003033B707A78764913465B0013449B000B44033300221A707A78BB689878704913465B0013449B000B44043302461A7089
:402340007A78BB68D8786A4913465B0013449B000B4402461A707A78BB689888644913465B0013449B000B44083302461A80BB689B785BB2002B1ADA7A783B78012B01D185
:40238000072000E00D205A4913465B0013449B000B44053302461A707A78554913465B0013449B000B44013301221A7019E07A783B78012B01D1052000E009204C49134629
:4023C0005B0013449B000B44053302461A707A78474913465B0013449B000B44013300221A70444A7B781B011344023301221A70404879787A783E4C13465B0013449B006F
:40240000234408331B889BB21B0A9BB2DAB20B0103441A70374879787A78354C13465B0013449B00234408331B889BB2DAB20B01034401331A70304879787A782C4C13464B
:402440005B0013449B00234406331B889BB2DAB20B01034406331A70274879787A78244C13465B0013449B00234406331B889BB21B0A9BB2DAB20B01034407331A701E486A
:4024800079787A781A4C13465B0013449B00234406331B889BB2DAB20B01034404331A70154879787A78124C13465B0013449B00234406331B889BB21B0A9BB2DAB20B011F
:4024C000034405331A70BB680833BB60FB7B0133FB73FA7BFB789A42FFF403AF00BF1437BD4690BDEF81FF1FE481FF1F6082FF1FF481FF1FFC5F00407060004080B485B0C7
:4025000000AF0346FB710F4B1B78DBB20E4ADB0013445B68FB60FB681033FB60FB681B78FA799A4202D30023FB6005E0FB79DB00FA6813445B68FB60FB6818461437BD4662
:4025400080BC7047CD81FF1F8439000080B400AF054B1B78DBB2054ADB0013445B681846BD4680BC704700BFCD81FF1F8439000080B584B000AF104B1B78DBB2013BDBB210
:402580001846FFF7BBFFB860BB68002B0DD0BB685B681B79FB71FB790233DB00BA681344BB60BB685B68FB6001E00023FB60FB6818461037BD4680BDEF81FF1F80B582B0EF
:4025C00000AF0023FB71344B1B79DBB203F07F03BB71BB79002B5AD0BB79082B57D8BA79B9792E480B465B000B449B00034402331B78DBB243F00103D8B2284913465B004A
:4026000013449B000B44023302461A70BA79234913465B0013449B000B44033300221A70BA79B9791D480B465B000B449B00034401331B78DBB243F00203D8B21749134666
:402640005B0013449B000B44013302461A70BA79124913465B0013449B000B4404331B78DBB25BB2002B07DA0D4ABB791B01134402338D221A7006E0094ABB791B01134479
:40268000023389221A70FEF7DDFF0346FB71FB7918460837BD4680BD00600040F481FF1FFC5F004080B582B000AF0023FB71504B1B79DBB203F07F03BB71BB79002B00F0BA
:4026C0009280BB79082B00F28E80BA79B97949480B465B000B449B00034402331B78DBB223F00103D8B2434913465B0013449B000B44023302461A70BA793E4913465B00A2
:4027000013449B000B44033300221A703A49BB793948BA79120102441278D2B202F07F02D2B21B010B441A70BA79B97931480B465B000B449B00034401331B78DBB223F096
:402740000203D8B22B4913465B0013449B000B44013302461A70BA79264913465B0013449B000B4404331B78DBB25BB2002B1BDABA79204913465B0013449B000B4401337B
:402780001B78DBB2012B07D11B4ABB791B01134402330C221A7022E0174ABB791B01134402330D221A701AE0BA79124913465B0013449B000B4401331B78DBB2012B07D12F
:4027C0000D4ABB791B011344023308221A7006E0094ABB791B011344023309221A70FEF731FF0346FB71FB7918460837BD4680BD00600040F481FF1FFC5F004080B584B0C6
:4028000000AF0023FB73154B1B79BB73144B1B78DBB2013BDBB21846FFF770FEB860BB685B681B79FB71BA7BFB799A4202D9BB7B022B0ED8BB7BBA7B0A498A5CD1B20A4A0A
:40284000D154BB7B054A9278D1B2064AD1540123FB73FB7B18461037BD4680BD00600040EF81FF1F6082FF1FD481FF1F80B582B000AF0023FB710F4B1B78DBB25BB2002BC7
:4028800012DA0C4B5B78DBB2012B00D00CE00A4B0A4A5A60094B1B789AB2074B1A80FEF7B5FD0346FB7100BFFB7918460837BD4680BD00BF00600040D881FF1FA0390000F0
:4028C00080B400AF054B1B78DBB203F040039B09DBB21846BD4680BC704700BF8F45004080B483B000AF0346FB7101BE00BF0C37BD4680BC704700BF80B582B000AF7860C8
:4029000008E00C4B1B68184600F06EFC7B68A3F500437B607B68B3F5004FF2D8064B1B687A6802FB03F3184600F05EFC00BF0837BD4680BDF480FF1FEC80FF1F80B582B0CE
:4029400000AF0346FB80FB88054A127802FB03F3184600F049FC00BF0837BD4680BD00BFF080FF1F80B584B000AF03463960FB710F4B1B68FB60FB791F2B02D90020FFF72A
:40298000AFFFFB7903F01F0310339B00FA6813441B68BB60FB7903F01F0310339B00FA6813443A681A60BB6818461037BD4680BD08ED00E080B582B000AF03460A46FB7177
:4029C0001346BB71BB79072B02D90020FFF788FFFB791F2B02D90020FFF782FFFB7903F01F0303F1604303F56443BA795201D2B21A7000BF0837BD4680BD00BF80B483B08D
:402A000000AF7860264B1B78DBB21A467B681A60244B1B78DBB21B027A6812681A437B681A60214B1B78DBB21B047A6812681A437B681A601D4B1B78DBB21B067A68126839
:402A40001A437B681A607B680433194A1278D2B21A60184B1B78DBB21A027B6804337968043109680A431A60134B1B78DBB21A047B6804337968043109680A431A600F4B32
:402A80001B78DBB21A067B6804337968043109680A431A6000BF0C37BD4680BC704700BF0301004904010049EC46004002010049010100490001004905010049060100492A
:402AC00080B500AF064B1B78002B04D100F00AF8034B01221A7000F063F800BF80BD00BFAE81FF1F80B582B000AF284A274B1B78DBB243F00203DBB21370254B1B78DBB2DC
:402B000023F07003FB71224AFB7943F01003DBB21370204A1F4B1B78DBB223F03003DBB213701C4A1B4B1B78DBB243F03003DBB21370184A174B1B78DBB223F00F03DBB22B
:402B40001370144A134B1B78DBB243F00F03DBB21370FF2000F048F87F2000F055F8002000F062F80C4A0C4B1B78DBB243F00103DBB21370094A094B1B78DBB243F00103FA
:402B8000DBB2137000BF0837BD4680BD004F0040024F00400B4F0040A3430040014F004080B400AF0D4A0D4B1B78DBB243F00103DBB213700A4A0A4B1B78DBB243F001035E
:402BC000DBB21370074A074B1B78DBB243F00103DBB2137000BFBD4680BC7047A3430040B3430040004F004080B483B000AF0346FB71044BFA7992B21A8000BF0C37BD46AB
:402C000080BC7047044F004080B483B000AF0346FB71044BFA7992B21A8000BF0C37BD4680BC7047064F004080B483B000AF0346FB71044AFB79137000BF0C37BD4680BCC5
:402C4000704700BF034F004080B500AF064B1B78002B04D100F00AF8034B01221A7000F063F800BF80BD00BFAF81FF1F80B582B000AF284A274B1B78DBB243F00203DBB264
:402C80001370254B1B78DBB223F07003FB71224AFB7943F01003DBB21370204A1F4B1B78DBB223F03003DBB213701C4A1B4B1B78DBB243F03003DBB21370184A174B1B78D6
:402CC000DBB223F00F03DBB21370144A134B1B78DBB243F00F03DBB21370FF2000F048F87F2000F055F8002000F062F80C4A0C4B1B78DBB243F00203DBB21370094A094B90
:402D00001B78DBB243F00103DBB2137000BF0837BD4680BD0C4F00400E4F0040174F0040A34300400D4F004080B400AF0D4A0D4B1B78DBB243F00203DBB213700A4A0A4BAB
:402D40001B78DBB243F00203DBB21370074A074B1B78DBB243F00103DBB2137000BFBD4680BC7047A3430040B34300400C4F004080B483B000AF0346FB71044BFA7992B264
:402D80001A8000BF0C37BD4680BC7047104F004080B483B000AF0346FB71044BFA7992B21A8000BF0C37BD4680BC7047124F004080B483B000AF0346FB71044AFB791370CE
:402DC00000BF0C37BD4680BC704700BF0F4F004080B400AF00BFBD4680BC704780B582B000AF0F2000F06AF800F05AF800F004FA0346FB71074A074B1B78DBB243F0100361
:402E0000DBB21370FB79184600F0FAF900BF0837BD4680BD9465004080B500AF00F0AEF84FF4004000F0D8F8064B1B78002B04D1FFF7CEFF034B01221A70FFF7CFFF00BF74
:402E400080BD00BFB081FF1F80B582B000AF00F0D3F80346FB80FB88A3F500439BB2BB80B7F9043018460837BD4680BD80B584B000AF0346FB80B7F90630002B04DBFB887C
:402E8000A3F50043FB8103E0FB88A3F50043FB81FB89184600F0A0F800BF1037BD4680BD80B400AF044B1B78DBB203F00F03DBB21846BD4680BC70476465004080B483B0A6
:402EC00000AF0346FB71044AFB79137000BF0C37BD4680BC704700BF8465004080B582B000AF1C4B1B78DBB223F00703FB71194AFB791370174B1B78DBB223F00303FB71C2
:402F0000144AFB79137000F0B3F84FF4004000F08FF84FF4004000F05FF8002000F040F800F04EF84FF4004000F092F800F064F90346BB71084A084B1B78DBB243F0100395
:402F4000DBB21370BB79184600F05AF900BF0837BD4680BD746500409865004080B400AF054A054B1B78DBB263F07F03DBB2137000BFBD4680BC70477465004080B500AF9F
:402F8000064B1B78002B04D1FFF7A8FF034B01221A70FFF7E3FF00BF80BD00BFB181FF1F80B483B000AF0346FB71044AFB79137000BF0C37BD4680BC704700BF88650040BE
:402FC00080B400AF034B1B78DBB21846BD4680BC704700BF6865004080B483B000AF0346FB80044AFB88138000BF0C37BD4680BC704700BF0E6A004080B400AF044B1B78EE
:40300000044B1B889BB21846BD4680BC704700BF076500408E6A004080B400AF034B1B889BB21846BD4680BC704700BF8E6A004080B483B000AF0346FB80044AFB881380B0
:4030400000BF0C37BD4680BC704700BF4E6A004080B483B000AF0346FB80044AFB88138000BF0C37BD4680BC704700BF6E6A004080B500AF01E0FFF7CFFFFFF7A1FF03462C
:4030800003F04003002BF6D100BF80BD80B582B000AF786000F03CF8786800F009F8072000F018F800F028F800BF0837BD4680BD80B485B000AF7860054B1B68FB60FB6813
:4030C00054337A681A6000BF1437BD4680BC704708ED00E080B483B000AF0346FB71054AFB795B01DBB2137000BF0C37BD4680BC704700BF05E400E080B400AF034B20222B
:403100001A6000BFBD4680BC704700BF00E100E080B400AF034B20221A6000BFBD4680BC704700BF80E100E080B400AF054B1B78DBB203F010031B09DBB21846BD4680BC97
:40314000704700BF0151004080B400AF054B1B78DBB203F020035B09DBB21846BD4680BC704700BF2151004080B400AF054B1B78DBB203F040039B09DBB21846BD4680BCD1
:40318000704700BF2151004080B400AF054B1B78DBB203F004039B08DBB21846BD4680BC704700BF3151004080B400AF054B1B78DBB203F08003DB09DBB21846BD4680BCBE
:4031C000704700BF3151004080B400AF044B1B78DBB203F00103DBB21846BD4680BC7047F1510040000000000230800803D000BF01380046FCD17047EFF3108072B670474B
:4032000080F31088704700BF80B582B000AF0023BB711B4B1B78DBB203F00303012B02D0022B04D012E0164B1B79FB7111E0144B1B79DBB203F07F02124913465B0013448C
:403240009B000B440A331B78FB7102E00023FB7100BFFB79022B0ED80B4B1A68FB7913441B78022B04D1FDF76DFE0346BB7102E00023BB7100BFBB7918460837BD4680BD64
:4032800000600040F481FF1FE881FF1F80F0004002E000BF81F0004142001FBF5FEA410392EA030F7FEA226C7FEA236C6AD04FEA1262D2EB1363C1BFD21841404840414019
:4032C000B8BF5B42192B88BF704710F0004F40F4000020F07F4018BF404211F0004F41F4000121F07F4118BF494292EA030F3FD0A2F1010241FA03FC10EB0C00C3F12003C9
:4033000001FA03F100F0004302D5494260EB4000B0F5000F13D3B0F1807F06D340084FEA310102F10102FE2A51D2B1F1004F40EBC25008BF20F0010040EA03007047490044
:4033400040EB000010F4000FA2F10102EDD1B0FA80FCACF1080CB2EB0C0200FA0CF0AABF00EBC25052421843BCBFD0401843704792F0000F81F4000106BF80F400000132DE
:40338000013BB5E74FEA41037FEA226C18BF7FEA236C21D092EA030F04D092F0000F08BF0846704790EA010F1CBF0020704712F07F4F04D1400028BF40F00040704712F110
:4033C00000723CBF00F50000704700F0004343F0FE4040F4000070477FEA226216BF08467FEA23630146420206BF5FEA412390EA010F40F4800070474FF0000304E000BF4F
:4034000010F0004348BF40425FEA000C08BF704743F0964301464FF000001CE050EA010208BF70474FF000030AE000BF50EA010208BF704711F0004302D5404261EB4101D3
:403440005FEA010C02BF84460146002043F0B64308BFA3F18053A3F50003BCFA8CF2083AA3EBC25310DB01FA02FC634400FA02FCC2F12002BCF1004F20FA02F243EB020064
:4034800008BF20F00100704702F1200201FA02FCC2F1200250EA4C0021FA02F243EB020008BF20EADC7070474FF0FF0C1CEAD0521EBF1CEAD15392EA0C0F93EA0C0F6FD01A
:4034C0001A4480EA010C400218BF5FEA41211ED04FF0006343EA501043EA5111A0FB01310CF00040B1F5000F3EBF490041EAD3715B0040EA010062F17F02FD2A1DD8B3F1FA
:40350000004F40EBC25008BF20F00100704790F0000F0CF0004C08BF49024CEA502040EA51207F3AC2BFD2F1FF0340EAC250704740F400004FF00003013A5DDC12F1190F3F
:40354000DCBF00F000407047C2F10002410021FA02F1C2F1200200FA02FC5FEA310040F1000053EA4C0308BF20EADC70704792F0000F00F0004C02BF400010F4000F013AD1
:40358000F9D040EA0C0093F0000F01F0004C02BF490011F4000F013BF9D041EA0C018FE70CEAD15392EA0C0F18BF93EA0C0F0AD030F0004C18BF31F0004CD8D180EA0100AE
:4035C00000F00040704790F0000F17BF90F0004F084691F0000F91F0004F14D092EA0C0F01D142020FD193EA0C0F03D14B0218BF084608D180EA010000F0004040F0FE40D1
:4036000040F40000704740F0FE4040F4400070474FF0FF0C1CEAD0521EBF1CEAD15392EA0C0F93EA0C0F69D0A2EB030280EA010C49024FEA402037D04FF0805343EA1111D0
:4036400043EA10130CF000408B4238BF5B0042F17D024FF4000C8B4224BF5B1A40EA0C00B3EB510F24BFA3EB510340EA5C00B3EB910F24BFA3EB910340EA9C00B3EBD10F73
:4036800024BFA3EBD10340EADC001B0118BF5FEA1C1CE0D1FD2A3FF650AF8B4240EBC25008BF20F0010070470CF0004C4CEA50207F32C2BFD2F1FF0340EAC250704740F49A
:4036C00000004FF00003013A37E792F0000F00F0004C02BF400010F4000F013AF9D040EA0C0093F0000F01F0004C02BF490011F4000F013BF9D041EA0C0195E70CEAD15354
:4037000092EA0C0F08D142027FF47DAF93EA0C0F7FF470AF084676E793EA0C0F04D14B023FF44CAF08466EE730F0004C18BF31F0004CCAD130F000427FF45CAF31F0004347
:403740007FF43CAF5FE700BF014B1868704700BF5881FF1F0E4B70B51E460E4C0025E41AA410A54204D056F8253098470135F8E700F02CF9084B094C1E46E41AA410002550
:40378000A54204D056F8253098470135F8E770BDD8390000D8390000D8390000E039000010B5431E0A44914204D011F8014B03F8014FF8E710BD03460244934202D003F8A6
:4037C000011BFAE77047000000000000004F0040240040510040300000000140800200030140000D00140140800200170140000500400140000A004C01400002005001406E
:403800002000000080020140140B0048800080160140940B0048800030313233343536373839414243444546000000001201000202000008B40432F201000102800100005E
:4038400009024300020101C032090400000102020103052400100104240202052406000105240100010705810308000A09040100020A00000407058202400000070503028C
:4038800040000000040309042C0343007900700072006500730073002000530065006D00690063006F006E0064007500630074006F0072001003550053004200550041008A
:4038C000520054003803430044004300200043006F006D006D0075006E00690063006100740069006F006E00200049006E007400650072006600610063006500260343008A
:403900004400430020004400610074006100200049006E00740065007200660061006300650000000203000000008103080002000100820240000A000100030240000A0003
:40394000020A000001000000403800000300000028390000000000000000000000000000000000000000000040390000010000002C3800000000000000000000010000007F
:4039800044390000010000006C39000012034D005300460054003100300030000100000028000000000104000100000000000000000143595553420000003030303031005D
:4039C000000000000000000043000000F8B500BFF8BC08BC9E4670474D000000E9090000F8B500BFF8BC08BC9E46704729000000003A0000C880FF1F9800000030010000B5
:403A00000000000000C2010000000800C201000000080000A120000000000200000000000087930360EA00003C0000000000307500000000000000000000000000000000E5
:403A400000000000000000000000000000000000C8390000000000000000000000000000000000000000000000000000000000000000000000000000000000000000000045
:403A800000000000000000000000000000000000F880FF1F000000000000000000000000000000000000000000000000000000000000000000000000000000000000000070
:403AC00000000000000000000000000000000000000000000000000000000000000000000000000000000000000000000000000000000000000000000000000000000000C6
:403B00000000000000000000000000000000000000000000000000000000000000000000000000000000000000000000000000000000000000000000000000000000000085
:403B40000000000000000000000000000000000000000000000000000000000000000000000000000000000000000000000000000000000000000000000000000000000045
:403B80000000000000000000000000000000000000000000000000000000000000000000000000000000000000000000000000000000000000000000000000000000000005
:020000040003F7
:0200000480007A
:4000000001450040064F00400A5200400464004003650040450001402F0101403302014045030140560401404C050140460601404E0701406008014046090140040A0140EB
:40004000060B0140020D014048140140511501400C160140591701404F18014054190140171B0140074001400E41014015420140104301400A4501400C46014008470140C6
:400080000D480140154901400B4C0140064D01400C500140025101407E0201100A4B0D10164B1930224B080109021008182819286018611C782079107C40806F870F8838D0
:4000C000890F840F8772886F00070501080809280A010D180E0F100C1202161017051D301E20200C220123022420280B2A042D302E20300F31013304342035023618373899
:4001000039803E103F015280540F580459045B045F0581C18312880E89B78AF08B408C968E6890A39184925C931094FE960197079CC59DC09E3A9F24A201A708A901ABF22B
:40014000AC7FAD77B2FFB50FB7F0BE04D804D904DF0100420120044005300702088009080A420E800F12100212801314148015C01A421B111D0820222144238426C02708FC
:4001800028802B012D602F10300832803680370A39883B103F125B95612470027980C0CBC2BDC49FCA79CCDACEAED60FD806DE08010408940A600C300D040EC90F0110CFE8
:4001C00011041230130214FD1501160219021C9E1E602073260F310434FF3501370239023E103F514061410349FF4AFF4BFF4DA04F0150185608580459045A045B045D9023
:400200005F016040628064406540668068406A806C406D206E80011004800510070208080A840D010E800F121002124013201501170818081A841F1022142312274529111C
:400240002B012C042F0431803210361A388039023B183C823D01410843404508474848C049244D204F2050085120520253025F4066808401870497309B089D149F17A011E8
:40028000A240A311A408A520C0C2C2BEC43BCA0DCCECCE9FD05AD224D610D810E602EA040130020703C9040106020C600E041004130F159E1760183719731DFD1E801F02D1
:4002C000205721CF2330286129942A022B602E08308031FF3470360F38203F01406141034204440546CE480C49FF4AFF4BFF4C624DA04EF04F41500C5608580459045A04BF
:400300005B045D925F016640670269106A306B106D106E106F12880289038A018D08930494019502960A97019C019E02A204A401A602AB03B108B204B302B403B504B60895
:40034000B701BA20BF45D804D904DF010108020103800590070109820A040D080E021008128013401680170419011A061BA01D181E022340260227152A012B042F043104E3
:4003800032813320360137083B023CA04040421148014B105050588059206008625068028202900892809510988499029A809B089C089D119E409F20A090A302A402A580E6
:4003C000A618AB12AD02AE04AF40B080C04DC2ABC43BCA25CCCFCE31D00BD20CD60CD80CE204EC200002020404080A010E01100412021304140216041C0822102301240252
:4004000026042F02300632083301341035023601370438083A023E405608580459045B045D905F018101840E86F087048B208CA38E5C8F08910893109501987F9B019C96EC
:400440009E689F18A0FEA101A201A501A8C5AA3AAB10AE01AF02B103B520B6FFB71CBA08BE40BF40D40FD804D904DB04DC02DF01010802010464074008100A040B020C8047
:400480000D061008110112821502170819401A101D031E081F4520032111220225802618280829482A012C802F02300A311432403401380839013A60580459825B105C804B
:4004C00064018B418D108F0190A89284944095109611971A980C99829A509B109D0C9E019F20A082A382A409A582A698A704A920AC40B201B720C0F5C2B3C43BCA9FCC8FF4
:40050000CE0FD61FD810E608EA01EE0D150217011C082004210122022302250127022C042D012E012F023008320233033401360438803B083E014003474049FF4A074BFF46
:400540004C404D204EF04F05500854185604580459045A045B045D225F01604061A8624063208308841485B1870E8A038C1C8D6C8E028F83940995B19610974698109A0C3D
:400580009B4C9F93A780A80CAA11AC10B10FB21FB34AB530B61FB780B920BB0ABF50C031C106C50CC6BEC80DC9FFCAFFCBFFCEF0CF44D00CD401D604D804D904DA04DB0495
:4005C000DC22DD22DF01E6C0EA40EB02005002200A280E0112091501160218101A011C281E021F0120402104224823082604281029042C202F423188321436043840390846
:400600003A014188470849044A08522053805580560158115A805B045F0162026440666078017B80844088048B808F04900297029920A602AA82AE80B120B401C007C286AA
:40064000C493CAD2CC4ECE0BD04AD204D68FD8B1E040E2A0E860EE0139A03F5059045F012280230883088F01EA20EC20E602EA040004043C06C208CF0A300C3C0EC110FFA1
:400680001301160C18101E8320202408270428302C042D022E0830B032403301343F3504370238083A223F405280540F580459045B045C025F01821E841885038604870C45
:4006C0008D0F8E019105930A950A9705981099079A029F40A016A208A310A40EA920AC18AD0CAE02AF03B001B110B21EB320B540B70FBF04D608D804D904DB04DD90DF01DB
:40070000004002480320058508020A210B040F08108A121014101540160117051840190A1B201D041F0220202120230125482680274928202B012D402F4433023410350598
:4007400037403D803F0859205A805B055C80658072808080830184108620870489208D088E8092A19384983299219A519D0E9EA09F48A08AA208A305A680A722A820AC0497
:40078000AD80B202B302B504C0BFC24FC4BFCABACCF1CE50D61FD810E009E610E880EC02EE04020218021E012202340236013E10560858045B045D905F010020014203206C
:4007C000068008440A140B400E080F01100211101250150219101A631C081F4020602160220823102804290A2B0830803209332038A9438048044A025A405D8067016950C1
:400800006A046B20709C7304800281508308844089248B408E4190819102921093409440951896019710981099019A509D049E219F68A002A204A385A520A680A804AB0234
:40084000AD20B110B340B480B508B704C01FC2CFC41FCA07CC0FCE0FD008D20CD618D810E041E202E404E608E818EA02000201200510070209010A040C020D160F08100566
:4008800013201601171E19181B041D181E041F022002230129202D0E30013204331E34023520370138203E153F5040564102452C4640473E483B49FF4AFF4BFF4DAF4E076E
:4008C0004F015018540F580459045A045B045F056040628064406540668068406A806C406D206E80851387048D0A8F149513970C9B089D209F05A503A704B30FB530B9201A
:40090000BB08D904DB04DC20DF010402052006820C020E020F2015011E441F08210822102620271229042C042D212E802F0131883210348036053710384039083C203D4097
:400940003E013F0844044C084D014F44560A57305D085E405F12660867046B097F01810883018602870189018A208B108F189042910895019620978199249E029F04A0103A
:40098000A180A205A304A508A702AE20B020B240B604C0D0C2B0C410CAB2CCFECEFAD020D230D6F0D860DE10E040E230E640EA42ECA08304870288028A018D408F089540F8
:4009C00096019B089F04A402A702AB20AF40B008B204B340B480E040E480E890EC80EE2030103301340837103980CCF0CE100008050408013080841095809C189F01AB103A
:400A0000C030C210CC10E640EA2013105108568063826702828083409580971099049C089F01AC04B081B310C440D460D6C0D840E2A0EC401B011D08840899049C089F0100
:400A4000A508A940AB01AD08AF01C630E610E840EA80EE30012009210C0257048710A740AB40C002C20ED40254088F049720A00AA121A744B008B120D402E002EA04EC0492
:400A80000B240F809720A002A120A740A901C20E000202080504511087208C40A301AF01B504C070D420E240EA4000400D105F2063026604810487018E0494409520990427
:400AC0009B20A301AE08B001C040C280D660D880E490E81050025380552078408F80A002A120AF04D407DC01E00277108F10B040DE04E402E80100050101080509010A05EF
:400B00000B010C05100511011A051B011C0500EA010B000000180006000E0000F31E0800004A00343000C3008000220000200C40002000404020114100000000F306041834
:400B40005114A20AF000001E0F010060000020800000000061030000003EC0243BFFFFFF00AF0701180000000000000004040400020000014000800040408000400080002A
:400B8000402080000000000000000000000000000000000001090000010600000102000002000010040000290129000602260009000404000007082800001010022F000011
:400BC0000800100001261807041002080000000800001110650100000000000000FFFFFF00A00001180000000000021004040404222000014000800040408000400080004F
:400C000040208000000000000000000000000000000000001300000000000400001C1C001C0000004000073838003800C0000000000B0B000B0000000800740A0A00080001
:400C400000000000847B7B003800000000000000000000000000000000000000000000000000000000000000000000000000000000000000000000000000000000000000C2
:400C80000000000000000000000000000000000000000000000000000000000000000000000000000000000000000000000000000000000000000000000000000000000034
:400CC00000000000000000000000000000000000000000000000000000000000000000000000000000000000000000000000000000000000000000000000000000000000F4
:400D000000000000000000000000000000000000000000000000000000000000000000000000000000000000000000000000000000000000000000000000000000000000B3
:400D40000000000000000000000000000000000000000000000000000000000000000000000000000000000000000000000000000000000000000000000000000000000073
:0200000490006A
:0400000000004007B5
:0200000490105A
:04000000BC90ACAF55
:0200000490303A
:02000000FA30D4
:0200000490402A
:4000000000000000000000000000000000000000000000000000000000000000000000000000000000000000000000000000000000000000000000000000000000000000C0
:400040000000000000000000000000000000000000000000000000000000000000000000000000000000000000000000000000000000000000000000000000000000000080
:400080000000000000000000000000000000000000000000000000000000000000000000000000000000000000000000000000000000000000000000000000000000000040
:4000C0000000000000000000000000000000000000000000000000000000000000000000000000000000000000000000000000000000000000000000000000000000000000
:0200000490501A
:0C00000000012E16106900012E2F0A9935
:00000001FF