:400000000080002011000000850A0000850A000080B500AF024A034B1B68136000F03CFDBC760040FA46004010B5054C237833B9044B13B10448AFF300800123237010BDC0
:400040008882FF1F0000000098160000084B10B51BB108490848AFF300800848036803B910BD074B002BFBD0BDE81040184700BF000000008C82FF1F98160000C880FF1F24
:400080000000000080B500AF62B600F0BBFD00F07DFE00F063FF00F0E7FF00BF80BD00BF80B500AFFFF7EEFF4FF47A7000F088FD044B1B781946044800F0D8FA00F022F88C
:4000C000FEE700BF0B82FF1FFC81FF1F80B582B000AF0346FB80FB88DBB2184600F036FE00BF0837BD4680BD80B582B000AF0346FB80FB88DBB2184600F0ECFE00BF08374C
:40010000BD4680BD80B500AF7F20FFF7DFFF7F20FFF7EAFF00BF80BD80B500AF01F0F6F90346002B11D001F0E1F90346002B0CD1184B1B789BB21846FFF7C8FF164B1B7827
:400140009BB21846FFF7D0FF22E001F0DFF90346002B11D101F0CAF90346002B0CD00F4B1B789BB21846FFF7B1FF0D4B1B789BB21846FFF7B9FF0BE0084B1B789BB21846EC
:40018000FFF7A4FF044B1B789BB21846FFF7ACFF00BF80BD0F82FF1F0D82FF1F0C82FF1F0E82FF1F80B584B000AF7860002000F0FFFE002000F082FF9620FFF787FF9A204C
:4001C000FFF792FF00F0E2FE0346FB6000F064FF0346BB60FB6883EAE372A2EBE3727B689A42EFDBBB6883EAE372A2EBE3727B689A4200DAE6E700BFFFF784FF322000F016
:40020000DFFC00BF1037BD4680BD00BF80B584B000AF7860002000F0CBFE002000F04EFF01F074F90346002B11D001F05FF90346002B0CD1264B1B789BB21846FFF746FF81
:40024000244B1B789BB21846FFF74EFF22E001F05DF90346002B11D101F048F90346002B0CD01D4B1B789BB21846FFF72FFF1B4B1B789BB21846FFF737FF0BE0164B1B78F4
:400280009BB21846FFF722FF124B1B789BB21846FFF72AFF00F07AFE0346FB6000F0FCFE0346BB60FB6883EAE372A2EBE3727B689A42B5DBBB6883EAE372A2EBE3727B6868
:4002C0009A4200DAACE700BF00BF1037BD4680BD0F82FF1F0D82FF1F0C82FF1F0E82FF1F80B584B000AF0A20FFF75CFF002000F05FFE002000F0E2FE6020FFF7E7FE9A20F5
:40030000FFF7F2FE0023FB730023BB7329E000F03DFE0346BB6000F0BFFE03467B60FB7B83F00103DBB2002B0AD0BB68002BB8BF5B42592B04DD7F20FFF7C8FE0123FB7359
:40034000BB7B83F00103DBB2002B0AD07B68002BB8BF5B42632B04DD7F20FFF7C5FE0123BB73FB7B83F00103DBB2002BCFD1BB7B83F00103DBB2002BC9D1FFF7C3FE642084
:4003800000F01EFC00BF1037BD4680BD80B584B000AF1420FFF706FF002000F009FE002000F08CFE9620FFF791FE5E20FFF79CFE0023FB730023BB7329E000F0E7FD0346A4
:4003C000BB6000F069FE03467B60FB7B83F00103DBB2002B0AD0BB68002BB8BF5B42632B04DD7F20FFF772FE0123FB73BB7B83F00103DBB2002B0AD07B68002BB8BF5B421F
:40040000592B04DD7F20FFF76FFE0123BB73FB7B83F00103DBB2002BCFD1BB7B83F00103DBB2002BC9D1FFF76DFE642000F0C8FB00BF1037BD4680BD80B582B000AF0020AB
:4004400000F0B6FD002000F039FE6020FFF73EFE9A20FFF749FE00F099FD03467B6000F01BFE03463B607B68002BB8BF5B42A32BF1DD3B68002BB8BF5B42992B00DCEAE741
:4004800000BFFFF73FFE642000F09AFBFFF744FE00BF0837BD4680BD80B584B000AF0023FB6064E000F0F2FF03467B7200F0FEFF03463B7201F00AF80346FB7101F016F850
:4004C0000346BB7101F022F803467B7101F02EF803463B712C4B1B68002B04DD2A4B1B68013B294A13600023FB720023BB72264B1B68002B22D13B79002B08D1FB79002BD2
:4005000005D1214B55221A600123BB7216E03B79002B08D1012001F035F81B4B55221A600123FB720AE0FB79002B07D1012001F047F8154B55221A600123BB72FB7A002B6E
:4005400002D1BB7A002B01D0012300E00023FB70FB7803F00103FB70FB78002B03D0FB680133FB6001E00023FB60FFF7D5FDFB68002B97DDFFF7C6FD4FF4FA7000F020FB13
:4005800000BF1037BD4680BDA482FF1F80B582B000AF0223FB80FB88532202FB03F31846FFF734FEFFF7AEFD4FF47A7000F008FB00BF0837BD4680BD80B582B000AFFFF77F
:4005C0006BFF002000F0F4FC002000F077FD00237B6008E000F0DAFC03467B60012000F0B3FFFFF799FD7B6813F13B0F02DB7B683B2BEFDD002000F0A7FFFFF783FD32204D
:4006000000F0DEFAFFF748FF00BF0837BD4680BD80B582B000AF0346FB71FB79052B1ED801A252F823F000BF41060000470600004D0600005F06000053060000590600004F
:40064000FFF72AFF0EE0FFF74BFE0BE0FFF79EFE08E0FFF7F1FE05E0FFF798FF02E0FFF751FD00BF00BF0837BD4680BD80B584B000AF78600B46FB700023FB7323E0FB7B99
:400680007A6813441B78BB73BB7B002B11D1FB7B5A1CFB789A420CDAFB7B01337A6813441B78002B05D1FFF787FFFB7B0133FB7303E0BB7B1846FFF7ABFFBB7B032B07D07F
:4006C000FB7B0133FB73FA7BFB789A42D7D300E000BF00BF1037BD4680BD00BF80B582B000AF786039603A680021786800F0CBFF00BF0837BD4680BD80B584B000AFF8603E
:40070000B9607A607A68B968F86800F0B1FF00BF1037BD4680BD00BF80B483B000AF0346FB71FEE780B487B000AF7860396000233B6100237B6127E07B699B007A68134406
:400740001B68BB60BB68FB73BB6823F0FF03BB6014E03B695B003A6813441B781A46BB68134419463B695B003A6813445B780B703B6901333B61FB7B013BFB73FB7B002BC4
:40078000E7D17B6901337B617B69262BD4D900BF1C37BD4680BC704780B582B000AF3A4B04221A80394B18221A70394B17221A80384B19221A70384B81221A80374B1822E5
:4007C0001A70374B40F22B121A80364B18221A70354B06221A70354B52221A70344B354A1278D2B21A70344B40F619121A80334B41F251221A800023FB7019237B6014E088
:40080000FB785B00DAB22E4B1B78DBB203F00103DBB21343DBB203F00303FB704FF4F07000F0EAFE7B68013B7B607B68002B02D0FB78032BE4D17B68002B02D10320FFF755
:400840006BFF204B4FF480721A801E4B07221A701D4B00221A701D4B48221A70194B00221A701B4B00221A701A4B02221A701A4A194B1B78DBB243F00F03DBB2137000BF17
:400880000837BD4680BD00BF80400040824000408440004086400040884000408A4000408C4000408E4000400043004000420040A14600400F0100492242004020420040F7
:4008C000254200400440004006400040084000400940004001400040A243004080B483B000AF0B4B1B78FB710A4AFB7903F00703DBB21370084AFB791B09DBB21370074B04
:4009000044221A7000BF0C37BD4680BC704700BFCF0100496E5800406F5800407658004080B582B000AF72B63E4B61221A70FFF733FF3C4B01221A700023FB7113E0FA79B7
:4009400013465B0013445B00374A13443B603B681A683B689B889BB219461046FFF7BEFEFB790133FB71FB79062BE8D92F494FF09040FFF7D7FE2E4B2E4A1A602E4B2D4AD8
:400980001A602E4A2D4B1B78DBB243F00203DBB213702B4A2A4B1B78DBB243F00203DBB21370284A274B1B78DBB243F04003DBB21370254A244B1B78DBB243F01003DBB2B8
:4009C0001370082221492248FFF796FE082221492148FFF791FE0A2220492148FFF78CFE082220492048FFF787FE0A221F492048FFF782FE08221F491F48FFF77DFE1F4A31
:400A00001E4B1B78DBB243F00803DBB21370FFF765FF0E220B491A48FFF76EFE00BF0837BD4680BD004800409C1600009C000048D8080140040404C4D8140140035001402F
:400A400013500140A0430040C24300403C0B004802510040440B0048C25100404C0B0048F0510040580B004812510040600B0048205100406C0B0048325100402243004065
:400A8000B043004080B500AF00F0C6FD03461B680C2B00D1FEE7FEE780B586B000AF224B7B61224B3B61204B7B6135E03B691B68FB603B695B68BB603B699B683B6000239D
:400AC0007B600CE0FB681A68BB681A60BB680433BB60FB680433FB607B6804337B607A683B689A42EED13B69DB683B6000237B6008E0BB6800221A60BB680433BB607B68AF
:400B000004337B607A683B689A42F2D13B6910333B617B69013B7B617B69002BC6D100F081FDFFF7BDFAFEE701000000EC16000080B582B000AF184B184A1A60184A184B3D
:400B40001B6843F40073136000237B600FE07B68032B04D8134A7B6852F8233000E0124B12497A6841F822307B6801337B607B682F2BECD90E4B1B78DAB20E4B1A700E4B71
:400B80000A4A1A60FFF7CCFE0C4B00221A6000BF0837BD4680BD00BF0CED00E00004FA0514ED00E000000000850A00000080FF1FBC760040C480FF1F08ED00E0C080FF1FC6
:400BC00080B582B000AF786008E00C4B1B68184600F012FD7B68A3F500437B607B68B3F5004FF2D8064B1B687A6802FB03F3184600F002FD00BF0837BD4680BD1C82FF1FBB
:400C00001482FF1F80B500AF064B1B78002B04D100F00AF8034B01221A7000F063F800BF80BD00BFA882FF1F80B582B000AF284A274B1B78DBB243F00203DBB21370254B2B
:400C40001B78DBB223F07003FB71224AFB7943F01003DBB21370204A1F4B1B78DBB223F03003DBB213701C4A1B4B1B78DBB243F03003DBB21370184A174B1B78DBB223F089
:400C80000F03DBB21370144A134B1B78DBB243F00F03DBB21370FF2000F048F87F2000F055F8002000F062F80C4A0C4B1B78DBB243F00103DBB21370094A094B1B78DBB271
:400CC00043F00103DBB2137000BF0837BD4680BD004F0040024F00400B4F0040A3430040014F004080B400AF0D4A0D4B1B78DBB243F00103DBB213700A4A0A4B1B78DBB23D
:400D000043F00103DBB21370074A074B1B78DBB243F00103DBB2137000BFBD4680BC7047A3430040B3430040004F004080B483B000AF0346FB71044BFA7992B21A8000BF98
:400D40000C37BD4680BC7047044F004080B483B000AF0346FB71044BFA7992B21A8000BF0C37BD4680BC7047064F004080B483B000AF0346FB71044AFB79137000BF0C379D
:400D8000BD4680BC704700BF034F004080B500AF064B1B78002B04D100F00AF8034B01221A7000F063F800BF80BD00BFA982FF1F80B582B000AF284A274B1B78DBB243F09B
:400DC0000203DBB21370254B1B78DBB223F07003FB71224AFB7943F01003DBB21370204A1F4B1B78DBB223F03003DBB213701C4A1B4B1B78DBB243F03003DBB21370184A18
:400E0000174B1B78DBB223F00F03DBB21370144A134B1B78DBB243F00F03DBB21370FF2000F048F87F2000F055F8002000F062F80C4A0C4B1B78DBB243F00203DBB2137020
:400E4000094A094B1B78DBB243F00103DBB2137000BF0837BD4680BD0C4F00400E4F0040174F0040A34300400D4F004080B400AF0D4A0D4B1B78DBB243F00203DBB213708C
:400E80000A4A0A4B1B78DBB243F00203DBB21370074A074B1B78DBB243F00103DBB2137000BFBD4680BC7047A3430040B34300400C4F004080B483B000AF0346FB71044B51
:400EC000FA7992B21A8000BF0C37BD4680BC7047104F004080B483B000AF0346FB71044BFA7992B21A8000BF0C37BD4680BC7047124F004080B483B000AF0346FB71044AED
:400F0000FB79137000BF0C37BD4680BC704700BF0F4F004080B400AF00BFBD4680BC704780B582B000AF0F2000F06AF800F05AF800F06AFB0346FB71074A074B1B78DBB227
:400F400043F01003DBB21370FB79184600F060FB00BF0837BD4680BD9764004080B500AF00F034F94FF4004000F05EF9064B1B78002B04D1FFF7CEFF034B01221A70FFF722
:400F8000CFFF00BF80BD00BFAA82FF1F80B582B000AF00F059F90346FB80FB88A3F500439BB2BB80B7F9043018460837BD4680BD80B584B000AF0346FB80B7F90630002BAE
:400FC00004DBFB88A3F50043FB8103E0FB88A3F50043FB81FB89184600F026F900BF1037BD4680BD80B400AF044B1B78DBB203F00F03DBB21846BD4680BC70476764004001
:4010000080B483B000AF0346FB71044AFB79137000BF0C37BD4680BC704700BF8764004080B400AF00BFBD4680BC704780B582B000AF0F2000F06AF800F05AF800F0E4FA7F
:401040000346FB71074A074B1B78DBB243F01003DBB21370FB79184600F0DAFA00BF0837BD4680BD9864004080B500AF00F086F94FF4004000F0B0F9064B1B78002B04D13F
:40108000FFF7CEFF034B01221A70FFF7CFFF00BF80BD00BFAB82FF1F80B582B000AF00F0ABF90346FB80FB88A3F500439BB2BB80B7F9043018460837BD4680BD80B584B02A
:4010C00000AF0346FB80B7F90630002B04DBFB88A3F50043FB8103E0FB88A3F50043FB81FB89184600F078F900BF1037BD4680BD80B400AF044B1B78DBB203F00F03DBB289
:401100001846BD4680BC70476864004080B483B000AF0346FB71044AFB79137000BF0C37BD4680BC704700BF8864004080B582B000AF1C4B1B78DBB223F00703FB71194AD3
:40114000FB791370174B1B78DBB223F00303FB71144AFB79137000F0B3F84FF4004000F08FF84FF4004000F05FF8002000F040F800F04EF84FF4004000F092F800F044FA14
:401180000346BB71084A084B1B78DBB243F01003DBB21370BB79184600F03AFA00BF0837BD4680BD776400409565004080B400AF054A054B1B78DBB263F07F03DBB21370CF
:4011C00000BFBD4680BC70477764004080B500AF064B1B78002B04D1FFF7A8FF034B01221A70FFF7E3FF00BF80BD00BFAC82FF1F80B483B000AF0346FB71044AFB791370D0
:4012000000BF0C37BD4680BC704700BF8565004080B400AF034B1B78DBB21846BD4680BC704700BF6565004080B483B000AF0346FB80044AFB88138000BF0C37BD4680BCE0
:40124000704700BF086A004080B400AF044B1B78044B1B889BB21846BD4680BC704700BF04650040886A004080B400AF034B1B889BB21846BD4680BC704700BF886A0040EE
:4012800080B483B000AF0346FB80044AFB88138000BF0C37BD4680BC704700BF486A004080B483B000AF0346FB80044AFB88138000BF0C37BD4680BC704700BF686A004040
:4012C00080B500AF01E0FFF7CFFFFFF7A1FF034603F04003002BF6D100BF80BD80B582B000AF1C4B1B78DBB223F00703FB71194AFB791370174B1B78DBB223F00303FB71DB
:40130000144AFB79137000F0B3F84FF4004000F08FF84FF4004000F05FF8002000F040F800F04EF84FF4004000F092F800F06CF90346BB71084A084B1B78DBB243F01003A9
:40134000DBB21370BB79184600F062F900BF0837BD4680BD746400409964004080B400AF054A054B1B78DBB263F07F03DBB2137000BFBD4680BC70477464004080B500AFB5
:40138000064B1B78002B04D1FFF7A8FF034B01221A70FFF7E3FF00BF80BD00BFAD82FF1F80B483B000AF0346FB71044AFB79137000BF0C37BD4680BC704700BF89640040DD
:4013C00080B400AF034B1B78DBB21846BD4680BC704700BF6964004080B483B000AF0346FB80044AFB88138000BF0C37BD4680BC704700BF1068004080B400AF044B1B780A
:40140000044B1B889BB21846BD4680BC704700BF086400409068004080B400AF034B1B889BB21846BD4680BC704700BF9068004080B483B000AF0346FB80044AFB881380CC
:4014400000BF0C37BD4680BC704700BF5068004080B483B000AF0346FB80044AFB88138000BF0C37BD4680BC704700BF7068004080B500AF01E0FFF7CFFFFFF7A1FF034648
:4014800003F04003002BF6D100BF80BD80B400AF054B1B78DBB203F010031B09DBB21846BD4680BC704700BF0151004080B400AF054B1B78DBB203F020035B09DBB21846A1
:4014C000BD4680BC704700BF2151004080B400AF054B1B78DBB203F040039B09DBB21846BD4680BC704700BF2151004080B400AF054B1B78DBB203F004039B08DBB218462B
:40150000BD4680BC704700BF3151004080B400AF054B1B78DBB203F08003DB09DBB21846BD4680BC704700BF3151004080B400AF044B1B78DBB203F00103DBB21846BD46EE
:4015400080BC7047F151004080B485B000AF0346FB710B4B1B78DBB223F00803FB730849FB79DB00DBB203F00803DAB2FB7B1343DBB20B7000BF1437BD4680BC704700BFDD
:40158000F051004080B485B000AF0346FB710B4B1B78DBB223F01003FB730849FB791B01DBB203F01003DAB2FB7B1343DBB20B7000BF1437BD4680BC704700BFF0510040BF
:4015C00080B485B000AF0346FB710A4B1B78DBB223F00103FB730749FB7903F00103DAB2FB7B1343DBB20B7000BF1437BD4680BC704700BF105100400230800803D000BF5D
:4016000001380046FCD17047EFF3108072B6704780F31088704700BF014B1868704700BF8082FF1F0E4B70B51E460E4C0025E41AA410A54204D056F8253098470135F8E70E
:4016400000F042F8084B094C1E46E41AA4100025A54204D056F8253098470135F8E770BDD4160000D4160000D4160000DC16000010B5431E0A44914204D011F8014B03F8C3
:40168000014FF8E710BD03460244934202D003F8011BFAE77047000000000000004F0040240040510040300000000140001000140140000800400140000A004C01400002CD
:4016C0000050014020004300F8B500BFF8BC08BC9E4670474D000000310B0000F8B500BFF8BC08BC9E4670472900000000170000C880FF1FC00100002800000000000000E0
:401700000000000001010101010101010101010101010101010101010001000000000000000000000000000000010100010001010101010001010100010101000101000084
:40174000000100000001000000000000000100010101010001000100010101000100010101000101000000010001000000010001000000000001010001010100010001004C
:40178000010001000101010001010001000100000001000100010001000000010100010001000101010001000100010001010101000000010001000000010000000100000A
:4017C00000010101010001000101010101010101010101000101000000000000000000000000000000000001010001010101010101010101010001010101010100000000C4
:40180000000000010000000000000000000101010101010101010101010101010101010101000000010100000109050507010D05090903000002000100010504000200023D
:401840000001000F9A9DA29E0087930360EA00003C000000000030750000000000000000000000000000000000000000000000000000000000000000C616000000000000BD
:4018800000000000000000000000000000000000000000000000000000000000000000000000000000000000000000000000000000000000000000002082FF1F0000000068
:4018C00000000000000000000000000000000000000000000000000000000000000000000000000000000000000000000000000000000000000000000000000000000000E8
:4019000000000000000000000000000000000000000000000000000000000000000000000000000000000000000000000000000000000000000000000000000000000000A7
:401940000000000000000000000000000000000000000000000000000000000000000000000000000000000000000000000000000000000000000000000000000000000067
:401980000000000000000000000000000000000000000000000000000000000000000000000000000000000000000000000000000000000000000000000000000000000027
:020000040003F7
:0200000480007A
:4000000001450040064F004006520040046400400365004052000140350101405D0201404403014053040140540501405206014055070140640801404C090140040A014091
:400040000B0B0140030D0140020F014069140140511501405C1601405C17014009190140041B01400B4001400D41014018420140104301400144014007450140064601400D
:40008000094701400C4801400A490140044C0140054D01400B500140025101407E0201300A4B0D30164B1910224B1108182819286004611C7C408572870F880F896F840F12
:4000C000856F8638031004400680081E0C0A0D010E140F0A104012A014401502168017011A011C801D011E401F02201822062414260A280629012A182B022C0E2D04300152
:40010000310432203303341E351036C037083A803B083F015608580459045B045D905F0180618202859487608D308FC99004930F94609573960498379C579DFD9F02A19EB4
:40014000A280A360A401A5CFA602A730AA08AE07B280B3FFB470B60FB820BF04D608D804D904DB04DD90DF010128030205020AA20B080C400E080FA0108112081304140253
:40018000150416801720184819281A021B401C081E2A21012298272029402B382D022F2C328834423605374438403B013D4C3F8058805F406301668082018941C017C2FFD4
:4001C000C4FFCACCCCDACE59D618D818E080E228E401000B010F02040503070C09100A0F0C0C0D050E010F0A15071620180C19101A02210A2305250C2610270328072910E5
:400200002C082D102E01310F32203310340F36103F04580459045F018044813B82208444855D86108720880289668A018B108C018E0294709540970898019A829C019D66D2
:400240009E029F08A034A240A404A610AA08AB78AE74AF80B074B107B20CB3C0B403B578B680B902BA20C006C604C9FFCA07CBFFCC40CD20CEF0CF05D008D804D904DA0454
:40028000DD02DF01E040E1A8E240E32001A2032004800748080409400A040D200E20114A13281540162818A419A21D241E021F20200821152204230425012604274029206F
:4002C0002B012D022F2530803208340436203704380839223D4A3F10484049105280780179028080900891409222968097449A089B049C819D029F40A218A480A504A72A42
:40030000AC04AE08C0DFC267C4EFCAFCCC6ACEF7D204EC0204C5063A08960A680B010C7F11961368150E17F019A31A011B5C1DFE1F0120A321C5225C233A24FE257F260161
:40034000280E2AF030FF33FF3E013F045280580459045B045F0180048309843087208810894F8C208D078F48903C911092C1932094FF950298CF99499A309B069D049EC3BB
:40038000A004A208A310A408A506A906AA0CAB49AC7CAD09AE82B0B0B108B23FB330B470B507B740B980BA0ABB20D602D712D804D904DB04DC22DD20DF0100080120030280
:4003C000050806450A080D200E410F101080110412081580161017111B011E501F15232025312620271229022A082C402D882E103108320133603540362037053828390421
:400400003C043E413F10410143025E08600462106C286E807102754876057704814082108B408D229028912A922A9684971A982099269A089B409D109E209F20A044A29D3B
:40044000A320A480A544A620A709A804AB02AF40B430C0F7C2F2C4FECAF3CCFFCEF4D640E6810504060107020E0213081502170419021B0423082B012C042D022F0430014C
:40048000320233063508360437013B083E403F105608580459045B045D905F0180028173820485FD86048702899E8A018B609594960897609A069DCF9E209F30A202A30F72
:4004C000A410A930ABC9B008B1FFB210B420B607BB08BE44BF01C024C101C50EC6C0C70BC819C9FFCAFFCBFFCEF0CF44D00CD280D40FD804D904DA04DB04DC20DD02DF019B
:40050000E6C0EA40EB0200960302054409400A2810401260140119881A841F4921022310254C2708288029202D022F0530803208350436103702380839223D0A3F014002D1
:40054000412043024A205204532058045A425B105C085D405F28654067087280808081028602880189048A099008912E92209320940496859790982499249B029C409D9048
:400580009E609F01A068A111A2D9A480A54CA708B004B302B740C0AEC207C48CCAB5CCEACE47D00DD63FD830E001E420E601EA01060309C00B240C040DC10F12118413100A
:4005C0001601170818011E0C1F07217729B72B402D012FF23008310F3201340235F036043E444035410249FF4AFF4BFF4DA04F015018540F580459045A045B045F01604057
:40060000628064406540668068406A806C406D206E808502870188088D03900291049B0CA003A20CA303A403B001B108B204B302B408B504B602B701B882BE50BF54C0314F
:40064000C102C532C6C4C70EC81FC9FFCAFFCBFFCDAFCE07CF01D018D40FD804D904DA04DB04DF05E040E280E440E540E680E840EA80EC40ED20EE8000100440071008827A
:4006800009800D400E1810A0181119021A061C401D481E082004218223102510274829022D802F48303031023601374438403A083DA04001410842084508460848A04E01D4
:4006C00051405224581059415A045C805D045F12622468086B017802800481018344880889809210938098029A089B12A201A908B340B702C0A2C2E8C40CCAB1CCD5CE3A05
:40070000D06ED210D6FFD806DE01E480E810EC80B908BF04D904DF0125088E1198029A089B10B710E010E410E601EA40EC4098029A08AC028208E208005102A20480062264
:40074000090A0A0C0B340F08183019331AC31B0C1D331F04204021402211231524F325032604271428F32A083160320F331034F0350F39023A083B203F044063410449FF0A
:400780004AFF4BFF4DA04F01501854015604580459045A045B045C225D205F016040628064406540668068406A806C406D206E80830390089C039D02A001AC03AE0CB004FD
:4007C000B101B201B408B602B702B888BE14BF40C063C104C52CC640C73EC83BC9FFCAFFCBFFCDAFCE07CF01D018D40FD804D904DA04DB04DF05E040E280E440E540E6809D
:40080000E840EA80EC40ED20EE8000160A080E800F02102812401503160218101A081D081E881F40202021202340274228102A012B2031203240374038203B403F02408081
:4008400041084480450848044A084E084F06562A581259885C405D105E085F026101660867047D0184108580880289108A208B018D019064910292809410960897C09880B7
:4008800099089A419E20A02DA220A320A520AD20AF12B201C00EC292C49ECA03CC1CCE8CD0C3D224D6FFD861DE80E660020104010A040E04100211071402170818021D0218
:4008C0001F01230326012B0430043104330234013508360237013E113F45402141034206440545E0470C481249FF4AFF4BFF4C624DA04EF04F41500C5418560458045904E2
:400900005A045B045C025D225F016640670269106A306B106D106E106F1281108514891C8B028D098E238F109061920E945C952096039703986199109A169B0C9D0C9F11A7
:40094000A208AE1CB01AB120B20FB31FB460B820BA0ABE10BF01D608D804D904DB04DC22DD90DF0100800201040806880702080209200AA00C280E801101128013401508FD
:400980001708182019101AA01C081D801E011F01210822012448254027102E202F4031283240348036013708382039013A043B403D803E40441045904DA2560858205B40E8
:4009C0005F016004624064186602671268016B01910A93319414964998A899889A849B409C029D129E629F11A068A110A2E1A320A401A520AB40AC80B110B404B540B7205D
:400A0000C0F1C27EC429CAA0CCDECE0FD070D230D68CD8BCE840EA0AEC10EE019B01AF08B002B144B708E810EA02EC20EE018B019B01E620E82032403301340835803820EB
:400A4000858088108B01CCF0CE10E21000080740308083409420968098109C089F01A701C030CC10E4801310508054405B045C0161088240888094209680971098109C083E
:400A80009F01A701AC04B080B310C440D460D6C0D840E680EC401B011C8084088840942098109C089F01A440A701A801A908AB04C630E610EA80871003080A205810971061
:400AC000C002C208D401800297109C10A308B610EA0208020B040F10890897109C12A308C20EE40402020502942098109D02A301A602AF01B502B602C060EA405F20630243
:400B000064108B208C1094209810A301D660D8809C10A108AB08AF047108A108B010DC01E80400050101080509010A050B010C01100511011A051B0100EA010B1300000055
:400B400000000000001C1C001C0000004000073838000000C0000000000B0B00000000000800740A0A00080000000000847B7B00380000000000000000000000000000004A
:400B80000000000000000000000000000000000000000000000000000000000000000000000000000000000000000000000000000000000000000000000000000000000035
:400BC00000000000000000000000000000000000000000000000000000000000000000000000000000000000000000000000000000000000000000000000000000000000F5
:400C000000000000000000000000000000000000000000000000000000000000000000000000000000000000000000000000000000000000000000000000000000000000B4
:400C40000000000000000000000000000000000000000000000000000000000000000000000000000000000000000000000000000000000000000000000000000000000074
:0200000490006A
:0400000000004007B5
:0200000490105A
:04000000BC90ACAF55
:0200000490303A
:0200000022C319
:0200000490402A
:4000000000000000000000000000000000000000000000000000000000000000000000000000000000000000000000000000000000000000000000000000000000000000C0
:400040000000000000000000000000000000000000000000000000000000000000000000000000000000000000000000000000000000000000000000000000000000000080
:400080000000000000000000000000000000000000000000000000000000000000000000000000000000000000000000000000000000000000000000000000000000000040
:4000C0000000000000000000000000000000000000000000000000000000000000000000000000000000000000000000000000000000000000000000000000000000000000
:0200000490501A
:0C00000000012E16106900012E23332C85
:00000001FF