:400000000080002011000000191E0000191E000080B500AF024A034B1B68136001F02EFFBC760040FA46004010B5054C237833B9044B13B10448AFF300800123237010BD7B
:400040009882FF1F00000000A84F0000084B10B51BB108490848AFF300800848036803B910BD074B002BFBD0BDE81040184700BF000000009C82FF1FA84F0000C880FF1F72
:400080000000000080B400AF034B01221A7000BFBD4680BC704700BFCA82FF1F80B5D2B000AF62B604F07AF804F03CF9594804F0FDF901F0EBFF0121002002F02BF807F1C2
:4000C000240207F138034FF48071184600F0E2FDC7F838010023C7F8443132E007F13802D7F8443113441B78042B21D801A252F823F000BF09010000110100001901000068
:400100002101000029010000434800F095F813E0424800F091F80FE0414800F08DF80BE0404800F089F807E03F4800F085F803E03E4800F081F800BFD7F844310133C7F801
:400140004431D7F84421D7F838319A42C6DB384800F072F80023C7F8403114E007F12403D7F8402153F82230381DD7F84021314904F0EEFA3B1D184600F05EF8D7F84031FD
:400180000133C7F84031D7F84031042BE6DD0023C7F83C3131E007F13802D7F83C3113441B78042B21D801A252F823F0C1010000C7010000CD010000D3010000DD010000BF
:4001C00000F052F914E000F075F911E000F0A0F90EE000F09DF900F09BF909E000F0AEF84FF47A7003F0F6FE02E000F0A7F800BFD7F83C310133C7F83C31D7F83C21D7F8A6
:4002000038319A42C7DBFF2004F06CF87F2004F02DF9F8E785000000AC4F0000D04F0000E04F0000F04F00000450000014500000245000004050000080B582B000AF786011
:4002400000BF02F07DFA0346002BFAD07B683F3300221A707B683E3321221A70786804F09BFA03469BB21946786802F033FA00BF0837BD4680BD00BF80B582B000AF03463D
:40028000FB80FB88DBB2184604F02CF800BF0837BD4680BD80B582B000AF0346FB80FB88DBB2184604F0E2F800BF0837BD4680BD80B500AF04F068F90346002B11D004F029
:4002C00053F90346002B0CD1184B1B789BB21846FFF7D2FF164B1B789BB21846FFF7DAFF22E004F051F90346002B11D104F03CF90346002B0CD00F4B1B789BB21846FFF7EE
:40030000BBFF0D4B1B789BB21846FFF7C3FF0BE0084B1B789BB21846FFF7AEFF044B1B789BB21846FFF7B6FF00BF80BDCF80FF1FCD80FF1FCC80FF1FCE80FF1F80B500AFD0
:400340007F20FFF799FF7F20FFF7A4FF00BF80BD80B586B000AFF860B9607A6004F0F4F80346FB7504F020F90346BB7504F0FCF803467B7504F008F903463B75BB68002B3B
:4003800007D0BB7D002B0CBF01230023DAB2BB681A707B68002B07D0FB7D002B0CBF01230023DAB27B681A70FB68002B0DD07B7D002B02D03B7D002B01D1012300E00023E9
:4003C00003F00103DAB2FB681A7000BF1837BD4680BD00BF80B582B000AF0023FB700023BB7000237B7004F0BFF80346FB7104F0CBF80346BB717A1CB91CFB1C1846FFF71E
:40040000A7FFFB79002B04D1BB79002B01D1012300E000237B717B7903F001037B71FB78002B14BF01230023DBB283F00103DBB23B713B7903F001033B71BB78002B08D104
:400440007B78002B05D17B79002B02D13B79002B01D0012300E0002303F00103DBB218460837BD4680BD00BF80B582B000AF00237B6013E00E4B1B78002B0DD00C4B00222B
:400480001A70FFF7A7FF0346002B03D07B6801337B6001E000237B60FFF70AFF7B68022BE8DDFFF74BFF00BF0837BD4680BD00BFCA82FF1F80B500AF6020FFF7DDFE9C2092
:4004C000FFF7E8FE02E0114BC8221A8004F04CF80346012B0BD104F057F80346012BF2D005E00A4B1B88013B9AB2084B1A80074B1B88002BF5D17F20FFF7BEFE7F20FFF73D
:40050000C9FEFFF7D5FE00BF80BD00BFCE82FF1F80B500AF9A20FFF7AFFE5E20FFF7BAFE02E0114BC8221A8004F02EF80346012B0BD104F019F80346012BF2D005E00A4BF2
:400540001B88013B9AB2084B1A80074B1B88002BF5D17F20FFF790FE7F20FFF79BFEFFF7A7FE00BF80BD00BFCE82FF1F80B582B000AF78607868FFF75FFE00BF0837BD4646
:4005800080BD00BF80B483B000AF786039607B68002B0ADB7B680E2B07DC3B68002B04DB3B68122B01DC012300E0002303F00103DBB218460C37BD4680BC704780B582B0B3
:4005C00000AF7860396039687868FFF7DBFF0346002B0ED00B497A681346DB0013445B001344CA183B6813441B78002B01D1012300E0002303F00103DBB218460837BD460E
:4006000080BD00BFD080FF1F80B485B000AFF860B9607A603B60FA687B68D31A83EAE372A2EBE372B9683B68CB1A002BB8BF5B42134418461437BD4680BC704790B5A9B000
:4006400002AFF860B9607A6007F11400BB6800937B68204A802104F049F807F114031846FFF784FF0023C7F8943027E0D7F89430DB00FA6813441C68D7F89430DB00FA688B
:4006800013445B68BA68511ED7F89420914201D1114A00E0114A07F114000192009323460F4A802104F022F807F114031846FFF75DFFD7F894300133C7F89430D7F89420A2
:4006C000BB689A42D2DB0748FFF750FF00BF9C37BD4690BD70500000985000009C500000A0500000AC50000080B586B000AFF860B9607A603B6000237B6122E0154A7B6914
:4007000052F82320FB68D018134A7B6952F82320BB6813441946FFF751FF034683F00103DBB2002B09D17A697B689A4206D07A693B689A4202D0012307E000BF7B69013314
:400740007B617B69032BD9DD002318461837BD4680BD00BF505000006050000080B5ACB000AFF860B9607A603B60BB68012B40F389823B681B68C7F8AC30D7F8BC301B6804
:40078000C7F8A830D7F8A830B3F1FF3F32D1FB681B683B67FB685B68FB66FB6808331B68BB66FB6808335B687B660023C7F8A4301CE0994AD7F8A43052F823203B6F1A44B6
:4007C000BB6E9A420DD1954AD7F8A43052F82320FB6E1A447B6E9A4203D1D7F8A430C7F8A830D7F8A4300133C7F8A430D7F8A430032BDEDD0023C7F8A0300123C7F89C3016
:40080000F7E0D7F89C3003F10053013BDB00FA6813441B683B66D7F89C3003F10053013BDB00FA6813445B68FB65D7F89C30DB00FA6813441B68BB65D7F89C30DB00FA688C
:4008400013445B687B654FF0FF33C7F898300023C7F894301CE0704AD7F8943052F823203B6E1A44BB6D9A420DD16C4AD7F8943052F82320FB6D1A447B6D9A4203D1D7F81E
:400880009430C7F89830D7F894300133C7F89430D7F89430032BDEDDD7F89830023303F003033B65D7F89830FB64BB685A1ED7F89C309A420CBF0123002387F84B3097F81F
:4008C0004B30002B08D1FB6C3A6D796DB86DFFF70BFF0346002B01D0012300E0002387F84A3097F84A3003F0010387F84A30D7F89820D7F8A830D31A03F003037B647B6C28
:40090000002B61D00023C7F890300EE0D7F8AC305A1CC7F8AC201A467B68134400221A70D7F890300133C7F89030D7F89020D7F8A0309A4205DAD7F8AC20D7F8B8309A4290
:40094000E4DB0023C7F8A0307B6C012B10D1D7F8AC20D7F8B8309A420ADAD7F8AC305A1CC7F8AC201A467B68134402221A7026E07B6C032B10D1D7F8AC20D7F8B8309A42E2
:400980000ADAD7F8AC305A1CC7F8AC201A467B68134401221A7012E07B6C022B0FD1D7F8AC20D7F8B8309A4209DAD7F8AC305A1CC7F8AC201A467B68134403221A70D7F8A5
:4009C0009830C7F8A83008E097F84A30002B04D0D7F8A0300133C7F8A030D7F8B830DA1ED7F8AC309A4211DDD7F89C300133C7F89C30D7F89C20BB689A4208DAD7F8AC20C1
:400A0000D7F8B8309A42FFF6FCAE00E000BF0023C7F88C3013E000BF5050000060500000D7F8AC305A1CC7F8AC201A467B68134400221A70D7F88C300133C7F88C30D7F84A
:400A40008C20D7F8A0309A4205DAD7F8AC20D7F8B8309A42E4DBD7F8A030002B46D1BB68012B43DDD7F8AC20D7F8B8309A423DDABB6803F10053023BDB00FA6813441B6830
:400A80003B64BB6803F10053023BDB00FA6813445B68FB63BB6803F10053013BDB00FA6813441B68BB63BB6803F10053013BDB00FA6813445B687B633A6CBB6BD31A83EA5F
:400AC000E372A2EBE372F96B7B6BCB1A002BB8BF5B421344012B09D1D7F8AC305A1CC7F8AC201A467B68134400221A70D7F8C030002B00F0AD800023C7F88830BB6803F14A
:400B00000053013BDB00FA6813441B683B63BB6803F10053013BDB00FA6813445B68FB62BB6803F10053023BDB00FA6813441B68BB62BB6803F10053023BDB00FA68134401
:400B40005B687B624FF0FF33C7F884300023C7F880301CE04D4AD7F8803052F823203B6B1A44BB6A9A420DD1494AD7F8803052F82320FB6A1A447B6A9A4203D1D7F8803067
:400B8000C7F88430D7F880300133C7F88030D7F88030032BDEDDBB68013BFB674AE0FB6FDB00FA6813441B683B62FB6FDB00FA6813445B68FB61FB6F03F10053013BDB004A
:400BC000FA6813441B68BB61FB6F03F10053013BDB00FA6813445B687B614FF0FF33BB6700237B6716E0294A7B6F52F823203B6A1A44BB699A420AD1254A7B6F52F8232041
:400C0000FB691A447B699A4201D17B6FBB677B6F01337B677B6F032BE5DDBA6FD7F884309A420BD1D7F888300133C7F88830FB6F013BFB67FB6F002BB1DC00E000BFD7F84C
:400C4000C4309B00D7F8C0201344D7F888201A60D7F8AC20D7F8B8309A4209DAD7F8AC305A1CC7F8AC201A467B68134404221A703B68D7F8AC201A60D7F8BC30D7F8A820DD
:400C80001A6000E000BFB037BD4680BD505000006050000090B5ADF5145D85B004AF07F14003343B186007F14003383B196007F140033C3B1A60002307F5115202F13C023C
:400CC0001360D54B1B7807F5135202F13C021360D14B5B7807F5135202F138021360052307F5135213604FF0FF3307F5115202F138021360002307F5135202F1340213604D
:400D000000F08EBEC54A07F5135303F134031B6812F8133007F5125202F13C021360BF4A07F5135303F134031B685B0013445B7807F5125202F13802136007F50F5000F11D
:400D4000380007F5125303F138031B68039307F5125303F13C031B68029307F5135303F138031B68019307F5135303F13C031B68009307F5135303F134031B68A84A8021F0
:400D800003F0B4FC07F50F5303F138031846FFF7EDFB07F5125303F13803196807F5125303F13C031868FFF709FC034683F00103DBB2002B23D007F50F5000F1380007F5BC
:400DC000135303F134031B68964A802103F08EFC07F50F5303F138031846FFF7C7FB07F5135303F134031B689A0007F140033C3B1B6813444FF0FF321A6000F006BE002347
:400E000007F5135202F130021360002307F5135202F12C02136094E0002307F5135202F1280213607AE007F5A0720C3A07F5135303F12C0319680B46DB000B445B000B4440
:400E400007F5135101F1280109680B4442F20F7142F8231007F55C62183A07F5135303F12C0319680B46DB000B445B000B4407F5135101F1280109680B44DB0013444FF033
:400E8000FF325A6007F55C62183A07F5135303F12C0319680B46DB000B445B000B4407F5135101F1280109680B44DB001344586807F55C62183A07F5135303F12C031968D1
:400EC0000B46DB000B445B000B4407F5135101F1280109680B4442F8330007F140022C3A07F5135303F12C0319680B46DB000B445B000B441A4407F5135303F128031B68F8
:400F0000134400221A7007F5135303F128031B68013307F5135202F12802136007F5135303F128031B68122B7FF77DAF07F5135303F12C031B68013307F5135202F12C02E4
:400F4000136007F5135303F12C031B680E2B7FF763AF07F5A0720C3A07F5135303F13C0319680B46DB000B445B000B4407F5135101F1380109680B44002142F8231007F5D1
:400F8000135303F130031C68631C07F5135202F13002136007F5125303F138031B6807F5125202F13C02126807F5135101F13801096807F5135000F13C000068FFF724FB85
:400FC000014607F5B45202F1100223465B0023449B00134407F5135202F13C0212681A6007F5B45202F1100223465B0023449B001344043307F5135202F1380212681A6023
:4010000007F5B45202F1100223465B0023449B001344083319602FE2F081FF1FF481FF1FC4500000F8500000002307F5135202F124021360012307F5135202F1200213602C
:4010400036E007F5B45101F1100107F5135303F120031A6813465B0013449B000B440833196807F5B45000F1100007F5135303F124031A6813465B0013449B000344083382
:401080001B68994209DA07F5135303F120031B6807F5135202F12402136007F5135303F120031B68013307F5135202F12002136007F5135303F120031A6807F5135303F19C
:4010C00030031B689A42BCDB07F50F5000F12C0007F5B45101F1100107F5135303F124031A6813465B0013449B00CA18034607CA83E8070007F5135303F130031B68013BF0
:4011000007F5135202F13002136007F5B45101F1100107F5135303F124031A6813465B0013449B00C81807F5B45101F1100107F5135303F130031A6813465B0013449B0078
:40114000CA18034607CA83E8070007F50F5303F12C03196807F50F5303F12C03586807F140022C3A0B46DB000B445B000B44134403441B78002B00D07EE107F50F5303F11C
:401180002C03196807F50F5303F12C03586807F140022C3A0B46DB000B445B000B441344034401221A7007F50F5303F12C031A6807F5125303F13C031B689A420CD107F55F
:4011C0000F5303F12C035A6807F5125303F138031B689A4200F05981002307F5135202F11C02136040E107F50F5303F12C031A68D54907F5135303F11C031B6851F8233011
:40120000134407F5125202F13402136007F50F5303F12C035A68CD4907F5135303F11C031B6851F82330134407F5125202F13002136007F5125303F13003196807F51253B5
:4012400003F134031868FFF7B9F9034683F00103DBB2002B40F0FC8007F140022C3A07F5125303F1340319680B46DB000B445B000B441A4407F5125303F130031B68134465
:401280001B78002B40F0E48007F50F5303F12C03196807F50F5303F12C03586807F5A0720C3A0B46DB000B445B000B44034452F82330013307F5125202F12C02136007F518
:4012C000A0720C3A07F5125303F1340319680B46DB000B445B000B4407F5125101F1300109680B4452F8232007F5125303F12C031B689A4240F3AD8007F5A0720C3A07F502
:40130000125303F1340319680B46DB000B445B000B4407F5125101F1300109680B4407F5125101F12C01096842F8231007F50F5303F12C03186807F55C62183A07F512536B
:4013400003F1340319680B46DB000B445B000B4407F5125101F1300109680B4442F8330007F50F5303F12C03586807F55C62183A07F5125303F1340319680B46DB000B4418
:401380005B000B4407F5125101F1300109680B44DB001344586007F5125303F138031B6807F5125202F13C02126807F5125101F13001096807F5125000F134000068FFF765
:4013C00023F9024607F5125303F12C031B68134407F5125202F12802136007F5135303F130031A68531C07F5135101F130010B6007F5B45101F1100113465B0013449B0029
:401400000B4407F5125101F134010968196007F5B45101F1100113465B0013449B000B44043307F5125101F130010968196007F5B45101F1100113465B0013449B000B4458
:40144000083307F5125202F1280212681A6000E000BF07F5135303F11C031B68013307F5135202F11C02136007F5135303F11C031B68032B7FF7B7AE07F5135303F1300386
:401480001B68002B3FF7D0AD00E000BF002307F5135202F11802136007F5125303F13C031B6807F5135202F11402136007F5125303F138031B6807F5135202F11002136048
:4014C0009AE007F5B863183B07F5135202F11802126807F5135101F11401096843F8321007F5B862183A07F5135303F118031B68DB00134407F5135202F1100212685A60A3
:4015000007F5135303F114031A6807F5135303F13C031B689A421BD107F5135303F110031A6807F5135303F138031B689A420FD107F5135303F118031B68013307F5135298
:4015400002F1180213606FE0505000006050000007F55C62183A07F5135303F1140319680B46DB000B445B000B4407F5135101F1100109680B4452F8333007F5125202F10A
:401580002402136007F55C62183A07F5135303F1140319680B46DB000B445B000B4407F5135101F1100109680B44DB0013445B6807F5125202F12002136007F5125303F11E
:4015C00024031B6807F5135202F11402136007F5125303F120031B6807F5135202F11002136007F5135303F118031B68013307F5135202F11802136007F5135303F114031A
:401600001B68B3F1FF3F0FD007F5135303F110031B68B3F1FF3F07D007F5135303F118031B68FF2B7FF74DAF07F5135303F118031B68012B11DC7D48FEF798FF07F5135371
:4016400003F134031B689A0007F140033C3B1B6813444FF0FF321A60D7E1002307F5135202F10C0213608EE007F5B863183B07F5135202F10C02126853F8323007F512523B
:4016800002F11C02136007F5B862183A07F5135303F10C031B68DB0013445B6807F5125202F11802136007F5135303F118031B685A1E07F5135303F10C031B68D21A07F545
:4016C000B863183B53F8321007F5B863183B07F5135202F10C02126843F8321007F5135303F118031B685A1E07F5135303F10C031B68D31A07F5B862183ADB001344596890
:4017000007F5B862183A07F5135303F10C031B68DB001344596007F5135303F118031B685A1E07F5135303F10C031B68D21A07F5B863183B07F5125101F11C01096843F8AA
:40174000321007F5135303F118031B685A1E07F5135303F10C031B68D31A07F5B862183ADB00134407F5125202F1180212685A6007F5135303F10C031B68013307F513522E
:4017800002F10C02136007F5135303F118031B68DA0F13445B101A4607F5135303F10C031B689A423FF760AF07F5B863183B07F5135202F13402126807F5135101F11801D4
:4017C00009681846FEF73AFF4FF0FF3307F5135202F10802136007F5B863183B1B6807F5125202F11402136007F5B863183B5B6807F5125202F11002136007F5B863183B72
:401800009B6807F5125202F10C02136007F5B863183BDB6807F5125202F108021360002307F5135202F10402136040E0205100008C4A07F5135303F104031B6852F8232090
:4018400007F5125303F114031B681A4407F5125303F10C031B689A421ED1834A07F5135303F104031B6852F8232007F5125303F110031B681A4407F5125303F108031B6803
:401880009A4209D107F5135303F104031B6807F5135202F10802136007F5135303F104031B68013307F5135202F10402136007F5135303F104031B68032BB9DD07F51153DC
:4018C00003F138031B68B3F1FF3F62D007F5115303F138031B68634A52F8233007F5135202F13C021268D31A07F5125202F10402136007F5115303F138031B685A4A52F801
:40190000233007F5135202F138021268D31A07F51252136007F5B863183B9A6807F5125303F104031B689A4233D107F5B863183BDA6807F512531B689A422AD107F511539A
:4019400003F13C031A6807F14003383B1B689A421FDA4648FEF70AFE07F5115303F13C031B685A1C07F5115101F13C010A601A4607F14003343B1B68134403221A7007F50F
:40198000135303F108031B6807F5115202F13802136007F5115101F13C0107F14002343A07F5B860183807F5135303F134031B68039307F140033C3B1B68029307F51153D7
:4019C00003F13803019307F14003383B1B6800930B46126807F5135101F118010968FEF7BDFE07F5125303F13C031B6807F5135202F13C02136007F5125303F138031B68DA
:401A000007F5135202F13802136007F5135303F134031B68013307F5135202F13402136007F5135303F134031A6807F513531B689A420BDA07F5115303F13C031A6807F1A2
:401A40004003383B1B689A42FFF65CA907F5115303F13C031B68184607F514570437BD4690BD00BF50500000605000004451000080B582B000AF786039603A680021786823
:401A800002F02BFE00BF0837BD4680BD80B584B000AFF860B9607A607A68B968F86802F011FE00BF1037BD4680BD00BF80B483B000AF0346FB71FEE780B487B000AF78605F
:401AC000396000233B6100237B6127E07B699B007A6813441B68BB60BB68FB73BB6823F0FF03BB6014E03B695B003A6813441B781A46BB68134419463B695B003A6813449E
:401B00005B780B703B6901333B61FB7B013BFB73FB7B002BE7D17B6901337B617B69262BD4D900BF1C37BD4680BC704780B582B000AF3A4B04221A80394B18221A70394B65
:401B400017221A80384B19221A70384B81221A80374B18221A70374B40F22B121A80364B18221A70354B06221A70354B52221A70344B354A1278D2B21A70344B40F619124E
:401B80001A80334B41F251221A800023FB7019237B6014E0FB785B00DAB22E4B1B78DBB203F00103DBB21343DBB203F00303FB704FF4F07002F008FD7B68013B7B607B68FF
:401BC000002B02D0FB78032BE4D17B68002B02D10320FFF76BFF204B4FF480721A801E4B07221A701D4B00221A701D4B48221A70194B00221A701B4B00221A701A4B0222BD
:401C00001A701A4A194B1B78DBB243F00F03DBB2137000BF0837BD4680BD00BF80400040824000408440004086400040884000408A4000408C4000408E4000400043004025
:401C400000420040A14600400F0100492242004020420040254200400440004006400040084000400940004001400040A243004080B483B000AF0B4B1B78FB710A4AFB7981
:401C800003F00703DBB21370084AFB791B09DBB21370074B44221A7000BF0C37BD4680BC704700BFCF0100496E5800406F5800407658004080B582B000AF72B63E4B6122A6
:401CC0001A70FFF733FF3C4B01221A700023FB7113E0FA7913465B0013445B00374A13443B603B681A683B689B889BB219461046FFF7BEFEFB790133FB71FB79062BE8D917
:401D00002F494FF09040FFF7D7FE2E4B2E4A1A602E4B2D4A1A602E4A2D4B1B78DBB243F00203DBB213702B4A2A4B1B78DBB243F00203DBB21370284A274B1B78DBB243F09B
:401D40004003DBB21370254A244B1B78DBB243F01003DBB21370082221492248FFF796FE082221492148FFF791FE0A2220492148FFF78CFE082220492048FFF787FE0A2292
:401D80001F492048FFF782FE08221F491F48FFF77DFE1F4A1E4B1B78DBB243F00803DBB21370FFF765FF0E220B491A48FFF76EFE00BF0837BD4680BD0048004084510000F6
:401DC0009C000048D8080140040404C4D81401400350014013500140A0430040C24300403C0B004802510040440B0048C25100404C0B0048F0510040580B004812510040C7
:401E0000600B0048205100406C0B00483251004022430040B043004080B500AF02F026FC03461B680C2B00D1FEE7FEE780B584B000AF78600F4B1A687B6813441A460E4B8F
:401E4000D31A802B09DC0B4B1B68FB60094B1A687B681344074A136007E002F007FC02460C2313604FF0FF33FB60FB6818461037BD4680BD0082FF1FC083FF1F80B586B097
:401E800000AF224B7B61224B3B61204B7B6135E03B691B68FB603B695B68BB603B699B683B6000237B600CE0FB681A68BB681A60BB680433BB60FB680433FB607B6804338F
:401EC0007B607A683B689A42EED13B69DB683B6000237B6008E0BB6800221A60BB680433BB607B6804337B607A683B689A42F2D13B6910333B617B69013B7B617B69002BA4
:401F0000C6D102F0B9FBFEF7C9F8FEE701000000BC53000080B582B000AF184B184A1A60184A184B1B6843F40073136000237B600FE07B68032B04D8134A7B6852F8233048
:401F400000E0124B12497A6841F822307B6801337B607B682F2BECD90E4B1B78DAB20E4B1A700E4B0A4A1A60FFF7A4FE0C4B00221A6000BF0837BD4680BD00BF0CED00E085
:401F80000004FA0514ED00E000000000191E00000080FF1FBC760040C480FF1F08ED00E0C080FF1F80B500AF224A224B1B78DBB203F00103DBB213701F4A1F4B1B78DBB28A
:401FC00023F00303DBB213701C4A1C4B1B78DBB223F03003DBB21370184A184B1B78DBB243F03003DBB21370144A144B1B78DBB223F00F03DBB21370104A104B1B78DBB233
:4020000043F00F03DBB213700D4A0D4B1B78DBB243F00103DBB213704FF6FF7000F058F84FF6FF7000F066F8082000F041F800BF80BD00BF184F00401A4F0040234F004031
:40204000194F004080B400AF0D4A0D4B1B78DBB243F00403DBB213700A4A0A4B1B78DBB243F00403DBB21370074A074B1B78DBB243F00103DBB2137000BFBD4680BC7047EA
:40208000A3430040B3430040184F004080B500AF064B1B78002B04D1FFF784FF034B01221A70FFF7CFFF00BF80BD00BFD082FF1F80B483B000AF0346FB71044AFB791370E2
:4020C00000BF0C37BD4680BC704700BF1B4F004080B485B000AF0346FB80FB88FB81044AFB89138000BF1437BD4680BC704700BF1C4F004080B483B000AF0346FB80044AAD
:40210000FB88138000BF0C37BD4680BC704700BF1E4F004080B582B000AF03460A46FB711346BB71094B1B78002B04D100F010F8064B01221A70BA79FB791146184600F05C
:40214000D9F800BF0837BD4680BD00BFD182FF1F80B582B000AF02F03FFA0346FB71544A534B1B78DBB243F00103DBB21370514A504B1B78DBB243F00103DBB213704E4B51
:4021800001221A704D4B02221A704D4A4C4B1B78DBB203F07F03DBB21370002001F03CFF484A484B1B78DBB223F00603DBB21370454A454B1B78DBB223F02003DBB2137017
:4021C000404A404B1B78DBB243F00103DBB21370012001F021FF282001F01EFF3B4A3B4B1B78DBB203F07F03DBB21370374A374B1B78DBB223F04003DBB21370314A314BAB
:402200001B78DBB243F00203DBB21370022001F003FF2C4A2B4B1B78DBB243F00403DBB213702B4B00221A702A4B00221A70FB79184602F0D5F90721172001F029FF26490F
:40224000172001F0FDFE0721182001F021FF2349182001F0F5FE0721152001F019FF2049152001F0EDFE0721002001F011FF1D49002001F0E5FE0721012001F009FF1A491A
:40228000012001F0DDFE0721022001F001FF1749022001F0D5FE07210C2001F0F9FE14490C2001F0CDFE00BF0837BD4680BD00BFA5430040B54300409D60004009600040EC
:4022C000106000409443004012600040F851004084600040856000400D2F0000F5270000012F0000192E0000612E0000AD2E0000192F000080B582B000AF03460A46FB71F7
:402300001346BB712E4AFB7913702E4B00221A702D4B00221A702D4B00221A702C4B00221A702C4B00221A702B4B00221A702B4B00221A702A4B4FF400021A60284B4FF0CC
:4023400080721A60264B4FF400121A60244B01221A60234B02221A60214B04221A60BB79002B02D0012B09D011E01E4A1D4B1B78DBB223F00103DBB2137011E0194A194B97
:402380001B78DBB243F00103DBB2137008E0154A144B1B78DBB243F00103DBB2137000BF114B03221A70114B80221A70012002F00BF90F4B04221A7000BF0837BD4680BDF8
:4023C000F982FF1FFC82FF1F1883FF1F1B83FF1F1083FF1F1A83FF1F1D83FF1FF882FF1F00E100E00960004028600040086000401260004080B400AF0F4B00221A700F4BA2
:4024000000221A700E4B00221A700E4B00221A700D4B00221A700D4B00221A700C4B00221A700C4B03221A700B4B80221A7000BFBD4680BC704700BFFC82FF1F1883FF1F8A
:402440001B83FF1F1083FF1F1A83FF1F1D83FF1FF882FF1F286000400860004080B483B000AF0346FB71FA79064913465B0013449B000B4401331B78DBB218460C37BD46F4
:4024800080BC70472083FF1FB0B485B000AF03463960FB711346BB80FB79002B6DD0FB79082B6AD8B988FA79364813465B0013449B00034406331B889BB2C3F5007399422B
:4024C0000CD9FA792F4913465B0013449B000B4406331B889BB2C3F50073BB802A4CF979BB881B0A9BB2D8B2FA79264D13465B0013449B002B4403331B78DBB20343DAB23E
:402500000B0123441A70204AFB79B988C9B21B01134401330A461A703B68002B13D00023FB810CE01948FB79FA8939680A4412781B01034408331A70FB890133FB81FA8997
:40254000BB889A42EED3FA790E4913465B0013449B000B44013300221A700B48F979FA79084C13465B0013449B00234405331B78DAB20B01034402331A7000BF1437BD46CD
:40258000B0BC70472083FF1FFC5F00407060004080B582B000AF0023FB71314B1B79DBB2184600F067F80346BB712D4B1B78DBB25BB2002B15DA2A4B5B78DBB2212B00D078
:4025C00048E0284B07221A80BA791346DB009B1A254A1344234A536000F086FA0346FB7138E01F4B5B78DBB2202B02D0222B1AD030E01C4B07221A80BA791346DB009B1ACA
:40260000194A1344174A5360BB79BA7917498A5CD2B242F00102D1B2144AD15400F0E2FA0346FB7116E0BB790D4A9278D2B291B20F4A22F81310BB79BA790C498A5CD2B2D1
:4026400042F00202D1B2094AD15400F069FB0346FB7100BFFB7918460837BD4680BD00BF006000400483FF1F0482FF1FE082FF1FF482FF1F80B485B000AF0346FB71002364
:40268000FB73FF23BB7317E0FB7B104AD35C7B737A7B0F4913465B0013449B000B440A331B78DBB2FA799A4203D1FB7BBB730223FB73FB7B0133FB73FB7B012BE4D9BB7BD2
:4026C00018461437BD4680BC704700BFE882FF1F2083FF1F80B584B000AF78600B467B80144B1B781A46144B9B5CFB73FA7B134913465B0013449B000B4408331B889BB2F0
:402700007A889A420CD9FA7B0C4913465B0013449B000B4408331B887B80002001F04EFC7A88FB7B79681846FFF7AEFE00BF1037BD4680BDD282FF1FE482FF1F2083FF1F8D
:4027400080B500AF054B1B781A46054B9B5CDBB21846FFF783FE0346184680BDD282FF1FE482FF1F80B485B000AF78600B46FB701346BB707B68DB7803F00303FB737B68FF
:402780009B785BB2002B1ADAFB7B032B0AD0BB7803F001031449FA78CA54BB7843F00103BB701BE0BB789B08DBB203F001030F49FA78CA54BB7843F00403BB700EE0FB7B77
:4027C000032B0BD0BB785B08DBB203F001030849FA78CA54BB7843F00203BB70BB7818461437BD4680BC7047E482FF1FE882FF1FEC82FF1F80B582B000AF374B1B78BB717E
:40280000BB7903F01003002B62D00123FB7197F90630002B12DABB7903F00F03012B02D00023FB711CE000F061F82C4B1B78DBB25BB2002B14DA0023FB7111E0BB7903F025
:402840004003002B02D000F095F809E0BB7903F02003002B02D000F0B3F801E00023FB71FB79002B34D01C4B1B78BB7197F90630002B2DDB1A4B1B78DAB21A4B1B78DBB295
:402880001343BB71184ABB791370174B1B78DBB2BA799A421CD1114B1B78FB710E4B1B78DBB223F07F03BB71BB79002B0AD10A4B0A4A1278D2B21A70074B1B78DBB203F08A
:4028C0000F03FB71054B1B78DBB2FA799A42E2D100BF0837BD4680BD286000401983FF1F8E83FF1F1C83FF1F2960004080B582B000AF1D4B1B78FB711B4AFB7913701A4B35
:402900001B78FB7197F90730002B03DA174AFB79137025E0022000F045FA154B1B78DBB203F06003202B08D0402B0BD0002B0ED100F0F8FA0346FB710CE001F055FE0346C2
:40294000FB7107E001F000FB0346FB7102E00023FB7100BFFB79002B02D1044B03221A7000BF0837BD4680BD286000401983FF1F0060004080B500AF104B1B78DBB2062BD3
:4029800019D801A252F823F0B7290000B7290000A5290000B7290000AB290000B7290000B129000000F0F8F806E000F0A7F903E000F0D2F900E000BF00BF80BDFC82FF1FFF
:4029C00080B500AF124B1B78DBB2062B1DD801A252F823F00B2A00000B2A0000F12900000B2A0000F72900000B2A0000FD29000000F0D8F80AE000F027F907E0032000F068
:402A0000D1F9044B03221A7000E000BF00BF80BDFC82FF1F1983FF1F80B483B000AF0023FB71294B1B78DBB29AB2284B1B889BB213449AB2254B1A8015E02549FB79254A02
:402A400052681278D2B2CA54224B5B680133214A5360FB790133FB711E4B1B889BB2013B9AB21C4B1A801B4B1B889BB2002B02D0FB79072BE1D9144B1B78DBB2082B02D0C1
:402A8000FB79002B0FD0144B1B78DBB283F07F03DB43DAB2104B1A70104B0F221A70104B02221A7005E00D4B02221A700C4B02221A700C4AFB791370034AFB79137000BF36
:402AC0000C37BD4680BC7047F882FF1FFA82FF1F006000400483FF1F8E83FF1F1983FF1FFC82FF1F1C83FF1F80B582B000AF164B1B889BB2002B02D100F02EF81EE0134B0D
:402B000002221A70124B00221A7000F06BF9114BDB79DBB29BB21B029AB20E4B9B79DBB29BB21343FB80084B1B889BB2FA889A4202D2054AFB881380FFF76EFF01231846C0
:402B40000837BD4680BD00BF0483FF1FFC82FF1F8E83FF1F0060004080B400AF094B02221A70094B80221A70084B0F221A70084B00221A70074B00221A7001231846BD4612
:402B800080BC7047FC82FF1F8E83FF1F1983FF1FF882FF1F1C83FF1F80B500AFFFF73CFF00BF80BD80B500AF0A4B1B78DBB29AB2094B1B889BB213449AB2074B1A80074B6D
:402BC00000221A70012000F0EDF8054B03221A7000BF80BDF882FF1FFA82FF1FFC82FF1F1983FF1F80B582B000AF124B04221A70114B80221A7000F0F5F8104BDB79DBB2EC
:402C00009BB21B029AB20D4B9B79DBB29BB21343FB800B4B1B889BB2FA889A4202D2084AFB881380074B0B221A70012318460837BD4680BDFC82FF1F8E83FF1F0060004072
:402C40000483FF1F1983FF1F80B483B000AF0023BB71234B1B78DBB203F00F03DBB2023BFB71FB799AB21F4B1B889BB213449AB21C4B1A8018E01C4B5B681C49BA798A5C69
:402C8000D2B21A70184B5B680133174A5360BB790133BB71FB79013BFB71134B1B889BB2013B9AB2104B1A800F4B1B889BB2002B02D0FB79002BDED10D4AFB7913700D4BE2
:402CC0001B78DBB283F07F03DB43DAB2094B1A70094B0B221A7000BF0C37BD4680BC704729600040FA82FF1F0483FF1F006000401C83FF1F8E83FF1F1983FF1F80B500AF02
:402D0000054B00221A70012000F04CF8034B03221A7000BF80BD00BFFC82FF1F1983FF1F80B400AF084B06221A70084B06221A70074B80221A70074B00221A700123184649
:402D4000BD4680BC704700BFFC82FF1F1983FF1F8E83FF1F1C83FF1F80B500AF0D4B1B78DBB2002B0AD00C4A0A4B1B78DBB263F07F03DBB21370074B00221A70074B0022D9
:402D80001A70012000F00EF8054B03221A7000BF80BD00BF1A83FF1F08600040FC82FF1F1983FF1F80B483B000AF0346FB710B4B9B68002B0CD0094B9B68FA791A70074B2E
:402DC0009B68074A128892B25A80044B00229A6000BF0C37BD4680BC704700BF0483FF1FFA82FF1F80B400AF094B00221A80094B9B68002B07D0074B9B6800221A70054BC9
:402E00009B6800225A8000BFBD4680BC704700BFFA82FF1F0483FF1F80B400AF0D4B01221A700D4B9B7C0D4B1B7BDBB203F00303012B08D0094BDB7BDBB283F07F03DB43C7
:402E4000DAB2064BDA73054B01225A7300BFBD4680BC70470B600040FC5F00402083FF1F80B400AF0E4B02221A700E4B93F822300D4B1B7EDBB203F00303012B08D00A4B3C
:402E8000DB7EDBB283F07F03DB43DAB2064BDA76054B01225A7600BFBD4680BC704700BF0B600040FC5F00402083FF1F80B400AF104B04221A70104B93F832300F4B93F813
:402EC0002430DBB203F00303012B0AD00B4B93F82730DBB283F07F03DB43DAB2074B83F82720064B012283F8252000BFBD4680BC704700BF0B600040FC5F00402083FF1FCB
:402F000080B400AF00BFBD4680BC704780B500AFFFF770FA00BF80BD80B500AF01F03EF800BF80BD80B586B000AF0023FB759D4B1B78FB7100233B619B4B00221A8097F92D
:402F40000730002B80F20481964B5B78DBB20A2B00F21B8201A252F823F000BFA73000008B3300008B3300008B3300008B3300008B330000892F00008B3300001B310000E5
:402F80008B33000031310000864BDB78DBB2012B0ED100F049FEB860BB685B68824A5360814B12221A80FFF79FFD0346FB75EEE17C4BDB78DBB2022B25D17A4B9B78DBB29E
:402FC000184600F009FEB860BB68002B00F0DF81BB685B68744A5360734B5B6803331B78DBB29BB21B029AB26F4B5B6802331B78DBB29BB213439AB26B4B1A80FFF774FD6A
:403000000346FB75C3E1674BDB78DBB2032B45D10023FB73654B3B6109E03B691B78BB71BB793A6913443B61FB7B0133FB735D4B9B78DBB2FA7B9A4204D23B691B78DBB21F
:40304000002BEAD1574B9B78DBB2EE2B01D1584B3B61544B9B78DBB2002B0BD0514B9B78DAB2544B1B7C9A4204D1534800F0ACF9514B3B613B691B78DBB2002B00F0878148
:403080003B691B78DBB29AB2474B1A80464A3B695360FFF729FD0346FB7578E101F0A4FA0346FB7573E1FB7903F00303002B20D0022B00D030E03C4B02221A80394B1B7931
:4030C000DBB203F07F023D4913465B0013449B000B4402331B78DAB2394B1A70384B00225A70314B364A5A60FFF7FEFC0346FB7512E02D4B02221A80324B1B78DAB2304BE5
:403100001A702F4B00225A70274B2D4A5A60FFF7EBFC0346FB7500BF40E1234B01221A80214B294A5A60FFF7DFFC0346FB7535E11D4B01221A801B4B1B79DBB21A46234BA8
:403140001344194A5360FFF7CFFC0346FB7525E1144B5B78DBB2013B0A2B00F21A8101A252F823F06F32000093330000FD32000093330000913100009333000093330000FB
:4031800093330000D5310000933300002B320000044B9B78DAB20E4B1A70FFF7C1FD0346FB75FBE0006000400483FF1F1C52000024530000C45100009483FF1F2083FF1FD2
:4031C000D482FF1F1D83FF1F1B83FF1F8C83FF1F1A83FF1F744B9B787B717B79002B06D07B79013BDBB2184600F0F6FCB8607B79002B02D0BB68002B03D17B79002B40F0CF
:40320000CA806A4B1B78DBB27A799A4208D0674A7B791370664B01221A70012000F0DCF9FFF77EFD0346FB75B5E000F055FE0346002B00F0B2805C4B1B793B715A4B1B79A4
:40324000DAB25C4B1A703B795B4AD35CDAB23B795A49CB5CDBB29A4204D0554B01221A7000F08CFBFFF75CFD0346FB7595E0FB7903F00303012B20D0012B0CD3022B00D0F0
:403280003BE0494B9B78DBB2002B31D100F078FD0346FB752CE0444B9B78DBB2012B29D1474B1B78DBB223F00203DAB2444B1A70FFF736FD0346FB751CE03B4B1B79DBB21F
:4032C000012B19D8384B9B78DBB2DB43DBB2364A1279D2B2114610463A4A125CD2B21340DAB2384B5A54FFF71BFD0346FB7503E000BF53E000BF51E000BF4FE0FB7903F040
:403300000303012B20D0012B0CD3022B00D03BE0254B9B78DBB2002B31D100F0BDFC0346FB752CE0204B9B78DBB2012B29D1244B1B78DBB243F00203DAB2214B1A70FFF72D
:40334000EFFC0346FB751CE0174B1B79DBB2012B19D8154B9B78DBB2DB43DBB2124A1279D2B211461046174A125CD2B21340DAB2144B5A54FFF7D4FC0346FB7503E000BFEA
:403380000CE000BF0AE000BF08E000BF06E000BF04E000BF02E000BF00E000BFFB7D18461837BD4680BD00BF006000401B83FF1F1883FF1F1083FF1F0083FF1F8C83FF1FD2
:4033C0001D83FF1F9083FF1FB0B58AB000AF7860324B07F114041D460FCD0FC42B682370002387F826307B68002B52D07B6822221A707B68013303221A7007F10C031846EF
:4034000000F06AFE022387F827303EE097F827307A68134497F8262007F128010A4412F81C2C1209D2B207F128010A4412F8142C1A7097F8273001337A68134400221A7085
:4034400097F8273002337A68134497F8262007F128010A4412F81C2C02F00F0207F128010A4412F8142C1A7097F8273003337A68134400221A7097F82630013387F826302D
:4034800097F82730043387F8273097F82730212BBCD900BF2837BD46B0BD00BFB051000090B482B000AF0123FB7180E0464AFB791B0113440C221A70FA79444913465B000C
:4034C00013449B000B4405331B78DBB2002B1CD0FA793E4913465B0013449B000B4404331B78DBB25BB2002B07DA394AFB791B01134402330C221A700EE0354AFB791B0169
:403500001344023308221A7006E0314AFB791B011344023380221A702B48F979FA792B4C13465B0013449B00234406331B889BB2DAB20B01034406331A702348F979FA79AB
:40354000224C13465B0013449B00234406331B889BB21B0A9BB2DAB20B01034407331A701948F979FA79194C13465B0013449B00234406331B889BB2DAB20B01034404339B
:403580001A701148F979FA79104C13465B0013449B00234406331B889BB21B0A9BB2DAB20B01034405331A70FB790133FB71FB79082B7FF67BAF074BFF221A7000BF083749
:4035C000BD4690BC704700BF706000402083FF1FFC5F00400A60004080B58AB000AF0346FB7100237B84002387F8273050E097F82720B34913465B0013449B000B440022E9
:403600001A7097F82720AE4913465B0013449B000B44023300221A7097F82720A84913465B0013449B000B44033300221A7097F82720A34913465B0013449B000B440833CD
:4036400000221A8097F827209D4913465B0013449B000B440A3300221A7097F82720984913465B0013449B000B44013300221A7097F82720924913465B0013449B000B44C2
:40368000053300221A7097F82730013387F8273097F82730082BAAD9FB79002B16D0002387F825300EE097F82530864A0021D15497F82530844A0021D15497F82530013326
:4036C00087F8253097F82530012BECD97F4B1B78DBB2002B00F04A810023FB767B4B1B78DBB2013BDBB2184600F076FA78617B695B683B613B6907331B7803F04003002B62
:4037000008D0734B1B78DBB243F00103DAB2704B1A7007E06E4B1B78DBB223F00103DAB26B4B1A707B6908337B617B691B7887F82730012387F82530B6E07B695B68FB614F
:40374000002387F82630A3E097F82520FB699B7803F07F039A4240F0938097F82520584913465B0013449B000B4408331B889AB2FB699B889A420CD297F82520FB699888C2
:403780004F4913465B0013449B000B44083302461A80FB691B781A464A4B9B5CDAB2FB695B789A426CD197F82520FB699878444913465B0013449B000B44043302461A70CD
:4037C00097F82520FB69D8783D4913465B0013449B000B4402461A70FB69DB7803F00303FB73FB699B785BB2002B1CDA97F82520FB7B012B01D1072000E00D2030491346E3
:403800005B0013449B000B44053302461A7097F825202B4913465B0013449B000B44013301221A701BE097F82520FB7B012B01D1052000E00920224913465B0013449B0042
:403840000B44053302461A7097F825201C4913465B0013449B000B44013300221A70FB699B790A2B03D0FB699B79022B08D1FA7E97F825301946F869FEF774FF0346FB76A5
:40388000FB690833FB6197F82630013387F8263097F8262097F827309A42FFF455AF97F82530013387F8253097F82530082B7FF644AF7B695B68FB61002387F8253020E02C
:4038C0002083FF1F8C83FF1F0083FF1F1B83FF1F1D83FF1FFB699B7803F07F02FB691878244913465B0013449B000B440A3302461A70FB690833FB6197F82530013387F8DD
:40390000253097F8252097F827309A42E2D300F09DF90246184B1A6000237B84012387F827301DE097F82720124913465B0013449B000B4406337A8C1A8097F827200D49F8
:4039400013465B0013449B000B4408331B889AB27B8C13447B8497F82730013387F8273097F82730082BDDD9FFF79AFD00BF2837BD4680BD2083FF1F1483FF1F90B585B031
:4039800000AF8F4B1B78DBB2002B00F015818C4B1B78DBB2013BDBB2184600F01DF978607B6808337B607B681B78FB707B685B68BB60844B1B78BB700023FB73F7E0BB68FE
:4039C0001B78BA789A4240F0EC80BB787E4AD35CDAB2BB685B789A4240F0E380BB689B7803F07F037B70BB68DB7803F003033B707A78764913465B0013449B000B440333E3
:403A000000221A707A78BB689878704913465B0013449B000B44043302461A707A78BB68D8786A4913465B0013449B000B4402461A707A78BB689888644913465B00134432
:403A40009B000B44083302461A80BB689B785BB2002B1ADA7A783B78012B01D1072000E00D205A4913465B0013449B000B44053302461A707A78554913465B0013449B002E
:403A80000B44013301221A7019E07A783B78012B01D1052000E009204C4913465B0013449B000B44053302461A707A78474913465B0013449B000B44013300221A70444A93
:403AC0007B781B011344023301221A70404879787A783E4C13465B0013449B00234408331B889BB21B0A9BB2DAB20B0103441A70374879787A78354C13465B0013449B00ED
:403B0000234408331B889BB2DAB20B01034401331A70304879787A782C4C13465B0013449B00234406331B889BB2DAB20B01034406331A70274879787A78244C13465B0035
:403B400013449B00234406331B889BB21B0A9BB2DAB20B01034407331A701E4879787A781A4C13465B0013449B00234406331B889BB2DAB20B01034404331A7015487978DB
:403B80007A78124C13465B0013449B00234406331B889BB21B0A9BB2DAB20B01034405331A70BB680833BB60FB7B0133FB73FA7BFB789A42FFF403AF00BF1437BD4690BD18
:403BC0001B83FF1F1083FF1F8C83FF1F2083FF1FFC5F00407060004080B485B000AF0346FB710F4B1B78DBB20E4ADB0013445B68FB60FB681033FB60FB681B78FA799A428A
:403C000002D30023FB6005E0FB79DB00FA6813445B68FB60FB6818461437BD4680BC7047F982FF1F1C53000080B400AF054B1B78DBB2054ADB0013445B681846BD4680BCE8
:403C4000704700BFF982FF1F1C53000080B584B000AF104B1B78DBB2013BDBB21846FFF7BBFFB860BB68002B0DD0BB685B681B79FB71FB790233DB00BA681344BB60BB68F8
:403C80005B68FB6001E00023FB60FB6818461037BD4680BD1B83FF1F80B582B000AF0023FB71344B1B79DBB203F07F03BB71BB79002B5AD0BB79082B57D8BA79B9792E48A3
:403CC0000B465B000B449B00034402331B78DBB243F00103D8B2284913465B0013449B000B44023302461A70BA79234913465B0013449B000B44033300221A70BA79B97989
:403D00001D480B465B000B449B00034401331B78DBB243F00203D8B2174913465B0013449B000B44013302461A70BA79124913465B0013449B000B4404331B78DBB25BB2E9
:403D4000002B07DA0D4ABB791B01134402338D221A7006E0094ABB791B011344023389221A70FEF7DDFF0346FB71FB7918460837BD4680BD006000402083FF1FFC5F0040AE
:403D800080B582B000AF0023FB71504B1B79DBB203F07F03BB71BB79002B00F09280BB79082B00F28E80BA79B97949480B465B000B449B00034402331B78DBB223F00103FA
:403DC000D8B2434913465B0013449B000B44023302461A70BA793E4913465B0013449B000B44033300221A703A49BB793948BA79120102441278D2B202F07F02D2B21B013B
:403E00000B441A70BA79B97931480B465B000B449B00034401331B78DBB223F00203D8B22B4913465B0013449B000B44013302461A70BA79264913465B0013449B000B44F2
:403E400004331B78DBB25BB2002B1BDABA79204913465B0013449B000B4401331B78DBB2012B07D11B4ABB791B01134402330C221A7022E0174ABB791B01134402330D226E
:403E80001A701AE0BA79124913465B0013449B000B4401331B78DBB2012B07D10D4ABB791B011344023308221A7006E0094ABB791B011344023309221A70FEF731FF034684
:403EC000FB71FB7918460837BD4680BD006000402083FF1FFC5F004080B584B000AF0023FB73154B1B79BB73144B1B78DBB2013BDBB21846FFF770FEB860BB685B681B79A2
:403F0000FB71BA7BFB799A4202D9BB7B022B0ED8BB7BBA7B0A498A5CD1B20A4AD154BB7B054A9278D1B2064AD1540123FB73FB7B18461037BD4680BD006000401B83FF1FFC
:403F40008C83FF1F0083FF1F80B582B000AF0023FB710F4B1B78DBB25BB2002B12DA0C4B5B78DBB2012B00D00CE00A4B0A4A5A60094B1B789AB2074B1A80FEF7B5FD03461F
:403F8000FB7100BFFB7918460837BD4680BD00BF006000400483FF1F3853000080B400AF054B1B78DBB203F040039B09DBB21846BD4680BC704700BF8F45004080B483B0AE
:403FC00000AF0346FB7101BE00BF0C37BD4680BC704700BF80B582B000AF786008E00C4B1B68184600F0F0FA7B68A3F500437B607B68B3F5004FF2D8064B1B687A6802FB0F
:4040000003F3184600F0E0FA00BF0837BD4680BD2C82FF1F2482FF1F80B582B000AF0346FB80FB88054A127802FB03F3184600F0CBFA00BF0837BD4680BD00BF2882FF1F93
:4040400080B584B000AF03463960FB710F4B1B68FB60FB791F2B02D90020FFF7AFFFFB7903F01F0310339B00FA6813441B68BB60FB7903F01F0310339B00FA6813443A68C5
:404080001A60BB6818461037BD4680BD08ED00E080B582B000AF03460A46FB711346BB71BB79072B02D90020FFF788FFFB791F2B02D90020FFF782FFFB7903F01F0303F17E
:4040C000604303F56443BA795201D2B21A7000BF0837BD4680BD00BF80B483B000AF7860264B1B78DBB21A467B681A60244B1B78DBB21B027A6812681A437B681A60214B83
:404100001B78DBB21B047A6812681A437B681A601D4B1B78DBB21B067A6812681A437B681A607B680433194A1278D2B21A60184B1B78DBB21A027B68043379680431096826
:404140000A431A60134B1B78DBB21A047B6804337968043109680A431A600F4B1B78DBB21A067B6804337968043109680A431A6000BF0C37BD4680BC704700BF030100496E
:4041800004010049EC460040020100490101004900010049050100490601004980B500AF064B1B78002B04D100F00AF8034B01221A7000F063F800BF80BD00BFD682FF1F8E
:4041C00080B582B000AF284A274B1B78DBB243F00203DBB21370254B1B78DBB223F07003FB71224AFB7943F01003DBB21370204A1F4B1B78DBB223F03003DBB213701C4AF5
:404200001B4B1B78DBB243F03003DBB21370184A174B1B78DBB223F00F03DBB21370144A134B1B78DBB243F00F03DBB21370FF2000F048F87F2000F055F8002000F062F8A3
:404240000C4A0C4B1B78DBB243F00103DBB21370094A094B1B78DBB243F00103DBB2137000BF0837BD4680BD004F0040024F00400B4F0040A3430040014F004080B400AF8B
:404280000D4A0D4B1B78DBB243F00103DBB213700A4A0A4B1B78DBB243F00103DBB21370074A074B1B78DBB243F00103DBB2137000BFBD4680BC7047A3430040B3430040BD
:4042C000004F004080B483B000AF0346FB71044BFA7992B21A8000BF0C37BD4680BC7047044F004080B483B000AF0346FB71044BFA7992B21A8000BF0C37BD4680BC7047D6
:40430000064F004080B483B000AF0346FB71044AFB79137000BF0C37BD4680BC704700BF034F004080B500AF064B1B78002B04D100F00AF8034B01221A7000F063F800BFD0
:4043400080BD00BFD782FF1F80B582B000AF284A274B1B78DBB243F00203DBB21370254B1B78DBB223F07003FB71224AFB7943F01003DBB21370204A1F4B1B78DBB223F0A9
:404380003003DBB213701C4A1B4B1B78DBB243F03003DBB21370184A174B1B78DBB223F00F03DBB21370144A134B1B78DBB243F00F03DBB21370FF2000F048F87F2000F030
:4043C00055F8002000F062F80C4A0C4B1B78DBB243F00203DBB21370094A094B1B78DBB243F00103DBB2137000BF0837BD4680BD0C4F00400E4F0040174F0040A3430040A1
:404400000D4F004080B400AF0D4A0D4B1B78DBB243F00203DBB213700A4A0A4B1B78DBB243F00203DBB21370074A074B1B78DBB243F00103DBB2137000BFBD4680BC704716
:40444000A3430040B34300400C4F004080B483B000AF0346FB71044BFA7992B21A8000BF0C37BD4680BC7047104F004080B483B000AF0346FB71044BFA7992B21A8000BF19
:404480000C37BD4680BC7047124F004080B483B000AF0346FB71044AFB79137000BF0C37BD4680BC704700BF0F4F004080B582B000AF786000F03CF8786800F009F80720B3
:4044C00000F018F800F028F800BF0837BD4680BD80B485B000AF7860054B1B68FB60FB6854337A681A6000BF1437BD4680BC704708ED00E080B483B000AF0346FB71054A1B
:40450000FB795B01DBB2137000BF0C37BD4680BC704700BF05E400E080B400AF034B20221A6000BFBD4680BC704700BF00E100E080B400AF034B20221A6000BFBD4680BC0E
:40454000704700BF80E100E080B400AF054B1B78DBB203F040039B09DBB21846BD4680BC704700BF2151004080B400AF054B1B78DBB203F004039B08DBB21846BD4680BCEB
:40458000704700BF3151004080B400AF054B1B78DBB203F08003DB09DBB21846BD4680BC704700BF3151004080B400AF044B1B78DBB203F00103DBB21846BD4680BC70478A
:4045C000F1510040000000000230800803D000BF01380046FCD17047EFF3108072B6704780F31088704700BF80B582B000AF0023BB711B4B1B78DBB203F00303012B02D036
:40460000022B04D012E0164B1B79FB7111E0144B1B79DBB203F07F02124913465B0013449B000B440A331B78FB7102E00023FB7100BFFB79022B0ED80B4B1A68FB7913445B
:404640001B78022B04D1FDF7A3FF0346BB7102E00023BB7100BFBB7918460837BD4680BD006000402083FF1F1483FF1F014B1868704700BF9082FF1F0E4B70B51E460E4CD5
:404680000025E41AA410A54204D056F8253098470135F8E700F080FE084B094C1E46E41AA4100025A54204D056F8253098470135F8E770BDA4530000A4530000A45300001C
:4046C000AC53000010B5431E0A44914204D011F8014B03F8014FF8E710BD03460244934202D003F8011BFAE7704700000CB430B5164B0C1E9DB01D6804DA8B232B604FF017
:40470000FF301EE04FF40273ADF814300CBF234604F1FF33049307934FF6FF7302900690ADF81630209A21AB02A92846019300F095F8431CBCBF8B232B6014B1029B00220E
:404740001A701DB0BDE8304002B070479082FF1F0EB400B54FF402719CB0ADF814106FF00041049107914FF6FF711DAB02900690084853F8042BADF81610006802A9019344
:4047800000F06CF8029B00221A701CB05DF804EB03B070479082FF1F034613F8012B002AFBD1181A013870472DE9F0478E6882469E420C46914698463ED88A8912F4906FFA
:4047C0003AD02568096902236F1A656905EB450595FBF3F57B1C43449D4238BF1D4653050FD5294600F040FB064698B13A462169FFF768FFA38923F4906343F08003A38149
:4048000013E02A4600F08EFB064670B92169504600F0DEFA0C23CAF80030A3894FF0FF3043F04003A381BDE8F08726613E44266046466561ED1BA560464528BF4646494653
:404840003246206800F0A8FAA36800209B1BA36023681E442660BDE8F08700002DE9F04F9DB003938B8980461C060D4616460DD50B695BB9402100F0F7FA2860286118B9C2
:404880000C23C8F80030CDE040236B610023099320238DF82930DFF89CB130238DF82A3037463C4614F8013B1BB9B7EB060910D003E0252BF9D02746F3E74B463246294660
:4048C0004046FFF771FF013000F0A780099B4B4409933B78002B00F0A08000234FF0FF3204930793059206938DF853301A930126052221784E4800F041FA671C049B38B16B
:404900004B4A3C46801A06FA00F018430490EFE7D90644BF20228DF853201A0744BF2B228DF8532022782A2A03D0079A00210A200BE0039A111D12680391002A10DA524273
:4049400043F00200079204900BE027463B780134303B092B03D800FB02320121F5E701B107923B782E2B1ED17B782A2B0AD1039B02371A1D1B680392002BB8BF4FF0FF334C
:40498000059310E0002319460593781C0A2407463A780130303A092A03D804FB01210123F5E703B1059103223978224800F0E6F940B14023CBEB000003FA00F0049B0137A3
:4049C00018430490397806221B487E1C8DF8281000F0D4F988B1194B33B9039B073323F007030833039314E003AB00932A46144B04A94046AFF3008007E003AB00932A4638
:404A00000F4B04A9404600F093F8B0F1FF3F824603D0099B5344099342E7AB895B0601D4099801E04FF0FF301DB0BDE8F08F00BF62530000685300006C53000000000000BB
:404A4000A94700002DE9F04791461F460A698B6806469342B8BF1346C9F8003091F843200C46DDF8208012B10133C9F800302368990642BFD9F800300233C9F800302568FB
:404A800015F0060510D104F1190A07E00123524639463046C04701301AD00135E368D9F800209B1A9D42F1DB94F843302268003318BF012392060FD5E118302081F8430029
:404AC0005A1C94F845102244023382F8431003E04FF0FF30BDE8F08704F1430239463046C0470130F4D02268D9F80050E36802F00602042A08BF5D1B2269A3680CBF25EA92
:404B0000E57500259342C4BF9B1AED184FF000091A344D4509D00123224639463046C0470130D5D009F10109F3E70020BDE8F0872DE9F04317460A7E85B06E2A9846064646
:404B40000C460C9B01F1430E00F0AE8011D8632A22D009D8002A00F0BB80582A40F0CA8081F84520834955E0642A1ED0692A1CD0C0E0732A00F0B08009D86F2A2ED0702AF8
:404B800040F0B8800A6842F020020A603EE0752A24D0782A3AD0ADE01A6801F14205111D1960136884F84230A8E021681A6811F0800F02D0111D196008E011F0400F02F1E1
:404BC0000401196002D0B2F9003000E01368002B3CDA2D225B4284F8432037E021681A6811F0800F02D0111D196007E011F0400F02F10401196001D0138800E01368227EE9
:404C00005C496F2A14BF0A2208221BE078225A4984F845202268186812F0800F00F104051D6003D1550601D5038800E00368D00744BF42F0200222601BB9226822F02002C5
:404C400022601022002084F8430001E049490A226568002DA56008DB206820F0040020602BB9002D7DD175460CE0002B79D07546B3FBF2F002FB1033CB5C05F8013D034654
:404C80000028F5D1082A0BD12368DA0708D5236962689A42DEBF302305F8013C05F1FF35C5EB0E0323612EE008681A6810F0800F496903D0101D1860136808E010F0400F79
:404CC00002F104001860136801D0198000E0196000232361754616E01A68111D1960156800216268284600F049F808B1401B6060636804E004F1420584F84220012323613A
:404D0000002384F84330CDF800803B4603AA21463046FFF797FE013002D14FF0FF3026E023692A4639463046C0470130F5D023689B0710D5002504F1190907E001234A4637
:404D400039463046C0470130E7D00135E368039A9B1A9D42F2DBE068039B9842B8BF184605E00B7804F1420584F842308AE705B0BDE8F083735300008453000010B5C9B28E
:404D800002449042034605D01C7801308C42F8D1184610BD002010BD884210B501EB020301D8421E0BE09842FBD28118D21AD34204D013F8014D01F8014DF8E710BD994269
:404DC00004D011F8014B02F8014FF8E710BD000038B50546002944D051F8043C0C1F002BB8BFE41800F0D4F81E4A1368114613B96360146030E0A3420DD92268A0188342F2
:404E000001BF18685B681218226063600C6023E0A24203D813465A68002AF9D118681918A1420BD12168014458188242196013D110685268014419605A600DE002D90C2353
:404E40002B6009E021686018824201BF106852680918216062605C602846BDE8384000F098B838BDDC82FF1F70B5CD1C25F0030508350C2D38BF0C25002D064601DBA942A2
:404E800002D90C23336046E000F082F8234B1C681A462146A1B10B685B1B0ED40B2B03D90B60CC18CD501EE08C420BBF63684B681360636018BF0C4615E00C464968E9E736
:404EC000174C23681BB9304600F052F820602946304600F04DF8431C18D0C41C24F00304A0420DD12560304600F053F804F10B00231D20F00700C31A0ED05A42E25070BD61
:404F0000211A304600F034F80130EBD10C233360304600F03EF8002070BD00BFDC82FF1FD882FF1FF8B5074615460E4621B91146BDE8F840FFF798BF1AB9FFF749FF2846D6
:404F4000F8BD00F027F885420ED929463846FFF78BFF044650B131462A46FFF7B3FB31463846FFF735FF01E03046F8BD2046F8BD38B5064C0023054608462360FCF756FF70
:404F8000431C02D1236803B12B6038BDB883FF1F7047704751F8040C0028BEBF091851F8043CC0180438704700000000506C616E3A20737472616967687420756E74696C2F
:404FC00020696E74657273656374696F6E0D0A00506C616E3A206C6566740D0A00000000506C616E3A2072696768740D0A000000506C616E3A207475726E2D61726F756EA2
:40500000640D0A00506C616E3A2073746F700D0A00000000506C616E3A20756E6B6E6F776E0D0A003D3D3D20466F6F642064697374616E636573203D3D3D0D0A00000000FC
:40504000466F6F642025643A2025640D0A000000000000000100000000000000FFFFFFFF0100000000000000FFFFFFFF000000000D0A3D3D3D20524157205041544820289E
:405080006C656720256429206C656E3D2564203D3D3D0D0A000000000D0A0000200000002825642C25642925730000003D3D3D20454E44205241572050415448203D3D3D99
:4050C0000D0A00000D0A2D2D2D205354415254494E47204C45472025643A202825642C25642920E28692202825642C256429202D2D2D0D0A00000000212120466F6F642054
:405100002564206973206F6E20612077616C6C2E20536B697070696E672E0D0A000000002121204E6F207061746820666F756E6420666F722074686973206C65672E0D0AC0
:40514000000000005B4442475D2044657465637465642072657665727365207061746820737461727420E2869220696E73657274696E67205455524E5F41524F554E440D86
:405180000A000000004F0040240040510040300000000140001000140140000800400140000A004C0140000200500140200000003031323334353637383941424344454616
:4051C000000000001201000202000008B40432F2010001028001000009024300020101C0320904000001020201030524001001042402020524060001052401000107058187
:405200000308000A09040100020A000004070582024000000705030240000000040309042C0343007900700072006500730073002000530065006D00690063006F006E0000
:4052400064007500630074006F007200100355005300420055004100520054003803430044004300200043006F006D006D0075006E00690063006100740069006F006E00E9
:40528000200049006E007400650072006600610063006500260343004400430020004400610074006100200049006E007400650072006600610063006500000002030000FA
:4052C00000008103080002000100820240000A000100030240000A00020A000001000000D851000003000000C05200000000000000000000000000000000000000000000B6
:40530000D852000001000000C4510000000000000000000001000000DC520000010000000453000012034D0053004600540031003000300001000000280000000001040098
:4053400001000000000000000001435955534200000030303030310000000000000000004300232D302B2000686C4C006566674546470030313233343536373839414243AF
:40538000444546003031323334353637383961626364656600000000F8B500BFF8BC08BC9E4670474D000000151F0000F8B500BFF8BC08BC9E46704729000000D0530000F1
:4053C000C880FF1FD00100002801000000000000000000009A9DA29E01010101010101010101010101010101010101010001000000000000000000000000000000010100BF
:40540000010001010101010001010100010101000101000000010000000100000000000000010001010101000100010001010100010001010100010100000001000100004A
:40544000000100010000000000010100010101000100010001000100010101000101000100010000000100010001000100000001010001000100010101000100010001000C
:4054800001010101000000010001000000010000000100000001010101000100010101010101010101010100010100000000000000000000000000000000000101000101CE
:4054C000010101010101010101000101010101010000000000000001000000000000000000010101010101010101010101010101010101010100000001010000020D011066
:4055000007010D0509090000C083FF1F00C2010000000800C201000000080000A120000000000200000000000087930360EA00003C0000000000307500000000000000003D
:405540000000000000000000000000000000000000000000000000006053000000000000000000000000000000000000000000000000000000000000000000000000000078
:405580000000000000000000000000000000000000000000000000003082FF1F0000000000000000000000000000000000000000000000000000000000000000000000001B
:4055C00000000000000000000000000000000000000000000000000000000000000000000000000000000000000000000000000000000000000000000000000000000000AB
:40560000000000000000000000000000000000000000000000000000000000000000000000000000000000000000000000000000000000000000000000000000000000006A
:40564000000000000000000000000000000000000000000000000000000000000000000000000000000000000000000000000000000000000000000000000000000000002A
:4056800000000000000000000000000000000000000000000000000000000000000000000000000000000000000000000000000000000000000000000000000000000000EA
:020000040003F7
:0200000480007A
:4000000001450040064F004006520040046400400365004052000140350101405D0201404403014053040140540501405206014055070140640801404C090140040A014091
:400040000B0B0140030D0140020F014069140140511501405C1601405C17014009190140041B01400B4001400D41014018420140104301400144014007450140064601400D
:40008000094701400C4801400A490140044C0140054D01400B500140025101407E0201300A4B0D30164B1910224B1108182819286004611C7C408572870F880F896F840F12
:4000C000856F8638031004400680081E0C0A0D010E140F0A104012A014401502168017011A011C801D011E401F02201822062414260A280629012A182B022C0E2D04300152
:40010000310432203303341E351036C037083A803B083F015608580459045B045D905F0180618202859487608D308FC99004930F94609573960498379C579DFD9F02A19EB4
:40014000A280A360A401A5CFA602A730AA08AE07B280B3FFB470B60FB820BF04D608D804D904DB04DD90DF010128030205020AA20B080C400E080FA0108112081304140253
:40018000150416801720184819281A021B401C081E2A21012298272029402B382D022F2C328834423605374438403B013D4C3F8058805F406301668082018941C017C2FFD4
:4001C000C4FFCACCCCDACE59D618D818E080E228E401000B010F02040503070C09100A0F0C0C0D050E010F0A15071620180C19101A02210A2305250C2610270328072910E5
:400200002C082D102E01310F32203310340F36103F04580459045F018044813B82208444855D86108720880289668A018B108C018E0294709540970898019A829C019D66D2
:400240009E029F08A034A240A404A610AA08AB78AE74AF80B074B107B20CB3C0B403B578B680B902BA20C006C604C9FFCA07CBFFCC40CD20CEF0CF05D008D804D904DA0454
:40028000DD02DF01E040E1A8E240E32001A2032004800748080409400A040D200E20114A13281540162818A419A21D241E021F20200821152204230425012604274029206F
:4002C0002B012D022F2530803208340436203704380839223D4A3F10484049105280780179028080900891409222968097449A089B049C819D029F40A218A480A504A72A42
:40030000AC04AE08C0DFC267C4EFCAFCCC6ACEF7D204EC0204C5063A08960A680B010C7F11961368150E17F019A31A011B5C1DFE1F0120A321C5225C233A24FE257F260161
:40034000280E2AF030FF33FF3E013F045280580459045B045F0180048309843087208810894F8C208D078F48903C911092C1932094FF950298CF99499A309B069D049EC3BB
:40038000A004A208A310A408A506A906AA0CAB49AC7CAD09AE82B0B0B108B23FB330B470B507B740B980BA0ABB20D602D712D804D904DB04DC22DD20DF0100080120030280
:4003C000050806450A080D200E410F101080110412081580161017111B011E501F15232025312620271229022A082C402D882E103108320133603540362037053828390421
:400400003C043E413F10410143025E08600462106C286E807102754876057704814082108B408D229028912A922A9684971A982099269A089B409D109E209F20A044A29D3B
:40044000A320A480A544A620A709A804AB02AF40B430C0F7C2F2C4FECAF3CCFFCEF4D640E6810504060107020E0213081502170419021B0423082B012C042D022F0430014C
:40048000320233063508360437013B083E403F105608580459045B045D905F0180028173820485FD86048702899E8A018B609594960897609A069DCF9E209F30A202A30F72
:4004C000A410A930ABC9B008B1FFB210B420B607BB08BE44BF01C024C101C50EC6C0C70BC819C9FFCAFFCBFFCEF0CF44D00CD280D40FD804D904DA04DB04DC20DD02DF019B
:40050000E6C0EA40EB0200960302054409400A2810401260140119881A841F4921022310254C2708288029202D022F0530803208350436103702380839223D0A3F014002D1
:40054000412043024A205204532058045A425B105C085D405F28654067087280808081028602880189048A099008912E92209320940496859790982499249B029C409D9048
:400580009E609F01A068A111A2D9A480A54CA708B004B302B740C0AEC207C48CCAB5CCEACE47D00DD63FD830E001E420E601EA01060309C00B240C040DC10F12118413100A
:4005C0001601170818011E0C1F07217729B72B402D012FF23008310F3201340235F036043E444035410249FF4AFF4BFF4DA04F015018540F580459045A045B045F01604057
:40060000628064406540668068406A806C406D206E808502870188088D03900291049B0CA003A20CA303A403B001B108B204B302B408B504B602B701B882BE50BF54C0314F
:40064000C102C532C6C4C70EC81FC9FFCAFFCBFFCDAFCE07CF01D018D40FD804D904DA04DB04DF05E040E280E440E540E680E840EA80EC40ED20EE8000100440071008827A
:4006800009800D400E1810A0181119021A061C401D481E082004218223102510274829022D802F48303031023601374438403A083DA04001410842084508460848A04E01D4
:4006C00051405224581059415A045C805D045F12622468086B017802800481018344880889809210938098029A089B12A201A908B340B702C0A2C2E8C40CCAB1CCD5CE3A05
:40070000D06ED210D6FFD806DE01E480E810EC80B908BF04D904DF0125088E1198029A089B10B710E010E410E601EA40EC4098029A08AC028208E208005102A20480062264
:40074000090A0A0C0B340F08183019331AC31B0C1D331F04204021402211231524F325032604271428F32A083160320F331034F0350F39023A083B203F044063410449FF0A
:400780004AFF4BFF4DA04F01501854015604580459045A045B045C225D205F016040628064406540668068406A806C406D206E80830390089C039D02A001AC03AE0CB004FD
:4007C000B101B201B408B602B702B888BE14BF40C063C104C52CC640C73EC83BC9FFCAFFCBFFCDAFCE07CF01D018D40FD804D904DA04DB04DF05E040E280E440E540E6809D
:40080000E840EA80EC40ED20EE8000160A080E800F02102812401503160218101A081D081E881F40202021202340274228102A012B2031203240374038203B403F02408081
:4008400041084480450848044A084E084F06562A581259885C405D105E085F026101660867047D0184108580880289108A208B018D019064910292809410960897C09880B7
:4008800099089A419E20A02DA220A320A520AD20AF12B201C00EC292C49ECA03CC1CCE8CD0C3D224D6FFD861DE80E660020104010A040E04100211071402170818021D0218
:4008C0001F01230326012B0430043104330234013508360237013E113F45402141034206440545E0470C481249FF4AFF4BFF4C624DA04EF04F41500C5418560458045904E2
:400900005A045B045C025D225F016640670269106A306B106D106E106F1281108514891C8B028D098E238F109061920E945C952096039703986199109A169B0C9D0C9F11A7
:40094000A208AE1CB01AB120B20FB31FB460B820BA0ABE10BF01D608D804D904DB04DC22DD90DF0100800201040806880702080209200AA00C280E801101128013401508FD
:400980001708182019101AA01C081D801E011F01210822012448254027102E202F4031283240348036013708382039013A043B403D803E40441045904DA2560858205B40E8
:4009C0005F016004624064186602671268016B01910A93319414964998A899889A849B409C029D129E629F11A068A110A2E1A320A401A520AB40AC80B110B404B540B7205D
:400A0000C0F1C27EC429CAA0CCDECE0FD070D230D68CD8BCE840EA0AEC10EE019B01AF08B002B144B708E810EA02EC20EE018B019B01E620E82032403301340835803820EB
:400A4000858088108B01CCF0CE10E21000080740308083409420968098109C089F01A701C030CC10E4801310508054405B045C0161088240888094209680971098109C083E
:400A80009F01A701AC04B080B310C440D460D6C0D840E680EC401B011C8084088840942098109C089F01A440A701A801A908AB04C630E610EA80871003080A205810971061
:400AC000C002C208D401800297109C10A308B610EA0208020B040F10890897109C12A308C20EE40402020502942098109D02A301A602AF01B502B602C060EA405F20630243
:400B000064108B208C1094209810A301D660D8809C10A108AB08AF047108A108B010DC01E80400050101080509010A050B010C01100511011A051B0100EA010B1300000055
:400B400000000000001C1C001C0000004000073838000000C0000000000B0B00000000000800740A0A00080000000000847B7B00380000000000000000000000000000004A
:400B80000000000000000000000000000000000000000000000000000000000000000000000000000000000000000000000000000000000000000000000000000000000035
:400BC00000000000000000000000000000000000000000000000000000000000000000000000000000000000000000000000000000000000000000000000000000000000F5
:400C000000000000000000000000000000000000000000000000000000000000000000000000000000000000000000000000000000000000000000000000000000000000B4
:400C40000000000000000000000000000000000000000000000000000000000000000000000000000000000000000000000000000000000000000000000000000000000074
:0200000490006A
:0400000000004007B5
:0200000490105A
:04000000BC90ACAF55
:0200000490303A
:0200000051D7D6
:0200000490402A
:4000000000000000000000000000000000000000000000000000000000000000000000000000000000000000000000000000000000000000000000000000000000000000C0
:400040000000000000000000000000000000000000000000000000000000000000000000000000000000000000000000000000000000000000000000000000000000000080
:400080000000000000000000000000000000000000000000000000000000000000000000000000000000000000000000000000000000000000000000000000000000000040
:4000C0000000000000000000000000000000000000000000000000000000000000000000000000000000000000000000000000000000000000000000000000000000000000
:0200000490501A
:0C00000000012E16106900012E3862402D
:00000001FF