:400000000080002011000000C91E0000C91E000080B500AF024A034B1B68136001F05EFFBC760040FA46004010B5054C237833B9044B13B10448AFF300800123237010BDEB
:400040007882FF1F00000000702C0000084B10B51BB108490848AFF300800848036803B910BD074B002BFBD0BDE81040184700BF000000007C82FF1F702C0000C880FF1F68
:400080000000000080B400AF034B01221A7000BFBD4680BC704700BFAA82FF1F80B5CCB000AF62B602F088F802F04AF902F030FA02F0B4FA384802F0C3FC02F017F807F19F
:4000C000140207F128034FF48071184600F098FEC7F828010023C7F82C3150E007F12802D7F82C3113441B78042B39D801A252F823F000BF090100004F0100005501000071
:400100005B0100006F010000D7F82C31013307F12802D35C042B17D1204B1B78042B28D81E4B1B781A4607F1140353F82230DAB21A4B1B7819463B4653F82130DBB219460A
:40014000104600F0FFFA14E000F08CFA11E000F099F90FE000F0F2F90CE000F04BFA09E000F03AF84FF4FA6002F004F802E000BF00E000BFD7F82C310133C7F82C31D7F857
:400180002C21D7F828319A42A8DBFF2002F0B8F87F2002F079F9F8E785000000AB82FF1F80B582B000AF0346FB80FB88DBB2184602F0A6F800BF0837BD4680BD80B582B07B
:4001C00000AF0346FB80FB88DBB2184602F05CF900BF0837BD4680BD80B500AF7F20FFF7DFFF7F20FFF7EAFF00BF80BD80B500AF02F094FC0346002B14D002F07FFC034654
:40020000002B0FD12F4B1B789BB21846FFF7C8FF2D4B1B789BB21846FFF7D0FF2B4B00221A704DE002F07AFC0346002B14D102F065FC0346002B0FD0254B1B789BB218465F
:40024000FFF7AEFF234B1B789BB21846FFF7B6FF1E4B01221A7033E002F060FC0346002B22D002F04BFC0346002B1DD0174B1B78002B0CD0164B1B789BB21846FFF790FFED
:40028000154B1B789BB21846FFF798FF18E0134B1B789BB21846FFF783FF0B4B1B789BB21846FFF78BFF0BE0094B1B789BB21846FFF776FF044B1B789BB21846FFF77EFF0B
:4002C00000BF80BDCF80FF1FCD80FF1FB082FF1FCC80FF1FCE80FF1FD080FF1FD180FF1F80B584B000AF7860002002F03BF9002002F0BEF99620FFF753FF9A20FFF75EFF1D
:4003000002F01EF90346FB6002F0A0F90346BB60FB6883EAE372A2EBE3727B689A42EFDBBB6883EAE372A2EBE3727B689A4200DAE6E700BFFFF750FF322001F01BFF00BF44
:400340001037BD4680BD00BF80B584B000AF7860002002F007F9002002F08AF902F0DEFB0346002B14D002F0C9FB0346002B0FD13D4B1B789BB21846FFF712FF3B4B1B788D
:400380009BB21846FFF71AFF394B00221A704DE002F0C4FB0346002B14D102F0AFFB0346002B0FD0334B1B789BB21846FFF7F8FE314B1B789BB21846FFF700FF2C4B01223C
:4003C0001A7033E002F0AAFB0346002B22D002F095FB0346002B1DD0254B1B78002B0CD0244B1B789BB21846FFF7DAFE234B1B789BB21846FFF7E2FE18E0214B1B789BB235
:400400001846FFF7CDFE194B1B789BB21846FFF7D5FE0BE0174B1B789BB21846FFF7C0FE124B1B789BB21846FFF7C8FE02F088F80346FB6002F00AF90346BB60FB6883EA5D
:40044000E372A2EBE3727B689A4287DBBB6883EAE372A2EBE3727B689A4200DA7EE700BF00BF1037BD4680BDCF80FF1FCD80FF1FB082FF1FCC80FF1FCE80FF1FD080FF1FEE
:40048000D180FF1F80B584B000AF0A20FFF728FF002002F067F8002002F0EAF86020FFF77FFE9A20FFF78AFE0023FB730023BB7329E002F045F80346BB6002F0C7F8034666
:4004C0007B60FB7B83F00103DBB2002B0AD0BB68002BB8BF5B42592B04DD7F20FFF760FE0123FB73BB7B83F00103DBB2002B0AD07B68002BB8BF5B42632B04DD7F20FFF7F1
:400500005DFE0123BB73FB7B83F00103DBB2002BCFD1BB7B83F00103DBB2002BC9D1064B01221A70FFF758FE642001F023FE00BF1037BD4680BD00BFB082FF1F80B584B02C
:4005400000AF1420FFF7CCFE002002F00BF8002002F08EF89620FFF723FE5E20FFF72EFE0023FB730023BB7329E001F0E9FF0346BB6002F06BF803467B60FB7B83F0010330
:40058000DBB2002B0AD0BB68002BB8BF5B42632B04DD7F20FFF704FE0123FB73BB7B83F00103DBB2002B0AD07B68002BB8BF5B42592B04DD7F20FFF701FE0123BB73FB7B8D
:4005C00083F00103DBB2002BCFD1BB7B83F00103DBB2002BC9D1064B00221A70FFF7FCFD642001F0C7FD00BF1037BD4680BD00BFB082FF1F80B582B000AF002001F0B2FFDB
:40060000002002F035F86020FFF7CAFD7F20FFF7D5FD01F095FF03467B607B68002BB8BF5B42C22B00DCF4E700BF7F20FFF7B8FD9A20FFF7C3FD02F009F803463B603B6875
:40064000002BB8BF5B42D12B00DCF4E700BFFFF7C3FD642001F08EFDFFF7C8FD00BF0837BD4680BD80B584B000AF0023FB6059E002F034FA03467B7202F060FA03463B72B3
:400680002E4B1B68002B07D02C4B1B68013B2B4A1360FFF7ABFD45E00023FB720023BB723B7A002B0BD17B7A002B08D1012002F053FA012002F06EFA0123BB7210E03B7AF5
:4006C000002B05D1012002F047FA0123FB7207E07B7A002B04D1012002F05CFA0123BB72FB7A002B02D1BB7A002B01D0012300E00023FB71FB7903F00103FB71FB79002BD1
:4007000006D0FB680133FB600C4B0D4A1A6007E00023FB60002002F01FFA002002F03AFAFFF764FDFB68002BA2DDFFF755FD642001F020FD00BF1037BD4680BDB482FF1F1B
:40074000F824010080B584B000AF03460A46FB711346BB71BB79002B05D1FB79962202FB03F3FB600DE0BB79012B05D1FB79C82202FB03F3FB6004E0FB79C82202FB03F307
:40078000FB60F868FFF7E0FDFFF726FD4FF47A7001F0F0FC00BF1037BD4680BD80B483B000AF786039607B68002B0ADB7B680E2B07DC3B68002B04DB3B68122B01DC01233B
:4007C00000E0002303F00103DBB218460C37BD4680BC704780B582B000AF7860396039687868FFF7DBFF0346002B0ED00B497A681346DB0013445B001344CA183B68134462
:400800001B78002B01D1012300E0002303F00103DBB218460837BD4680BD00BFD480FF1F80B485B000AFF860B9607A603B60FA687B68D31A83EAE372A2EBE372B9683B68D7
:40084000CB1A002BB8BF5B42134418461437BD4680BC704780B586B000AFF860B9607A603B6000237B6122E0154A7B6952F82320FB68D018134A7B6952F82320BB681344FA
:400880001946FFF7A7FF034683F00103DBB2002B09D17A697B689A4206D07A693B689A4202D0012307E000BF7B6901337B617B69032BD9DD002318461837BD4680BD00BFEA
:4008C000742C0000842C000080B5ACB000AFF860B9607A603B60BB68012B40F389823B681B68C7F8AC30D7F8BC301B68C7F8A830D7F8A830B3F1FF3F32D1FB681B683B674B
:40090000FB685B68FB66FB6808331B68BB66FB6808335B687B660023C7F8A4301CE0994AD7F8A43052F823203B6F1A44BB6E9A420DD1954AD7F8A43052F82320FB6E1A4426
:400940007B6E9A4203D1D7F8A430C7F8A830D7F8A4300133C7F8A430D7F8A430032BDEDD0023C7F8A0300123C7F89C30F7E0D7F89C3003F10053013BDB00FA6813441B6841
:400980003B66D7F89C3003F10053013BDB00FA6813445B68FB65D7F89C30DB00FA6813441B68BB65D7F89C30DB00FA6813445B687B654FF0FF33C7F898300023C7F894307F
:4009C0001CE0704AD7F8943052F823203B6E1A44BB6D9A420DD16C4AD7F8943052F82320FB6D1A447B6D9A4203D1D7F89430C7F89830D7F894300133C7F89430D7F894300D
:400A0000032BDEDDD7F89830023303F003033B65D7F89830FB64BB685A1ED7F89C309A420CBF0123002387F84B3097F84B30002B08D1FB6C3A6D796DB86DFFF70BFF0346E4
:400A4000002B01D0012300E0002387F84A3097F84A3003F0010387F84A30D7F89820D7F8A830D31A03F003037B647B6C002B61D00023C7F890300EE0D7F8AC305A1CC7F8BB
:400A8000AC201A467B68134400221A70D7F890300133C7F89030D7F89020D7F8A0309A4205DAD7F8AC20D7F8B8309A42E4DB0023C7F8A0307B6C012B10D1D7F8AC20D7F80C
:400AC000B8309A420ADAD7F8AC305A1CC7F8AC201A467B68134402221A7026E07B6C032B10D1D7F8AC20D7F8B8309A420ADAD7F8AC305A1CC7F8AC201A467B6813440122E3
:400B00001A7012E07B6C022B0FD1D7F8AC20D7F8B8309A4209DAD7F8AC305A1CC7F8AC201A467B68134403221A70D7F89830C7F8A83008E097F84A30002B04D0D7F8A03082
:400B40000133C7F8A030D7F8B830DA1ED7F8AC309A4211DDD7F89C300133C7F89C30D7F89C20BB689A4208DAD7F8AC20D7F8B8309A42FFF6FCAE00E000BF0023C7F88C30BE
:400B800013E000BF742C0000842C0000D7F8AC305A1CC7F8AC201A467B68134400221A70D7F88C300133C7F88C30D7F88C20D7F8A0309A4205DAD7F8AC20D7F8B8309A4204
:400BC000E4DBD7F8A030002B46D1BB68012B43DDD7F8AC20D7F8B8309A423DDABB6803F10053023BDB00FA6813441B683B64BB6803F10053023BDB00FA6813445B68FB63E8
:400C0000BB6803F10053013BDB00FA6813441B68BB63BB6803F10053013BDB00FA6813445B687B633A6CBB6BD31A83EAE372A2EBE372F96B7B6BCB1A002BB8BF5B421344DC
:400C4000012B09D1D7F8AC305A1CC7F8AC201A467B68134400221A70D7F8C030002B00F0AD800023C7F88830BB6803F10053013BDB00FA6813441B683B63BB6803F1005316
:400C8000013BDB00FA6813445B68FB62BB6803F10053023BDB00FA6813441B68BB62BB6803F10053023BDB00FA6813445B687B624FF0FF33C7F884300023C7F880301CE01C
:400CC0004D4AD7F8803052F823203B6B1A44BB6A9A420DD1494AD7F8803052F82320FB6A1A447B6A9A4203D1D7F88030C7F88430D7F880300133C7F88030D7F88030032BB6
:400D0000DEDDBB68013BFB674AE0FB6FDB00FA6813441B683B62FB6FDB00FA6813445B68FB61FB6F03F10053013BDB00FA6813441B68BB61FB6F03F10053013BDB00FA6888
:400D400013445B687B614FF0FF33BB6700237B6716E0294A7B6F52F823203B6A1A44BB699A420AD1254A7B6F52F82320FB691A447B699A4201D17B6FBB677B6F01337B67E1
:400D80007B6F032BE5DDBA6FD7F884309A420BD1D7F888300133C7F88830FB6F013BFB67FB6F002BB1DC00E000BFD7F8C4309B00D7F8C0201344D7F888201A60D7F8AC200A
:400DC000D7F8B8309A4209DAD7F8AC305A1CC7F8AC201A467B68134404221A703B68D7F8AC201A60D7F8BC30D7F8A8201A6000E000BFB037BD4680BD742C0000842C0000ED
:400E000090B5ADF5125D85B004AF07F14003343B186007F14003383B196007F140033C3B1A60002307F50F5202F13C021360BC4B1B7807F5115202F13C021360B84B5B7868
:400E400007F5115202F138021360052307F5115213604FF0FF3307F50F5202F138021360002307F5115202F13402136000F032BEAC4A07F5115303F134031B6812F81330BC
:400E800007F5105202F13C021360A64A07F5115303F134031B685B0013445B7807F5105202F13802136007F5105303F13803196807F5105303F13C031868FFF78BFC0346C8
:400EC00083F00103DBB2002B0FD007F5115303F134031B689A0007F140033C3B1B6813444FF0FF321A6000F0EABD002307F5115202F130021360002307F5115202F12C0272
:400F0000136094E0002307F5115202F1280213607AE007F5A0720C3A07F5115303F12C0319680B46DB000B445B000B4407F5115101F1280109680B4442F20F7142F8231087
:400F400007F55C62183A07F5115303F12C0319680B46DB000B445B000B4407F5115101F1280109680B44DB0013444FF0FF325A6007F55C62183A07F5115303F12C03196897
:400F80000B46DB000B445B000B4407F5115101F1280109680B44DB001344586807F55C62183A07F5115303F12C0319680B46DB000B445B000B4407F5115101F128010968C2
:400FC0000B4442F8330007F140022C3A07F5115303F12C0319680B46DB000B445B000B441A4407F5115303F128031B68134400221A7007F5115303F128031B68013307F5D7
:40100000115202F12802136007F5115303F128031B68122B7FF77DAF07F5115303F12C031B68013307F5115202F12C02136007F5115303F12C031B680E2B7FF763AF07F5EC
:40104000A0720C3A07F5115303F13C0319680B46DB000B445B000B4407F5115101F1380109680B44002142F8231007F5115303F130031C68631C07F5115202F13002136087
:4010800007F5105303F138031B6807F5105202F13C02126807F5115101F13801096807F5115000F13C000068FFF7BAFB014607F5B45202F1100223465B0023449B00134414
:4010C00007F5115202F13C0212681A6007F5B45202F1100223465B0023449B001344043307F5115202F1380212681A6007F5B45202F1100223465B0023449B001344083332
:4011000019602BE2002307F5115202F124021360012307F5115202F1200213603BE000BFF481FF1FF881FF1F07F5B45101F1100107F5115303F120031A6813465B00134404
:401140009B000B440833196807F5B45000F1100007F5115303F124031A6813465B0013449B00034408331B68994209DA07F5115303F120031B6807F5115202F1240213607D
:4011800007F5115303F120031B68013307F5115202F12002136007F5115303F120031A6807F5115303F130031B689A42BCDB07F5B45101F1100107F5115303F124031A68A3
:4011C00013465B0013449B00CA1807F50F5303F12C0307CA83E8070007F5115303F130031B68013B07F5115202F13002136007F5B45101F1100107F5115303F124031A6865
:4012000013465B0013449B00C81807F5B45101F1100107F5115303F130031A6813465B0013449B00CA18034607CA83E8070007F50F5303F12C03196807F50F5303F1300380
:40124000186807F140022C3A0B46DB000B445B000B44134403441B78002B00D07EE107F50F5303F12C03196807F50F5303F13003186807F140022C3A0B46DB000B445B0021
:401280000B441344034401221A7007F50F5303F12C031A6807F5105303F13C031B689A420CD107F50F5303F130031A6807F5105303F138031B689A4200F05981002307F5E6
:4012C000115202F11C02136040E107F50F5303F12C031A68D54907F5115303F11C031B6851F82330134407F5105202F13402136007F50F5303F130031A68CD4907F5115365
:4013000003F11C031B6851F82330134407F5105202F13002136007F5105303F13003196807F5105303F134031868FFF753FA034683F00103DBB2002B40F0FC8007F140027C
:401340002C3A07F5105303F1340319680B46DB000B445B000B441A4407F5105303F130031B6813441B78002B40F0E48007F50F5303F12C03196807F50F5303F130031868C0
:4013800007F5A0720C3A0B46DB000B445B000B44034452F82330013307F5105202F12C02136007F5A0720C3A07F5105303F1340319680B46DB000B445B000B4407F51051C9
:4013C00001F1300109680B4452F8232007F5105303F12C031B689A4240F3AD8007F5A0720C3A07F5105303F1340319680B46DB000B445B000B4407F5105101F130010968C7
:401400000B4407F5105101F12C01096842F8231007F50F5303F12C03186807F55C62183A07F5105303F1340319680B46DB000B445B000B4407F5105101F1300109680B4486
:4014400042F8330007F50F5303F13003186807F55C62183A07F5105303F1340319680B46DB000B445B000B4407F5105101F1300109680B44DB001344586007F5105303F141
:4014800038031B6807F5105202F13C02126807F5105101F13001096807F5105000F134000068FFF7BDF9024607F5105303F12C031B68134407F5105202F12802136007F551
:4014C000115303F130031A68531C07F5115101F130010B6007F5B45101F1100113465B0013449B000B4407F5105101F134010968196007F5B45101F1100113465B0013440E
:401500009B000B44043307F5105101F130010968196007F5B45101F1100113465B0013449B000B44083307F5105202F1280212681A6000E000BF07F5115303F11C031B68E8
:40154000013307F5115202F11C02136007F5115303F11C031B68032B7FF7B7AE07F5115303F130031B68002B3FF7CCAD00E000BF002307F5115202F11802136007F5105371
:4015800003F13C031B6807F5115202F11402136007F5105303F138031B6807F5115202F1100213609AE007F5B863183B07F5115202F11802126807F5115101F11401096812
:4015C00043F8321007F5B862183A07F5115303F118031B68DB00134407F5115202F1100212685A6007F5115303F114031A6807F5115303F13C031B689A421BD107F511531F
:4016000003F110031A6807F5115303F138031B689A420FD107F5115303F118031B68013307F5115202F1180213606FE0742C0000842C000007F55C62183A07F5115303F14F
:40164000140319680B46DB000B445B000B4407F5115101F1100109680B4452F8333007F5105202F12402136007F55C62183A07F5115303F1140319680B46DB000B445B0027
:401680000B4407F5115101F1100109680B44DB0013445B6807F5105202F12002136007F5105303F124031B6807F5115202F11402136007F5105303F120031B6807F51152AF
:4016C00002F11002136007F5115303F118031B68013307F5115202F11802136007F5115303F114031B68B3F1FF3F0FD007F5115303F110031B68B3F1FF3F07D007F51153BB
:4017000003F118031B68FF2B7FF74DAF07F5115303F118031B68012B0EDC07F5115303F134031B689A0007F140033C3B1B6813444FF0FF321A60C2E1002307F5115202F13D
:401740000C0213608EE007F5B863183B07F5115202F10C02126853F8323007F5105202F11C02136007F5B862183A07F5115303F10C031B68DB0013445B6807F5105202F113
:401780001802136007F5115303F118031B685A1E07F5115303F10C031B68D21A07F5B863183B53F8321007F5B863183B07F5115202F10C02126843F8321007F5115303F154
:4017C00018031B685A1E07F5115303F10C031B68D31A07F5B862183ADB001344596807F5B862183A07F5115303F10C031B68DB001344596007F5115303F118031B685A1E02
:4018000007F5115303F10C031B68D21A07F5B863183B07F5105101F11C01096843F8321007F5115303F118031B685A1E07F5115303F10C031B68D31A07F5B862183ADB0092
:40184000134407F5105202F1180212685A6007F5115303F10C031B68013307F5115202F10C02136007F5115303F118031B68DA0F13445B101A4607F5115303F10C031B68A2
:401880009A423FF760AF4FF0FF3307F5115202F10802136007F5B863183B1B6807F5105202F11402136007F5B863183B5B6807F5105202F11002136007F5B863183B9B6890
:4018C00007F5105202F10C02136007F5B863183BDB6807F5105202F108021360002307F5115202F1040213603EE08B4A07F5115303F104031B6852F8232007F5105303F1FC
:4019000014031B681A4407F5105303F10C031B689A421ED1814A07F5115303F104031B6852F8232007F5105303F110031B681A4407F5105303F108031B689A4209D107F5EF
:40194000115303F104031B6807F5115202F10802136007F5115303F104031B68013307F5115202F10402136007F5115303F104031B68032BB9DD07F50F5303F138031B6827
:40198000B3F1FF3F5FD007F50F5303F138031B68614A52F8233007F5115202F13C021268D31A07F5105202F10402136007F50F5303F138031B68594A52F8233007F511524E
:4019C00002F138021268D31A07F51052136007F5B863183B9A6807F5105303F104031B689A4230D107F5B863183BDA6807F510531B689A4227D107F50F5303F13C031A68E7
:401A000007F14003383B1B689A421CDA07F50F5303F13C031B685A1C07F50F5101F13C010A601A4607F14003343B1B68134403221A7007F5115303F108031B6807F50F5252
:401A400002F13802136007F50F5101F13C0107F14002343A07F5B860183807F5115303F134031B68039307F140033C3B1B68029307F50F5303F13803019307F14003383BF2
:401A80001B6800930B46126807F5115101F118010968FEF719FF07F5105303F13C031B6807F5115202F13C02136007F5105303F138031B6807F5115202F13802136007F53A
:401AC000115303F134031B68013307F5115202F13402136007F5115303F134031A6807F511531B689A420BDA07F50F5303F13C031A6807F14003383B1B689A42FFF6B8A97E
:401B000007F50F5303F13C031B68184607F512570437BD4690BD00BF742C0000842C000080B582B000AF786039603A680021786801F095F800BF0837BD4680BD80B584B0E5
:401B400000AFF860B9607A607A68B968F86801F07BF800BF1037BD4680BD00BF80B483B000AF0346FB71FEE780B487B000AF7860396000233B6100237B6127E07B699B0020
:401B80007A6813441B68BB60BB68FB73BB6823F0FF03BB6014E03B695B003A6813441B781A46BB68134419463B695B003A6813445B780B703B6901333B61FB7B013BFB73D8
:401BC000FB7B002BE7D17B6901337B617B69262BD4D900BF1C37BD4680BC704780B582B000AF3A4B04221A80394B18221A70394B17221A80384B19221A70384B81221A80AC
:401C0000374B18221A70374B40F22B121A80364B18221A70354B06221A70354B52221A70344B354A1278D2B21A70344B40F619121A80334B41F251221A800023FB70192346
:401C40007B6014E0FB785B00DAB22E4B1B78DBB203F00103DBB21343DBB203F00303FB704FF4F07000F0B4FF7B68013B7B607B68002B02D0FB78032BE4D17B68002B02D180
:401C80000320FFF76BFF204B4FF480721A801E4B07221A701D4B00221A701D4B48221A70194B00221A701B4B00221A701A4B02221A701A4A194B1B78DBB243F00F03DBB2EC
:401CC000137000BF0837BD4680BD00BF80400040824000408440004086400040884000408A4000408C4000408E4000400043004000420040A14600400F0100492242004003
:401D000020420040254200400440004006400040084000400940004001400040A243004080B483B000AF0B4B1B78FB710A4AFB7903F00703DBB21370084AFB791B09DBB2E2
:401D40001370074B44221A7000BF0C37BD4680BC704700BFCF0100496E5800406F5800407658004080B582B000AF72B63E4B61221A70FFF733FF3C4B01221A700023FB71F4
:401D800013E0FA7913465B0013445B00374A13443B603B681A683B689B889BB219461046FFF7BEFEFB790133FB71FB79062BE8D92F494FF09040FFF7D7FE2E4B2E4A1A600E
:401DC0002E4B2D4A1A602E4A2D4B1B78DBB243F00203DBB213702B4A2A4B1B78DBB243F00203DBB21370284A274B1B78DBB243F04003DBB21370254A244B1B78DBB243F014
:401E00001003DBB21370082221492248FFF796FE082221492148FFF791FE0A2220492148FFF78CFE082220492048FFF787FE0A221F492048FFF782FE08221F491F48FFF720
:401E40007DFE1F4A1E4B1B78DBB243F00803DBB21370FFF765FF0E220B491A48FFF76EFE00BF0837BD4680BD00480040942C00009C000048D8080140040404C4D81401407D
:401E80000350014013500140A0430040C24300403C0B004802510040440B0048C25100404C0B0048F0510040580B004812510040600B0048205100406C0B00483251004022
:401EC00022430040B043004080B500AF00F090FE03461B680C2B00D1FEE7FEE780B586B000AF224B7B61224B3B61204B7B6135E03B691B68FB603B695B68BB603B699B6897
:401F00003B6000237B600CE0FB681A68BB681A60BB680433BB60FB680433FB607B6804337B607A683B689A42EED13B69DB683B6000237B6008E0BB6800221A60BB6804339A
:401F4000BB607B6804337B607A683B689A42F2D13B6910333B617B69013B7B617B69002BC6D100F04BFEFEF799F8FEE701000000E42C000080B582B000AF184B184A1A60FE
:401F8000184A184B1B6843F40073136000237B600FE07B68032B04D8134A7B6852F8233000E0124B12497A6841F822307B6801337B607B682F2BECD90E4B1B78DAB20E4B3B
:401FC0001A700E4B0A4A1A60FFF7CCFE0C4B00221A6000BF0837BD4680BD00BF0CED00E00004FA0514ED00E000000000C91E00000080FF1FBC760040C480FF1F08ED00E095
:40200000C080FF1F80B500AF224A224B1B78DBB203F00103DBB213701F4A1F4B1B78DBB223F00303DBB213701C4A1C4B1B78DBB223F03003DBB21370184A184B1B78DBB21A
:4020400043F03003DBB21370144A144B1B78DBB223F00F03DBB21370104A104B1B78DBB243F00F03DBB213700D4A0D4B1B78DBB243F00103DBB213704FF6FF7000F058F8A4
:402080004FF6FF7000F066F8082000F041F800BF80BD00BF184F00401A4F0040234F0040194F004080B400AF0D4A0D4B1B78DBB243F00403DBB213700A4A0A4B1B78DBB2A3
:4020C00043F00403DBB21370074A074B1B78DBB243F00103DBB2137000BFBD4680BC7047A3430040B3430040184F004080B500AF064B1B78002B04D1FFF784FF034B012222
:402100001A70FFF7CFFF00BF80BD00BFB882FF1F80B483B000AF0346FB71044AFB79137000BF0C37BD4680BC704700BF1B4F004080B485B000AF0346FB80FB88FB81044AA4
:40214000FB89138000BF1437BD4680BC704700BF1C4F004080B483B000AF0346FB80044AFB88138000BF0C37BD4680BC704700BF1E4F004080B582B000AF786008E00C4B0F
:402180001B68184600F024FD7B68A3F500437B607B68B3F5004FF2D8064B1B687A6802FB03F3184600F014FD00BF0837BD4680BD1082FF1F0882FF1F80B500AF064B1B788A
:4021C000002B04D100F00AF8034B01221A7000F063F800BF80BD00BFB982FF1F80B582B000AF284A274B1B78DBB243F00203DBB21370254B1B78DBB223F07003FB71224A43
:40220000FB7943F01003DBB21370204A1F4B1B78DBB223F03003DBB213701C4A1B4B1B78DBB243F03003DBB21370184A174B1B78DBB223F00F03DBB21370144A134B1B78C0
:40224000DBB243F00F03DBB21370FF2000F048F87F2000F055F8002000F062F80C4A0C4B1B78DBB243F00103DBB21370094A094B1B78DBB243F00103DBB2137000BF0837C7
:40228000BD4680BD004F0040024F00400B4F0040A3430040014F004080B400AF0D4A0D4B1B78DBB243F00103DBB213700A4A0A4B1B78DBB243F00103DBB21370074A074BC2
:4022C0001B78DBB243F00103DBB2137000BFBD4680BC7047A3430040B3430040004F004080B483B000AF0346FB71044BFA7992B21A8000BF0C37BD4680BC7047044F0040E1
:4023000080B483B000AF0346FB71044BFA7992B21A8000BF0C37BD4680BC7047064F004080B483B000AF0346FB71044AFB79137000BF0C37BD4680BC704700BF034F00404C
:4023400080B500AF064B1B78002B04D100F00AF8034B01221A7000F063F800BF80BD00BFBA82FF1F80B582B000AF284A274B1B78DBB243F00203DBB21370254B1B78DBB256
:4023800023F07003FB71224AFB7943F01003DBB21370204A1F4B1B78DBB223F03003DBB213701C4A1B4B1B78DBB243F03003DBB21370184A174B1B78DBB223F00F03DBB2B3
:4023C0001370144A134B1B78DBB243F00F03DBB21370FF2000F048F87F2000F055F8002000F062F80C4A0C4B1B78DBB243F00203DBB21370094A094B1B78DBB243F0010381
:40240000DBB2137000BF0837BD4680BD0C4F00400E4F0040174F0040A34300400D4F004080B400AF0D4A0D4B1B78DBB243F00203DBB213700A4A0A4B1B78DBB243F00203B3
:40244000DBB21370074A074B1B78DBB243F00103DBB2137000BFBD4680BC7047A3430040B34300400C4F004080B483B000AF0346FB71044BFA7992B21A8000BF0C37BD4626
:4024800080BC7047104F004080B483B000AF0346FB71044BFA7992B21A8000BF0C37BD4680BC7047124F004080B483B000AF0346FB71044AFB79137000BF0C37BD4680BC35
:4024C000704700BF0F4F004080B400AF00BFBD4680BC704780B582B000AF0F2000F06AF800F05AF800F07CFB0346FB71074A074B1B78DBB243F01003DBB21370FB79184650
:4025000000F072FB00BF0837BD4680BD9764004080B500AF00F034F94FF4004000F05EF9064B1B78002B04D1FFF7CEFF034B01221A70FFF7CFFF00BF80BD00BFBB82FF1F7E
:4025400080B582B000AF00F059F90346FB80FB88A3F500439BB2BB80B7F9043018460837BD4680BD80B584B000AF0346FB80B7F90630002B04DBFB88A3F50043FB8103E00F
:40258000FB88A3F50043FB81FB89184600F026F900BF1037BD4680BD80B400AF044B1B78DBB203F00F03DBB21846BD4680BC70476764004080B483B000AF0346FB71044AAE
:4025C000FB79137000BF0C37BD4680BC704700BF8764004080B400AF00BFBD4680BC704780B582B000AF0F2000F06AF800F05AF800F0F6FA0346FB71074A074B1B78DBB239
:4026000043F01003DBB21370FB79184600F0ECFA00BF0837BD4680BD9864004080B500AF00F086F94FF4004000F0B0F9064B1B78002B04D1FFF7CEFF034B01221A70FFF71B
:40264000CFFF00BF80BD00BFBC82FF1F80B582B000AF00F0ABF90346FB80FB88A3F500439BB2BB80B7F9043018460837BD4680BD80B584B000AF0346FB80B7F90630002B73
:4026800004DBFB88A3F50043FB8103E0FB88A3F50043FB81FB89184600F078F900BF1037BD4680BD80B400AF044B1B78DBB203F00F03DBB21846BD4680BC704768640040D7
:4026C00080B483B000AF0346FB71044AFB79137000BF0C37BD4680BC704700BF8864004080B582B000AF1C4B1B78DBB223F00703FB71194AFB791370174B1B78DBB223F0D2
:402700000303FB71144AFB79137000F0B3F84FF4004000F08FF84FF4004000F05FF8002000F040F800F04EF84FF4004000F092F800F056FA0346BB71084A084B1B78DBB27E
:4027400043F01003DBB21370BB79184600F04CFA00BF0837BD4680BD776400409565004080B400AF054A054B1B78DBB263F07F03DBB2137000BFBD4680BC70477764004051
:4027800080B500AF064B1B78002B04D1FFF7A8FF034B01221A70FFF7E3FF00BF80BD00BFBD82FF1F80B483B000AF0346FB71044AFB79137000BF0C37BD4680BC704700BF02
:4027C0008565004080B400AF034B1B78DBB21846BD4680BC704700BF6565004080B483B000AF0346FB80044AFB88138000BF0C37BD4680BC704700BF086A004080B400AFB7
:40280000044B1B78044B1B889BB21846BD4680BC704700BF04650040886A004080B400AF034B1B889BB21846BD4680BC704700BF886A004080B483B000AF0346FB80044AFB
:40284000FB88138000BF0C37BD4680BC704700BF486A004080B483B000AF0346FB80044AFB88138000BF0C37BD4680BC704700BF686A004080B500AF01E0FFF7CFFFFFF713
:40288000A1FF034603F04003002BF6D100BF80BD80B582B000AF1C4B1B78DBB223F00703FB71194AFB791370174B1B78DBB223F00303FB71144AFB79137000F0B3F84FF451
:4028C000004000F08FF84FF4004000F05FF8002000F040F800F04EF84FF4004000F092F800F07EF90346BB71084A084B1B78DBB243F01003DBB21370BB79184600F074F9F6
:4029000000BF0837BD4680BD746400409964004080B400AF054A054B1B78DBB263F07F03DBB2137000BFBD4680BC70477464004080B500AF064B1B78002B04D1FFF7A8FF4B
:40294000034B01221A70FFF7E3FF00BF80BD00BFBE82FF1F80B483B000AF0346FB71044AFB79137000BF0C37BD4680BC704700BF8964004080B400AF034B1B78DBB21846C8
:40298000BD4680BC704700BF6964004080B483B000AF0346FB80044AFB88138000BF0C37BD4680BC704700BF1068004080B400AF044B1B78044B1B889BB21846BD4680BC07
:4029C000704700BF086400409068004080B400AF034B1B889BB21846BD4680BC704700BF9068004080B483B000AF0346FB80044AFB88138000BF0C37BD4680BC704700BF1C
:402A00005068004080B483B000AF0346FB80044AFB88138000BF0C37BD4680BC704700BF7068004080B500AF01E0FFF7CFFFFFF7A1FF034603F04003002BF6D100BF80BD05
:402A400080B582B000AF786000F03CF8786800F009F8072000F018F800F028F800BF0837BD4680BD80B485B000AF7860054B1B68FB60FB6854337A681A6000BF1437BD468D
:402A800080BC704708ED00E080B483B000AF0346FB71054AFB795B01DBB2137000BF0C37BD4680BC704700BF05E400E080B400AF034B20221A6000BFBD4680BC704700BF73
:402AC00000E100E080B400AF034B20221A6000BFBD4680BC704700BF80E100E080B400AF054B1B78DBB203F040039B09DBB21846BD4680BC704700BF2151004080B400AF11
:402B0000054B1B78DBB203F004039B08DBB21846BD4680BC704700BF3151004080B400AF054B1B78DBB203F08003DB09DBB21846BD4680BC704700BF3151004080B400AF34
:402B4000044B1B78DBB203F00103DBB21846BD4680BC7047F151004080B485B000AF0346FB710B4B1B78DBB223F01003FB730849FB791B01DBB203F01003DAB2FB7B1343E9
:402B8000DBB20B7000BF1437BD4680BC704700BFF051004080B485B000AF0346FB710A4B1B78DBB223F00103FB730749FB7903F00103DAB2FB7B1343DBB20B7000BF1437E1
:402BC000BD4680BC704700BF10510040000000000230800803D000BF01380046FCD17047EFF3108072B6704780F31088704700BF014B1868704700BF7482FF1F0E4B70B58A
:402C00001E460E4C0025E41AA410A54204D056F8253098470135F8E700F052F8084B094C1E46E41AA4100025A54204D056F8253098470135F8E770BDCC2C0000CC2C000021
:402C4000CC2C0000D42C000010B5431E0A44914204D011F8014B03F8014FF8E710BD03460244934202D003F8011BFAE770470000000000000000000001000000000000000F
:402C8000FFFFFFFF0100000000000000FFFFFFFF00000000004F0040240040510040300000000140001000140140000800400140000A004C014000020050014020004300AB
:402CC000F8B500BFF8BC08BC9E4670474D000000751F0000F8B500BFF8BC08BC9E46704729000000F82C0000C880FF1FB00100004800000000000000000000009A9DA29ED2
:402D0000AAA500000101010101010101010101010101010101010101000100000000000000000000000000000001010001000101010101000101010001010100010100001F
:402D40000001000000010000000000000001000101010100010001000101010001000101010001010000000100010000000100010000000000010100010101000100010036
:402D800001000100010101000101000100010000000100010001000100000001010001000100010101000100010001000101010100000001000100000001000000010000F4
:402DC00000010101010001000101010101010101010101000101000000000000000000000000000000000001010001010101010101010101010001010101010100000000AE
:402E00000000000100000000000000000001010101010101010101010101010101010101010000000B0100000D070D010D070D010D0700000087930360EA00003C00000076
:402E4000000030750000000000000000000000000000000000000000000000000000000000000000BE2C0000000000000000000000000000000000000000000000000000C3
:402E80000000000000000000000000000000000000000000000000000000000000000000000000001482FF1F0000000000000000000000000000000000000000000000005E
:402EC00000000000000000000000000000000000000000000000000000000000000000000000000000000000000000000000000000000000000000000000000000000000D2
:402F00000000000000000000000000000000000000000000000000000000000000000000000000000000000000000000000000000000000000000000000000000000000091
:402F40000000000000000000000000000000000000000000000000000000000000000000000000000000000000000000000000000000000000000000000000000000000051
:402F80000000000000000000000000000000000000000000000000000000000000000000000000000000000000000000000000000000000000000000000000000000000011
:020000040003F7
:0200000480007A
:4000000001450040064F004006520040046400400365004052000140350101405D0201404403014053040140540501405206014055070140640801404C090140040A014091
:400040000B0B0140030D0140020F014069140140511501405C1601405C17014009190140041B01400B4001400D41014018420140104301400144014007450140064601400D
:40008000094701400C4801400A490140044C0140054D01400B500140025101407E0201300A4B0D30164B1910224B1108182819286004611C7C408572870F880F896F840F12
:4000C000856F8638031004400680081E0C0A0D010E140F0A104012A014401502168017011A011C801D011E401F02201822062414260A280629012A182B022C0E2D04300152
:40010000310432203303341E351036C037083A803B083F015608580459045B045D905F0180618202859487608D308FC99004930F94609573960498379C579DFD9F02A19EB4
:40014000A280A360A401A5CFA602A730AA08AE07B280B3FFB470B60FB820BF04D608D804D904DB04DD90DF010128030205020AA20B080C400E080FA0108112081304140253
:40018000150416801720184819281A021B401C081E2A21012298272029402B382D022F2C328834423605374438403B013D4C3F8058805F406301668082018941C017C2FFD4
:4001C000C4FFCACCCCDACE59D618D818E080E228E401000B010F02040503070C09100A0F0C0C0D050E010F0A15071620180C19101A02210A2305250C2610270328072910E5
:400200002C082D102E01310F32203310340F36103F04580459045F018044813B82208444855D86108720880289668A018B108C018E0294709540970898019A829C019D66D2
:400240009E029F08A034A240A404A610AA08AB78AE74AF80B074B107B20CB3C0B403B578B680B902BA20C006C604C9FFCA07CBFFCC40CD20CEF0CF05D008D804D904DA0454
:40028000DD02DF01E040E1A8E240E32001A2032004800748080409400A040D200E20114A13281540162818A419A21D241E021F20200821152204230425012604274029206F
:4002C0002B012D022F2530803208340436203704380839223D4A3F10484049105280780179028080900891409222968097449A089B049C819D029F40A218A480A504A72A42
:40030000AC04AE08C0DFC267C4EFCAFCCC6ACEF7D204EC0204C5063A08960A680B010C7F11961368150E17F019A31A011B5C1DFE1F0120A321C5225C233A24FE257F260161
:40034000280E2AF030FF33FF3E013F045280580459045B045F0180048309843087208810894F8C208D078F48903C911092C1932094FF950298CF99499A309B069D049EC3BB
:40038000A004A208A310A408A506A906AA0CAB49AC7CAD09AE82B0B0B108B23FB330B470B507B740B980BA0ABB20D602D712D804D904DB04DC22DD20DF0100080120030280
:4003C000050806450A080D200E410F101080110412081580161017111B011E501F15232025312620271229022A082C402D882E103108320133603540362037053828390421
:400400003C043E413F10410143025E08600462106C286E807102754876057704814082108B408D229028912A922A9684971A982099269A089B409D109E209F20A044A29D3B
:40044000A320A480A544A620A709A804AB02AF40B430C0F7C2F2C4FECAF3CCFFCEF4D640E6810504060107020E0213081502170419021B0423082B012C042D022F0430014C
:40048000320233063508360437013B083E403F105608580459045B045D905F0180028173820485FD86048702899E8A018B609594960897609A069DCF9E209F30A202A30F72
:4004C000A410A930ABC9B008B1FFB210B420B607BB08BE44BF01C024C101C50EC6C0C70BC819C9FFCAFFCBFFCEF0CF44D00CD280D40FD804D904DA04DB04DC20DD02DF019B
:40050000E6C0EA40EB0200960302054409400A2810401260140119881A841F4921022310254C2708288029202D022F0530803208350436103702380839223D0A3F014002D1
:40054000412043024A205204532058045A425B105C085D405F28654067087280808081028602880189048A099008912E92209320940496859790982499249B029C409D9048
:400580009E609F01A068A111A2D9A480A54CA708B004B302B740C0AEC207C48CCAB5CCEACE47D00DD63FD830E001E420E601EA01060309C00B240C040DC10F12118413100A
:4005C0001601170818011E0C1F07217729B72B402D012FF23008310F3201340235F036043E444035410249FF4AFF4BFF4DA04F015018540F580459045A045B045F01604057
:40060000628064406540668068406A806C406D206E808502870188088D03900291049B0CA003A20CA303A403B001B108B204B302B408B504B602B701B882BE50BF54C0314F
:40064000C102C532C6C4C70EC81FC9FFCAFFCBFFCDAFCE07CF01D018D40FD804D904DA04DB04DF05E040E280E440E540E680E840EA80EC40ED20EE8000100440071008827A
:4006800009800D400E1810A0181119021A061C401D481E082004218223102510274829022D802F48303031023601374438403A083DA04001410842084508460848A04E01D4
:4006C00051405224581059415A045C805D045F12622468086B017802800481018344880889809210938098029A089B12A201A908B340B702C0A2C2E8C40CCAB1CCD5CE3A05
:40070000D06ED210D6FFD806DE01E480E810EC80B908BF04D904DF0125088E1198029A089B10B710E010E410E601EA40EC4098029A08AC028208E208005102A20480062264
:40074000090A0A0C0B340F08183019331AC31B0C1D331F04204021402211231524F325032604271428F32A083160320F331034F0350F39023A083B203F044063410449FF0A
:400780004AFF4BFF4DA04F01501854015604580459045A045B045C225D205F016040628064406540668068406A806C406D206E80830390089C039D02A001AC03AE0CB004FD
:4007C000B101B201B408B602B702B888BE14BF40C063C104C52CC640C73EC83BC9FFCAFFCBFFCDAFCE07CF01D018D40FD804D904DA04DB04DF05E040E280E440E540E6809D
:40080000E840EA80EC40ED20EE8000160A080E800F02102812401503160218101A081D081E881F40202021202340274228102A012B2031203240374038203B403F02408081
:4008400041084480450848044A084E084F06562A581259885C405D105E085F026101660867047D0184108580880289108A208B018D019064910292809410960897C09880B7
:4008800099089A419E20A02DA220A320A520AD20AF12B201C00EC292C49ECA03CC1CCE8CD0C3D224D6FFD861DE80E660020104010A040E04100211071402170818021D0218
:4008C0001F01230326012B0430043104330234013508360237013E113F45402141034206440545E0470C481249FF4AFF4BFF4C624DA04EF04F41500C5418560458045904E2
:400900005A045B045C025D225F016640670269106A306B106D106E106F1281108514891C8B028D098E238F109061920E945C952096039703986199109A169B0C9D0C9F11A7
:40094000A208AE1CB01AB120B20FB31FB460B820BA0ABE10BF01D608D804D904DB04DC22DD90DF0100800201040806880702080209200AA00C280E801101128013401508FD
:400980001708182019101AA01C081D801E011F01210822012448254027102E202F4031283240348036013708382039013A043B403D803E40441045904DA2560858205B40E8
:4009C0005F016004624064186602671268016B01910A93319414964998A899889A849B409C029D129E629F11A068A110A2E1A320A401A520AB40AC80B110B404B540B7205D
:400A0000C0F1C27EC429CAA0CCDECE0FD070D230D68CD8BCE840EA0AEC10EE019B01AF08B002B144B708E810EA02EC20EE018B019B01E620E82032403301340835803820EB
:400A4000858088108B01CCF0CE10E21000080740308083409420968098109C089F01A701C030CC10E4801310508054405B045C0161088240888094209680971098109C083E
:400A80009F01A701AC04B080B310C440D460D6C0D840E680EC401B011C8084088840942098109C089F01A440A701A801A908AB04C630E610EA80871003080A205810971061
:400AC000C002C208D401800297109C10A308B610EA0208020B040F10890897109C12A308C20EE40402020502942098109D02A301A602AF01B502B602C060EA405F20630243
:400B000064108B208C1094209810A301D660D8809C10A108AB08AF047108A108B010DC01E80400050101080509010A050B010C01100511011A051B0100EA010B1300000055
:400B400000000000001C1C001C0000004000073838000000C0000000000B0B00000000000800740A0A00080000000000847B7B00380000000000000000000000000000004A
:400B80000000000000000000000000000000000000000000000000000000000000000000000000000000000000000000000000000000000000000000000000000000000035
:400BC00000000000000000000000000000000000000000000000000000000000000000000000000000000000000000000000000000000000000000000000000000000000F5
:400C000000000000000000000000000000000000000000000000000000000000000000000000000000000000000000000000000000000000000000000000000000000000B4
:400C40000000000000000000000000000000000000000000000000000000000000000000000000000000000000000000000000000000000000000000000000000000000074
:0200000490006A
:0400000000004007B5
:0200000490105A
:04000000BC90ACAF55
:0200000490303A
:020000000F9857
:0200000490402A
:4000000000000000000000000000000000000000000000000000000000000000000000000000000000000000000000000000000000000000000000000000000000000000C0
:400040000000000000000000000000000000000000000000000000000000000000000000000000000000000000000000000000000000000000000000000000000000000080
:400080000000000000000000000000000000000000000000000000000000000000000000000000000000000000000000000000000000000000000000000000000000000040
:4000C0000000000000000000000000000000000000000000000000000000000000000000000000000000000000000000000000000000000000000000000000000000000000
:0200000490501A
:0C00000000012E16106900012E2B2001BB
:00000001FF