:400000000080002011000000B5090000B509000080B500AF024A034B1B68136000F0D4FCBC760040FA46004010B5054C237833B9044B13B10448AFF300800123237010BDCB
:400040006081FF1F00000000003B0000084B10B51BB108490848AFF300800848036803B910BD074B002BFBD0BDE81040184700BF000000006481FF1F003B0000C880FF1F5C
:400080000000000080B584B000AF344B1B8801339AB2324B1A80314B1B88632B05D92F4B00221A802E4B01221A702E4B1B8801339AB22C4B1A802B4B1B88B3F57A7F05D349
:4000C000284B00221A80284B01221A70244B1B78002B3CD0224B00221A7002F0F1FE0346FB60224B1B68FA68D31ABB601F4AFB6813601F4AFB681360B86803F01DFB03468E
:400100001C49184603F06CFB03467B601A4A7B681360194B1B681949184603F015FC03463B603B681946184603F052FA03461449184603F055FB03461A46124B1A60124974
:40014000386803F04DFB03461A46104B1A6000F063FD00BF1037BD4680BD00BF8281FF1F8881FF1F8481FF1F8981FF1F9081FF1F9481FF1F0000C8429881FF1F00006443F4
:40018000DB0F49409C81FF1F00007042A081FF1F80B582B000AF62B602F0CEFC02F090FD02F076FE002002F09DFE02F089FE03461A46214B1A600121002000F05BFD1F482B
:4001C00002F0A0FF00F006FD03F050F903F0F6F803F09CF803F042F800F0C6F80346FB71FB79184600F08CF9154B1B78002B05D0134B00221A7000F0C3F9EDE7104B5B7855
:40020000002B05D00E4B00225A7000F0C3F9E3E70B4B9B78002B05D0094B00229A7000F0C3F9D9E7064BDB78002BD5D0044B0022DA7000F0C3F9CFE79081FF1F8500000069
:40024000A881FF1F80B500AF05E0A72002F0DCFD572002F015FD02F0E3FF0346012BF4D000BF80BD80B500AF05E0A72002F008FD572002F0C9FD02F0C3FF0346012BF4D0B5
:4002800000BF80BD80B500AF912002F0BDFD4FF4827002F06DFB0C2002F0B6FD00BF80BD80B500AF912002F0EBFC4FF4827002F05FFB0C2002F0E4FC00BF80BD80B500AFD8
:4002C00002F0AEFF03465AB2264B1B785BB213435BB2DAB2234B1A7002F0B2FF03465B005AB2204B1B785BB213435BB2DAB21D4B1A7002F055FF03469B005AB2194B1B78A6
:400300005BB213435BB2DAB2164B1A7002F068FF0346DB005AB2134B1B785BB213435BB2DAB2104B1A7002F04BFF03461B015AB20C4B1B785BB213435BB2DAB2094B1A700A
:4003400002F05EFF03465B015AB2064B1B785BB213435BB2DAB2034B1A70024B1B78184680BD00BFBA81FF1F80B582B000AFFFF7A5FF0346FB71FB793F2B00F2A78001A233
:4003800052F823F0C9040000CD0400009D040000CD040000CD040000CD040000CD040000CD04000091040000CD04000085040000C1040000CD040000CD040000CD04000065
:4003C000B9040000CD040000CD040000CD040000CD040000CD040000CD040000A1040000CD040000CD040000CD040000CD040000CD04000095040000CD04000089040000A9
:40040000CD040000CD040000CD040000CD040000A5040000CD040000CD040000CD040000CD040000CD04000099040000AD0400008D040000CD040000CD040000CD04000068
:40044000BD040000CD040000CD040000CD040000CD040000CD040000CD040000CD040000CD040000CD040000CD040000B1040000B5040000A9040000CD040000CD040000D4
:40048000C5040000002322E0002320E000231EE001231CE001231AE0012318E0022316E0022314E0022312E0042310E004230EE004230CE004230AE0032308E0032306E0FB
:4004C000032304E0062302E0052300E0052318460837BD4680BD00BF80B500AFB02002F0CFFBB52002F090FC00BF80BD80B500AF7F2002F0C5FB7F2002F086FC00BF80BD18
:4005000080B582B000AF0346FB71FB79052B05D1FFF7ECFF194B00221A702BE0FB79032B05D1FFF7AFFE154B01221A7022E0FB79042B05D1FFF7B4FE104B02221A7019E02D
:40054000FB79012B05D1FFF77DFE0C4B00221A7010E0FB79022B05D1FFF784FE074B00221A7007E0FB79002B04D1FFF7B5FF034B00221A7000BF0837BD4680BDB081FF1F28
:4005800080B500AFB22002F07BFBB32002F03CFC00BF80BD80B500AFAE2002F071FBB72002F032FC00BF80BD80B500AFAE2002F067FBB72002F028FC00BF80BD80B500AF4E
:4005C000B22002F05DFBB32002F01EFC00BF80BD80B582B000AF786039603A680021786803F085FA00BF0837BD4680BD80B584B000AFF860B9607A607A68B968F86803F071
:400600006BFA00BF1037BD4680BD00BF80B483B000AF0346FB71FEE780B487B000AF7860396000233B6100237B6127E07B699B007A6813441B68BB60BB68FB73BB6823F033
:40064000FF03BB6014E03B695B003A6813441B781A46BB68134419463B695B003A6813445B780B703B6901333B61FB7B013BFB73FB7B002BE7D17B6901337B617B69252B4A
:40068000D4D900BF1C37BD4680BC704780B582B000AF394B04221A80384B18221A70384B3B221A80374B18221A70374B81221A80364B18221A70364B00221A80354B1B2226
:4006C0001A70354B06221A70344B52221A70344B344A1278D2B21A70334B40F619121A80324B41F251221A800023FB7019237B6014E0FB785B00DAB22D4B1B78DBB203F078
:400700000103DBB21343DBB203F00303FB704FF4F07002F005FF7B68013B7B607B68002B02D0FB78032BE4D17B68002B02D10320FFF76CFF1F4B4FF480721A801D4B0722E9
:400740001A701D4B00221A701C4B48221A70194B00221A701A4B00221A701A4B02221A70194A194B1B78DBB243F00F03DBB2137000BF0837BD4680BD8040004082400040D0
:400780008440004086400040884000408A4000408C4000408E4000400043004000420040A14600400F010049224200402042004025420040044000400640004008400040FF
:4007C0000940004001400040A243004080B483B000AF0B4B1B78FB710A4AFB7903F00703DBB21370084AFB791B09DBB21370074B44221A7000BF0C37BD4680BC704700BF97
:40080000CF0100496E5800406F5800407658004080B586B000AF72B64E4B61221A70FFF735FF4C4B01221A700023FB7513E0FA7D13465B0013445B00474A13443B613B69A3
:400840001A683B699B889BB219461046FFF7C0FEFB7D0133FB75FB7D062BE8D90023FB751CE0FA7D13469B0013445B003B4A1344FB60FB681B68BB60FB685B687B60FB68AB
:400880001A7A5B7A1B0213437B807B881A467968B868FFF7ABFEFB7D0133FB75FB7D002BDFD02F494FF09040FFF7B6FE2D4B2E4A1A602E4A2D4B1B78DBB243F00203DBB280
:4008C00013702B4A2A4B1B78DBB243F00203DBB21370284A274B1B78DBB243F04003DBB21370254A244B1B78DBB243F01003DBB21370082221492248FFF778FE0822214947
:400900002148FFF773FE0A2220492148FFF76EFE082220492048FFF769FE0A221F492048FFF764FE08221F491F48FFF75FFE1F4A1E4B1B78DBB243F00803DBB21370FFF759
:4009400045FF0E220B491A48FFF750FE00BF1837BD4680BD00480040043B0000303B00009800004858180140040404440350014013500140A0430040C24300402C0C004888
:4009800002510040340C0048C25100403C0C0048F0510040480C004812510040500C0048205100405C0C00483251004022430040B043004080B500AF03F062F803461B68DC
:4009C0000C2B00D1FEE7FEE780B586B000AF224B7B61224B3B61204B7B6135E03B691B68FB603B695B68BB603B699B683B6000237B600CE0FB681A68BB681A60BB68043351
:400A0000BB60FB680433FB607B6804337B607A683B689A42EED13B69DB683B6000237B6008E0BB6800221A60BB680433BB607B6804337B607A683B689A42F2D13B691033F5
:400A40003B617B69013B7B617B69002BC6D103F01DF8FFF79DFBFEE701000000143D000080B582B000AF184B184A1A60184A184B1B6843F40073136000237B600FE07B68E1
:400A8000032B04D8134A7B6852F8233000E0124B12497A6841F822307B6801337B607B682F2BECD90E4B1B78DAB20E4B1A700E4B0A4A1A60FFF7ACFE0C4B00221A6000BF82
:400AC0000837BD4680BD00BF0CED00E00004FA0514ED00E000000000B50900000080FF1FBC760040C480FF1F08ED00E0C080FF1F80B500AF214A214B1B78DBB203F00103C6
:400B0000DBB213701E4A1E4B1B78DBB223F00303DBB213701B4A1B4B1B78DBB223F03003DBB21370174A174B1B78DBB243F03003DBB21370134A134B1B78DBB223F00F03F1
:400B4000DBB213700F4A0F4B1B78DBB243F00F03DBB213700C4A0C4B1B78DBB243F00103DBB21370042000F063F8042000F072F8082000F041F800BF80BD00BF184F004089
:400B80001A4F0040234F0040194F004080B400AF0D4A0D4B1B78DBB243F00403DBB213700A4A0A4B1B78DBB243F00403DBB21370074A074B1B78DBB243F00103DBB2137019
:400BC00000BFBD4680BC7047A3430040B3430040184F004080B500AF064B1B78002B04D1FFF786FF034B01221A70FFF7CFFF00BF80BD00BFB181FF1F80B483B000AF0346D1
:400C0000FB71044AFB79137000BF0C37BD4680BC704700BF1B4F004080B400AF034B1B78DBB21846BD4680BC704700BF1B4F004080B485B000AF0346FB71FB79FB81044A89
:400C4000FB89138000BF1437BD4680BC704700BF1C4F004080B483B000AF0346FB71044BFA7992B21A8000BF0C37BD4680BC70471E4F004080B582B000AF03460A46FB71C8
:400C80001346BB71094B1B78002B04D100F010F8064B01221A70BA79FB791146184600F0D9F800BF0837BD4680BD00BFB281FF1F80B582B000AF02F03BFC0346FB71544AD5
:400CC000534B1B78DBB243F00103DBB21370514A504B1B78DBB243F00103DBB213704E4B01221A704D4B02221A704D4A4C4B1B78DBB203F07F03DBB21370002001F05AFE8A
:400D0000484A484B1B78DBB223F00603DBB21370454A454B1B78DBB223F02003DBB21370404A404B1B78DBB243F00103DBB21370012001F03FFE282001F03CFE3B4A3B4B74
:400D40001B78DBB203F07F03DBB21370374A374B1B78DBB223F04003DBB21370314A314B1B78DBB243F00203DBB21370022001F021FE2C4A2B4B1B78DBB243F00403DBB2E1
:400D800013702B4B00221A702A4B00221A70FB79184602F0D1FB0721172001F047FE2649172001F01BFE0721182001F03FFE2349182001F013FE0721152001F037FE204978
:400DC000152001F00BFE0721002001F02FFE1D49002001F003FE0721012001F027FE1A49012001F0FBFD0721022001F01FFE1749022001F0F3FD07210C2001F017FE1449A8
:400E00000C2001F0EBFD00BF0837BD4680BD00BFA5430040B54300409D60004009600040106000409443004012600040F85100408460004085600040A918000091110000BC
:400E40009D180000B5170000FD17000049180000B518000080B582B000AF03460A46FB711346BB712E4AFB7913702E4B00221A702D4B00221A702D4B00221A702C4B00229A
:400E80001A702C4B00221A702B4B00221A702B4B00221A702A4B4FF400021A60284B4FF080721A60264B4FF400121A60244B01221A60234B02221A60214B04221A60BB7957
:400EC000002B02D0012B09D011E01E4A1D4B1B78DBB223F00103DBB2137011E0194A194B1B78DBB243F00103DBB2137008E0154A144B1B78DBB243F00103DBB2137000BFFD
:400F0000114B03221A70114B80221A70012002F007FB0F4B04221A7000BF0837BD4680BDD581FF1FD881FF1FF481FF1FF781FF1FEC81FF1FF681FF1FF981FF1FD481FF1F82
:400F400000E100E00960004028600040086000401260004080B400AF0F4B00221A700F4B00221A700E4B00221A700E4B00221A700D4B00221A700D4B00221A700C4B00226B
:400F80001A700C4B03221A700B4B80221A7000BFBD4680BC704700BFD881FF1FF481FF1FF781FF1FEC81FF1FF681FF1FF981FF1FD481FF1F286000400860004080B582B009
:400FC00000AF0023FB71314B1B79DBB2184600F067F80346BB712D4B1B78DBB25BB2002B15DA2A4B5B78DBB2212B00D048E0284B07221A80BA791346DB009B1A254A134404
:40100000234A536000F03EFA0346FB7138E01F4B5B78DBB2202B02D0222B1AD030E01C4B07221A80BA791346DB009B1A194A1344174A5360BB79BA7917498A5CD2B242F0F6
:401040000102D1B2144AD15400F09AFA0346FB7116E0BB790D4A9278D2B291B20F4A22F81310BB79BA790C498A5CD2B242F00202D1B2094AD15400F021FB0346FB7100BF6F
:40108000FB7918460837BD4680BD00BF00600040E081FF1FCC80FF1FBC81FF1FD081FF1F80B485B000AF0346FB710023FB73FF23BB7317E0FB7B104AD35C7B737A7B0F49EE
:4010C00013465B0013449B000B440A331B78DBB2FA799A4203D1FB7BBB730223FB73FB7B0133FB73FB7B012BE4D9BB7B18461437BD4680BC704700BFC481FF1FFC81FF1F3B
:4011000080B485B000AF78600B46FB701346BB707B68DB7803F00303FB737B689B785BB2002B1ADAFB7B032B0AD0BB7803F001031449FA78CA54BB7843F00103BB701BE09B
:40114000BB789B08DBB203F001030F49FA78CA54BB7843F00403BB700EE0FB7B032B0BD0BB785B08DBB203F001030849FA78CA54BB7843F00203BB70BB7818461437BD46B8
:4011800080BC7047C081FF1FC481FF1FC881FF1F80B582B000AF374B1B78BB71BB7903F01003002B62D00123FB7197F90630002B12DABB7903F00F03012B02D00023FB71F2
:4011C0001CE000F061F82C4B1B78DBB25BB2002B14DA0023FB7111E0BB7903F04003002B02D000F095F809E0BB7903F02003002B02D000F0B3F801E00023FB71FB79002BAF
:4012000034D01C4B1B78BB7197F90630002B2DDB1A4B1B78DAB21A4B1B78DBB21343BB71184ABB791370174B1B78DBB2BA799A421CD1114B1B78FB710E4B1B78DBB223F082
:401240007F03BB71BB79002B0AD10A4B0A4A1278D2B21A70074B1B78DBB203F00F03FB71054B1B78DBB2FA799A42E2D100BF0837BD4680BD28600040F581FF1F6A82FF1F4C
:40128000F881FF1F2960004080B582B000AF1D4B1B78FB711B4AFB7913701A4B1B78FB7197F90730002B03DA174AFB79137025E0022000F045FA154B1B78DBB203F060033E
:4012C000202B08D0402B0BD0002B0ED100F0F8FA0346FB710CE002F033F90346FB7107E001F000FB0346FB7102E00023FB7100BFFB79002B02D1044B03221A7000BF0837FF
:40130000BD4680BD28600040F581FF1F0060004080B500AF104B1B78DBB2062B19D801A252F823F05313000053130000411300005313000047130000531300004D1300004A
:4013400000F0F8F806E000F0A7F903E000F0D2F900E000BF00BF80BDD881FF1F80B500AF124B1B78DBB2062B1DD801A252F823F0A7130000A71300008D130000A713000012
:4013800093130000A71300009913000000F0D8F80AE000F027F907E0032000F0D1F9044B03221A7000E000BF00BF80BDD881FF1FF581FF1F80B483B000AF0023FB71294BE6
:4013C0001B78DBB29AB2284B1B889BB213449AB2254B1A8015E02549FB79254A52681278D2B2CA54224B5B680133214A5360FB790133FB711E4B1B889BB2013B9AB21C4B67
:401400001A801B4B1B889BB2002B02D0FB79072BE1D9144B1B78DBB2082B02D0FB79002B0FD0144B1B78DBB283F07F03DB43DAB2104B1A70104B0F221A70104B02221A703B
:4014400005E00D4B02221A700C4B02221A700C4AFB791370034AFB79137000BF0C37BD4680BC7047D481FF1FD681FF1F00600040E081FF1F6A82FF1FF581FF1FD881FF1FD7
:40148000F881FF1F80B582B000AF164B1B889BB2002B02D100F02EF81EE0134B02221A70124B00221A7000F06BF9114BDB79DBB29BB21B029AB20E4B9B79DBB29BB2134323
:4014C000FB80084B1B889BB2FA889A4202D2054AFB881380FFF76EFF012318460837BD4680BD00BFE081FF1FD881FF1F6A82FF1F0060004080B400AF094B02221A70094B9B
:4015000080221A70084B0F221A70084B00221A70074B00221A7001231846BD4680BC7047D881FF1F6A82FF1FF581FF1FD481FF1FF881FF1F80B500AFFFF73CFF00BF80BDCC
:4015400080B500AF0A4B1B78DBB29AB2094B1B889BB213449AB2074B1A80074B00221A70012000F0EDF8054B03221A7000BF80BDD481FF1FD681FF1FD881FF1FF581FF1F11
:4015800080B582B000AF124B04221A70114B80221A7000F0F5F8104BDB79DBB29BB21B029AB20D4B9B79DBB29BB21343FB800B4B1B889BB2FA889A4202D2084AFB881380BA
:4015C000074B0B221A70012318460837BD4680BDD881FF1F6A82FF1F00600040E081FF1FF581FF1F80B483B000AF0023BB71234B1B78DBB203F00F03DBB2023BFB71FB790B
:401600009AB21F4B1B889BB213449AB21C4B1A8018E01C4B5B681C49BA798A5CD2B21A70184B5B680133174A5360BB790133BB71FB79013BFB71134B1B889BB2013B9AB2BE
:40164000104B1A800F4B1B889BB2002B02D0FB79002BDED10D4AFB7913700D4B1B78DBB283F07F03DB43DAB2094B1A70094B0B221A7000BF0C37BD4680BC704729600040D1
:40168000D681FF1FE081FF1F00600040F881FF1F6A82FF1FF581FF1F80B500AF054B00221A70012000F04CF8034B03221A7000BF80BD00BFD881FF1FF581FF1F80B400AF86
:4016C000084B06221A70084B06221A70074B80221A70074B00221A7001231846BD4680BC704700BFD881FF1FF581FF1F6A82FF1FF881FF1F80B500AF0D4B1B78DBB2002BFA
:401700000AD00C4A0A4B1B78DBB263F07F03DBB21370074B00221A70074B00221A70012000F00EF8054B03221A7000BF80BD00BFF681FF1F08600040D881FF1FF581FF1F0A
:4017400080B483B000AF0346FB710B4B9B68002B0CD0094B9B68FA791A70074B9B68074A128892B25A80044B00229A6000BF0C37BD4680BC704700BFE081FF1FD681FF1F76
:4017800080B400AF094B00221A80094B9B68002B07D0074B9B6800221A70054B9B6800225A8000BFBD4680BC704700BFD681FF1FE081FF1F80B400AF0D4B01221A700D4BE5
:4017C0009B7C0D4B1B7BDBB203F00303012B08D0094BDB7BDBB283F07F03DB43DAB2064BDA73054B01225A7300BFBD4680BC70470B600040FC5F0040FC81FF1F80B400AF2D
:401800000E4B02221A700E4B93F822300D4B1B7EDBB203F00303012B08D00A4BDB7EDBB283F07F03DB43DAB2064BDA76054B01225A7600BFBD4680BC704700BF0B60004013
:40184000FC5F0040FC81FF1F80B400AF104B04221A70104B93F832300F4B93F82430DBB203F00303012B0AD00B4B93F82730DBB283F07F03DB43DAB2074B83F82720064B6E
:40188000012283F8252000BFBD4680BC704700BF0B600040FC5F0040FC81FF1F80B400AF00BFBD4680BC704780B500AFFFF752FB00BF80BD80B500AF01F03EF800BF80BD2E
:4018C00080B586B000AF0023FB759D4B1B78FB7100233B619B4B00221A8097F90730002B80F20481964B5B78DBB20A2B00F21B8201A252F823F000BF431A0000271D0000A5
:40190000271D0000271D0000271D0000271D000025190000271D0000B71A0000271D0000CD1A0000864BDB78DBB2012B0ED100F049FEB860BB685B68824A5360814B1222A9
:401940001A80FFF79FFD0346FB75EEE17C4BDB78DBB2022B25D17A4B9B78DBB2184600F009FEB860BB68002B00F0DF81BB685B68744A5360734B5B6803331B78DBB29BB2FE
:401980001B029AB26F4B5B6802331B78DBB29BB213439AB26B4B1A80FFF774FD0346FB75C3E1674BDB78DBB2032B45D10023FB73654B3B6109E03B691B78BB71BB793A6913
:4019C00013443B61FB7B0133FB735D4B9B78DBB2FA7B9A4204D23B691B78DBB2002BEAD1574B9B78DBB2EE2B01D1584B3B61544B9B78DBB2002B0BD0514B9B78DAB2544B38
:401A00001B7C9A4204D1534800F0ACF9514B3B613B691B78DBB2002B00F087813B691B78DBB29AB2474B1A80464A3B695360FFF729FD0346FB7578E101F082FD0346FB7595
:401A400073E1FB7903F00303002B20D0022B00D030E03C4B02221A80394B1B79DBB203F07F023D4913465B0013449B000B4402331B78DAB2394B1A70384B00225A70314B57
:401A8000364A5A60FFF7FEFC0346FB7512E02D4B02221A80324B1B78DAB2304B1A702F4B00225A70274B2D4A5A60FFF7EBFC0346FB7500BF40E1234B01221A80214B294AF1
:401AC0005A60FFF7DFFC0346FB7535E11D4B01221A801B4B1B79DBB21A46234B1344194A5360FFF7CFFC0346FB7525E1144B5B78DBB2013B0A2B00F21A8101A252F823F068
:401B00000B1C00002F1D0000991C00002F1D00002D1B00002F1D00002F1D00002F1D0000711B00002F1D0000C71B0000044B9B78DAB20E4B1A70FFF7C1FD0346FB75FBE032
:401B400000600040E081FF1FA83B0000B03C0000503B00007082FF1FFC81FF1FB481FF1FF981FF1FF781FF1F6882FF1FF681FF1F744B9B787B717B79002B06D07B79013B40
:401B8000DBB2184600F0F6FCB8607B79002B02D0BB68002B03D17B79002B40F0CA806A4B1B78DBB27A799A4208D0674A7B791370664B01221A70012000F0DCF9FFF77EFD3B
:401BC0000346FB75B5E000F055FE0346002B00F0B2805C4B1B793B715A4B1B79DAB25C4B1A703B795B4AD35CDAB23B795A49CB5CDBB29A4204D0554B01221A7000F08CFB4E
:401C0000FFF75CFD0346FB7595E0FB7903F00303012B20D0012B0CD3022B00D03BE0494B9B78DBB2002B31D100F078FD0346FB752CE0444B9B78DBB2012B29D1474B1B7876
:401C4000DBB223F00203DAB2444B1A70FFF736FD0346FB751CE03B4B1B79DBB2012B19D8384B9B78DBB2DB43DBB2364A1279D2B2114610463A4A125CD2B21340DAB2384B96
:401C80005A54FFF71BFD0346FB7503E000BF53E000BF51E000BF4FE0FB7903F00303012B20D0012B0CD3022B00D03BE0254B9B78DBB2002B31D100F0BDFC0346FB752CE0A5
:401CC000204B9B78DBB2012B29D1244B1B78DBB243F00203DAB2214B1A70FFF7EFFC0346FB751CE0174B1B79DBB2012B19D8154B9B78DBB2DB43DBB2124A1279D2B21146C7
:401D00001046174A125CD2B21340DAB2144B5A54FFF7D4FC0346FB7503E000BF0CE000BF0AE000BF08E000BF06E000BF04E000BF02E000BF00E000BFFB7D18461837BD4642
:401D400080BD00BF00600040F781FF1FF481FF1FEC81FF1FDC81FF1F6882FF1FF981FF1F6C82FF1FB0B58AB000AF7860324B07F114041D460FCD0FC42B682370002387F85F
:401D800026307B68002B52D07B6822221A707B68013303221A7007F10C03184600F06AFE022387F827303EE097F827307A68134497F8262007F128010A4412F81C2C120980
:401DC000D2B207F128010A4412F8142C1A7097F8273001337A68134400221A7097F8273002337A68134497F8262007F128010A4412F81C2C02F00F0207F128010A4412F8B7
:401E0000142C1A7097F8273003337A68134400221A7097F82630013387F8263097F82730043387F8273097F82730212BBCD900BF2837BD46B0BD00BF3C3B000090B482B0F5
:401E400000AF0123FB7180E0464AFB791B0113440C221A70FA79444913465B0013449B000B4405331B78DBB2002B1CD0FA793E4913465B0013449B000B4404331B78DBB2EA
:401E80005BB2002B07DA394AFB791B01134402330C221A700EE0354AFB791B011344023308221A7006E0314AFB791B011344023380221A702B48F979FA792B4C13465B0049
:401EC00013449B00234406331B889BB2DAB20B01034406331A702348F979FA79224C13465B0013449B00234406331B889BB21B0A9BB2DAB20B01034407331A701948F979E2
:401F0000FA79194C13465B0013449B00234406331B889BB2DAB20B01034404331A701148F979FA79104C13465B0013449B00234406331B889BB21B0A9BB2DAB20B010344D2
:401F400005331A70FB790133FB71FB79082B7FF67BAF074BFF221A7000BF0837BD4690BC704700BF70600040FC81FF1FFC5F00400A60004080B58AB000AF0346FB7100239F
:401F80007B84002387F8273050E097F82720B34913465B0013449B000B4400221A7097F82720AE4913465B0013449B000B44023300221A7097F82720A84913465B00134411
:401FC0009B000B44033300221A7097F82720A34913465B0013449B000B44083300221A8097F827209D4913465B0013449B000B440A3300221A7097F82720984913465B0062
:4020000013449B000B44013300221A7097F82720924913465B0013449B000B44053300221A7097F82730013387F8273097F82730082BAAD9FB79002B16D0002387F82530ED
:402040000EE097F82530864A0021D15497F82530844A0021D15497F82530013387F8253097F82530012BECD97F4B1B78DBB2002B00F04A810023FB767B4B1B78DBB2013B39
:40208000DBB2184600F076FA78617B695B683B613B6907331B7803F04003002B08D0734B1B78DBB243F00103DAB2704B1A7007E06E4B1B78DBB223F00103DAB26B4B1A7086
:4020C0007B6908337B617B691B7887F82730012387F82530B6E07B695B68FB61002387F82630A3E097F82520FB699B7803F07F039A4240F0938097F82520584913465B0084
:4021000013449B000B4408331B889AB2FB699B889A420CD297F82520FB6998884F4913465B0013449B000B44083302461A80FB691B781A464A4B9B5CDAB2FB695B789A426F
:402140006CD197F82520FB699878444913465B0013449B000B44043302461A7097F82520FB69D8783D4913465B0013449B000B4402461A70FB69DB7803F00303FB73FB69F8
:402180009B785BB2002B1CDA97F82520FB7B012B01D1072000E00D20304913465B0013449B000B44053302461A7097F825202B4913465B0013449B000B44013301221A70CC
:4021C0001BE097F82520FB7B012B01D1052000E00920224913465B0013449B000B44053302461A7097F825201C4913465B0013449B000B44013300221A70FB699B790A2B49
:4022000003D0FB699B79022B08D1FA7E97F825301946F869FEF774FF0346FB76FB690833FB6197F82630013387F8263097F8262097F827309A42FFF455AF97F82530013380
:4022400087F8253097F82530082B7FF644AF7B695B68FB61002387F8253020E0FC81FF1F6882FF1FDC81FF1FF781FF1FF981FF1FFB699B7803F07F02FB6918782449134620
:402280005B0013449B000B440A3302461A70FB690833FB6197F82530013387F8253097F8252097F827309A42E2D300F09DF90246184B1A6000237B84012387F827301DE07D
:4022C00097F82720124913465B0013449B000B4406337A8C1A8097F827200D4913465B0013449B000B4408331B889AB27B8C13447B8497F82730013387F8273097F8273061
:40230000082BDDD9FFF79AFD00BF2837BD4680BDFC81FF1FF081FF1F90B585B000AF8F4B1B78DBB2002B00F015818C4B1B78DBB2013BDBB2184600F01DF978607B680833B1
:402340007B607B681B78FB707B685B68BB60844B1B78BB700023FB73F7E0BB681B78BA789A4240F0EC80BB787E4AD35CDAB2BB685B789A4240F0E380BB689B7803F07F03C5
:402380007B70BB68DB7803F003033B707A78764913465B0013449B000B44033300221A707A78BB689878704913465B0013449B000B44043302461A707A78BB68D8786A499C
:4023C00013465B0013449B000B4402461A707A78BB689888644913465B0013449B000B44083302461A80BB689B785BB2002B1ADA7A783B78012B01D1072000E00D205A4946
:4024000013465B0013449B000B44053302461A707A78554913465B0013449B000B44013301221A7019E07A783B78012B01D1052000E009204C4913465B0013449B000B44E3
:40244000053302461A707A78474913465B0013449B000B44013300221A70444A7B781B011344023301221A70404879787A783E4C13465B0013449B00234408331B889BB2F8
:402480001B0A9BB2DAB20B0103441A70374879787A78354C13465B0013449B00234408331B889BB2DAB20B01034401331A70304879787A782C4C13465B0013449B002344A9
:4024C00006331B889BB2DAB20B01034406331A70274879787A78244C13465B0013449B00234406331B889BB21B0A9BB2DAB20B01034407331A701E4879787A781A4C1346FC
:402500005B0013449B00234406331B889BB2DAB20B01034404331A70154879787A78124C13465B0013449B00234406331B889BB21B0A9BB2DAB20B01034405331A70BB6814
:402540000833BB60FB7B0133FB73FA7BFB789A42FFF403AF00BF1437BD4690BDF781FF1FEC81FF1F6882FF1FFC81FF1FFC5F00407060004080B485B000AF0346FB710F4B94
:402580001B78DBB20E4ADB0013445B68FB60FB681033FB60FB681B78FA799A4202D30023FB6005E0FB79DB00FA6813445B68FB60FB6818461437BD4680BC7047D581FF1F39
:4025C000A83C000080B400AF054B1B78DBB2054ADB0013445B681846BD4680BC704700BFD581FF1FA83C000080B584B000AF104B1B78DBB2013BDBB21846FFF7BBFFB86073
:40260000BB68002B0DD0BB685B681B79FB71FB790233DB00BA681344BB60BB685B68FB6001E00023FB60FB6818461037BD4680BDF781FF1F80B582B000AF0023FB71344BCF
:402640001B79DBB203F07F03BB71BB79002B5AD0BB79082B57D8BA79B9792E480B465B000B449B00034402331B78DBB243F00103D8B2284913465B0013449B000B44023310
:4026800002461A70BA79234913465B0013449B000B44033300221A70BA79B9791D480B465B000B449B00034401331B78DBB243F00203D8B2174913465B0013449B000B44C0
:4026C000013302461A70BA79124913465B0013449B000B4404331B78DBB25BB2002B07DA0D4ABB791B01134402338D221A7006E0094ABB791B011344023389221A70FEF736
:40270000DDFF0346FB71FB7918460837BD4680BD00600040FC81FF1FFC5F004080B582B000AF0023FB71504B1B79DBB203F07F03BB71BB79002B00F09280BB79082B00F225
:402740008E80BA79B97949480B465B000B449B00034402331B78DBB223F00103D8B2434913465B0013449B000B44023302461A70BA793E4913465B0013449B000B44033315
:4027800000221A703A49BB793948BA79120102441278D2B202F07F02D2B21B010B441A70BA79B97931480B465B000B449B00034401331B78DBB223F00203D8B22B49134631
:4027C0005B0013449B000B44013302461A70BA79264913465B0013449B000B4404331B78DBB25BB2002B1BDABA79204913465B0013449B000B4401331B78DBB2012B07D133
:402800001B4ABB791B01134402330C221A7022E0174ABB791B01134402330D221A701AE0BA79124913465B0013449B000B4401331B78DBB2012B07D10D4ABB791B011344D4
:40284000023308221A7006E0094ABB791B011344023309221A70FEF731FF0346FB71FB7918460837BD4680BD00600040FC81FF1FFC5F004080B584B000AF0023FB73154B9B
:402880001B79BB73144B1B78DBB2013BDBB21846FFF770FEB860BB685B681B79FB71BA7BFB799A4202D9BB7B022B0ED8BB7BBA7B0A498A5CD1B20A4AD154BB7B054A927876
:4028C000D1B2064AD1540123FB73FB7B18461037BD4680BD00600040F781FF1F6882FF1FDC81FF1F80B582B000AF0023FB710F4B1B78DBB25BB2002B12DA0C4B5B78DBB240
:40290000012B00D00CE00A4B0A4A5A60094B1B789AB2074B1A80FEF7B5FD0346FB7100BFFB7918460837BD4680BD00BF00600040E081FF1FC43C000080B400AF054B1B781D
:40294000DBB203F040039B09DBB21846BD4680BC704700BF8F45004080B483B000AF0346FB7101BE00BF0C37BD4680BC704700BF80B582B000AF786008E00C4B1B681846ED
:4029800000F0CEFD7B68A3F500437B607B68B3F5004FF2D8064B1B687A6802FB03F3184600F0BEFD00BF0837BD4680BDF480FF1FEC80FF1F80B582B000AF0346FB80FB88B6
:4029C000054A127802FB03F3184600F0A9FD00BF0837BD4680BD00BFF080FF1F80B584B000AF03463960FB710F4B1B68FB60FB791F2B02D90020FFF7AFFFFB7903F01F0308
:402A000010339B00FA6813441B68BB60FB7903F01F0310339B00FA6813443A681A60BB6818461037BD4680BD08ED00E080B582B000AF03460A46FB711346BB71BB79072B42
:402A400002D90020FFF788FFFB791F2B02D90020FFF782FFFB7903F01F0303F1604303F56443BA795201D2B21A7000BF0837BD4680BD00BF80B483B000AF7860264B1B786C
:402A8000DBB21A467B681A60244B1B78DBB21B027A6812681A437B681A60214B1B78DBB21B047A6812681A437B681A601D4B1B78DBB21B067A6812681A437B681A607B68A7
:402AC0000433194A1278D2B21A60184B1B78DBB21A027B6804337968043109680A431A60134B1B78DBB21A047B6804337968043109680A431A600F4B1B78DBB21A067B682C
:402B000004337968043109680A431A6000BF0C37BD4680BC704700BF0301004904010049EC460040020100490101004900010049050100490601004980B500AF064B1B7804
:402B4000002B04D100F00AF8034B01221A7000F063F800BF80BD00BFB681FF1F80B582B000AF284A274B1B78DBB243F00203DBB21370254B1B78DBB223F07003FB71224ABD
:402B8000FB7943F01003DBB21370204A1F4B1B78DBB223F03003DBB213701C4A1B4B1B78DBB243F03003DBB21370184A174B1B78DBB223F00F03DBB21370144A134B1B7837
:402BC000DBB243F00F03DBB21370FF2000F048F87F2000F055F8002000F062F80C4A0C4B1B78DBB243F00103DBB21370094A094B1B78DBB243F00103DBB2137000BF08373E
:402C0000BD4680BD004F0040024F00400B4F0040A3430040014F004080B400AF0D4A0D4B1B78DBB243F00103DBB213700A4A0A4B1B78DBB243F00103DBB21370074A074B38
:402C40001B78DBB243F00103DBB2137000BFBD4680BC7047A3430040B3430040004F004080B483B000AF0346FB71044BFA7992B21A8000BF0C37BD4680BC7047044F004057
:402C800080B483B000AF0346FB71044BFA7992B21A8000BF0C37BD4680BC7047064F004080B483B000AF0346FB71044AFB79137000BF0C37BD4680BC704700BF034F0040C3
:402CC00080B500AF064B1B78002B04D100F00AF8034B01221A7000F063F800BF80BD00BFB781FF1F80B582B000AF284A274B1B78DBB243F00203DBB21370254B1B78DBB2D1
:402D000023F07003FB71224AFB7943F01003DBB21370204A1F4B1B78DBB223F03003DBB213701C4A1B4B1B78DBB243F03003DBB21370184A174B1B78DBB223F00F03DBB229
:402D40001370144A134B1B78DBB243F00F03DBB21370FF2000F048F87F2000F055F8002000F062F80C4A0C4B1B78DBB243F00203DBB21370094A094B1B78DBB243F00103F7
:402D8000DBB2137000BF0837BD4680BD0C4F00400E4F0040174F0040A34300400D4F004080B400AF0D4A0D4B1B78DBB243F00203DBB213700A4A0A4B1B78DBB243F002032A
:402DC000DBB21370074A074B1B78DBB243F00103DBB2137000BFBD4680BC7047A3430040B34300400C4F004080B483B000AF0346FB71044BFA7992B21A8000BF0C37BD469D
:402E000080BC7047104F004080B483B000AF0346FB71044BFA7992B21A8000BF0C37BD4680BC7047124F004080B483B000AF0346FB71044AFB79137000BF0C37BD4680BCAB
:402E4000704700BF0F4F004080B400AF00BFBD4680BC704780B582B000AF0F2000F06AF800F05AF800F064FB0346FB71074A074B1B78DBB243F01003DBB21370FB791846DE
:402E800000F05AFB00BF0837BD4680BD9964004080B500AF00F0AEF84FF4004000F0D8F8064B1B78002B04D1FFF7CEFF034B01221A70FFF7CFFF00BF80BD00BFB881FF1F1D
:402EC00080B582B000AF00F0D3F80346FB80FB88A3F500439BB2BB80B7F9043018460837BD4680BD80B584B000AF0346FB80B7F90630002B04DBFB88A3F50043FB8103E00D
:402F0000FB88A3F50043FB81FB89184600F0A0F800BF1037BD4680BD80B400AF044B1B78DBB203F00F03DBB21846BD4680BC70476964004080B483B000AF0346FB71044AA9
:402F4000FB79137000BF0C37BD4680BC704700BF8964004080B582B000AF1C4B1B78DBB223F00703FB71194AFB791370174B1B78DBB223F00303FB71144AFB79137000F0AA
:402F8000B3F84FF4004000F08FF84FF4004000F05FF8002000F040F800F04EF84FF4004000F092F800F0C4FA0346BB71084A084B1B78DBB243F01003DBB21370BB79184657
:402FC00000F0BAFA00BF0837BD4680BD796400409865004080B400AF054A054B1B78DBB263F07F03DBB2137000BFBD4680BC70477964004080B500AF064B1B78002B04D174
:40300000FFF7A8FF034B01221A70FFF7E3FF00BF80BD00BFB981FF1F80B483B000AF0346FB71044AFB79137000BF0C37BD4680BC704700BF8865004080B400AF034B1B7855
:40304000DBB21846BD4680BC704700BF6865004080B483B000AF0346FB80044AFB88138000BF0C37BD4680BC704700BF1068004080B400AF044B1B78044B1B889BB2184694
:40308000BD4680BC704700BF086400409068004080B400AF034B1B889BB21846BD4680BC704700BF9068004080B483B000AF0346FB80044AFB88138000BF0C37BD4680BC8C
:4030C000704700BF5068004080B483B000AF0346FB80044AFB88138000BF0C37BD4680BC704700BF7068004080B500AF01E0FFF7CFFFFFF7A1FF034603F04003002BF6D1C5
:4031000000BF80BD80B582B000AF786000F03CF8786800F009F8072000F018F800F028F800BF0837BD4680BD80B485B000AF7860054B1B68FB60FB685C337A681A6000BF10
:403140001437BD4680BC704708ED00E080B483B000AF0346FB71054AFB795B01DBB2137000BF0C37BD4680BC704700BF07E400E080B400AF034B80221A6000BFBD4680BC72
:40318000704700BF00E100E080B400AF034B80221A6000BFBD4680BC704700BF80E100E080B400AF054B1B78DBB203F010031B09DBB21846BD4680BC704700BF0151004027
:4031C00080B400AF054B1B78DBB203F020035B09DBB21846BD4680BC704700BF2151004080B400AF054B1B78DBB203F040039B09DBB21846BD4680BC704700BF2151004031
:4032000080B400AF054B1B78DBB203F004039B08DBB21846BD4680BC704700BF3151004080B400AF054B1B78DBB203F08003DB09DBB21846BD4680BC704700BF315100402D
:4032400080B400AF044B1B78DBB203F00103DBB21846BD4680BC7047F151004080B500AF00F048F8044800F015F8072000F024F800F034F800BF80BD7D32000080B400AF68
:40328000034B0122DA7000BFBD4680BC704700BFA881FF1F80B485B000AF7860054B1B68FB60FB6864337A681A6000BF1437BD4680BC704708ED00E080B483B000AF0346F0
:4032C000FB71054AFB795B01DBB2137000BF0C37BD4680BC704700BF09E400E080B400AF034B4FF400721A6000BFBD4680BC704700E100E080B400AF034B4FF400721A6079
:4033000000BFBD4680BC704780E100E080B500AF00F048F8044800F015F8072000F024F800F034F800BF80BD2D33000080B400AF034B01229A7000BFBD4680BC704700BFBD
:40334000A881FF1F80B485B000AF7860054B1B68FB60FB6860337A681A6000BF1437BD4680BC704708ED00E080B483B000AF0346FB71054AFB795B01DBB2137000BF0C37C5
:40338000BD4680BC704700BF08E400E080B400AF034B4FF480721A6000BFBD4680BC704700E100E080B400AF034B4FF480721A6000BFBD4680BC704780E100E080B500AF7C
:4033C00000F048F8044800F015F8072000F024F800F034F800BF80BDDD33000080B400AF034B01225A7000BFBD4680BC704700BFA881FF1F80B485B000AF7860054B1B685D
:40340000FB60FB6850337A681A6000BF1437BD4680BC704708ED00E080B483B000AF0346FB71054AFB795B01DBB2137000BF0C37BD4680BC704700BF04E400E080B400AFBE
:40344000034B10221A6000BFBD4680BC704700BF00E100E080B400AF034B10221A6000BFBD4680BC704700BF80E100E080B500AF00F048F8044800F015F8072000F024F8FB
:4034800000F034F800BF80BD8D34000080B400AF034B01221A7000BFBD4680BC704700BFA881FF1F80B485B000AF7860054B1B68FB60FB684C337A681A6000BF1437BD4631
:4034C00080BC704708ED00E080B483B000AF0346FB71054AFB795B01DBB2137000BF0C37BD4680BC704700BF03E400E080B400AF034B08221A6000BFBD4680BC704700BF43
:4035000000E100E080B400AF034B08221A6000BFBD4680BC704700BF80E100E0000000000230800803D000BF01380046FCD17047EFF3108072B6704780F31088704700BF1F
:4035400080B582B000AF0023BB711B4B1B78DBB203F00303012B02D0022B04D012E0164B1B79FB7111E0144B1B79DBB203F07F02124913465B0013449B000B440A331B7810
:40358000FB7102E00023FB7100BFFB79022B0ED80B4B1A68FB7913441B78022B04D1FDF70DFD0346BB7102E00023BB7100BFBB7918460837BD4680BD00600040FC81FF1F01
:4035C000F081FF1F80F0004002E000BF81F0004142001FBF5FEA410392EA030F7FEA226C7FEA236C6AD04FEA1262D2EB1363C1BFD218414048404140B8BF5B42192B88BF62
:40360000704710F0004F40F4000020F07F4018BF404211F0004F41F4000121F07F4118BF494292EA030F3FD0A2F1010241FA03FC10EB0C00C3F1200301FA03F100F0004302
:4036400002D5494260EB4000B0F5000F13D3B0F1807F06D340084FEA310102F10102FE2A51D2B1F1004F40EBC25008BF20F0010040EA03007047490040EB000010F4000FE5
:40368000A2F10102EDD1B0FA80FCACF1080CB2EB0C0200FA0CF0AABF00EBC25052421843BCBFD0401843704792F0000F81F4000106BF80F400000132013BB5E74FEA410384
:4036C0007FEA226C18BF7FEA236C21D092EA030F04D092F0000F08BF0846704790EA010F1CBF0020704712F07F4F04D1400028BF40F00040704712F100723CBF00F50000C0
:40370000704700F0004343F0FE4040F4000070477FEA226216BF08467FEA23630146420206BF5FEA412390EA010F40F4800070474FF0000304E000BF10F0004348BF4042A1
:403740005FEA000C08BF704743F0964301464FF000001CE050EA010208BF70474FF000030AE000BF50EA010208BF704711F0004302D5404261EB41015FEA010C02BF84467B
:403780000146002043F0B64308BFA3F18053A3F50003BCFA8CF2083AA3EBC25310DB01FA02FC634400FA02FCC2F12002BCF1004F20FA02F243EB020008BF20F00100704773
:4037C00002F1200201FA02FCC2F1200250EA4C0021FA02F243EB020008BF20EADC7070474FF0FF0C1CEAD0521EBF1CEAD15392EA0C0F93EA0C0F6FD01A4480EA010C40024F
:4038000018BF5FEA41211ED04FF0006343EA501043EA5111A0FB01310CF00040B1F5000F3EBF490041EAD3715B0040EA010062F17F02FD2A1DD8B3F1004F40EBC25008BF7A
:4038400020F00100704790F0000F0CF0004C08BF49024CEA502040EA51207F3AC2BFD2F1FF0340EAC250704740F400004FF00003013A5DDC12F1190FDCBF00F000407047CD
:40388000C2F10002410021FA02F1C2F1200200FA02FC5FEA310040F1000053EA4C0308BF20EADC70704792F0000F00F0004C02BF400010F4000F013AF9D040EA0C0093F08E
:4038C000000F01F0004C02BF490011F4000F013BF9D041EA0C018FE70CEAD15392EA0C0F18BF93EA0C0F0AD030F0004C18BF31F0004CD8D180EA010000F00040704790F086
:40390000000F17BF90F0004F084691F0000F91F0004F14D092EA0C0F01D142020FD193EA0C0F03D14B0218BF084608D180EA010000F0004040F0FE4040F40000704740F0D9
:40394000FE4040F4400070474FF0FF0C1CEAD0521EBF1CEAD15392EA0C0F93EA0C0F69D0A2EB030280EA010C49024FEA402037D04FF0805343EA111143EA10130CF000401C
:403980008B4238BF5B0042F17D024FF4000C8B4224BF5B1A40EA0C00B3EB510F24BFA3EB510340EA5C00B3EB910F24BFA3EB910340EA9C00B3EBD10F24BFA3EBD10340EA4D
:4039C000DC001B0118BF5FEA1C1CE0D1FD2A3FF650AF8B4240EBC25008BF20F0010070470CF0004C4CEA50207F32C2BFD2F1FF0340EAC250704740F400004FF00003013A49
:403A000037E792F0000F00F0004C02BF400010F4000F013AF9D040EA0C0093F0000F01F0004C02BF490011F4000F013BF9D041EA0C0195E70CEAD15392EA0C0F08D14202D9
:403A40007FF47DAF93EA0C0F7FF470AF084676E793EA0C0F04D14B023FF44CAF08466EE730F0004C18BF31F0004CCAD130F000427FF45CAF31F000437FF43CAF5FE700BF55
:403A8000014B1868704700BF5881FF1F0E4B70B51E460E4C0025E41AA410A54204D056F8253098470135F8E700F022F9084B094C1E46E41AA4100025A54204D056F825301C
:403AC00098470135F8E770BDFC3C0000FC3C0000FC3C0000043D000010B5431E0A44914204D011F8014B03F8014FF8E710BD03460244934202D003F8011BFAE77047000070
:403B000000000000004F0040240040510040300000000140001000140140000800400140000A004C014000021050014010000000005001401C0C0048100000003031323381
:403B4000343536373839414243444546000000001201000202000008B40432F2010001028001000009024300020101C0320904000001020201030524001001042402020524
:403B80002406000105240100010705810308000A09040100020A000004070582024000000705030240000000040309042C034300790070007200650073007300200053002F
:403BC00065006D00690063006F006E0064007500630074006F007200100355005300420055004100520054003803430044004300200043006F006D006D0075006E00690083
:403C000063006100740069006F006E00200049006E007400650072006600610063006500260343004400430020004400610074006100200049006E00740065007200660040
:403C400061006300650000000203000000008103080002000100820240000A000100030240000A00020A000001000000643B0000030000004C3C0000000000000000000032
:403C8000000000000000000000000000643C000001000000503B0000000000000000000001000000683C000001000000903C000012034D0053004600540031003000300086
:403CC000010000002800000000010400010000000000000000014359555342000000303030303100000000000000000043000000F8B500BFF8BC08BC9E4670474D0000000E
:403D0000610A0000F8B500BFF8BC08BC9E46704729000000283D0000C880FF1F9800000038010000000000000000000000C2010000000800C201000000080000A12000007D
:403D400000000200000000000087930360EA00003C000000000030750000000000000000000000000000000000000000000000000000000000000000EC3C000000000000D1
:403D80000000000000000000000000000000000000000000000000000000000000000000000000000000000000000000000000000000000000000000F880FF1F000000006D
:403DC00000000000000000000000000000000000000000000000000000000000000000000000000000000000000000000000000000000000000000000000000000000000C3
:403E00000000000000000000000000000000000000000000000000000000000000000000000000000000000000000000000000000000000000000000000000000000000082
:403E40000000000000000000000000000000000000000000000000000000000000000000000000000000000000000000000000000000000000000000000000000000000042
:403E80000000000000000000000000000000000000000000000000000000000000000000000000000000000000000000000000000000000000000000000000000000000002
:020000040003F7
:0200000480007A
:4000000001450040064F00400952004003640040046500405000014031010140640201404E0301405704014054050140450601404F0701406208014044090140080B014097
:40004000070D01405C1401404C150140411601404F1701404418014048190140041A0140141B0140084001401341014010420140114301400A4501400C4601400B4701408F
:40008000154801401B4901400B4C0140084D014005500140035101407E0201100A360D1016361930223608010902182819206014611C782079107C40820F876F890F853892
:4000C0008672886F890F000402180308040105C107220D771001130714041628180419811A081B121E0220082104220523F0240125B7274028012DC02F143020310F320325
:40010000341035F0360C3A80580459045F01810B8304843B85078B0F8C5D8D108E208F60911093209510967897A0986699209A089B109C669E10A10CA280A301A440A6082F
:40014000A908AB01AD0CAF02B140B280B30FB407B530B678B780B820BB20D608D804D904DB04DD90DF01010202200404060209010A260C880E0A10401204130416A01902EF
:400180001A051B081C061E12210223042540262628402A442C882F01310232203622370439023B843C243D803E223F0258105A105D4066808D40C0ACC2EFC43ECABBCCE5AF
:4001C000CEFBD610D810E0400301050E09020B040F0E110E170818061C031D021F042006231028052B202D08330135203607371E38804063410449FF4AFF4BFF4DA04F0164
:400200005018540F580459045A045B045F016040628064406540668068406A806C406D206E8084FE859E860187608A018D73907F930F98C599949A3A9B609C969E68A0A390
:40024000A130A25CA3C9A40EA5FDA6F0A702ADCFAF30B1FFB6FFBE40BF01C063C104C54EC6C3C702C81FC9FFCAFFCBFFCDAFCE07CF01D018D804D904DA04DF01E040E280A1
:40028000E440E540E680E840EA80EC40ED20EE800002010C035808400A010B840E020F0411021260164017101A021E021F40210125402725284029082A442E802F843102DC
:4002C00032203501360437403B843C243D803F01410A450A470249064B114F10508051245C025E205F48800881408280874990049201930495029622978098109C409E444F
:400300009F04A001A102A224A308A418A501A701B404B605B701C006C2CBC45CCABBCCD5CEFAD0C3D224D6F0E002E606001A02050407050108130A0C101F1102141C1603C4
:400340001A401D011F0628052A1A2E20300F3104324034303502370139803F105608580459045B045D905F0181858204831A840D85CA87158802900291CC932395BF97409E
:40038000980299039BFCA001A177A208AE09B002B1F0B201B30FB404B608BE54C064C102C205C401C50CC6E0C809C9FFCAFFCBFFCC62CDA0CEF0CF41D00CD608D804D90414
:4003C000DA04DB04DC02DD92DF01E640E702E910EA30EB10ED10EE10EF1200260502072408080A880C020E0410091580170219191A801B011D421E201F20214022012308A6
:400400002501260627102F40308032053308362639083E013F0444044502474049404B404D804E084F08571058805C205D4062C0640267096E406F01844087209004914899
:400440009201938496209758981099069B229D019E809F10A089A160A221A308A410A509A610A781AC02AD04C07EC25EC493CA80CCE9CEC2D0B0D230D638D838EA05EC20A8
:40048000EE8003080401060208040B100D020E080F0413021402160117101A081C011E021F042401261227062B01300831073203330834043510361037073A083E113F51B4
:4004C000580459045F01809E8101826083028473889489028A608B018C308D018EC98F0690FD920294CF9501963097029B08A508AB08AE0FB104B308B503B6FFBB20BE40A3
:40050000BF04D40FD804D904DB04DF0500A605E0072008080A800E210F0811801220130414101B801C281E211F012040211123102620276229082B082F14302032043402D4
:40054000368439623E413F2040204104586059015B08612469907A01808081408404880189108D409004910892C09381962497109852990C9A409B099C0D9D809E809F4435
:40058000A081A162A281A31CA412A508A608A780A8A0B511C0EFC2ECC421CA66CCD6CEBDD60FD806DE08E614EE0105A3075C09FE0B010E0111C5133A157F1B011C041D96EB
:4005C0001E021F6824042804290E2BF032043401360237FF38083E043F404063410549FF4AFF4BFF4DA04F0150185608580459045A045B045D905F0160406280644065407F
:40060000668068406A806C406D206E80850288018C048D01920193019A039D029E04AD01AE04B004B102B202B301B401B902BE11BF04C023C105C52EC6C4C703C81FC9FF18
:40064000CAFFCBFFCDAFCE07CF01D018D280D40FD804D904DA04DB04DF01E040E280E440E540E680E840EA80EC40ED20EE800050058008200A420C801001120216041708B6
:4006800018141A801B101D481F2022012320270128012C043080320134203608378A38403A043E203F08400441084508488049084A024E024F2052545A815B285C8065806A
:4006C000724083208A218B0198209A209B0A9E01A202A304B420B620C083C28BC461CA28CCF9CE6AD046D238D61FD810E080E620E840EC40EE019B0A9E01A202A304AA013F
:40070000EA01EC20EE8086029B0AA304B70EE606E850EC40008A0254051006880A800C200D100E451013110112C4130E170318131A4C1B081C031D101E04210C23032901DD
:400740002B062F0C30C83310340F3630370F388039083A223B803F044002450449FF4A074BFF4C404D204EF04F055008580459045A045C225D025F01604061A8624063201D
:4007800084F386048C518EA28F0491019502960C9830990C9AC39D08A080A10CA222A4F3A608A702AB02AC40AD02AE11B20FB302B4F0B50CB701B928BA08BF50D418D604CD
:4007C000D804D904DB04DC22DD20DF0100A001080280071109400A440D200E2014021640170419631A441D201E201F1421082280240425802604284029602D022F2A30A82F
:40080000310134403520368A39083B803C80400448705C016602670681208202841085488A828D81900191089386972898029A409B15A088A140A208A32AA440A508A60496
:40084000A820AA02B140C0AFC26BC4B0CAFDCCFFCE1AD004D680D8B0E008E210E429E610E880EC4000080310047C0502068208CF09060A300C200D100F20110912C3143C65
:40088000154916C1170618FF19041C041F20200422082309241025462709283029472B082D4F2E0C313032B03307343F3540367037083A2A3B083F105602571158045904A0
:4008C0005B045C225D205F0188028F02A603AF01B002B201B302B501BE01D608D804D904DB04DD90DF010010042406410C040D220F0111041769181019011C041D401F2A0D
:4009000022142421261827402B012C442F2A3420368837023840390C3E683F014440450258805E2063026C026E046F14762B77288020852087028848904091089240938798
:40094000962C972898829A409B039D419F04A080A102A280A422A508A60CA702A808AC04AF02B050B110B280B520C0F2C2F0C4F4CAF8CCF0CEF8D628D808E201E401E81059
:40098000EA02EE040603081009020A0C0C200F011301140C15011611181419011E202010241C260228092A102B013101321F350236203E403F114065410346EC470B481C08
:4009C00049FF4AFF4BFF4EF04F44500C5280540F580459045A045B045C025D025F0566C06A406B0282048C049002A501AA03AF02B001B102B301B402B604BE50BF04D4010C
:400A0000D604D804D904DB04DD20DF010040024005640A400C800D080F0812041511162019801A441D041E1220402204251027402A402B102E202F043520362237083C80D0
:400A40003E10450847084D204E02544057145A085B625D805E065F1062016508661076807E088080828088808A028B10944099489A549C809E01A080A208AB04B004B38050
:400A8000C0E9C2E8C472CA2ACCE0CE30D040D230D6FFD861DE20E420EA02ECA038023E0158045F011880822085118B048C408F08951197089F08A620B040B320B510B7127B
:400AC000E080E440E610E880EC40EE20301033013604372038208D02CCF0CE1003200740080931103208340835803B10841094209C109D029F21A604C030C210CCF0CE10C9
:400B0000E64012085180544094209B409D129F01A320A60CA980AB20B001B310C440D460EAA01B011C90834085808E8094209B409D129F01A440A580A604AB20C630E4803F
:400B4000E640EC20014009200A800C02502081408710C002C20ED4045408928096109720A00AA120A420AA10B00AD402EC04EE010B240E10890296109720A002A120A42090
:400B8000AA40C20EE0010002012005025110660468086C08812094209A809D12A301A604AF01B410C070D420D880DAC0E480EA4002010D100E0856805A046302660881106F
:400BC0008A048C088E0C95209A809D109E05A301A408A604B001B410B601C040C280D440D640D880E62050025208552078409902A002A120A420AF04D407DC017502990212
:400C0000B040B420B608DE04E801EC0A100511011A051B011C0500EA01BF020F050100000000000001010501010100001300000000000000001C1C001C000000400007383D
:400C400038003800C0000000000B0B000B0000000800740A0A00080000000000847B7B003800000000000000000000000000000000000000000000000000000000000000D9
:400C80000000000000000000000000000000000000000000000000000000000000000000000000000000000000000000000000000000000000000000000000000000000034
:400CC00000000000000000000000000000000000000000000000000000000000000000000000000000000000000000000000000000000000000000000000000000000000F4
:400D000000000000000000000000000000000000000000000000000000000000000000000000000000000000000000000000000000000000000000000000000000000000B3
:400D40000000000000000000000000000000000000000000000000000000000000000000000000000000000000000000000000000000000000000000000000000000000073
:0200000490006A
:0400000000004007B5
:0200000490105A
:04000000BC90ACAF55
:0200000490303A
:02000000DE120E
:0200000490402A
:4000000000000000000000000000000000000000000000000000000000000000000000000000000000000000000000000000000000000000000000000000000000000000C0
:400040000000000000000000000000000000000000000000000000000000000000000000000000000000000000000000000000000000000000000000000000000000000080
:400080000000000000000000000000000000000000000000000000000000000000000000000000000000000000000000000000000000000000000000000000000000000040
:4000C0000000000000000000000000000000000000000000000000000000000000000000000000000000000000000000000000000000000000000000000000000000000000
:0200000490501A
:0C00000000012E16106900012E30EE7B6E
:00000001FF