:400000000080002011000000690900006909000080B500AF024A034B1B68136000F0AEFCBC760040FA46004010B5054C237833B9044B13B10448AFF300800123237010BD89
:400040007081FF1F00000000A03E0000084B10B51BB108490848AFF300800848036803B910BD074B002BFBD0BDE81040184700BF000000007481FF1FA03E0000C880FF1FF6
:400080000000000080B500AF62B602F04BFC02F00DFD03F0ADF903F053F903F0F9F803F09FF802F0EBFD02F05DFE002002F0FEFD002002F06FFE0121002000F0F3FC00F005
:4000C00005F80346184600F0E3F9F8E780B582B000AF03F027F80346FB7103F033F80346BB7103F03FF803467B7103F04BF803463B7103F057F80346FB7003F063F803462A
:40010000BB70344B1B78012B10D1FB78002B0BD13B79002B08D1304B01221A7003F03CFA2C4B00221A7016E001234FE0294B1B78022B10D1FB78002B0BD13B79002B08D13F
:40014000254B01221A7003F027FA224B00221A7001E002233AE0BB78002B03D01F4B5B79002B0FD01C4B1B78002B0BD1194B01221A701A4B5B79002B02D0184B00225A7104
:40018000012323E07B79002B03D0144B1B79002B0FD0114B1B78002B0BD10E4B02221A700E4B1B79002B02D00C4B00221A7102230CE0FB78002B07D13B79002B04D1054BB3
:4001C00000221A70002301E0024B1B7818460837BD4680BD0382FF1FC081FF1FD881FF1F80B582B000AF0346FB80FB88DBB2184602F03CFC00BF0837BD4680BD80B582B002
:4002000000AF0346FB80FB88DBB2184602F0F2FC00BF0837BD4680BD90B587B000AF00237B6102F0BFFF0346002B21D1874B5B78002B05D0854B00225A707B69783B7B61AB
:40024000824B9B78002B05D0804B00229A707B69783B7B6102F096FF0346002B04D07C4B4FF0FF321A6028E0794B00221A6024E002F088FF0346002B1FD1744B1B78002BEE
:4002800005D0724B00221A707B6978337B616F4BDB78002B05D06D4B0022DA707B6978337B6102F07FFF0346002B03D0684B01221A6002E0664B00221A60786903F070FB84
:4002C0000246644B1B681946104603F0B5FA03461A46604B1A60786903F062FB02465E4B1B681946104603F0A5FA0346BB605B4B1B681946B86803F09DFA03464FF07C5188
:40030000184603F0A1FB03461A46544B1B681946104603F091FA03461A46504B1A604F4B1B684F4A1360786903F03AFB02464D4B1B681946104603F087FB03461C464A4B15
:400340001A68444B1B681946104603F07DFB03461946204603F070FA03461C46434B1A683F4B1B681946104603F06EFB03461946204603F061FA03461C46354B1B6818461D
:4003800003F00EFB03461946204603F055FA03461A46374B1A602F4B1B683649184603F00FFD0346002B02D02A4B324A1A60294B1B683149184603F0E5FC0346002B02D0D9
:4003C000244B2D4A1A602A4B1B68184603F002FD03467B60264B1B68184603F0FBFC03465B423B607B68AF333B613B68AA33FB603B69A92B01DCAA233B613B69B42B01DD19
:40040000B4233B61FB68A92B01DCAA23FB60FB68B42B01DDB423FB60002002F047FC002002F0B8FC3B699BB21846FFF7D9FEFB689BB21846FFF7E2FE786903F0B1FA0246D9
:40044000054B1A6000BF1C37BD4690BDD881FF1FEC81FF1FE481FF1FE881FF1FF081FF1F0482FF1FCC80FF1FD080FF1FD480FF1F0882FF1F0000FA430000FAC380B500AF41
:400480007F20FFF7ADFE7F20FFF7B8FE00BF80BD80B582B000AF0346FB7100F049F8FB79052B35D801A252F823F000BFCB040000E9040000FD040000110500001105000060
:4004C000C5040000FFF7DAFF25E0002002F0EEFB002002F05FFC012003F0A2F8012003F033F9FFF799FE16E0012003F0B7F85A20FFF776FEA820FFF781FE0CE0012003F0A2
:40050000E9F8A820FFF76CFE5A20FFF777FE02E0FFF7B4FF00BFFB79062B02D0034AFB79137000BF0837BD4680BD00BF0382FF1F80B500AF002003F073F8002003F004F9B6
:40054000002003F0A9F8002003F0E0F8002003F085F8002003F0BEF800BF80BD80B582B000AF786039603A680021786803F08FFC00BF0837BD4680BD80B584B000AFF86031
:40058000B9607A607A68B968F86803F075FC00BF1037BD4680BD00BF80B483B000AF0346FB71FEE780B487B000AF7860396000233B6100237B6127E07B699B007A681344C4
:4005C0001B68BB60BB68FB73BB6823F0FF03BB6014E03B695B003A6813441B781A46BB68134419463B695B003A6813445B780B703B6901333B61FB7B013BFB73FB7B002B46
:40060000E7D17B6901337B617B69262BD4D900BF1C37BD4680BC704780B582B000AF3D4B04221A803C4B18221A703C4B3B221A803B4B18221A703B4B81221A803A4B182231
:400640001A703A4B42F6DF621A80394B19221A70384B45F6BF521A80374B19221A70374B06221A70364B52221A70364B364A1278D2B21A70354B40F619121A80344B41F2E6
:4006800051221A800023FB7019237B6014E0FB785B00DAB22F4B1B78DBB203F00103DBB21343DBB203F00303FB704FF4F07003F06BF87B68013B7B607B68002B02D0FB788F
:4006C000032BE4D17B68002B02D10320FFF764FF214B4FF480721A801F4B07221A701F4B00221A701E4B48221A701B4B00221A701C4B00221A701C4B02221A701B4A1B4BEA
:400700001B78DBB243F01F03DBB2137000BF0837BD4680BD80400040824000408440004086400040884000408A4000408C4000408E40004090400040924000400043004019
:4007400000420040A14600400F0100492242004020420040254200400440004006400040084000400940004001400040A243004080B483B000AF0B4B1B78FB710A4AFB7996
:4007800003F00703DBB21370084AFB791B09DBB21370074B44221A7000BF0C37BD4680BC704700BFCF0100496E5800406F5800407658004080B586B000AF72B6504B6122A5
:4007C0001A70FFF729FF4E4B01221A700023FB7513E0FA7D13465B0013445B00494A13443B613B691A683B699B889BB219461046FFF7B4FEFB7D0133FB75FB7D062BE8D905
:400800000023FB751CE0FA7D13469B0013445B003D4A1344FB60FB681B68BB60FB685B687B60FB681A7A5B7A1B0213437B807B881A467968B868FFF79FFEFB7D0133FB7584
:40084000FB7D002BDFD031494FF09040FFF7AAFE2F4B304A1A60304B304A1A60304A304B1B78DBB243F00203DBB213702D4A2D4B1B78DBB243F00203DBB213702A4A2A4B85
:400880001B78DBB243F04003DBB21370274A274B1B78DBB243F01003DBB21370082224492448FFF769FE082223492448FFF764FE0A2223492348FFF75FFE08222249234829
:4008C000FFF75AFE0A2222492248FFF755FE082221492248FFF750FE214A214B1B78DBB243F00803DBB21370FFF742FF0E220E491C48FFF741FE00BF1837BD4680BD00BF75
:4009000000480040A43E0000D03E00009C0000485800014004040084D8080140040404C40350014013500140A0430040C2430040D80B004802510040E00B0048C251004061
:40094000E80B0048F0510040F40B004812510040FC0B004820510040080C00483251004022430040B043004080B500AF03F058FA03461B680C2B00D1FEE7FEE780B586B0A8
:4009800000AF224B7B61224B3B61204B7B6135E03B691B68FB603B695B68BB603B699B683B6000237B600CE0FB681A68BB681A60BB680433BB60FB680433FB607B680433A4
:4009C0007B607A683B689A42EED13B69DB683B6000237B6008E0BB6800221A60BB680433BB607B6804337B607A683B689A42F2D13B6910333B617B69013B7B617B69002BB9
:400A0000C6D103F013FAFFF73DFBFEE701000000B440000080B582B000AF184B184A1A60184A184B1B6843F40073136000237B600FE07B68032B04D8134A7B6852F82330A6
:400A400000E0124B12497A6841F822307B6801337B607B682F2BECD90E4B1B78DAB20E4B1A700E4B0A4A1A60FFF7A4FE0C4B00221A6000BF0837BD4680BD00BF0CED00E09A
:400A80000004FA0514ED00E000000000690900000080FF1FBC760040C480FF1F08ED00E0C080FF1F80B582B000AF03460A46FB711346BB71094B1B78002B04D100F010F8BC
:400AC000064B01221A70BA79FB791146184600F0D9F800BF0837BD4680BD00BFF481FF1F80B582B000AF02F057FE0346FB71544A534B1B78DBB243F00103DBB21370514AFB
:400B0000504B1B78DBB243F00103DBB213704E4B01221A704D4B02221A704D4A4C4B1B78DBB203F07F03DBB21370002001F038FE484A484B1B78DBB223F00603DBB213709C
:400B4000454A454B1B78DBB223F02003DBB21370404A404B1B78DBB243F00103DBB21370012001F01DFE282001F01AFE3B4A3B4B1B78DBB203F07F03DBB21370374A374B43
:400B80001B78DBB223F04003DBB21370314A314B1B78DBB243F00203DBB21370022001F0FFFD2C4A2B4B1B78DBB243F00403DBB213702B4B00221A702A4B00221A70FB7934
:400BC000184602F0EDFD0721172001F025FE2649172001F0F9FD0721182001F01DFE2349182001F0F1FD0721152001F015FE2049152001F0E9FD0721002001F00DFE1D494C
:400C0000002001F0E1FD0721012001F005FE1A49012001F0D9FD0721022001F0FDFD1749022001F0D1FD07210C2001F0F5FD14490C2001F0C9FD00BF0837BD4680BD00BF53
:400C4000A5430040B54300409D60004009600040106000409443004012600040F85100408460004085600040D9160000C10F0000CD160000E51500002D1600007916000075
:400C8000E516000080B582B000AF03460A46FB711346BB712E4AFB7913702E4B00221A702D4B00221A702D4B00221A702C4B00221A702C4B00221A702B4B00221A702B4BDF
:400CC00000221A702A4B4FF400021A60284B4FF080721A60264B4FF400121A60244B01221A60234B02221A60214B04221A60BB79002B02D0012B09D011E01E4A1D4B1B7808
:400D0000DBB223F00103DBB2137011E0194A194B1B78DBB243F00103DBB2137008E0154A144B1B78DBB243F00103DBB2137000BF114B03221A70114B80221A70012002F06E
:400D400023FD0F4B04221A7000BF0837BD4680BD2982FF1F2C82FF1F4882FF1F4B82FF1F4082FF1F4A82FF1F4D82FF1F2882FF1F00E100E00960004028600040086000404A
:400D80001260004080B400AF0F4B00221A700F4B00221A700E4B00221A700E4B00221A700D4B00221A700D4B00221A700C4B00221A700C4B03221A700B4B80221A7000BF36
:400DC000BD4680BC704700BF2C82FF1F4882FF1F4B82FF1F4082FF1F4A82FF1F4D82FF1F2882FF1F286000400860004080B582B000AF0023FB71314B1B79DBB2184600F020
:400E000067F80346BB712D4B1B78DBB25BB2002B15DA2A4B5B78DBB2212B00D048E0284B07221A80BA791346DB009B1A254A1344234A536000F03EFA0346FB7138E01F4B6F
:400E40005B78DBB2202B02D0222B1AD030E01C4B07221A80BA791346DB009B1A194A1344174A5360BB79BA7917498A5CD2B242F00102D1B2144AD15400F09AFA0346FB71F5
:400E800016E0BB790D4A9278D2B291B20F4A22F81310BB79BA790C498A5CD2B242F00202D1B2094AD15400F021FB0346FB7100BFFB7918460837BD4680BD00BF00600040C3
:400EC0003482FF1FDC80FF1F1082FF1F2482FF1F80B485B000AF0346FB710023FB73FF23BB7317E0FB7B104AD35C7B737A7B0F4913465B0013449B000B440A331B78DBB2FF
:400F0000FA799A4203D1FB7BBB730223FB73FB7B0133FB73FB7B012BE4D9BB7B18461437BD4680BC704700BF1882FF1F5082FF1F80B485B000AF78600B46FB701346BB7074
:400F40007B68DB7803F00303FB737B689B785BB2002B1ADAFB7B032B0AD0BB7803F001031449FA78CA54BB7843F00103BB701BE0BB789B08DBB203F001030F49FA78CA544B
:400F8000BB7843F00403BB700EE0FB7B032B0BD0BB785B08DBB203F001030849FA78CA54BB7843F00203BB70BB7818461437BD4680BC70471482FF1F1882FF1F1C82FF1FA1
:400FC00080B582B000AF374B1B78BB71BB7903F01003002B62D00123FB7197F90630002B12DABB7903F00F03012B02D00023FB711CE000F061F82C4B1B78DBB25BB2002BBC
:4010000014DA0023FB7111E0BB7903F04003002B02D000F095F809E0BB7903F02003002B02D000F0B3F801E00023FB71FB79002B34D01C4B1B78BB7197F90630002B2DDB61
:401040001A4B1B78DAB21A4B1B78DBB21343BB71184ABB791370174B1B78DBB2BA799A421CD1114B1B78FB710E4B1B78DBB223F07F03BB71BB79002B0AD10A4B0A4A12784C
:40108000D2B21A70074B1B78DBB203F00F03FB71054B1B78DBB2FA799A42E2D100BF0837BD4680BD286000404982FF1FBE82FF1F4C82FF1F2960004080B582B000AF1D4B4D
:4010C0001B78FB711B4AFB7913701A4B1B78FB7197F90730002B03DA174AFB79137025E0022000F045FA154B1B78DBB203F06003202B08D0402B0BD0002B0ED100F0F8FA89
:401100000346FB710CE002F04FFB0346FB7107E001F000FB0346FB7102E00023FB7100BFFB79002B02D1044B03221A7000BF0837BD4680BD286000404982FF1F0060004066
:4011400080B500AF104B1B78DBB2062B19D801A252F823F08311000083110000711100008311000077110000831100007D11000000F0F8F806E000F0A7F903E000F0D2F912
:4011800000E000BF00BF80BD2C82FF1F80B500AF124B1B78DBB2062B1DD801A252F823F0D7110000D7110000BD110000D7110000C3110000D7110000C911000000F0D8F865
:4011C0000AE000F027F907E0032000F0D1F9044B03221A7000E000BF00BF80BD2C82FF1F4982FF1F80B483B000AF0023FB71294B1B78DBB29AB2284B1B889BB213449AB258
:40120000254B1A8015E02549FB79254A52681278D2B2CA54224B5B680133214A5360FB790133FB711E4B1B889BB2013B9AB21C4B1A801B4B1B889BB2002B02D0FB79072B07
:40124000E1D9144B1B78DBB2082B02D0FB79002B0FD0144B1B78DBB283F07F03DB43DAB2104B1A70104B0F221A70104B02221A7005E00D4B02221A700C4B02221A700C4A4A
:40128000FB791370034AFB79137000BF0C37BD4680BC70472882FF1F2A82FF1F006000403482FF1FBE82FF1F4982FF1F2C82FF1F4C82FF1F80B582B000AF164B1B889BB28F
:4012C000002B02D100F02EF81EE0134B02221A70124B00221A7000F06BF9114BDB79DBB29BB21B029AB20E4B9B79DBB29BB21343FB80084B1B889BB2FA889A4202D2054AA4
:40130000FB881380FFF76EFF012318460837BD4680BD00BF3482FF1F2C82FF1FBE82FF1F0060004080B400AF094B02221A70094B80221A70084B0F221A70084B00221A7064
:40134000074B00221A7001231846BD4680BC70472C82FF1FBE82FF1F4982FF1F2882FF1F4C82FF1F80B500AFFFF73CFF00BF80BD80B500AF0A4B1B78DBB29AB2094B1B8883
:401380009BB213449AB2074B1A80074B00221A70012000F0EDF8054B03221A7000BF80BD2882FF1F2A82FF1F2C82FF1F4982FF1F80B582B000AF124B04221A70114B8022FA
:4013C0001A7000F0F5F8104BDB79DBB29BB21B029AB20D4B9B79DBB29BB21343FB800B4B1B889BB2FA889A4202D2084AFB881380074B0B221A70012318460837BD4680BD93
:401400002C82FF1FBE82FF1F006000403482FF1F4982FF1F80B483B000AF0023BB71234B1B78DBB203F00F03DBB2023BFB71FB799AB21F4B1B889BB213449AB21C4B1A8039
:4014400018E01C4B5B681C49BA798A5CD2B21A70184B5B680133174A5360BB790133BB71FB79013BFB71134B1B889BB2013B9AB2104B1A800F4B1B889BB2002B02D0FB791A
:40148000002BDED10D4AFB7913700D4B1B78DBB283F07F03DB43DAB2094B1A70094B0B221A7000BF0C37BD4680BC7047296000402A82FF1F3482FF1F006000404C82FF1F19
:4014C000BE82FF1F4982FF1F80B500AF054B00221A70012000F04CF8034B03221A7000BF80BD00BF2C82FF1F4982FF1F80B400AF084B06221A70084B06221A70074B802222
:401500001A70074B00221A7001231846BD4680BC704700BF2C82FF1F4982FF1FBE82FF1F4C82FF1F80B500AF0D4B1B78DBB2002B0AD00C4A0A4B1B78DBB263F07F03DBB25F
:401540001370074B00221A70074B00221A70012000F00EF8054B03221A7000BF80BD00BF4A82FF1F086000402C82FF1F4982FF1F80B483B000AF0346FB710B4B9B68002B85
:401580000CD0094B9B68FA791A70074B9B68074A128892B25A80044B00229A6000BF0C37BD4680BC704700BF3482FF1F2A82FF1F80B400AF094B00221A80094B9B68002B68
:4015C00007D0074B9B6800221A70054B9B6800225A8000BFBD4680BC704700BF2A82FF1F3482FF1F80B400AF0D4B01221A700D4B9B7C0D4B1B7BDBB203F00303012B08D0E3
:40160000094BDB7BDBB283F07F03DB43DAB2064BDA73054B01225A7300BFBD4680BC70470B600040FC5F00405082FF1F80B400AF0E4B02221A700E4B93F822300D4B1B7EFA
:40164000DBB203F00303012B08D00A4BDB7EDBB283F07F03DB43DAB2064BDA76054B01225A7600BFBD4680BC704700BF0B600040FC5F00405082FF1F80B400AF104B042214
:401680001A70104B93F832300F4B93F82430DBB203F00303012B0AD00B4B93F82730DBB283F07F03DB43DAB2074B83F82720064B012283F8252000BFBD4680BC704700BF73
:4016C0000B600040FC5F00405082FF1F80B400AF00BFBD4680BC704780B500AFFFF752FB00BF80BD80B500AF01F03EF800BF80BD80B586B000AF0023FB759D4B1B78FB715E
:4017000000233B619B4B00221A8097F90730002B80F20481964B5B78DBB20A2B00F21B8201A252F823F000BF73180000571B0000571B0000571B0000571B0000571B0000D6
:4017400055170000571B0000E7180000571B0000FD180000864BDB78DBB2012B0ED100F049FEB860BB685B68824A5360814B12221A80FFF79FFD0346FB75EEE17C4BDB78C7
:40178000DBB2022B25D17A4B9B78DBB2184600F009FEB860BB68002B00F0DF81BB685B68744A5360734B5B6803331B78DBB29BB21B029AB26F4B5B6802331B78DBB29BB206
:4017C00013439AB26B4B1A80FFF774FD0346FB75C3E1674BDB78DBB2032B45D10023FB73654B3B6109E03B691B78BB71BB793A6913443B61FB7B0133FB735D4B9B78DBB20A
:40180000FA7B9A4204D23B691B78DBB2002BEAD1574B9B78DBB2EE2B01D1584B3B61544B9B78DBB2002B0BD0514B9B78DAB2544B1B7C9A4204D1534800F0ACF9514B3B619C
:401840003B691B78DBB2002B00F087813B691B78DBB29AB2474B1A80464A3B695360FFF729FD0346FB7578E101F09EFF0346FB7573E1FB7903F00303002B20D0022B00D010
:4018800030E03C4B02221A80394B1B79DBB203F07F023D4913465B0013449B000B4402331B78DAB2394B1A70384B00225A70314B364A5A60FFF7FEFC0346FB7512E02D4BA5
:4018C00002221A80324B1B78DAB2304B1A702F4B00225A70274B2D4A5A60FFF7EBFC0346FB7500BF40E1234B01221A80214B294A5A60FFF7DFFC0346FB7535E11D4B01221B
:401900001A801B4B1B79DBB21A46234B1344194A5360FFF7CFFC0346FB7525E1144B5B78DBB2013B0A2B00F21A8101A252F823F03B1A00005F1B0000C91A00005F1B0000E2
:401940005D1900005F1B00005F1B00005F1B0000A11900005F1B0000F7190000044B9B78DAB20E4B1A70FFF7C1FD0346FB75FBE0006000403482FF1F483F0000504000009B
:40198000F03E0000C482FF1F5082FF1FF881FF1F4D82FF1F4B82FF1FBC82FF1F4A82FF1F744B9B787B717B79002B06D07B79013BDBB2184600F0F6FCB8607B79002B02D037
:4019C000BB68002B03D17B79002B40F0CA806A4B1B78DBB27A799A4208D0674A7B791370664B01221A70012000F0DCF9FFF77EFD0346FB75B5E000F055FE0346002B00F0DE
:401A0000B2805C4B1B793B715A4B1B79DAB25C4B1A703B795B4AD35CDAB23B795A49CB5CDBB29A4204D0554B01221A7000F08CFBFFF75CFD0346FB7595E0FB7903F003031A
:401A4000012B20D0012B0CD3022B00D03BE0494B9B78DBB2002B31D100F078FD0346FB752CE0444B9B78DBB2012B29D1474B1B78DBB223F00203DAB2444B1A70FFF736FDAF
:401A80000346FB751CE03B4B1B79DBB2012B19D8384B9B78DBB2DB43DBB2364A1279D2B2114610463A4A125CD2B21340DAB2384B5A54FFF71BFD0346FB7503E000BF53E081
:401AC00000BF51E000BF4FE0FB7903F00303012B20D0012B0CD3022B00D03BE0254B9B78DBB2002B31D100F0BDFC0346FB752CE0204B9B78DBB2012B29D1244B1B78DBB2F1
:401B000043F00203DAB2214B1A70FFF7EFFC0346FB751CE0174B1B79DBB2012B19D8154B9B78DBB2DB43DBB2124A1279D2B211461046174A125CD2B21340DAB2144B5A54B3
:401B4000FFF7D4FC0346FB7503E000BF0CE000BF0AE000BF08E000BF06E000BF04E000BF02E000BF00E000BFFB7D18461837BD4680BD00BF006000404B82FF1F4882FF1F2A
:401B80004082FF1F3082FF1FBC82FF1F4D82FF1FC082FF1FB0B58AB000AF7860324B07F114041D460FCD0FC42B682370002387F826307B68002B52D07B6822221A707B6825
:401BC000013303221A7007F10C03184600F048FE022387F827303EE097F827307A68134497F8262007F128010A4412F81C2C1209D2B207F128010A4412F8142C1A7097F828
:401C0000273001337A68134400221A7097F8273002337A68134497F8262007F128010A4412F81C2C02F00F0207F128010A4412F8142C1A7097F8273003337A68134400228D
:401C40001A7097F82630013387F8263097F82730043387F8273097F82730212BBCD900BF2837BD46B0BD00BFDC3E000090B482B000AF0123FB7180E0464AFB791B0113443F
:401C80000C221A70FA79444913465B0013449B000B4405331B78DBB2002B1CD0FA793E4913465B0013449B000B4404331B78DBB25BB2002B07DA394AFB791B01134402330A
:401CC0000C221A700EE0354AFB791B011344023308221A7006E0314AFB791B011344023380221A702B48F979FA792B4C13465B0013449B00234406331B889BB2DAB20B01A9
:401D0000034406331A702348F979FA79224C13465B0013449B00234406331B889BB21B0A9BB2DAB20B01034407331A701948F979FA79194C13465B0013449B00234406339F
:401D40001B889BB2DAB20B01034404331A701148F979FA79104C13465B0013449B00234406331B889BB21B0A9BB2DAB20B01034405331A70FB790133FB71FB79082B7FF6C0
:401D80007BAF074BFF221A7000BF0837BD4690BC704700BF706000405082FF1FFC5F00400A60004080B58AB000AF0346FB7100237B84002387F8273050E097F82720B34904
:401DC00013465B0013449B000B4400221A7097F82720AE4913465B0013449B000B44023300221A7097F82720A84913465B0013449B000B44033300221A7097F82720A3493F
:401E000013465B0013449B000B44083300221A8097F827209D4913465B0013449B000B440A3300221A7097F82720984913465B0013449B000B44013300221A7097F82720BA
:401E4000924913465B0013449B000B44053300221A7097F82730013387F8273097F82730082BAAD9FB79002B16D0002387F825300EE097F82530864A0021D15497F82530DA
:401E8000844A0021D15497F82530013387F8253097F82530012BECD97F4B1B78DBB2002B00F04A810023FB767B4B1B78DBB2013BDBB2184600F076FA78617B695B683B6160
:401EC0003B6907331B7803F04003002B08D0734B1B78DBB243F00103DAB2704B1A7007E06E4B1B78DBB223F00103DAB26B4B1A707B6908337B617B691B7887F82730012343
:401F000087F82530B6E07B695B68FB61002387F82630A3E097F82520FB699B7803F07F039A4240F0938097F82520584913465B0013449B000B4408331B889AB2FB699B88BF
:401F40009A420CD297F82520FB6998884F4913465B0013449B000B44083302461A80FB691B781A464A4B9B5CDAB2FB695B789A426CD197F82520FB699878444913465B005D
:401F800013449B000B44043302461A7097F82520FB69D8783D4913465B0013449B000B4402461A70FB69DB7803F00303FB73FB699B785BB2002B1CDA97F82520FB7B012BC9
:401FC00001D1072000E00D20304913465B0013449B000B44053302461A7097F825202B4913465B0013449B000B44013301221A701BE097F82520FB7B012B01D1052000E0FD
:402000000920224913465B0013449B000B44053302461A7097F825201C4913465B0013449B000B44013300221A70FB699B790A2B03D0FB699B79022B08D1FA7E97F82530A5
:402040001946F869FEF774FF0346FB76FB690833FB6197F82630013387F8263097F8262097F827309A42FFF455AF97F82530013387F8253097F82530082B7FF644AF7B69B8
:402080005B68FB61002387F8253020E05082FF1FBC82FF1F3082FF1F4B82FF1F4D82FF1FFB699B7803F07F02FB691878244913465B0013449B000B440A3302461A70FB6962
:4020C0000833FB6197F82530013387F8253097F8252097F827309A42E2D300F09DF90246184B1A6000237B84012387F827301DE097F82720124913465B0013449B000B4428
:4021000006337A8C1A8097F827200D4913465B0013449B000B4408331B889AB27B8C13447B8497F82730013387F8273097F82730082BDDD9FFF79AFD00BF2837BD4680BD74
:402140005082FF1F4482FF1F90B585B000AF8F4B1B78DBB2002B00F015818C4B1B78DBB2013BDBB2184600F01DF978607B6808337B607B681B78FB707B685B68BB60844B51
:402180001B78BB700023FB73F7E0BB681B78BA789A4240F0EC80BB787E4AD35CDAB2BB685B789A4240F0E380BB689B7803F07F037B70BB68DB7803F003033B707A7876491D
:4021C00013465B0013449B000B44033300221A707A78BB689878704913465B0013449B000B44043302461A707A78BB68D8786A4913465B0013449B000B4402461A707A785B
:40220000BB689888644913465B0013449B000B44083302461A80BB689B785BB2002B1ADA7A783B78012B01D1072000E00D205A4913465B0013449B000B44053302461A70C1
:402240007A78554913465B0013449B000B44013301221A7019E07A783B78012B01D1052000E009204C4913465B0013449B000B44053302461A707A78474913465B0013440D
:402280009B000B44013300221A70444A7B781B011344023301221A70404879787A783E4C13465B0013449B00234408331B889BB21B0A9BB2DAB20B0103441A703748797806
:4022C0007A78354C13465B0013449B00234408331B889BB2DAB20B01034401331A70304879787A782C4C13465B0013449B00234406331B889BB2DAB20B01034406331A70EB
:40230000274879787A78244C13465B0013449B00234406331B889BB21B0A9BB2DAB20B01034407331A701E4879787A781A4C13465B0013449B00234406331B889BB2DAB21F
:402340000B01034404331A70154879787A78124C13465B0013449B00234406331B889BB21B0A9BB2DAB20B01034405331A70BB680833BB60FB7B0133FB73FA7BFB789A420D
:40238000FFF403AF00BF1437BD4690BD4B82FF1F4082FF1FBC82FF1F5082FF1FFC5F00407060004080B485B000AF0346FB710F4B1B78DBB20E4ADB0013445B68FB60FB680A
:4023C0001033FB60FB681B78FA799A4202D30023FB6005E0FB79DB00FA6813445B68FB60FB6818461437BD4680BC70472982FF1F4840000080B400AF054B1B78DBB2054AA7
:40240000DB0013445B681846BD4680BC704700BF2982FF1F4840000080B584B000AF104B1B78DBB2013BDBB21846FFF7BBFFB860BB68002B0DD0BB685B681B79FB71FB793C
:402440000233DB00BA681344BB60BB685B68FB6001E00023FB60FB6818461037BD4680BD4B82FF1F80B582B000AF0023FB71344B1B79DBB203F07F03BB71BB79002B5AD076
:40248000BB79082B57D8BA79B9792E480B465B000B449B00034402331B78DBB243F00103D8B2284913465B0013449B000B44023302461A70BA79234913465B0013449B0006
:4024C0000B44033300221A70BA79B9791D480B465B000B449B00034401331B78DBB243F00203D8B2174913465B0013449B000B44013302461A70BA79124913465B001344FA
:402500009B000B4404331B78DBB25BB2002B07DA0D4ABB791B01134402338D221A7006E0094ABB791B011344023389221A70FEF7DDFF0346FB71FB7918460837BD4680BDB4
:40254000006000405082FF1FFC5F004080B582B000AF0023FB71504B1B79DBB203F07F03BB71BB79002B00F09280BB79082B00F28E80BA79B97949480B465B000B449B00DA
:40258000034402331B78DBB223F00103D8B2434913465B0013449B000B44023302461A70BA793E4913465B0013449B000B44033300221A703A49BB793948BA791201024401
:4025C0001278D2B202F07F02D2B21B010B441A70BA79B97931480B465B000B449B00034401331B78DBB223F00203D8B22B4913465B0013449B000B44013302461A70BA798E
:40260000264913465B0013449B000B4404331B78DBB25BB2002B1BDABA79204913465B0013449B000B4401331B78DBB2012B07D11B4ABB791B01134402330C221A7022E0CE
:40264000174ABB791B01134402330D221A701AE0BA79124913465B0013449B000B4401331B78DBB2012B07D10D4ABB791B011344023308221A7006E0094ABB791B011344C8
:40268000023309221A70FEF731FF0346FB71FB7918460837BD4680BD006000405082FF1FFC5F004080B584B000AF0023FB73154B1B79BB73144B1B78DBB2013BDBB2184669
:4026C000FFF770FEB860BB685B681B79FB71BA7BFB799A4202D9BB7B022B0ED8BB7BBA7B0A498A5CD1B20A4AD154BB7B054A9278D1B2064AD1540123FB73FB7B18461037FB
:40270000BD4680BD006000404B82FF1FBC82FF1F3082FF1F80B582B000AF0023FB710F4B1B78DBB25BB2002B12DA0C4B5B78DBB2012B00D00CE00A4B0A4A5A60094B1B7876
:402740009AB2074B1A80FEF7B5FD0346FB7100BFFB7918460837BD4680BD00BF006000403482FF1F6440000080B400AF054B1B78DBB203F040039B09DBB21846BD4680BC87
:40278000704700BF8F45004080B483B000AF0346FB7101BE00BF0C37BD4680BC704700BF80B582B000AF0346FB80FB88054A127802FB03F3184600F0E7FF00BF0837BD46F0
:4027C00080BD00BF0081FF1F80B584B000AF03463960FB710F4B1B68FB60FB791F2B02D90020FFF7D1FFFB7903F01F0310339B00FA6813441B68BB60FB7903F01F03103397
:402800009B00FA6813443A681A60BB6818461037BD4680BD08ED00E080B582B000AF03460A46FB711346BB71BB79072B02D90020FFF7AAFFFB791F2B02D90020FFF7A4FF59
:40284000FB7903F01F0303F1604303F56443BA795201D2B21A7000BF0837BD4680BD00BF80B483B000AF7860264B1B78DBB21A467B681A60244B1B78DBB21B027A681268C4
:402880001A437B681A60214B1B78DBB21B047A6812681A437B681A601D4B1B78DBB21B067A6812681A437B681A607B680433194A1278D2B21A60184B1B78DBB21A027B6857
:4028C00004337968043109680A431A60134B1B78DBB21A047B6804337968043109680A431A600F4B1B78DBB21A067B6804337968043109680A431A6000BF0C37BD4680BC0C
:40290000704700BF0301004904010049EC460040020100490101004900010049050100490601004980B500AF064B1B78002B04D100F00AF8034B01221A7000F063F800BFD5
:4029400080BD00BFFA81FF1F80B582B000AF284A274B1B78DBB243F00203DBB21370254B1B78DBB223F07003FB71224AFB7943F01003DBB21370204A1F4B1B78DBB223F0A1
:402980003003DBB213701C4A1B4B1B78DBB243F03003DBB21370184A174B1B78DBB223F00F03DBB21370144A134B1B78DBB243F00F03DBB21370FF2000F048F87F2000F04A
:4029C00055F8002000F062F80C4A0C4B1B78DBB243F00103DBB21370094A094B1B78DBB243F00103DBB2137000BF0837BD4680BD004F0040024F00400B4F0040A3430040E0
:402A0000014F004080B400AF0D4A0D4B1B78DBB243F00103DBB213700A4A0A4B1B78DBB243F00103DBB21370074A074B1B78DBB243F00103DBB2137000BFBD4680BC70473E
:402A4000A3430040B3430040004F004080B483B000AF0346FB71044BFA7992B21A8000BF0C37BD4680BC7047044F004080B483B000AF0346FB71044BFA7992B21A8000BF4B
:402A80000C37BD4680BC7047064F004080B483B000AF0346FB71044AFB79137000BF0C37BD4680BC704700BF034F004080B500AF064B1B78002B04D100F00AF8034B0122C4
:402AC0001A7000F063F800BF80BD00BFFB81FF1F80B582B000AF284A274B1B78DBB243F00203DBB21370254B1B78DBB223F07003FB71224AFB7943F01003DBB21370204A28
:402B00001F4B1B78DBB223F03003DBB213701C4A1B4B1B78DBB243F03003DBB21370184A174B1B78DBB223F00F03DBB21370144A134B1B78DBB243F00F03DBB21370FF20EA
:402B400000F048F87F2000F055F8002000F062F80C4A0C4B1B78DBB243F00203DBB21370094A094B1B78DBB243F00103DBB2137000BF0837BD4680BD0C4F00400E4F004046
:402B8000174F0040A34300400D4F004080B400AF0D4A0D4B1B78DBB243F00203DBB213700A4A0A4B1B78DBB243F00203DBB21370074A074B1B78DBB243F00103DBB2137098
:402BC00000BFBD4680BC7047A3430040B34300400C4F004080B483B000AF0346FB71044BFA7992B21A8000BF0C37BD4680BC7047104F004080B483B000AF0346FB71044B0D
:402C0000FA7992B21A8000BF0C37BD4680BC7047124F004080B483B000AF0346FB71044AFB79137000BF0C37BD4680BC704700BF0F4F004080B400AF00BFBD4680BC7047AD
:402C400080B582B000AF0F2000F058F800F048F800F0A2FD0346FB71074A074B1B78DBB243F01003DBB21370FB79184600F098FD00BF0837BD4680BD9965004080B500AF8B
:402C800000F010F94FF4004000F03AF9064B1B78002B04D1FFF7CEFF034B01221A70FFF7CFFF00BF80BD00BFFC81FF1F80B584B000AF0346FB80B7F90630002B04DBFB886A
:402CC000A3F50043FB8103E0FB88A3F50043FB81FB89184600F014F900BF1037BD4680BD80B400AF044B1B78DBB203F00F03DBB21846BD4680BC70476965004080B483B0EE
:402D000000AF0346FB71044AFB79137000BF0C37BD4680BC704700BF8965004080B400AF00BFBD4680BC704780B582B000AF0F2000F058F800F048F800F02EFD0346FB71E8
:402D4000074A074B1B78DBB243F01003DBB21370FB79184600F024FD00BF0837BD4680BD9364004080B500AF00F064F94FF4004000F08EF9064B1B78002B04D1FFF7CEFF10
:402D8000034B01221A70FFF7CFFF00BF80BD00BFFD81FF1F80B584B000AF0346FB80B7F90630002B04DBFB88A3F50043FB8103E0FB88A3F50043FB81FB89184600F068F967
:402DC00000BF1037BD4680BD80B400AF044B1B78DBB203F00F03DBB21846BD4680BC70476364004080B483B000AF0346FB71044AFB79137000BF0C37BD4680BC704700BF87
:402E00008364004080B582B000AF1C4B1B78DBB223F00703FB71194AFB791370174B1B78DBB223F00303FB71144AFB79137000F0A3F84FF4004000F07FF84FF4004000F0A7
:402E40005FF8002000F040F800F04EF84FF4004000F082F800F0A0FC0346BB71084A084B1B78DBB243F01003DBB21370BB79184600F096FC00BF0837BD4680BD7864004006
:402E80009964004080B400AF054A054B1B78DBB263F07F03DBB2137000BFBD4680BC70477864004080B500AF064B1B78002B04D1FFF7A8FF034B01221A70FFF7E3FF00BF86
:402EC00080BD00BFFE81FF1F80B483B000AF0346FB71044AFB79137000BF0C37BD4680BC704700BF8964004080B400AF034B1B78DBB21846BD4680BC704700BF69640040D4
:402F000080B483B000AF0346FB80044AFB88138000BF0C37BD4680BC704700BF1068004080B400AF034B1B889BB21846BD4680BC704700BF9068004080B483B000AF034619
:402F4000FB80044AFB88138000BF0C37BD4680BC704700BF5068004080B483B000AF0346FB80044AFB88138000BF0C37BD4680BC704700BF7068004080B500AF01E0FFF7FB
:402F8000CFFFFFF7B1FF034603F04003002BF6D100BF80BD80B582B000AF1C4B1B78DBB223F00703FB71194AFB791370174B1B78DBB223F00303FB71144AFB79137000F064
:402FC000A3F84FF4004000F07FF84FF4004000F05FF8002000F040F800F04EF84FF4004000F082F800F0D8FB0346BB71084A084B1B78DBB243F01003DBB21370BB79184632
:4030000000F0CEFB00BF0837BD4680BD726400409064004080B400AF054A054B1B78DBB263F07F03DBB2137000BFBD4680BC70477264004080B500AF064B1B78002B04D135
:40304000FFF7A8FF034B01221A70FFF7E3FF00BF80BD00BFFF81FF1F80B483B000AF0346FB71044AFB79137000BF0C37BD4680BC704700BF8064004080B400AF034B1B78D8
:40308000DBB21846BD4680BC704700BF6064004080B483B000AF0346FB80044AFB88138000BF0C37BD4680BC704700BF0468004080B400AF034B1B889BB21846BD4680BC0D
:4030C000704700BF8468004080B483B000AF0346FB80044AFB88138000BF0C37BD4680BC704700BF4468004080B483B000AF0346FB80044AFB88138000BF0C37BD4680BCCE
:40310000704700BF6468004080B500AF01E0FFF7CFFFFFF7B1FF034603F04003002BF6D100BF80BD80B400AF054B1B78DBB203F010031B09DBB21846BD4680BC704700BF54
:403140000151004080B400AF054B1B78DBB203F020035B09DBB21846BD4680BC704700BF2151004080B400AF054B1B78DBB203F040039B09DBB21846BD4680BC704700BFD1
:403180002151004080B400AF054B1B78DBB203F004039B08DBB21846BD4680BC704700BF3151004080B400AF054B1B78DBB203F08003DB09DBB21846BD4680BC704700BFBE
:4031C0003151004080B400AF044B1B78DBB203F00103DBB21846BD4680BC7047F151004080B500AF00F048F8044800F015F8072000F024F800F034F800BF80BD0132000086
:4032000080B400AF034B0122DA7000BFBD4680BC704700BFD881FF1F80B485B000AF7860054B1B68FB60FB686C337A681A6000BF1437BD4680BC704708ED00E080B483B04D
:4032400000AF0346FB71054AFB795B01DBB2137000BF0C37BD4680BC704700BF0BE400E080B400AF034B4FF400621A6000BFBD4680BC704700E100E080B400AF034B4FF4FB
:4032800000621A6000BFBD4680BC704780E100E080B500AF00F048F8044800F015F8072000F024F800F034F800BF80BDB132000080B400AF034B01229A7000BFBD4680BC55
:4032C000704700BFD881FF1F80B485B000AF7860054B1B68FB60FB6868337A681A6000BF1437BD4680BC704708ED00E080B483B000AF0346FB71054AFB795B01DBB213709A
:4033000000BF0C37BD4680BC704700BF0AE400E080B400AF034B4FF480621A6000BFBD4680BC704700E100E080B400AF034B4FF480621A6000BFBD4680BC704780E100E0FC
:4033400080B500AF00F048F8044800F015F8072000F024F800F034F800BF80BD6133000080B400AF034B01225A7000BFBD4680BC704700BFD881FF1F80B485B000AF786018
:40338000054B1B68FB60FB6850337A681A6000BF1437BD4680BC704708ED00E080B483B000AF0346FB71054AFB795B01DBB2137000BF0C37BD4680BC704700BF04E400E04F
:4033C00080B400AF034B10221A6000BFBD4680BC704700BF00E100E080B400AF034B10221A6000BFBD4680BC704700BF80E100E080B500AF00F048F8044800F015F80720A5
:4034000000F024F800F034F800BF80BD1134000080B400AF034B01221A7000BFBD4680BC704700BFD881FF1F80B485B000AF7860054B1B68FB60FB684C337A681A6000BF3F
:403440001437BD4680BC704708ED00E080B483B000AF0346FB71054AFB795B01DBB2137000BF0C37BD4680BC704700BF03E400E080B400AF034B08221A6000BFBD4680BCEB
:40348000704700BF00E100E080B400AF034B08221A6000BFBD4680BC704700BF80E100E080B500AF264A264B1B78DBB203F00103DBB21370234A234B1B78DBB223F003034B
:4034C000DBB213701E4A1E4B1B78DBB243F00403DBB213701C4A1C4B1B78DBB223F03003DBB21370184A184B1B78DBB243F03003DBB21370144A144B1B78DBB223F00F03E1
:40350000DBB21370104A104B1B78DBB243F00F03DBB213700D4A0D4B1B78DBB243F00103DBB2137040F2F31000F058F840F2F31000F066F8082000F041F800BF80BD00BF37
:40354000244F0040264F00402F4F0040254F004080B400AF0D4A0D4B1B78DBB243F00803DBB213700A4A0A4B1B78DBB243F00803DBB21370074A074B1B78DBB243F0010360
:40358000DBB2137000BFBD4680BC7047A3430040B3430040244F004080B500AF064B1B78002B04D1FFF77CFF034B01221A70FFF7CFFF00BF80BD00BF0082FF1F80B483B07D
:4035C00000AF0346FB71044AFB79137000BF0C37BD4680BC704700BF274F004080B485B000AF0346FB80FB88FB81044AFB89138000BF1437BD4680BC704700BF284F0040FF
:4036000080B483B000AF0346FB80044AFB88138000BF0C37BD4680BC704700BF2A4F004080B485B000AF0346FB710B4B1B78DBB223F00803FB730849FB79DB00DBB203F0ED
:403640000803DAB2FB7B1343DBB20B7000BF1437BD4680BC704700BFF051004080B485B000AF0346FB710B4B1B78DBB223F01003FB730849FB791B01DBB203F01003DAB2C8
:40368000FB7B1343DBB20B7000BF1437BD4680BC704700BFF051004080B485B000AF0346FB710B4B1B78DBB223F02003FB730849FB795B01DBB203F02003DAB2FB7B1343F3
:4036C000DBB20B7000BF1437BD4680BC704700BFF051004080B485B000AF0346FB710A4B1B78DBB223F00103FB730749FB7903F00103DAB2FB7B1343DBB20B7000BF143796
:40370000BD4680BC704700BF1051004080B485B000AF0346FB710B4B1B78DBB223F00203FB730849FB795B00DBB203F00203DAB2FB7B1343DBB20B7000BF1437BD4680BC1C
:40374000704700BF1051004080B485B000AF0346FB710B4B1B78DBB223F00803FB730849FB79DB00DBB203F00803DAB2FB7B1343DBB20B7000BF1437BD4680BC704700BF19
:4037800010510040000000000230800803D000BF01380046FCD17047EFF3108072B6704780F31088704700BF80B582B000AF0023BB711B4B1B78DBB203F00303012B02D065
:4037C000022B04D012E0164B1B79FB7111E0144B1B79DBB203F07F02124913465B0013449B000B440A331B78FB7102E00023FB7100BFFB79022B0ED80B4B1A68FB791344AA
:403800001B78022B04D1FDF7F1FA0346BB7102E00023BB7100BFBB7918460837BD4680BD006000405082FF1F4482FF1F80F0004002E000BF81F0004142001FBF5FEA41037A
:4038400092EA030F7FEA226C7FEA236C6AD04FEA1262D2EB1363C1BFD218414048404140B8BF5B42192B88BF704710F0004F40F4000020F07F4018BF404211F0004F41F437
:40388000000121F07F4118BF494292EA030F3FD0A2F1010241FA03FC10EB0C00C3F1200301FA03F100F0004302D5494260EB4000B0F5000F13D3B0F1807F06D340084FEAE6
:4038C000310102F10102FE2A51D2B1F1004F40EBC25008BF20F0010040EA03007047490040EB000010F4000FA2F10102EDD1B0FA80FCACF1080CB2EB0C0200FA0CF0AABFAF
:4039000000EBC25052421843BCBFD0401843704792F0000F81F4000106BF80F400000132013BB5E74FEA41037FEA226C18BF7FEA236C21D092EA030F04D092F0000F08BFC5
:403940000846704790EA010F1CBF0020704712F07F4F04D1400028BF40F00040704712F100723CBF00F50000704700F0004343F0FE4040F4000070477FEA226216BF084658
:403980007FEA23630146420206BF5FEA412390EA010F40F4800070474FF0000304E000BF10F0004348BF40425FEA000C08BF704743F0964301464FF000001CE050EA0102D7
:4039C00008BF70474FF000030AE000BF50EA010208BF704711F0004302D5404261EB41015FEA010C02BF84460146002043F0B64308BFA3F18053A3F50003BCFA8CF2083AC5
:403A0000A3EBC25310DB01FA02FC634400FA02FCC2F12002BCF1004F20FA02F243EB020008BF20F00100704702F1200201FA02FCC2F1200250EA4C0021FA02F243EB02001A
:403A400008BF20EADC7070474FF0FF0C1CEAD0521EBF1CEAD15392EA0C0F93EA0C0F6FD01A4480EA010C400218BF5FEA41211ED04FF0006343EA501043EA5111A0FB013179
:403A80000CF00040B1F5000F3EBF490041EAD3715B0040EA010062F17F02FD2A1DD8B3F1004F40EBC25008BF20F00100704790F0000F0CF0004C08BF49024CEA502040EA72
:403AC00051207F3AC2BFD2F1FF0340EAC250704740F400004FF00003013A5DDC12F1190FDCBF00F000407047C2F10002410021FA02F1C2F1200200FA02FC5FEA310040F150
:403B0000000053EA4C0308BF20EADC70704792F0000F00F0004C02BF400010F4000F013AF9D040EA0C0093F0000F01F0004C02BF490011F4000F013BF9D041EA0C018FE76A
:403B40000CEAD15392EA0C0F18BF93EA0C0F0AD030F0004C18BF31F0004CD8D180EA010000F00040704790F0000F17BF90F0004F084691F0000F91F0004F14D092EA0C0F43
:403B800001D142020FD193EA0C0F03D14B0218BF084608D180EA010000F0004040F0FE4040F40000704740F0FE4040F4400070474FF0FF0C1CEAD0521EBF1CEAD15392EAD6
:403BC0000C0F93EA0C0F69D0A2EB030280EA010C49024FEA402037D04FF0805343EA111143EA10130CF000408B4238BF5B0042F17D024FF4000C8B4224BF5B1A40EA0C007D
:403C0000B3EB510F24BFA3EB510340EA5C00B3EB910F24BFA3EB910340EA9C00B3EBD10F24BFA3EBD10340EADC001B0118BF5FEA1C1CE0D1FD2A3FF650AF8B4240EBC250DF
:403C400008BF20F0010070470CF0004C4CEA50207F32C2BFD2F1FF0340EAC250704740F400004FF00003013A37E792F0000F00F0004C02BF400010F4000F013AF9D040EAFF
:403C80000C0093F0000F01F0004C02BF490011F4000F013BF9D041EA0C0195E70CEAD15392EA0C0F08D142027FF47DAF93EA0C0F7FF470AF084676E793EA0C0F04D14B0256
:403CC0003FF44CAF08466EE730F0004C18BF31F0004CCAD130F000427FF45CAF31F000437FF43CAF5FE700BF4FF0FF3C06E000BF4FF0010C02E000BF4FF0010C4DF804CD93
:403D00004FEA40024FEA41037FEA226C18BF7FEA236C11D001B052EA530C18BF90EA010F58BFB2EB030088BFC81738BF6FEAE17018BF40F0010070477FEA226C02D15FEAE7
:403D4000402C05D17FEA236CE4D15FEA412CE1D05DF8040B704700BF844608466146FFE70FB5FFF7C9FF002848BF10F1000F0FBD4DF808EDFFF7F4FF0CBF012000205DF85D
:403D800008FB00BF4DF808EDFFF7EAFF34BF012000205DF808FB00BF4DF808EDFFF7E0FF94BF012000205DF808FB00BF4DF808EDFFF7D2FF94BF012000205DF808FB00BF77
:403DC0004DF808EDFFF7C8FF34BF012000205DF808FB00BF4FEA4002B2F1FE4F0FD34FF09E03B3EB12620DD94FEA002343F0004310F0004F23FA02F018BF404270474FF0DD
:403E00000000704712F1610F01D1420205D110F0004008BF6FF0004070474FF000007047014B1868704700BF6881FF1F0E4B70B51E460E4C0025E41AA410A54204D056F8B4
:403E4000253098470135F8E700F022F9084B094C1E46E41AA4100025A54204D056F8253098470135F8E770BD9C4000009C4000009C400000A440000010B5431E0A449142CD
:403E800004D011F8014B03F8014FF8E710BD03460244934202D003F8011BFAE77047000000000000004F00403000405100403000000001400010001401400008004001400E
:403EC000000A004C01400002005001402000000000510140D00B00480800000030313233343536373839414243444546000000001201000202000008B40432F2010001021A
:403F00008001000009024300020101C032090400000102020103052400100104240202052406000105240100010705810308000A09040100020A0000040705820240000055
:403F40000705030240000000040309042C0343007900700072006500730073002000530065006D00690063006F006E0064007500630074006F007200100355005300420048
:403F800055004100520054003803430044004300200043006F006D006D0075006E00690063006100740069006F006E00200049006E00740065007200660061006300650099
:403FC000260343004400430020004400610074006100200049006E00740065007200660061006300650000000203000000008103080002000100820240000A00010003021B
:4040000040000A00020A000001000000043F000003000000EC3F000000000000000000000000000000000000000000000440000001000000F03E0000000000000000000045
:404040000100000008400000010000003040000012034D00530046005400310030003000010000002800000000010400010000000000000000014359555342000000303090
:4040800030303100000000000000000043000000F8B500BFF8BC08BC9E4670474D000000150A0000F8B500BFF8BC08BC9E46704729000000C8400000C880FF1FA800000083
:4040C00078010000000000000000000014AE473FCDCCCC3D8FC2753DAFAA000000C2010000000800C201000000080000A120000000000200000000000087930360EA000041
:404100003C0000000000307500000000000000000000000000000000000000000000000000000000000000008C4000000000000000000000000000000000000000000000D2
:40414000000000000000000000000000000000000000000000000000000000000000000000000000000000000881FF1F000000000000000000000000000000000000000098
:4041800000000000000000000000000000000000000000000000000000000000000000000000000000000000000000000000000000000000000000000000000000000000FF
:4041C00000000000000000000000000000000000000000000000000000000000000000000000000000000000000000000000000000000000000000000000000000000000BF
:40420000000000000000000000000000000000000000000000000000000000000000000000000000000000000000000000000000000000000000000000000000000000007E
:40424000000000000000000000000000000000000000000000000000000000000000000000000000000000000000000000000000000000000000000000000000000000003E
:020000040003F7
:0200000480007A
:4000000001450040084F00400752004004640040036500404400014034010140630201404B03014064040140410501404C0601404F070140600801403B090140010B0140B5
:40004000020D0140010F0140511401404E1501404616014050170140501801404A190140041A0140111B01400940014019410140154201400F430140014401400D450140CE
:4000800006460140074701400F48014016490140054C0140034D01400C5001407E0201100A1B0D1016361930223625402E2710081108182019286014611C7C40806F830FDA
:4000C000870F896F85388672890F0104040805010601086C0A020E80170318371B041E0F246C2601285B2A042C802F043101320F330234703680370438203E403F41540F07
:40010000580459045B045F0583108430850486C9872088CF89278A308F409121930294FD95219602970298739B079C949E609F08A49EA507A660A920AA0FAB04B0FFB30F16
:40014000B560B710BE01D608D804D904DB04DD90DF0100840308042408400A040C400E060F12120113181728182019401A041B181E802104224124022514260427342B02FD
:400180002E042F083008331036413728390A3A013C043E403F114808491059585A025C80612467017B10C067C2E3C467CA68CCF6CEF3D61FD816DE02E20802020301060484
:4001C0000B0518011D01200222042302300633013401350237043E103F044026410349FF4AFF4BFF4DA04F0150185280580459045A045B045C025F016040628064406540AE
:40020000668068406A806C406D206E808120850A8714891E9320940895189706980499149B0A9C069E099F01A50EA806A920AD06AF18B002B101B201B31EB404B520B60866
:40024000B822BE50BF10C032C106C54EC6C3C702C81FC9FFCAFFCBFFCDAFCE07CF01D018D40FD804D904DA04DB04DF01E040E280E440E540E680E840EA80EC40ED20EE80BB
:40028000066009800A140C2010081410170919401A101B321C48201021012210231025082690272029102A082B012E0C2F403090330A3680380439023B103C023D204108FB
:4002C00043204504472048C049144A044F20500851A058025AA47401854888208B409022928494049502964097109B049D0C9F08A114A204A308A448A520A703A880C03097
:40030000C247C412CA8ECC1FCEA7D066D224D60FE262E420E603000C02010C100EA01020110E121013F01410159616201768180C19A31A021B5C1C101E601F01200B21C5C5
:400340002204233A24072808297F2A012DFE2E0F2F0130303240340F35FF36803A023F10580459045F018002820585F3870489F38B088F0C915193A294029604980499302F
:400380009A029BC39C029E04A208A980AB22AD40AF11B208B3F0B406B601B70FBA20BB80C036C104C205C402C5E0C70CC812C9FFCAFFCBFFCC62CDA0CEF0CF41D00CD608F5
:4003C000D804D904DA04DB04DC20DD92DF01E640E702E910EA30EB10ED10EE10EF120102020204020A960E2A108912101680188019101A961B011C041D081E0A1F40212053
:4004000025402710280829032A102B022E202F013009315037113DA44440450447204C024D014F2056045D5066806708906293109404964097C098809A089B049E609F0908
:40044000A210A701A812B004B480C019C2EFC41FCA3DCCAFCE70D0E0D230D630D830EA2001B0034004C5063A07F008A30A5C0B040C0E0EF00F011102130414FE15C0160125
:40048000172018961A681B061DC01F102180231025702601287F2B082F0230FF3108330735F037073E013F445608580459045B045D905F01870F8C0D8E109001919492046A
:4004C0009360941C953097C999CF9A029B309DFD9F02A19EA360A411A604A973AA1DAC11AE08B01DB1FFB603BF01D401D604D804D904DB04DD20DF01030204A8060208094F
:4005000009200D080E080F101018120116081704180219411E40210224082602272A280829012A012E0A2F05309931103580371939083C053D803E2059025A185B405C9049
:4005400063406520666067026E806F01814084028601880189128C018D1990E491019318954496409742988099109A0C9B149C499D419E609F29A160A204A48AA514A60293
:40058000A712B118C0E1C26EC467CAF5CCFFCEF2D63FD831E8800208030105060718080209D40A040B0A0D0114021604180419BE1A02200221D822052306256E290A2B14EE
:4005C0002F013201331E34063501360837E039803A203F104023410449FF4AFF4BFF4DA04F0150185280580459045A045B045F016040628064406540668068406A806C4061
:400600006D206E8084018F029B01A202A601AD02B401B501B602B702BE10BF40C023C104C503C6C4C72EC83DC9FFCAFFCBFFCDAFCE07CF01D018D40FD804D904DA04DB0439
:40064000DF05E040E280E440E540E680E840EA80EC40ED20EE800008050207040E1410A0170119401A091C011E1420082240242625142680271029402C012D082E022F0940
:400680003020371039803C023E6440A444A045104640470848205080514A52105A8A5B206108621074017A808A048E229B01B301C054C260C41CCAF8CC24CEF8D0E7D60F82
:4006C000D806DE01E040E440E620EC20EA10E242E603E20804280513061307040E021016122913081513170C19201B051D031E161F042220262928282A152D0A2F14301B02
:4007000031303220330F340739023A223B083E0440354102450B46EC480D49FF4AFF4BFF4EF04F44500C580459045A045C225D025F0166C06A406B028001840185048A022A
:400740008C088F0191049504960499049E029F02A204A401B002B204B304B401B501B608B702BE45BF04D418D604D804D904DB04DC02DD20DF0100840402060607100A428B
:400780000D080E0110A0120815011704180C1A401B091FA521042209254026142B0130A03209350536A038083D803E04400441044A024B04508051505E026480670A7B304A
:4007C000800483808480860289408A088B018F48900291019205940495A09642970499059A049B149F40A060A108A2A3A61CA710A902AC88AD04C0F5C2A9C43ECA08CCFFAD
:40080000CE52D006D208D680D8B0E240E401E801EA0A00FF0104043C050206C108080B090E0C100411091208150716C31718187C19191A821B061CCF1D1F1E30200424101A
:4008400025062719283029062C20310832B03310343F3507367039083A283B2056025712580459045B045C225D205F01840C861189018A038C10901C920298149C099E103C
:40088000A502A810AA0CB21FB301B702BA02BF44D608D804D904DB04DC02DD90DF010094044005250A420B040D800E840F201208140416411728181019091D041E0522441E
:4008C0002508262129082C042E04344035043620370239303E0A3F2058805E086280644065016C016D246F14760B77287D087E2080208180822288408E4090409101959C49
:40090000960999209A449B029C409F40A102A240A408A514A610A710A898A940AA10AB02B210B411B580C0F7C2FBC4F2CA62CCF0CEE4D648D808E201E610EA04EE050010FA
:4009400002200302040708070B010E04110612401424161018011A021C101E202106220724012602281029042A202E08304032303306340F350139083A083F04400246401E
:4009800049FF4A074BFF4C404D204EF04F055008580459045A045B045D025F01604061A86240632081048D028E019002910492049302980199049C019F01A101A402AF010E
:4009C000B004B102B401B504B602B701B880B920BE10BF51D40FD804D904DB04DF01018004210508060A084009220A010C010D080E040F021020158016601720184019D02F
:400A00001D281E401F0822412308271428402A402F4430203142340238423E103F0147104F01561059185A805B026D50830189108A108E02902392159642980199089A22FC
:400A40009E409F0CA020A102A301A708A801A90CAD02AF20B102B301B701C0F1C2FBC4F4CAA9CC8DCEA9D020D60FE010E630E8C0EE0139023F0159045F01220280028B6494
:400A80008D40914097889C029F20A602A940AD28AE40B608B702E080E240E4A0318032023580360439408580CCF0CE10E210000207400A8030103208340835203A40818014
:400AC0008622884089208D0895409F40A580A606AB40C030C210CCF0CE10E240E6C0EC8012081408324035083620530854409280954099089C189E40A001A220A308A44012
:400B0000A60CB308C4C0CCB0D4601B011C8062027E02810295409C109E40A440A604B001C630D840DE20E4208710012008020B020E805C80824086448F019710C002C20EB9
:400B4000D604E2029684971098029C80B520EA080A840F109684971098029C80C20E0240030805026B046F048E028F0495409C109D029E40A301A606C070DAC001400E08BD
:400B80005A20630264088008841087018E1095409C10A301A604AF08C040C280D480D640D880E410E660EC4088018C809C80A802E0097401A001DE0400050101080509015E
:400BC0000A050B010C01100511011A051B011C05EABEAE08000000001300000000000000001C1C001C0000004000073838000000C0000000000B0B00000000000800740A72
:400C00000A00080000000000847B7B0038000000000000000000000000000000000000000000000000000000000000000000000000000000000000000000000000000000F0
:400C40000000000000000000000000000000000000000000000000000000000000000000000000000000000000000000000000000000000000000000000000000000000074
:400C80000000000000000000000000000000000000000000000000000000000000000000000000000000000000000000000000000000000000000000000000000000000034
:400CC00000000000000000000000000000000000000000000000000000000000000000000000000000000000000000000000000000000000000000000000000000000000F4
:400D000000000000000000000000000000000000000000000000000000000000000000000000000000000000000000000000000000000000000000000000000000000000B3
:0200000490006A
:0400000000004007B5
:0200000490105A
:04000000BC90ACAF55
:0200000490303A
:020000003CF4CE
:0200000490402A
:4000000000000000000000000000000000000000000000000000000000000000000000000000000000000000000000000000000000000000000000000000000000000000C0
:400040000000000000000000000000000000000000000000000000000000000000000000000000000000000000000000000000000000000000000000000000000000000080
:400080000000000000000000000000000000000000000000000000000000000000000000000000000000000000000000000000000000000000000000000000000000000040
:4000C0000000000000000000000000000000000000000000000000000000000000000000000000000000000000000000000000000000000000000000000000000000000000
:0200000490501A
:0C00000000012E16106900012E324D5D2B
:00000001FF